{
	"Prueba_Subasta.sol": {
		"Subasta": {
			"abi": [
				{
					"inputs": [],
					"stateMutability": "nonpayable",
					"type": "constructor"
				},
				{
					"inputs": [],
					"name": "fechaInicio",
					"outputs": [
						{
							"internalType": "uint256",
							"name": "",
							"type": "uint256"
						}
					],
					"stateMutability": "view",
					"type": "function"
				},
				{
					"inputs": [],
					"name": "finalizarSubasta",
					"outputs": [],
					"stateMutability": "nonpayable",
					"type": "function"
				},
				{
					"inputs": [],
					"name": "getMoayorOferta",
					"outputs": [
						{
							"internalType": "uint256",
							"name": "",
							"type": "uint256"
						}
					],
					"stateMutability": "view",
					"type": "function"
				},
				{
					"inputs": [],
					"name": "getOferenteGanador",
					"outputs": [
						{
							"internalType": "address",
							"name": "",
							"type": "address"
						}
					],
					"stateMutability": "view",
					"type": "function"
				},
				{
					"inputs": [],
					"name": "setOferta",
					"outputs": [],
					"stateMutability": "payable",
					"type": "function"
				},
				{
					"inputs": [],
					"name": "tiempoDuracion",
					"outputs": [
						{
							"internalType": "uint256",
							"name": "",
							"type": "uint256"
						}
					],
					"stateMutability": "view",
					"type": "function"
				},
				{
					"inputs": [],
					"name": "valorInicial",
					"outputs": [
						{
							"internalType": "uint256",
							"name": "",
							"type": "uint256"
						}
					],
					"stateMutability": "view",
					"type": "function"
				},
				{
					"inputs": [
						{
							"internalType": "address",
							"name": "",
							"type": "address"
						}
					],
					"name": "valorMetido",
					"outputs": [
						{
							"internalType": "uint256",
							"name": "",
							"type": "uint256"
						}
					],
					"stateMutability": "view",
					"type": "function"
				}
			],
			"devdoc": {
				"kind": "dev",
				"methods": {},
				"version": 1
			},
			"evm": {
				"assembly": "    /* \"Prueba_Subasta.sol\":67:1456  contract Subasta {... */\n  mstore(0x40, 0x80)\n    /* \"Prueba_Subasta.sol\":381:550  constructor() {... */\n  callvalue\n  dup1\n  iszero\n  tag_1\n  jumpi\n  0x00\n  dup1\n  revert\ntag_1:\n  pop\n    /* \"Prueba_Subasta.sol\":413:423  msg.sender */\n  caller\n    /* \"Prueba_Subasta.sol\":406:411  owner */\n  0x05\n  0x00\n    /* \"Prueba_Subasta.sol\":406:423  owner =msg.sender */\n  0x0100\n  exp\n  dup2\n  sload\n  dup2\n  0xffffffffffffffffffffffffffffffffffffffff\n  mul\n  not\n  and\n  swap1\n  dup4\n  0xffffffffffffffffffffffffffffffffffffffff\n  and\n  mul\n  or\n  swap1\n  sstore\n  pop\n    /* \"Prueba_Subasta.sol\":449:455  1 gwei */\n  0x3b9aca00\n    /* \"Prueba_Subasta.sol\":434:446  valorInicial */\n  0x00\n    /* \"Prueba_Subasta.sol\":434:455  valorInicial = 1 gwei */\n  dup2\n  swap1\n  sstore\n  pop\n    /* \"Prueba_Subasta.sol\":480:495  block.timestamp */\n  timestamp\n    /* \"Prueba_Subasta.sol\":466:477  fechaInicio */\n  0x01\n    /* \"Prueba_Subasta.sol\":466:495  fechaInicio = block.timestamp */\n  dup2\n  swap1\n  sstore\n  pop\n    /* \"Prueba_Subasta.sol\":536:542  7 days */\n  0x093a80\n    /* \"Prueba_Subasta.sol\":523:534  fechaInicio */\n  sload(0x01)\n    /* \"Prueba_Subasta.sol\":523:542  fechaInicio +7 days */\n  tag_4\n  swap2\n  swap1\n  tag_5\n  jump\t// in\ntag_4:\n    /* \"Prueba_Subasta.sol\":506:520  tiempoDuracion */\n  0x02\n    /* \"Prueba_Subasta.sol\":506:542  tiempoDuracion = fechaInicio +7 days */\n  dup2\n  swap1\n  sstore\n  pop\n    /* \"Prueba_Subasta.sol\":67:1456  contract Subasta {... */\n  jump(tag_6)\n    /* \"#utility.yul\":7:84   */\ntag_7:\n    /* \"#utility.yul\":44:51   */\n  0x00\n    /* \"#utility.yul\":73:78   */\n  dup2\n    /* \"#utility.yul\":62:78   */\n  swap1\n  pop\n    /* \"#utility.yul\":7:84   */\n  swap2\n  swap1\n  pop\n  jump\t// out\n    /* \"#utility.yul\":90:270   */\ntag_8:\n    /* \"#utility.yul\":138:215   */\n  0x4e487b7100000000000000000000000000000000000000000000000000000000\n    /* \"#utility.yul\":135:136   */\n  0x00\n    /* \"#utility.yul\":128:216   */\n  mstore\n    /* \"#utility.yul\":235:239   */\n  0x11\n    /* \"#utility.yul\":232:233   */\n  0x04\n    /* \"#utility.yul\":225:240   */\n  mstore\n    /* \"#utility.yul\":259:263   */\n  0x24\n    /* \"#utility.yul\":256:257   */\n  0x00\n    /* \"#utility.yul\":249:264   */\n  revert\n    /* \"#utility.yul\":276:467   */\ntag_5:\n    /* \"#utility.yul\":316:319   */\n  0x00\n    /* \"#utility.yul\":335:355   */\n  tag_13\n    /* \"#utility.yul\":353:354   */\n  dup3\n    /* \"#utility.yul\":335:355   */\n  tag_7\n  jump\t// in\ntag_13:\n    /* \"#utility.yul\":330:355   */\n  swap2\n  pop\n    /* \"#utility.yul\":369:389   */\n  tag_14\n    /* \"#utility.yul\":387:388   */\n  dup4\n    /* \"#utility.yul\":369:389   */\n  tag_7\n  jump\t// in\ntag_14:\n    /* \"#utility.yul\":364:389   */\n  swap3\n  pop\n    /* \"#utility.yul\":412:413   */\n  dup3\n    /* \"#utility.yul\":409:410   */\n  dup3\n    /* \"#utility.yul\":405:414   */\n  add\n    /* \"#utility.yul\":398:414   */\n  swap1\n  pop\n    /* \"#utility.yul\":433:436   */\n  dup1\n    /* \"#utility.yul\":430:431   */\n  dup3\n    /* \"#utility.yul\":427:437   */\n  gt\n    /* \"#utility.yul\":424:460   */\n  iszero\n  tag_15\n  jumpi\n    /* \"#utility.yul\":440:458   */\n  tag_16\n  tag_8\n  jump\t// in\ntag_16:\n    /* \"#utility.yul\":424:460   */\ntag_15:\n    /* \"#utility.yul\":276:467   */\n  swap3\n  swap2\n  pop\n  pop\n  jump\t// out\n    /* \"Prueba_Subasta.sol\":67:1456  contract Subasta {... */\ntag_6:\n  dataSize(sub_0)\n  dup1\n  dataOffset(sub_0)\n  0x00\n  codecopy\n  0x00\n  return\nstop\n\nsub_0: assembly {\n        /* \"Prueba_Subasta.sol\":67:1456  contract Subasta {... */\n      mstore(0x40, 0x80)\n      jumpi(tag_1, lt(calldatasize, 0x04))\n      shr(0xe0, calldataload(0x00))\n      dup1\n      0x83f28094\n      gt\n      tag_10\n      jumpi\n      dup1\n      0x83f28094\n      eq\n      tag_6\n      jumpi\n      dup1\n      0x86549369\n      eq\n      tag_7\n      jumpi\n      dup1\n      0xe8d1cd5b\n      eq\n      tag_8\n      jumpi\n      dup1\n      0xfc373179\n      eq\n      tag_9\n      jumpi\n      jump(tag_1)\n    tag_10:\n      dup1\n      0x0851eac2\n      eq\n      tag_2\n      jumpi\n      dup1\n      0x209e1d46\n      eq\n      tag_3\n      jumpi\n      dup1\n      0x3483b353\n      eq\n      tag_4\n      jumpi\n      dup1\n      0x3f0cc5e8\n      eq\n      tag_5\n      jumpi\n    tag_1:\n      0x00\n      dup1\n      revert\n        /* \"Prueba_Subasta.sol\":1321:1453  function finalizarSubasta() external  {... */\n    tag_2:\n      callvalue\n      dup1\n      iszero\n      tag_11\n      jumpi\n      0x00\n      dup1\n      revert\n    tag_11:\n      pop\n      tag_12\n      tag_13\n      jump\t// in\n    tag_12:\n      stop\n        /* \"Prueba_Subasta.sol\":558:662  function getOferenteGanador() external view returns (address) {... */\n    tag_3:\n      callvalue\n      dup1\n      iszero\n      tag_14\n      jumpi\n      0x00\n      dup1\n      revert\n    tag_14:\n      pop\n      tag_15\n      tag_16\n      jump\t// in\n    tag_15:\n      mload(0x40)\n      tag_17\n      swap2\n      swap1\n      tag_18\n      jump\t// in\n    tag_17:\n      mload(0x40)\n      dup1\n      swap2\n      sub\n      swap1\n      return\n        /* \"Prueba_Subasta.sol\":325:372  mapping (address => uint256) public valorMetido */\n    tag_4:\n      callvalue\n      dup1\n      iszero\n      tag_19\n      jumpi\n      0x00\n      dup1\n      revert\n    tag_19:\n      pop\n      tag_20\n      0x04\n      dup1\n      calldatasize\n      sub\n      dup2\n      add\n      swap1\n      tag_21\n      swap2\n      swap1\n      tag_22\n      jump\t// in\n    tag_21:\n      tag_23\n      jump\t// in\n    tag_20:\n      mload(0x40)\n      tag_24\n      swap2\n      swap1\n      tag_25\n      jump\t// in\n    tag_24:\n      mload(0x40)\n      dup1\n      swap2\n      sub\n      swap1\n      return\n        /* \"Prueba_Subasta.sol\":774:1313  function setOferta() external payable {... */\n    tag_5:\n      tag_26\n      tag_27\n      jump\t// in\n    tag_26:\n      stop\n        /* \"Prueba_Subasta.sol\":91:118  uint256 public valorInicial */\n    tag_6:\n      callvalue\n      dup1\n      iszero\n      tag_28\n      jumpi\n      0x00\n      dup1\n      revert\n    tag_28:\n      pop\n      tag_29\n      tag_30\n      jump\t// in\n    tag_29:\n      mload(0x40)\n      tag_31\n      swap2\n      swap1\n      tag_25\n      jump\t// in\n    tag_31:\n      mload(0x40)\n      dup1\n      swap2\n      sub\n      swap1\n      return\n        /* \"Prueba_Subasta.sol\":158:188  uint256 public  tiempoDuracion */\n    tag_7:\n      callvalue\n      dup1\n      iszero\n      tag_32\n      jumpi\n      0x00\n      dup1\n      revert\n    tag_32:\n      pop\n      tag_33\n      tag_34\n      jump\t// in\n    tag_33:\n      mload(0x40)\n      tag_35\n      swap2\n      swap1\n      tag_25\n      jump\t// in\n    tag_35:\n      mload(0x40)\n      dup1\n      swap2\n      sub\n      swap1\n      return\n        /* \"Prueba_Subasta.sol\":670:766  function getMoayorOferta() external view returns (uint256) {... */\n    tag_8:\n      callvalue\n      dup1\n      iszero\n      tag_36\n      jumpi\n      0x00\n      dup1\n      revert\n    tag_36:\n      pop\n      tag_37\n      tag_38\n      jump\t// in\n    tag_37:\n      mload(0x40)\n      tag_39\n      swap2\n      swap1\n      tag_25\n      jump\t// in\n    tag_39:\n      mload(0x40)\n      dup1\n      swap2\n      sub\n      swap1\n      return\n        /* \"Prueba_Subasta.sol\":125:151  uint256 public fechaInicio */\n    tag_9:\n      callvalue\n      dup1\n      iszero\n      tag_40\n      jumpi\n      0x00\n      dup1\n      revert\n    tag_40:\n      pop\n      tag_41\n      tag_42\n      jump\t// in\n    tag_41:\n      mload(0x40)\n      tag_43\n      swap2\n      swap1\n      tag_25\n      jump\t// in\n    tag_43:\n      mload(0x40)\n      dup1\n      swap2\n      sub\n      swap1\n      return\n        /* \"Prueba_Subasta.sol\":1321:1453  function finalizarSubasta() external  {... */\n    tag_13:\n        /* \"Prueba_Subasta.sol\":1385:1395  msg.sender */\n      caller\n        /* \"Prueba_Subasta.sol\":1378:1395  owner==msg.sender */\n      0xffffffffffffffffffffffffffffffffffffffff\n      and\n        /* \"Prueba_Subasta.sol\":1378:1383  owner */\n      0x05\n      0x00\n      swap1\n      sload\n      swap1\n      0x0100\n      exp\n      swap1\n      div\n      0xffffffffffffffffffffffffffffffffffffffff\n      and\n        /* \"Prueba_Subasta.sol\":1378:1395  owner==msg.sender */\n      0xffffffffffffffffffffffffffffffffffffffff\n      and\n      eq\n        /* \"Prueba_Subasta.sol\":1370:1422  require(owner==msg.sender,\"Usted no tiene permisos\") */\n      tag_45\n      jumpi\n      mload(0x40)\n      0x08c379a000000000000000000000000000000000000000000000000000000000\n      dup2\n      mstore\n      0x04\n      add\n      tag_46\n      swap1\n      tag_47\n      jump\t// in\n    tag_46:\n      mload(0x40)\n      dup1\n      swap2\n      sub\n      swap1\n      revert\n    tag_45:\n        /* \"Prueba_Subasta.sol\":1444:1445  1 */\n      0x01\n        /* \"Prueba_Subasta.sol\":1433:1441  semaforo */\n      0x05\n      0x14\n        /* \"Prueba_Subasta.sol\":1433:1445  semaforo = 1 */\n      0x0100\n      exp\n      dup2\n      sload\n      dup2\n      0xff\n      mul\n      not\n      and\n      swap1\n      dup4\n      0xff\n      and\n      mul\n      or\n      swap1\n      sstore\n      pop\n        /* \"Prueba_Subasta.sol\":1321:1453  function finalizarSubasta() external  {... */\n      jump\t// out\n        /* \"Prueba_Subasta.sol\":558:662  function getOferenteGanador() external view returns (address) {... */\n    tag_16:\n        /* \"Prueba_Subasta.sol\":611:618  address */\n      0x00\n        /* \"Prueba_Subasta.sol\":638:654  ofertanteGanador */\n      0x04\n      0x00\n      swap1\n      sload\n      swap1\n      0x0100\n      exp\n      swap1\n      div\n      0xffffffffffffffffffffffffffffffffffffffff\n      and\n        /* \"Prueba_Subasta.sol\":631:654  return ofertanteGanador */\n      swap1\n      pop\n        /* \"Prueba_Subasta.sol\":558:662  function getOferenteGanador() external view returns (address) {... */\n      swap1\n      jump\t// out\n        /* \"Prueba_Subasta.sol\":325:372  mapping (address => uint256) public valorMetido */\n    tag_23:\n      mstore(0x20, 0x06)\n      dup1\n      0x00\n      mstore\n      keccak256(0x00, 0x40)\n      0x00\n      swap2\n      pop\n      swap1\n      pop\n      sload\n      dup2\n      jump\t// out\n        /* \"Prueba_Subasta.sol\":774:1313  function setOferta() external payable {... */\n    tag_27:\n        /* \"Prueba_Subasta.sol\":841:842  0 */\n      0x00\n        /* \"Prueba_Subasta.sol\":831:839  semaforo */\n      0x05\n      0x14\n      swap1\n      sload\n      swap1\n      0x0100\n      exp\n      swap1\n      div\n      0xff\n      and\n        /* \"Prueba_Subasta.sol\":831:842  semaforo==0 */\n      0xff\n      and\n      eq\n        /* \"Prueba_Subasta.sol\":823:870  require(semaforo==0,\"La subasta ha finalizado\") */\n      tag_50\n      jumpi\n      mload(0x40)\n      0x08c379a000000000000000000000000000000000000000000000000000000000\n      dup2\n      mstore\n      0x04\n      add\n      tag_51\n      swap1\n      tag_52\n      jump\t// in\n    tag_51:\n      mload(0x40)\n      dup1\n      swap2\n      sub\n      swap1\n      revert\n    tag_50:\n        /* \"Prueba_Subasta.sol\":881:903  uint256 _valorOfertado */\n      0x00\n        /* \"Prueba_Subasta.sol\":906:915  msg.value */\n      callvalue\n        /* \"Prueba_Subasta.sol\":881:915  uint256 _valorOfertado = msg.value */\n      swap1\n      pop\n        /* \"Prueba_Subasta.sol\":949:961  valorInicial */\n      sload(0x00)\n        /* \"Prueba_Subasta.sol\":934:948  _valorOfertado */\n      dup2\n        /* \"Prueba_Subasta.sol\":934:961  _valorOfertado>valorInicial */\n      gt\n        /* \"Prueba_Subasta.sol\":926:993  require(_valorOfertado>valorInicial,\"El valor es menor al inicial\") */\n      tag_53\n      jumpi\n      mload(0x40)\n      0x08c379a000000000000000000000000000000000000000000000000000000000\n      dup2\n      mstore\n      0x04\n      add\n      tag_54\n      swap1\n      tag_55\n      jump\t// in\n    tag_54:\n      mload(0x40)\n      dup1\n      swap2\n      sub\n      swap1\n      revert\n    tag_53:\n        /* \"Prueba_Subasta.sol\":1024:1035  mayorOferta */\n      sload(0x03)\n        /* \"Prueba_Subasta.sol\":1007:1021  _valorOfertado */\n      dup2\n        /* \"Prueba_Subasta.sol\":1007:1035  _valorOfertado > mayorOferta */\n      gt\n        /* \"Prueba_Subasta.sol\":1004:1306  if(_valorOfertado > mayorOferta) {... */\n      iszero\n      tag_56\n      jumpi\n        /* \"Prueba_Subasta.sol\":1052:1073  address _addrOferente */\n      0x00\n        /* \"Prueba_Subasta.sol\":1076:1086  msg.sender */\n      caller\n        /* \"Prueba_Subasta.sol\":1052:1086  address _addrOferente = msg.sender */\n      swap1\n      pop\n        /* \"Prueba_Subasta.sol\":1115:1129  _valorOfertado */\n      dup2\n        /* \"Prueba_Subasta.sol\":1101:1112  mayorOferta */\n      0x03\n        /* \"Prueba_Subasta.sol\":1101:1129  mayorOferta = _valorOfertado */\n      dup2\n      swap1\n      sstore\n      pop\n        /* \"Prueba_Subasta.sol\":1163:1176  _addrOferente */\n      dup1\n        /* \"Prueba_Subasta.sol\":1144:1160  ofertanteGanador */\n      0x04\n      0x00\n        /* \"Prueba_Subasta.sol\":1144:1176  ofertanteGanador = _addrOferente */\n      0x0100\n      exp\n      dup2\n      sload\n      dup2\n      0xffffffffffffffffffffffffffffffffffffffff\n      mul\n      not\n      and\n      swap1\n      dup4\n      0xffffffffffffffffffffffffffffffffffffffff\n      and\n      mul\n      or\n      swap1\n      sstore\n      pop\n        /* \"Prueba_Subasta.sol\":1221:1235  _valorOfertado */\n      dup2\n        /* \"Prueba_Subasta.sol\":1191:1202  valorMetido */\n      0x06\n        /* \"Prueba_Subasta.sol\":1191:1217  valorMetido[_addrOferente] */\n      0x00\n        /* \"Prueba_Subasta.sol\":1203:1216  _addrOferente */\n      dup4\n        /* \"Prueba_Subasta.sol\":1191:1217  valorMetido[_addrOferente] */\n      0xffffffffffffffffffffffffffffffffffffffff\n      and\n      0xffffffffffffffffffffffffffffffffffffffff\n      and\n      dup2\n      mstore\n      0x20\n      add\n      swap1\n      dup2\n      mstore\n      0x20\n      add\n      0x00\n      keccak256\n      0x00\n        /* \"Prueba_Subasta.sol\":1191:1235  valorMetido[_addrOferente] += _valorOfertado */\n      dup3\n      dup3\n      sload\n      tag_57\n      swap2\n      swap1\n      tag_58\n      jump\t// in\n    tag_57:\n      swap3\n      pop\n      pop\n      dup2\n      swap1\n      sstore\n      pop\n        /* \"Prueba_Subasta.sol\":1037:1247  {... */\n      pop\n        /* \"Prueba_Subasta.sol\":1004:1306  if(_valorOfertado > mayorOferta) {... */\n      jump(tag_59)\n    tag_56:\n        /* \"Prueba_Subasta.sol\":1266:1294  revert(\"No supera el valor\") */\n      mload(0x40)\n      0x08c379a000000000000000000000000000000000000000000000000000000000\n      dup2\n      mstore\n      0x04\n      add\n      tag_60\n      swap1\n      tag_61\n      jump\t// in\n    tag_60:\n      mload(0x40)\n      dup1\n      swap2\n      sub\n      swap1\n      revert\n        /* \"Prueba_Subasta.sol\":1004:1306  if(_valorOfertado > mayorOferta) {... */\n    tag_59:\n        /* \"Prueba_Subasta.sol\":812:1313  {... */\n      pop\n        /* \"Prueba_Subasta.sol\":774:1313  function setOferta() external payable {... */\n      jump\t// out\n        /* \"Prueba_Subasta.sol\":91:118  uint256 public valorInicial */\n    tag_30:\n      sload(0x00)\n      dup2\n      jump\t// out\n        /* \"Prueba_Subasta.sol\":158:188  uint256 public  tiempoDuracion */\n    tag_34:\n      sload(0x02)\n      dup2\n      jump\t// out\n        /* \"Prueba_Subasta.sol\":670:766  function getMoayorOferta() external view returns (uint256) {... */\n    tag_38:\n        /* \"Prueba_Subasta.sol\":720:727  uint256 */\n      0x00\n        /* \"Prueba_Subasta.sol\":747:758  mayorOferta */\n      sload(0x03)\n        /* \"Prueba_Subasta.sol\":740:758  return mayorOferta */\n      swap1\n      pop\n        /* \"Prueba_Subasta.sol\":670:766  function getMoayorOferta() external view returns (uint256) {... */\n      swap1\n      jump\t// out\n        /* \"Prueba_Subasta.sol\":125:151  uint256 public fechaInicio */\n    tag_42:\n      sload(0x01)\n      dup2\n      jump\t// out\n        /* \"#utility.yul\":7:133   */\n    tag_63:\n        /* \"#utility.yul\":44:51   */\n      0x00\n        /* \"#utility.yul\":84:126   */\n      0xffffffffffffffffffffffffffffffffffffffff\n        /* \"#utility.yul\":77:82   */\n      dup3\n        /* \"#utility.yul\":73:127   */\n      and\n        /* \"#utility.yul\":62:127   */\n      swap1\n      pop\n        /* \"#utility.yul\":7:133   */\n      swap2\n      swap1\n      pop\n      jump\t// out\n        /* \"#utility.yul\":139:235   */\n    tag_64:\n        /* \"#utility.yul\":176:183   */\n      0x00\n        /* \"#utility.yul\":205:229   */\n      tag_86\n        /* \"#utility.yul\":223:228   */\n      dup3\n        /* \"#utility.yul\":205:229   */\n      tag_63\n      jump\t// in\n    tag_86:\n        /* \"#utility.yul\":194:229   */\n      swap1\n      pop\n        /* \"#utility.yul\":139:235   */\n      swap2\n      swap1\n      pop\n      jump\t// out\n        /* \"#utility.yul\":241:359   */\n    tag_65:\n        /* \"#utility.yul\":328:352   */\n      tag_88\n        /* \"#utility.yul\":346:351   */\n      dup2\n        /* \"#utility.yul\":328:352   */\n      tag_64\n      jump\t// in\n    tag_88:\n        /* \"#utility.yul\":323:326   */\n      dup3\n        /* \"#utility.yul\":316:353   */\n      mstore\n        /* \"#utility.yul\":241:359   */\n      pop\n      pop\n      jump\t// out\n        /* \"#utility.yul\":365:587   */\n    tag_18:\n        /* \"#utility.yul\":458:462   */\n      0x00\n        /* \"#utility.yul\":496:498   */\n      0x20\n        /* \"#utility.yul\":485:494   */\n      dup3\n        /* \"#utility.yul\":481:499   */\n      add\n        /* \"#utility.yul\":473:499   */\n      swap1\n      pop\n        /* \"#utility.yul\":509:580   */\n      tag_90\n        /* \"#utility.yul\":577:578   */\n      0x00\n        /* \"#utility.yul\":566:575   */\n      dup4\n        /* \"#utility.yul\":562:579   */\n      add\n        /* \"#utility.yul\":553:559   */\n      dup5\n        /* \"#utility.yul\":509:580   */\n      tag_65\n      jump\t// in\n    tag_90:\n        /* \"#utility.yul\":365:587   */\n      swap3\n      swap2\n      pop\n      pop\n      jump\t// out\n        /* \"#utility.yul\":674:791   */\n    tag_67:\n        /* \"#utility.yul\":783:784   */\n      0x00\n        /* \"#utility.yul\":780:781   */\n      dup1\n        /* \"#utility.yul\":773:785   */\n      revert\n        /* \"#utility.yul\":920:1042   */\n    tag_69:\n        /* \"#utility.yul\":993:1017   */\n      tag_95\n        /* \"#utility.yul\":1011:1016   */\n      dup2\n        /* \"#utility.yul\":993:1017   */\n      tag_64\n      jump\t// in\n    tag_95:\n        /* \"#utility.yul\":986:991   */\n      dup2\n        /* \"#utility.yul\":983:1018   */\n      eq\n        /* \"#utility.yul\":973:1036   */\n      tag_96\n      jumpi\n        /* \"#utility.yul\":1032:1033   */\n      0x00\n        /* \"#utility.yul\":1029:1030   */\n      dup1\n        /* \"#utility.yul\":1022:1034   */\n      revert\n        /* \"#utility.yul\":973:1036   */\n    tag_96:\n        /* \"#utility.yul\":920:1042   */\n      pop\n      jump\t// out\n        /* \"#utility.yul\":1048:1187   */\n    tag_70:\n        /* \"#utility.yul\":1094:1099   */\n      0x00\n        /* \"#utility.yul\":1132:1138   */\n      dup2\n        /* \"#utility.yul\":1119:1139   */\n      calldataload\n        /* \"#utility.yul\":1110:1139   */\n      swap1\n      pop\n        /* \"#utility.yul\":1148:1181   */\n      tag_98\n        /* \"#utility.yul\":1175:1180   */\n      dup2\n        /* \"#utility.yul\":1148:1181   */\n      tag_69\n      jump\t// in\n    tag_98:\n        /* \"#utility.yul\":1048:1187   */\n      swap3\n      swap2\n      pop\n      pop\n      jump\t// out\n        /* \"#utility.yul\":1193:1522   */\n    tag_22:\n        /* \"#utility.yul\":1252:1258   */\n      0x00\n        /* \"#utility.yul\":1301:1303   */\n      0x20\n        /* \"#utility.yul\":1289:1298   */\n      dup3\n        /* \"#utility.yul\":1280:1287   */\n      dup5\n        /* \"#utility.yul\":1276:1299   */\n      sub\n        /* \"#utility.yul\":1272:1304   */\n      slt\n        /* \"#utility.yul\":1269:1388   */\n      iszero\n      tag_100\n      jumpi\n        /* \"#utility.yul\":1307:1386   */\n      tag_101\n      tag_67\n      jump\t// in\n    tag_101:\n        /* \"#utility.yul\":1269:1388   */\n    tag_100:\n        /* \"#utility.yul\":1427:1428   */\n      0x00\n        /* \"#utility.yul\":1452:1505   */\n      tag_102\n        /* \"#utility.yul\":1497:1504   */\n      dup5\n        /* \"#utility.yul\":1488:1494   */\n      dup3\n        /* \"#utility.yul\":1477:1486   */\n      dup6\n        /* \"#utility.yul\":1473:1495   */\n      add\n        /* \"#utility.yul\":1452:1505   */\n      tag_70\n      jump\t// in\n    tag_102:\n        /* \"#utility.yul\":1442:1505   */\n      swap2\n      pop\n        /* \"#utility.yul\":1398:1515   */\n      pop\n        /* \"#utility.yul\":1193:1522   */\n      swap3\n      swap2\n      pop\n      pop\n      jump\t// out\n        /* \"#utility.yul\":1528:1605   */\n    tag_71:\n        /* \"#utility.yul\":1565:1572   */\n      0x00\n        /* \"#utility.yul\":1594:1599   */\n      dup2\n        /* \"#utility.yul\":1583:1599   */\n      swap1\n      pop\n        /* \"#utility.yul\":1528:1605   */\n      swap2\n      swap1\n      pop\n      jump\t// out\n        /* \"#utility.yul\":1611:1729   */\n    tag_72:\n        /* \"#utility.yul\":1698:1722   */\n      tag_105\n        /* \"#utility.yul\":1716:1721   */\n      dup2\n        /* \"#utility.yul\":1698:1722   */\n      tag_71\n      jump\t// in\n    tag_105:\n        /* \"#utility.yul\":1693:1696   */\n      dup3\n        /* \"#utility.yul\":1686:1723   */\n      mstore\n        /* \"#utility.yul\":1611:1729   */\n      pop\n      pop\n      jump\t// out\n        /* \"#utility.yul\":1735:1957   */\n    tag_25:\n        /* \"#utility.yul\":1828:1832   */\n      0x00\n        /* \"#utility.yul\":1866:1868   */\n      0x20\n        /* \"#utility.yul\":1855:1864   */\n      dup3\n        /* \"#utility.yul\":1851:1869   */\n      add\n        /* \"#utility.yul\":1843:1869   */\n      swap1\n      pop\n        /* \"#utility.yul\":1879:1950   */\n      tag_107\n        /* \"#utility.yul\":1947:1948   */\n      0x00\n        /* \"#utility.yul\":1936:1945   */\n      dup4\n        /* \"#utility.yul\":1932:1949   */\n      add\n        /* \"#utility.yul\":1923:1929   */\n      dup5\n        /* \"#utility.yul\":1879:1950   */\n      tag_72\n      jump\t// in\n    tag_107:\n        /* \"#utility.yul\":1735:1957   */\n      swap3\n      swap2\n      pop\n      pop\n      jump\t// out\n        /* \"#utility.yul\":1963:2132   */\n    tag_73:\n        /* \"#utility.yul\":2047:2058   */\n      0x00\n        /* \"#utility.yul\":2081:2087   */\n      dup3\n        /* \"#utility.yul\":2076:2079   */\n      dup3\n        /* \"#utility.yul\":2069:2088   */\n      mstore\n        /* \"#utility.yul\":2121:2125   */\n      0x20\n        /* \"#utility.yul\":2116:2119   */\n      dup3\n        /* \"#utility.yul\":2112:2126   */\n      add\n        /* \"#utility.yul\":2097:2126   */\n      swap1\n      pop\n        /* \"#utility.yul\":1963:2132   */\n      swap3\n      swap2\n      pop\n      pop\n      jump\t// out\n        /* \"#utility.yul\":2138:2311   */\n    tag_74:\n        /* \"#utility.yul\":2278:2303   */\n      0x5573746564206e6f207469656e65207065726d69736f73000000000000000000\n        /* \"#utility.yul\":2274:2275   */\n      0x00\n        /* \"#utility.yul\":2266:2272   */\n      dup3\n        /* \"#utility.yul\":2262:2276   */\n      add\n        /* \"#utility.yul\":2255:2304   */\n      mstore\n        /* \"#utility.yul\":2138:2311   */\n      pop\n      jump\t// out\n        /* \"#utility.yul\":2317:2683   */\n    tag_75:\n        /* \"#utility.yul\":2459:2462   */\n      0x00\n        /* \"#utility.yul\":2480:2547   */\n      tag_111\n        /* \"#utility.yul\":2544:2546   */\n      0x17\n        /* \"#utility.yul\":2539:2542   */\n      dup4\n        /* \"#utility.yul\":2480:2547   */\n      tag_73\n      jump\t// in\n    tag_111:\n        /* \"#utility.yul\":2473:2547   */\n      swap2\n      pop\n        /* \"#utility.yul\":2556:2649   */\n      tag_112\n        /* \"#utility.yul\":2645:2648   */\n      dup3\n        /* \"#utility.yul\":2556:2649   */\n      tag_74\n      jump\t// in\n    tag_112:\n        /* \"#utility.yul\":2674:2676   */\n      0x20\n        /* \"#utility.yul\":2669:2672   */\n      dup3\n        /* \"#utility.yul\":2665:2677   */\n      add\n        /* \"#utility.yul\":2658:2677   */\n      swap1\n      pop\n        /* \"#utility.yul\":2317:2683   */\n      swap2\n      swap1\n      pop\n      jump\t// out\n        /* \"#utility.yul\":2689:3108   */\n    tag_47:\n        /* \"#utility.yul\":2855:2859   */\n      0x00\n        /* \"#utility.yul\":2893:2895   */\n      0x20\n        /* \"#utility.yul\":2882:2891   */\n      dup3\n        /* \"#utility.yul\":2878:2896   */\n      add\n        /* \"#utility.yul\":2870:2896   */\n      swap1\n      pop\n        /* \"#utility.yul\":2942:2951   */\n      dup2\n        /* \"#utility.yul\":2936:2940   */\n      dup2\n        /* \"#utility.yul\":2932:2952   */\n      sub\n        /* \"#utility.yul\":2928:2929   */\n      0x00\n        /* \"#utility.yul\":2917:2926   */\n      dup4\n        /* \"#utility.yul\":2913:2930   */\n      add\n        /* \"#utility.yul\":2906:2953   */\n      mstore\n        /* \"#utility.yul\":2970:3101   */\n      tag_114\n        /* \"#utility.yul\":3096:3100   */\n      dup2\n        /* \"#utility.yul\":2970:3101   */\n      tag_75\n      jump\t// in\n    tag_114:\n        /* \"#utility.yul\":2962:3101   */\n      swap1\n      pop\n        /* \"#utility.yul\":2689:3108   */\n      swap2\n      swap1\n      pop\n      jump\t// out\n        /* \"#utility.yul\":3114:3288   */\n    tag_76:\n        /* \"#utility.yul\":3254:3280   */\n      0x4c6120737562617374612068612066696e616c697a61646f0000000000000000\n        /* \"#utility.yul\":3250:3251   */\n      0x00\n        /* \"#utility.yul\":3242:3248   */\n      dup3\n        /* \"#utility.yul\":3238:3252   */\n      add\n        /* \"#utility.yul\":3231:3281   */\n      mstore\n        /* \"#utility.yul\":3114:3288   */\n      pop\n      jump\t// out\n        /* \"#utility.yul\":3294:3660   */\n    tag_77:\n        /* \"#utility.yul\":3436:3439   */\n      0x00\n        /* \"#utility.yul\":3457:3524   */\n      tag_117\n        /* \"#utility.yul\":3521:3523   */\n      0x18\n        /* \"#utility.yul\":3516:3519   */\n      dup4\n        /* \"#utility.yul\":3457:3524   */\n      tag_73\n      jump\t// in\n    tag_117:\n        /* \"#utility.yul\":3450:3524   */\n      swap2\n      pop\n        /* \"#utility.yul\":3533:3626   */\n      tag_118\n        /* \"#utility.yul\":3622:3625   */\n      dup3\n        /* \"#utility.yul\":3533:3626   */\n      tag_76\n      jump\t// in\n    tag_118:\n        /* \"#utility.yul\":3651:3653   */\n      0x20\n        /* \"#utility.yul\":3646:3649   */\n      dup3\n        /* \"#utility.yul\":3642:3654   */\n      add\n        /* \"#utility.yul\":3635:3654   */\n      swap1\n      pop\n        /* \"#utility.yul\":3294:3660   */\n      swap2\n      swap1\n      pop\n      jump\t// out\n        /* \"#utility.yul\":3666:4085   */\n    tag_52:\n        /* \"#utility.yul\":3832:3836   */\n      0x00\n        /* \"#utility.yul\":3870:3872   */\n      0x20\n        /* \"#utility.yul\":3859:3868   */\n      dup3\n        /* \"#utility.yul\":3855:3873   */\n      add\n        /* \"#utility.yul\":3847:3873   */\n      swap1\n      pop\n        /* \"#utility.yul\":3919:3928   */\n      dup2\n        /* \"#utility.yul\":3913:3917   */\n      dup2\n        /* \"#utility.yul\":3909:3929   */\n      sub\n        /* \"#utility.yul\":3905:3906   */\n      0x00\n        /* \"#utility.yul\":3894:3903   */\n      dup4\n        /* \"#utility.yul\":3890:3907   */\n      add\n        /* \"#utility.yul\":3883:3930   */\n      mstore\n        /* \"#utility.yul\":3947:4078   */\n      tag_120\n        /* \"#utility.yul\":4073:4077   */\n      dup2\n        /* \"#utility.yul\":3947:4078   */\n      tag_77\n      jump\t// in\n    tag_120:\n        /* \"#utility.yul\":3939:4078   */\n      swap1\n      pop\n        /* \"#utility.yul\":3666:4085   */\n      swap2\n      swap1\n      pop\n      jump\t// out\n        /* \"#utility.yul\":4091:4269   */\n    tag_78:\n        /* \"#utility.yul\":4231:4261   */\n      0x456c2076616c6f72206573206d656e6f7220616c20696e696369616c00000000\n        /* \"#utility.yul\":4227:4228   */\n      0x00\n        /* \"#utility.yul\":4219:4225   */\n      dup3\n        /* \"#utility.yul\":4215:4229   */\n      add\n        /* \"#utility.yul\":4208:4262   */\n      mstore\n        /* \"#utility.yul\":4091:4269   */\n      pop\n      jump\t// out\n        /* \"#utility.yul\":4275:4641   */\n    tag_79:\n        /* \"#utility.yul\":4417:4420   */\n      0x00\n        /* \"#utility.yul\":4438:4505   */\n      tag_123\n        /* \"#utility.yul\":4502:4504   */\n      0x1c\n        /* \"#utility.yul\":4497:4500   */\n      dup4\n        /* \"#utility.yul\":4438:4505   */\n      tag_73\n      jump\t// in\n    tag_123:\n        /* \"#utility.yul\":4431:4505   */\n      swap2\n      pop\n        /* \"#utility.yul\":4514:4607   */\n      tag_124\n        /* \"#utility.yul\":4603:4606   */\n      dup3\n        /* \"#utility.yul\":4514:4607   */\n      tag_78\n      jump\t// in\n    tag_124:\n        /* \"#utility.yul\":4632:4634   */\n      0x20\n        /* \"#utility.yul\":4627:4630   */\n      dup3\n        /* \"#utility.yul\":4623:4635   */\n      add\n        /* \"#utility.yul\":4616:4635   */\n      swap1\n      pop\n        /* \"#utility.yul\":4275:4641   */\n      swap2\n      swap1\n      pop\n      jump\t// out\n        /* \"#utility.yul\":4647:5066   */\n    tag_55:\n        /* \"#utility.yul\":4813:4817   */\n      0x00\n        /* \"#utility.yul\":4851:4853   */\n      0x20\n        /* \"#utility.yul\":4840:4849   */\n      dup3\n        /* \"#utility.yul\":4836:4854   */\n      add\n        /* \"#utility.yul\":4828:4854   */\n      swap1\n      pop\n        /* \"#utility.yul\":4900:4909   */\n      dup2\n        /* \"#utility.yul\":4894:4898   */\n      dup2\n        /* \"#utility.yul\":4890:4910   */\n      sub\n        /* \"#utility.yul\":4886:4887   */\n      0x00\n        /* \"#utility.yul\":4875:4884   */\n      dup4\n        /* \"#utility.yul\":4871:4888   */\n      add\n        /* \"#utility.yul\":4864:4911   */\n      mstore\n        /* \"#utility.yul\":4928:5059   */\n      tag_126\n        /* \"#utility.yul\":5054:5058   */\n      dup2\n        /* \"#utility.yul\":4928:5059   */\n      tag_79\n      jump\t// in\n    tag_126:\n        /* \"#utility.yul\":4920:5059   */\n      swap1\n      pop\n        /* \"#utility.yul\":4647:5066   */\n      swap2\n      swap1\n      pop\n      jump\t// out\n        /* \"#utility.yul\":5072:5252   */\n    tag_80:\n        /* \"#utility.yul\":5120:5197   */\n      0x4e487b7100000000000000000000000000000000000000000000000000000000\n        /* \"#utility.yul\":5117:5118   */\n      0x00\n        /* \"#utility.yul\":5110:5198   */\n      mstore\n        /* \"#utility.yul\":5217:5221   */\n      0x11\n        /* \"#utility.yul\":5214:5215   */\n      0x04\n        /* \"#utility.yul\":5207:5222   */\n      mstore\n        /* \"#utility.yul\":5241:5245   */\n      0x24\n        /* \"#utility.yul\":5238:5239   */\n      0x00\n        /* \"#utility.yul\":5231:5246   */\n      revert\n        /* \"#utility.yul\":5258:5449   */\n    tag_58:\n        /* \"#utility.yul\":5298:5301   */\n      0x00\n        /* \"#utility.yul\":5317:5337   */\n      tag_129\n        /* \"#utility.yul\":5335:5336   */\n      dup3\n        /* \"#utility.yul\":5317:5337   */\n      tag_71\n      jump\t// in\n    tag_129:\n        /* \"#utility.yul\":5312:5337   */\n      swap2\n      pop\n        /* \"#utility.yul\":5351:5371   */\n      tag_130\n        /* \"#utility.yul\":5369:5370   */\n      dup4\n        /* \"#utility.yul\":5351:5371   */\n      tag_71\n      jump\t// in\n    tag_130:\n        /* \"#utility.yul\":5346:5371   */\n      swap3\n      pop\n        /* \"#utility.yul\":5394:5395   */\n      dup3\n        /* \"#utility.yul\":5391:5392   */\n      dup3\n        /* \"#utility.yul\":5387:5396   */\n      add\n        /* \"#utility.yul\":5380:5396   */\n      swap1\n      pop\n        /* \"#utility.yul\":5415:5418   */\n      dup1\n        /* \"#utility.yul\":5412:5413   */\n      dup3\n        /* \"#utility.yul\":5409:5419   */\n      gt\n        /* \"#utility.yul\":5406:5442   */\n      iszero\n      tag_131\n      jumpi\n        /* \"#utility.yul\":5422:5440   */\n      tag_132\n      tag_80\n      jump\t// in\n    tag_132:\n        /* \"#utility.yul\":5406:5442   */\n    tag_131:\n        /* \"#utility.yul\":5258:5449   */\n      swap3\n      swap2\n      pop\n      pop\n      jump\t// out\n        /* \"#utility.yul\":5455:5623   */\n    tag_81:\n        /* \"#utility.yul\":5595:5615   */\n      0x4e6f2073757065726120656c2076616c6f720000000000000000000000000000\n        /* \"#utility.yul\":5591:5592   */\n      0x00\n        /* \"#utility.yul\":5583:5589   */\n      dup3\n        /* \"#utility.yul\":5579:5593   */\n      add\n        /* \"#utility.yul\":5572:5616   */\n      mstore\n        /* \"#utility.yul\":5455:5623   */\n      pop\n      jump\t// out\n        /* \"#utility.yul\":5629:5995   */\n    tag_82:\n        /* \"#utility.yul\":5771:5774   */\n      0x00\n        /* \"#utility.yul\":5792:5859   */\n      tag_135\n        /* \"#utility.yul\":5856:5858   */\n      0x12\n        /* \"#utility.yul\":5851:5854   */\n      dup4\n        /* \"#utility.yul\":5792:5859   */\n      tag_73\n      jump\t// in\n    tag_135:\n        /* \"#utility.yul\":5785:5859   */\n      swap2\n      pop\n        /* \"#utility.yul\":5868:5961   */\n      tag_136\n        /* \"#utility.yul\":5957:5960   */\n      dup3\n        /* \"#utility.yul\":5868:5961   */\n      tag_81\n      jump\t// in\n    tag_136:\n        /* \"#utility.yul\":5986:5988   */\n      0x20\n        /* \"#utility.yul\":5981:5984   */\n      dup3\n        /* \"#utility.yul\":5977:5989   */\n      add\n        /* \"#utility.yul\":5970:5989   */\n      swap1\n      pop\n        /* \"#utility.yul\":5629:5995   */\n      swap2\n      swap1\n      pop\n      jump\t// out\n        /* \"#utility.yul\":6001:6420   */\n    tag_61:\n        /* \"#utility.yul\":6167:6171   */\n      0x00\n        /* \"#utility.yul\":6205:6207   */\n      0x20\n        /* \"#utility.yul\":6194:6203   */\n      dup3\n        /* \"#utility.yul\":6190:6208   */\n      add\n        /* \"#utility.yul\":6182:6208   */\n      swap1\n      pop\n        /* \"#utility.yul\":6254:6263   */\n      dup2\n        /* \"#utility.yul\":6248:6252   */\n      dup2\n        /* \"#utility.yul\":6244:6264   */\n      sub\n        /* \"#utility.yul\":6240:6241   */\n      0x00\n        /* \"#utility.yul\":6229:6238   */\n      dup4\n        /* \"#utility.yul\":6225:6242   */\n      add\n        /* \"#utility.yul\":6218:6265   */\n      mstore\n        /* \"#utility.yul\":6282:6413   */\n      tag_138\n        /* \"#utility.yul\":6408:6412   */\n      dup2\n        /* \"#utility.yul\":6282:6413   */\n      tag_82\n      jump\t// in\n    tag_138:\n        /* \"#utility.yul\":6274:6413   */\n      swap1\n      pop\n        /* \"#utility.yul\":6001:6420   */\n      swap2\n      swap1\n      pop\n      jump\t// out\n\n    auxdata: 0xa26469706673582212206873b87b90e3a390ce1b06cc7836542300c093f7ae2012ac75910dd9437e3e2664736f6c634300081a0033\n}\n",
				"bytecode": {
					"linkReferences": {},
					"object": "6080604052348015600e575f80fd5b503360055f6101000a81548173ffffffffffffffffffffffffffffffffffffffff021916908373ffffffffffffffffffffffffffffffffffffffff160217905550633b9aca005f819055504260018190555062093a80600154606f919060af565b60028190555060db565b5f819050919050565b7f4e487b71000000000000000000000000000000000000000000000000000000005f52601160045260245ffd5b5f60b7826079565b915060c0836079565b925082820190508082111560d55760d46082565b5b92915050565b61075f806100e85f395ff3fe60806040526004361061007a575f3560e01c806383f280941161004d57806383f2809414610104578063865493691461012e578063e8d1cd5b14610158578063fc373179146101825761007a565b80630851eac21461007e578063209e1d46146100945780633483b353146100be5780633f0cc5e8146100fa575b5f80fd5b348015610089575f80fd5b506100926101ac565b005b34801561009f575f80fd5b506100a8610259565b6040516100b59190610476565b60405180910390f35b3480156100c9575f80fd5b506100e460048036038101906100df91906104bd565b610281565b6040516100f19190610500565b60405180910390f35b610102610296565b005b34801561010f575f80fd5b5061011861041d565b6040516101259190610500565b60405180910390f35b348015610139575f80fd5b50610142610422565b60405161014f9190610500565b60405180910390f35b348015610163575f80fd5b5061016c610428565b6040516101799190610500565b60405180910390f35b34801561018d575f80fd5b50610196610431565b6040516101a39190610500565b60405180910390f35b3373ffffffffffffffffffffffffffffffffffffffff1660055f9054906101000a900473ffffffffffffffffffffffffffffffffffffffff1673ffffffffffffffffffffffffffffffffffffffff161461023b576040517f08c379a000000000000000000000000000000000000000000000000000000000815260040161023290610573565b60405180910390fd5b6001600560146101000a81548160ff021916908360ff160217905550565b5f60045f9054906101000a900473ffffffffffffffffffffffffffffffffffffffff16905090565b6006602052805f5260405f205f915090505481565b5f600560149054906101000a900460ff1660ff16146102ea576040517f08c379a00000000000000000000000000000000000000000000000000000000081526004016102e1906105db565b60405180910390fd5b5f3490505f548111610331576040517f08c379a000000000000000000000000000000000000000000000000000000000815260040161032890610643565b60405180910390fd5b6003548111156103df575f339050816003819055508060045f6101000a81548173ffffffffffffffffffffffffffffffffffffffff021916908373ffffffffffffffffffffffffffffffffffffffff1602179055508160065f8373ffffffffffffffffffffffffffffffffffffffff1673ffffffffffffffffffffffffffffffffffffffff1681526020019081526020015f205f8282546103d2919061068e565b925050819055505061041a565b6040517f08c379a00000000000000000000000000000000000000000000000000000000081526004016104119061070b565b60405180910390fd5b50565b5f5481565b60025481565b5f600354905090565b60015481565b5f73ffffffffffffffffffffffffffffffffffffffff82169050919050565b5f61046082610437565b9050919050565b61047081610456565b82525050565b5f6020820190506104895f830184610467565b92915050565b5f80fd5b61049c81610456565b81146104a6575f80fd5b50565b5f813590506104b781610493565b92915050565b5f602082840312156104d2576104d161048f565b5b5f6104df848285016104a9565b91505092915050565b5f819050919050565b6104fa816104e8565b82525050565b5f6020820190506105135f8301846104f1565b92915050565b5f82825260208201905092915050565b7f5573746564206e6f207469656e65207065726d69736f730000000000000000005f82015250565b5f61055d601783610519565b915061056882610529565b602082019050919050565b5f6020820190508181035f83015261058a81610551565b9050919050565b7f4c6120737562617374612068612066696e616c697a61646f00000000000000005f82015250565b5f6105c5601883610519565b91506105d082610591565b602082019050919050565b5f6020820190508181035f8301526105f2816105b9565b9050919050565b7f456c2076616c6f72206573206d656e6f7220616c20696e696369616c000000005f82015250565b5f61062d601c83610519565b9150610638826105f9565b602082019050919050565b5f6020820190508181035f83015261065a81610621565b9050919050565b7f4e487b71000000000000000000000000000000000000000000000000000000005f52601160045260245ffd5b5f610698826104e8565b91506106a3836104e8565b92508282019050808211156106bb576106ba610661565b5b92915050565b7f4e6f2073757065726120656c2076616c6f7200000000000000000000000000005f82015250565b5f6106f5601283610519565b9150610700826106c1565b602082019050919050565b5f6020820190508181035f830152610722816106e9565b905091905056fea26469706673582212206873b87b90e3a390ce1b06cc7836542300c093f7ae2012ac75910dd9437e3e2664736f6c634300081a0033",
					"opcodes": "PUSH1 0x80 PUSH1 0x40 MSTORE CALLVALUE DUP1 ISZERO PUSH1 0xE JUMPI PUSH0 DUP1 REVERT JUMPDEST POP CALLER PUSH1 0x5 PUSH0 PUSH2 0x100 EXP DUP2 SLOAD DUP2 PUSH20 0xFFFFFFFFFFFFFFFFFFFFFFFFFFFFFFFFFFFFFFFF MUL NOT AND SWAP1 DUP4 PUSH20 0xFFFFFFFFFFFFFFFFFFFFFFFFFFFFFFFFFFFFFFFF AND MUL OR SWAP1 SSTORE POP PUSH4 0x3B9ACA00 PUSH0 DUP2 SWAP1 SSTORE POP TIMESTAMP PUSH1 0x1 DUP2 SWAP1 SSTORE POP PUSH3 0x93A80 PUSH1 0x1 SLOAD PUSH1 0x6F SWAP2 SWAP1 PUSH1 0xAF JUMP JUMPDEST PUSH1 0x2 DUP2 SWAP1 SSTORE POP PUSH1 0xDB JUMP JUMPDEST PUSH0 DUP2 SWAP1 POP SWAP2 SWAP1 POP JUMP JUMPDEST PUSH32 0x4E487B7100000000000000000000000000000000000000000000000000000000 PUSH0 MSTORE PUSH1 0x11 PUSH1 0x4 MSTORE PUSH1 0x24 PUSH0 REVERT JUMPDEST PUSH0 PUSH1 0xB7 DUP3 PUSH1 0x79 JUMP JUMPDEST SWAP2 POP PUSH1 0xC0 DUP4 PUSH1 0x79 JUMP JUMPDEST SWAP3 POP DUP3 DUP3 ADD SWAP1 POP DUP1 DUP3 GT ISZERO PUSH1 0xD5 JUMPI PUSH1 0xD4 PUSH1 0x82 JUMP JUMPDEST JUMPDEST SWAP3 SWAP2 POP POP JUMP JUMPDEST PUSH2 0x75F DUP1 PUSH2 0xE8 PUSH0 CODECOPY PUSH0 RETURN INVALID PUSH1 0x80 PUSH1 0x40 MSTORE PUSH1 0x4 CALLDATASIZE LT PUSH2 0x7A JUMPI PUSH0 CALLDATALOAD PUSH1 0xE0 SHR DUP1 PUSH4 0x83F28094 GT PUSH2 0x4D JUMPI DUP1 PUSH4 0x83F28094 EQ PUSH2 0x104 JUMPI DUP1 PUSH4 0x86549369 EQ PUSH2 0x12E JUMPI DUP1 PUSH4 0xE8D1CD5B EQ PUSH2 0x158 JUMPI DUP1 PUSH4 0xFC373179 EQ PUSH2 0x182 JUMPI PUSH2 0x7A JUMP JUMPDEST DUP1 PUSH4 0x851EAC2 EQ PUSH2 0x7E JUMPI DUP1 PUSH4 0x209E1D46 EQ PUSH2 0x94 JUMPI DUP1 PUSH4 0x3483B353 EQ PUSH2 0xBE JUMPI DUP1 PUSH4 0x3F0CC5E8 EQ PUSH2 0xFA JUMPI JUMPDEST PUSH0 DUP1 REVERT JUMPDEST CALLVALUE DUP1 ISZERO PUSH2 0x89 JUMPI PUSH0 DUP1 REVERT JUMPDEST POP PUSH2 0x92 PUSH2 0x1AC JUMP JUMPDEST STOP JUMPDEST CALLVALUE DUP1 ISZERO PUSH2 0x9F JUMPI PUSH0 DUP1 REVERT JUMPDEST POP PUSH2 0xA8 PUSH2 0x259 JUMP JUMPDEST PUSH1 0x40 MLOAD PUSH2 0xB5 SWAP2 SWAP1 PUSH2 0x476 JUMP JUMPDEST PUSH1 0x40 MLOAD DUP1 SWAP2 SUB SWAP1 RETURN JUMPDEST CALLVALUE DUP1 ISZERO PUSH2 0xC9 JUMPI PUSH0 DUP1 REVERT JUMPDEST POP PUSH2 0xE4 PUSH1 0x4 DUP1 CALLDATASIZE SUB DUP2 ADD SWAP1 PUSH2 0xDF SWAP2 SWAP1 PUSH2 0x4BD JUMP JUMPDEST PUSH2 0x281 JUMP JUMPDEST PUSH1 0x40 MLOAD PUSH2 0xF1 SWAP2 SWAP1 PUSH2 0x500 JUMP JUMPDEST PUSH1 0x40 MLOAD DUP1 SWAP2 SUB SWAP1 RETURN JUMPDEST PUSH2 0x102 PUSH2 0x296 JUMP JUMPDEST STOP JUMPDEST CALLVALUE DUP1 ISZERO PUSH2 0x10F JUMPI PUSH0 DUP1 REVERT JUMPDEST POP PUSH2 0x118 PUSH2 0x41D JUMP JUMPDEST PUSH1 0x40 MLOAD PUSH2 0x125 SWAP2 SWAP1 PUSH2 0x500 JUMP JUMPDEST PUSH1 0x40 MLOAD DUP1 SWAP2 SUB SWAP1 RETURN JUMPDEST CALLVALUE DUP1 ISZERO PUSH2 0x139 JUMPI PUSH0 DUP1 REVERT JUMPDEST POP PUSH2 0x142 PUSH2 0x422 JUMP JUMPDEST PUSH1 0x40 MLOAD PUSH2 0x14F SWAP2 SWAP1 PUSH2 0x500 JUMP JUMPDEST PUSH1 0x40 MLOAD DUP1 SWAP2 SUB SWAP1 RETURN JUMPDEST CALLVALUE DUP1 ISZERO PUSH2 0x163 JUMPI PUSH0 DUP1 REVERT JUMPDEST POP PUSH2 0x16C PUSH2 0x428 JUMP JUMPDEST PUSH1 0x40 MLOAD PUSH2 0x179 SWAP2 SWAP1 PUSH2 0x500 JUMP JUMPDEST PUSH1 0x40 MLOAD DUP1 SWAP2 SUB SWAP1 RETURN JUMPDEST CALLVALUE DUP1 ISZERO PUSH2 0x18D JUMPI PUSH0 DUP1 REVERT JUMPDEST POP PUSH2 0x196 PUSH2 0x431 JUMP JUMPDEST PUSH1 0x40 MLOAD PUSH2 0x1A3 SWAP2 SWAP1 PUSH2 0x500 JUMP JUMPDEST PUSH1 0x40 MLOAD DUP1 SWAP2 SUB SWAP1 RETURN JUMPDEST CALLER PUSH20 0xFFFFFFFFFFFFFFFFFFFFFFFFFFFFFFFFFFFFFFFF AND PUSH1 0x5 PUSH0 SWAP1 SLOAD SWAP1 PUSH2 0x100 EXP SWAP1 DIV PUSH20 0xFFFFFFFFFFFFFFFFFFFFFFFFFFFFFFFFFFFFFFFF AND PUSH20 0xFFFFFFFFFFFFFFFFFFFFFFFFFFFFFFFFFFFFFFFF AND EQ PUSH2 0x23B JUMPI PUSH1 0x40 MLOAD PUSH32 0x8C379A000000000000000000000000000000000000000000000000000000000 DUP2 MSTORE PUSH1 0x4 ADD PUSH2 0x232 SWAP1 PUSH2 0x573 JUMP JUMPDEST PUSH1 0x40 MLOAD DUP1 SWAP2 SUB SWAP1 REVERT JUMPDEST PUSH1 0x1 PUSH1 0x5 PUSH1 0x14 PUSH2 0x100 EXP DUP2 SLOAD DUP2 PUSH1 0xFF MUL NOT AND SWAP1 DUP4 PUSH1 0xFF AND MUL OR SWAP1 SSTORE POP JUMP JUMPDEST PUSH0 PUSH1 0x4 PUSH0 SWAP1 SLOAD SWAP1 PUSH2 0x100 EXP SWAP1 DIV PUSH20 0xFFFFFFFFFFFFFFFFFFFFFFFFFFFFFFFFFFFFFFFF AND SWAP1 POP SWAP1 JUMP JUMPDEST PUSH1 0x6 PUSH1 0x20 MSTORE DUP1 PUSH0 MSTORE PUSH1 0x40 PUSH0 KECCAK256 PUSH0 SWAP2 POP SWAP1 POP SLOAD DUP2 JUMP JUMPDEST PUSH0 PUSH1 0x5 PUSH1 0x14 SWAP1 SLOAD SWAP1 PUSH2 0x100 EXP SWAP1 DIV PUSH1 0xFF AND PUSH1 0xFF AND EQ PUSH2 0x2EA JUMPI PUSH1 0x40 MLOAD PUSH32 0x8C379A000000000000000000000000000000000000000000000000000000000 DUP2 MSTORE PUSH1 0x4 ADD PUSH2 0x2E1 SWAP1 PUSH2 0x5DB JUMP JUMPDEST PUSH1 0x40 MLOAD DUP1 SWAP2 SUB SWAP1 REVERT JUMPDEST PUSH0 CALLVALUE SWAP1 POP PUSH0 SLOAD DUP2 GT PUSH2 0x331 JUMPI PUSH1 0x40 MLOAD PUSH32 0x8C379A000000000000000000000000000000000000000000000000000000000 DUP2 MSTORE PUSH1 0x4 ADD PUSH2 0x328 SWAP1 PUSH2 0x643 JUMP JUMPDEST PUSH1 0x40 MLOAD DUP1 SWAP2 SUB SWAP1 REVERT JUMPDEST PUSH1 0x3 SLOAD DUP2 GT ISZERO PUSH2 0x3DF JUMPI PUSH0 CALLER SWAP1 POP DUP2 PUSH1 0x3 DUP2 SWAP1 SSTORE POP DUP1 PUSH1 0x4 PUSH0 PUSH2 0x100 EXP DUP2 SLOAD DUP2 PUSH20 0xFFFFFFFFFFFFFFFFFFFFFFFFFFFFFFFFFFFFFFFF MUL NOT AND SWAP1 DUP4 PUSH20 0xFFFFFFFFFFFFFFFFFFFFFFFFFFFFFFFFFFFFFFFF AND MUL OR SWAP1 SSTORE POP DUP2 PUSH1 0x6 PUSH0 DUP4 PUSH20 0xFFFFFFFFFFFFFFFFFFFFFFFFFFFFFFFFFFFFFFFF AND PUSH20 0xFFFFFFFFFFFFFFFFFFFFFFFFFFFFFFFFFFFFFFFF AND DUP2 MSTORE PUSH1 0x20 ADD SWAP1 DUP2 MSTORE PUSH1 0x20 ADD PUSH0 KECCAK256 PUSH0 DUP3 DUP3 SLOAD PUSH2 0x3D2 SWAP2 SWAP1 PUSH2 0x68E JUMP JUMPDEST SWAP3 POP POP DUP2 SWAP1 SSTORE POP POP PUSH2 0x41A JUMP JUMPDEST PUSH1 0x40 MLOAD PUSH32 0x8C379A000000000000000000000000000000000000000000000000000000000 DUP2 MSTORE PUSH1 0x4 ADD PUSH2 0x411 SWAP1 PUSH2 0x70B JUMP JUMPDEST PUSH1 0x40 MLOAD DUP1 SWAP2 SUB SWAP1 REVERT JUMPDEST POP JUMP JUMPDEST PUSH0 SLOAD DUP2 JUMP JUMPDEST PUSH1 0x2 SLOAD DUP2 JUMP JUMPDEST PUSH0 PUSH1 0x3 SLOAD SWAP1 POP SWAP1 JUMP JUMPDEST PUSH1 0x1 SLOAD DUP2 JUMP JUMPDEST PUSH0 PUSH20 0xFFFFFFFFFFFFFFFFFFFFFFFFFFFFFFFFFFFFFFFF DUP3 AND SWAP1 POP SWAP2 SWAP1 POP JUMP JUMPDEST PUSH0 PUSH2 0x460 DUP3 PUSH2 0x437 JUMP JUMPDEST SWAP1 POP SWAP2 SWAP1 POP JUMP JUMPDEST PUSH2 0x470 DUP2 PUSH2 0x456 JUMP JUMPDEST DUP3 MSTORE POP POP JUMP JUMPDEST PUSH0 PUSH1 0x20 DUP3 ADD SWAP1 POP PUSH2 0x489 PUSH0 DUP4 ADD DUP5 PUSH2 0x467 JUMP JUMPDEST SWAP3 SWAP2 POP POP JUMP JUMPDEST PUSH0 DUP1 REVERT JUMPDEST PUSH2 0x49C DUP2 PUSH2 0x456 JUMP JUMPDEST DUP2 EQ PUSH2 0x4A6 JUMPI PUSH0 DUP1 REVERT JUMPDEST POP JUMP JUMPDEST PUSH0 DUP2 CALLDATALOAD SWAP1 POP PUSH2 0x4B7 DUP2 PUSH2 0x493 JUMP JUMPDEST SWAP3 SWAP2 POP POP JUMP JUMPDEST PUSH0 PUSH1 0x20 DUP3 DUP5 SUB SLT ISZERO PUSH2 0x4D2 JUMPI PUSH2 0x4D1 PUSH2 0x48F JUMP JUMPDEST JUMPDEST PUSH0 PUSH2 0x4DF DUP5 DUP3 DUP6 ADD PUSH2 0x4A9 JUMP JUMPDEST SWAP2 POP POP SWAP3 SWAP2 POP POP JUMP JUMPDEST PUSH0 DUP2 SWAP1 POP SWAP2 SWAP1 POP JUMP JUMPDEST PUSH2 0x4FA DUP2 PUSH2 0x4E8 JUMP JUMPDEST DUP3 MSTORE POP POP JUMP JUMPDEST PUSH0 PUSH1 0x20 DUP3 ADD SWAP1 POP PUSH2 0x513 PUSH0 DUP4 ADD DUP5 PUSH2 0x4F1 JUMP JUMPDEST SWAP3 SWAP2 POP POP JUMP JUMPDEST PUSH0 DUP3 DUP3 MSTORE PUSH1 0x20 DUP3 ADD SWAP1 POP SWAP3 SWAP2 POP POP JUMP JUMPDEST PUSH32 0x5573746564206E6F207469656E65207065726D69736F73000000000000000000 PUSH0 DUP3 ADD MSTORE POP JUMP JUMPDEST PUSH0 PUSH2 0x55D PUSH1 0x17 DUP4 PUSH2 0x519 JUMP JUMPDEST SWAP2 POP PUSH2 0x568 DUP3 PUSH2 0x529 JUMP JUMPDEST PUSH1 0x20 DUP3 ADD SWAP1 POP SWAP2 SWAP1 POP JUMP JUMPDEST PUSH0 PUSH1 0x20 DUP3 ADD SWAP1 POP DUP2 DUP2 SUB PUSH0 DUP4 ADD MSTORE PUSH2 0x58A DUP2 PUSH2 0x551 JUMP JUMPDEST SWAP1 POP SWAP2 SWAP1 POP JUMP JUMPDEST PUSH32 0x4C6120737562617374612068612066696E616C697A61646F0000000000000000 PUSH0 DUP3 ADD MSTORE POP JUMP JUMPDEST PUSH0 PUSH2 0x5C5 PUSH1 0x18 DUP4 PUSH2 0x519 JUMP JUMPDEST SWAP2 POP PUSH2 0x5D0 DUP3 PUSH2 0x591 JUMP JUMPDEST PUSH1 0x20 DUP3 ADD SWAP1 POP SWAP2 SWAP1 POP JUMP JUMPDEST PUSH0 PUSH1 0x20 DUP3 ADD SWAP1 POP DUP2 DUP2 SUB PUSH0 DUP4 ADD MSTORE PUSH2 0x5F2 DUP2 PUSH2 0x5B9 JUMP JUMPDEST SWAP1 POP SWAP2 SWAP1 POP JUMP JUMPDEST PUSH32 0x456C2076616C6F72206573206D656E6F7220616C20696E696369616C00000000 PUSH0 DUP3 ADD MSTORE POP JUMP JUMPDEST PUSH0 PUSH2 0x62D PUSH1 0x1C DUP4 PUSH2 0x519 JUMP JUMPDEST SWAP2 POP PUSH2 0x638 DUP3 PUSH2 0x5F9 JUMP JUMPDEST PUSH1 0x20 DUP3 ADD SWAP1 POP SWAP2 SWAP1 POP JUMP JUMPDEST PUSH0 PUSH1 0x20 DUP3 ADD SWAP1 POP DUP2 DUP2 SUB PUSH0 DUP4 ADD MSTORE PUSH2 0x65A DUP2 PUSH2 0x621 JUMP JUMPDEST SWAP1 POP SWAP2 SWAP1 POP JUMP JUMPDEST PUSH32 0x4E487B7100000000000000000000000000000000000000000000000000000000 PUSH0 MSTORE PUSH1 0x11 PUSH1 0x4 MSTORE PUSH1 0x24 PUSH0 REVERT JUMPDEST PUSH0 PUSH2 0x698 DUP3 PUSH2 0x4E8 JUMP JUMPDEST SWAP2 POP PUSH2 0x6A3 DUP4 PUSH2 0x4E8 JUMP JUMPDEST SWAP3 POP DUP3 DUP3 ADD SWAP1 POP DUP1 DUP3 GT ISZERO PUSH2 0x6BB JUMPI PUSH2 0x6BA PUSH2 0x661 JUMP JUMPDEST JUMPDEST SWAP3 SWAP2 POP POP JUMP JUMPDEST PUSH32 0x4E6F2073757065726120656C2076616C6F720000000000000000000000000000 PUSH0 DUP3 ADD MSTORE POP JUMP JUMPDEST PUSH0 PUSH2 0x6F5 PUSH1 0x12 DUP4 PUSH2 0x519 JUMP JUMPDEST SWAP2 POP PUSH2 0x700 DUP3 PUSH2 0x6C1 JUMP JUMPDEST PUSH1 0x20 DUP3 ADD SWAP1 POP SWAP2 SWAP1 POP JUMP JUMPDEST PUSH0 PUSH1 0x20 DUP3 ADD SWAP1 POP DUP2 DUP2 SUB PUSH0 DUP4 ADD MSTORE PUSH2 0x722 DUP2 PUSH2 0x6E9 JUMP JUMPDEST SWAP1 POP SWAP2 SWAP1 POP JUMP INVALID LOG2 PUSH5 0x6970667358 0x22 SLT KECCAK256 PUSH9 0x73B87B90E3A390CE1B MOD 0xCC PUSH25 0x36542300C093F7AE2012AC75910DD9437E3E2664736F6C6343 STOP ADDMOD BYTE STOP CALLER "
				},
				"gasEstimates": {
					"creation": {
						"codeDepositCost": "377400",
						"executionCost": "infinite",
						"totalCost": "infinite"
					},
					"external": {
						"fechaInicio()": "2491",
						"finalizarSubasta()": "26630",
						"getMoayorOferta()": "2476",
						"getOferenteGanador()": "2538",
						"setOferta()": "infinite",
						"tiempoDuracion()": "2447",
						"valorInicial()": "2424",
						"valorMetido(address)": "2847"
					}
				},
				"methodIdentifiers": {
					"fechaInicio()": "fc373179",
					"finalizarSubasta()": "0851eac2",
					"getMoayorOferta()": "e8d1cd5b",
					"getOferenteGanador()": "209e1d46",
					"setOferta()": "3f0cc5e8",
					"tiempoDuracion()": "86549369",
					"valorInicial()": "83f28094",
					"valorMetido(address)": "3483b353"
				}
			},
			"storageLayout": {
				"storage": [
					{
						"astId": 3,
						"contract": "Prueba_Subasta.sol:Subasta",
						"label": "valorInicial",
						"offset": 0,
						"slot": "0",
						"type": "t_uint256"
					},
					{
						"astId": 5,
						"contract": "Prueba_Subasta.sol:Subasta",
						"label": "fechaInicio",
						"offset": 0,
						"slot": "1",
						"type": "t_uint256"
					},
					{
						"astId": 7,
						"contract": "Prueba_Subasta.sol:Subasta",
						"label": "tiempoDuracion",
						"offset": 0,
						"slot": "2",
						"type": "t_uint256"
					},
					{
						"astId": 9,
						"contract": "Prueba_Subasta.sol:Subasta",
						"label": "mayorOferta",
						"offset": 0,
						"slot": "3",
						"type": "t_uint256"
					},
					{
						"astId": 11,
						"contract": "Prueba_Subasta.sol:Subasta",
						"label": "ofertanteGanador",
						"offset": 0,
						"slot": "4",
						"type": "t_address"
					},
					{
						"astId": 13,
						"contract": "Prueba_Subasta.sol:Subasta",
						"label": "owner",
						"offset": 0,
						"slot": "5",
						"type": "t_address"
					},
					{
						"astId": 15,
						"contract": "Prueba_Subasta.sol:Subasta",
						"label": "semaforo",
						"offset": 20,
						"slot": "5",
						"type": "t_uint8"
					},
					{
						"astId": 19,
						"contract": "Prueba_Subasta.sol:Subasta",
						"label": "valorMetido",
						"offset": 0,
						"slot": "6",
						"type": "t_mapping(t_address,t_uint256)"
					}
				],
				"types": {
					"t_address": {
						"encoding": "inplace",
						"label": "address",
						"numberOfBytes": "20"
					},
					"t_mapping(t_address,t_uint256)": {
						"encoding": "mapping",
						"key": "t_address",
						"label": "mapping(address => uint256)",
						"numberOfBytes": "32",
						"value": "t_uint256"
					},
					"t_uint256": {
						"encoding": "inplace",
						"label": "uint256",
						"numberOfBytes": "32"
					},
					"t_uint8": {
						"encoding": "inplace",
						"label": "uint8",
						"numberOfBytes": "1"
					}
				}
			},
			"userdoc": {
				"kind": "user",
				"methods": {},
				"version": 1
			}
		}
	}
}