{
	"Subasta_Bonaduce.sol": {
		"AuctionBsAs": {
			"abi": [
				{
					"inputs": [
						{
							"internalType": "uint256",
							"name": "_duration",
							"type": "uint256"
						}
					],
					"stateMutability": "nonpayable",
					"type": "constructor"
				},
				{
					"anonymous": false,
					"inputs": [
						{
							"indexed": false,
							"internalType": "bool",
							"name": "success",
							"type": "bool"
						}
					],
					"name": "AuctionCompleted",
					"type": "event"
				},
				{
					"anonymous": false,
					"inputs": [
						{
							"indexed": true,
							"internalType": "address",
							"name": "winner",
							"type": "address"
						},
						{
							"indexed": false,
							"internalType": "uint256",
							"name": "winningBid",
							"type": "uint256"
						}
					],
					"name": "AuctionEnded",
					"type": "event"
				},
				{
					"anonymous": false,
					"inputs": [
						{
							"indexed": false,
							"internalType": "uint256",
							"name": "newEndTime",
							"type": "uint256"
						}
					],
					"name": "AuctionExtended",
					"type": "event"
				},
				{
					"anonymous": false,
					"inputs": [
						{
							"indexed": true,
							"internalType": "address",
							"name": "bidder",
							"type": "address"
						},
						{
							"indexed": false,
							"internalType": "uint256",
							"name": "amount",
							"type": "uint256"
						}
					],
					"name": "BidPlaced",
					"type": "event"
				},
				{
					"anonymous": false,
					"inputs": [
						{
							"indexed": false,
							"internalType": "uint256",
							"name": "amount",
							"type": "uint256"
						}
					],
					"name": "CommissionsWithdrawn",
					"type": "event"
				},
				{
					"anonymous": false,
					"inputs": [
						{
							"indexed": true,
							"internalType": "address",
							"name": "bidder",
							"type": "address"
						},
						{
							"indexed": false,
							"internalType": "uint256",
							"name": "amount",
							"type": "uint256"
						}
					],
					"name": "DepositWithdrawn",
					"type": "event"
				},
				{
					"anonymous": false,
					"inputs": [
						{
							"indexed": true,
							"internalType": "address",
							"name": "bidder",
							"type": "address"
						},
						{
							"indexed": false,
							"internalType": "uint256",
							"name": "amount",
							"type": "uint256"
						}
					],
					"name": "PartialRefund",
					"type": "event"
				},
				{
					"anonymous": false,
					"inputs": [
						{
							"indexed": false,
							"internalType": "uint256",
							"name": "amount",
							"type": "uint256"
						}
					],
					"name": "WinningBidWithdrawn",
					"type": "event"
				},
				{
					"inputs": [],
					"name": "auctionEndTime",
					"outputs": [
						{
							"internalType": "uint256",
							"name": "",
							"type": "uint256"
						}
					],
					"stateMutability": "view",
					"type": "function"
				},
				{
					"inputs": [],
					"name": "auctionState",
					"outputs": [
						{
							"internalType": "enum AuctionBsAs.AuctionState",
							"name": "",
							"type": "uint8"
						}
					],
					"stateMutability": "view",
					"type": "function"
				},
				{
					"inputs": [
						{
							"internalType": "uint256",
							"name": "",
							"type": "uint256"
						}
					],
					"name": "bidders",
					"outputs": [
						{
							"internalType": "address",
							"name": "",
							"type": "address"
						}
					],
					"stateMutability": "view",
					"type": "function"
				},
				{
					"inputs": [
						{
							"internalType": "address",
							"name": "",
							"type": "address"
						},
						{
							"internalType": "uint256",
							"name": "",
							"type": "uint256"
						}
					],
					"name": "bidsHistory",
					"outputs": [
						{
							"internalType": "uint256",
							"name": "",
							"type": "uint256"
						}
					],
					"stateMutability": "view",
					"type": "function"
				},
				{
					"inputs": [],
					"name": "commissionFunds",
					"outputs": [
						{
							"internalType": "uint256",
							"name": "",
							"type": "uint256"
						}
					],
					"stateMutability": "view",
					"type": "function"
				},
				{
					"inputs": [],
					"name": "endAuction",
					"outputs": [],
					"stateMutability": "nonpayable",
					"type": "function"
				},
				{
					"inputs": [],
					"name": "highestBid",
					"outputs": [
						{
							"internalType": "uint256",
							"name": "",
							"type": "uint256"
						}
					],
					"stateMutability": "view",
					"type": "function"
				},
				{
					"inputs": [],
					"name": "highestBidder",
					"outputs": [
						{
							"internalType": "address",
							"name": "",
							"type": "address"
						}
					],
					"stateMutability": "view",
					"type": "function"
				},
				{
					"inputs": [
						{
							"internalType": "uint256",
							"name": "",
							"type": "uint256"
						}
					],
					"name": "offersHistory",
					"outputs": [
						{
							"internalType": "address",
							"name": "bidder",
							"type": "address"
						},
						{
							"internalType": "uint256",
							"name": "amount",
							"type": "uint256"
						}
					],
					"stateMutability": "view",
					"type": "function"
				},
				{
					"inputs": [],
					"name": "owner",
					"outputs": [
						{
							"internalType": "address",
							"name": "",
							"type": "address"
						}
					],
					"stateMutability": "view",
					"type": "function"
				},
				{
					"inputs": [],
					"name": "partialRefund",
					"outputs": [],
					"stateMutability": "nonpayable",
					"type": "function"
				},
				{
					"inputs": [
						{
							"internalType": "address",
							"name": "",
							"type": "address"
						}
					],
					"name": "partialRefundedAmount",
					"outputs": [
						{
							"internalType": "uint256",
							"name": "",
							"type": "uint256"
						}
					],
					"stateMutability": "view",
					"type": "function"
				},
				{
					"inputs": [],
					"name": "placeBid",
					"outputs": [],
					"stateMutability": "payable",
					"type": "function"
				},
				{
					"inputs": [
						{
							"internalType": "address",
							"name": "",
							"type": "address"
						}
					],
					"name": "totalBids",
					"outputs": [
						{
							"internalType": "uint256",
							"name": "",
							"type": "uint256"
						}
					],
					"stateMutability": "view",
					"type": "function"
				},
				{
					"inputs": [],
					"name": "viewDeposits",
					"outputs": [
						{
							"internalType": "address[]",
							"name": "",
							"type": "address[]"
						},
						{
							"internalType": "uint256[]",
							"name": "",
							"type": "uint256[]"
						}
					],
					"stateMutability": "view",
					"type": "function"
				},
				{
					"inputs": [],
					"name": "viewOffers",
					"outputs": [
						{
							"components": [
								{
									"internalType": "address",
									"name": "bidder",
									"type": "address"
								},
								{
									"internalType": "uint256",
									"name": "amount",
									"type": "uint256"
								}
							],
							"internalType": "struct AuctionBsAs.Offer[]",
							"name": "",
							"type": "tuple[]"
						}
					],
					"stateMutability": "view",
					"type": "function"
				},
				{
					"inputs": [],
					"name": "withdrawCommissions",
					"outputs": [],
					"stateMutability": "nonpayable",
					"type": "function"
				},
				{
					"inputs": [],
					"name": "withdrawDeposits",
					"outputs": [],
					"stateMutability": "nonpayable",
					"type": "function"
				},
				{
					"inputs": [],
					"name": "withdrawWinningBid",
					"outputs": [],
					"stateMutability": "nonpayable",
					"type": "function"
				}
			],
			"devdoc": {
				"author": "Mario A. Parodi",
				"details": "Este contrato implementa una subasta donde los usuarios pueden ofertar,       retirar reenbolsos parciales, y el propietario puede retirar las comisiones       y la oferta ganadora una vez que reenbolsa a los postores y la subasta esta finalizada finaliza.      El contrato también maneja una extensión de tiempo si se colocan ofertas cerca del final de la subasta.",
				"events": {
					"AuctionCompleted(bool)": {
						"params": {
							"success": "Indica si la subasta se completó sin errores (true si no hubo errores) "
						}
					},
					"AuctionEnded(address,uint256)": {
						"params": {
							"winner": "Dirección del postor ganador",
							"winningBid": "Monto de la oferta ganadora"
						}
					},
					"AuctionExtended(uint256)": {
						"params": {
							"newEndTime": "Nueva hora de finalización de la subasta"
						}
					},
					"BidPlaced(address,uint256)": {
						"params": {
							"amount": "Monto de la oferta realizada",
							"bidder": "Dirección del postor"
						}
					},
					"CommissionsWithdrawn(uint256)": {
						"params": {
							"amount": "Monto retirado"
						}
					},
					"DepositWithdrawn(address,uint256)": {
						"params": {
							"amount": "Monto reenbolsado",
							"bidder": "Dirección del postor"
						}
					},
					"PartialRefund(address,uint256)": {
						"params": {
							"amount": "Monto reembolsado",
							"bidder": "Dirección del postor"
						}
					},
					"WinningBidWithdrawn(uint256)": {
						"params": {
							"amount": "Monto retirado"
						}
					}
				},
				"kind": "dev",
				"methods": {
					"constructor": {
						"params": {
							"_duration": "Duración de la subasta en segundos"
						}
					},
					"partialRefund()": {
						"details": "Solo puede realizarse durante una subasta activa"
					},
					"placeBid()": {
						"details": "Solo es válida durante una subasta activa, y debe cumplir con los requisitos de oferta valida"
					},
					"viewDeposits()": {
						"returns": {
							"_0": "Un arreglo con las direcciones de los postores y sus montos actuales"
						}
					},
					"viewOffers()": {
						"returns": {
							"_0": "Un arreglo de ofertas realizadas en la subasta"
						}
					}
				},
				"stateVariables": {
					"bidders": {
						"details": "Lista de postores que han participado en la subasta"
					},
					"bidsHistory": {
						"details": "Mapeo de todas las ofertas realizadas por cada postor"
					},
					"offersHistory": {
						"details": "Historial de todas las ofertas realizadas en la subasta"
					},
					"partialRefundedAmount": {
						"details": "Mapeo del monto ya reembolsado parcialmente a cada postor"
					},
					"totalBids": {
						"details": "Mapeo del total de las ofertas de cada postor"
					}
				},
				"title": "Contrato de Subasta Buenos Aires",
				"version": 1
			},
			"evm": {
				"assembly": "    /* \"Subasta_Bonaduce.sol\":719:12760  contract AuctionBsAs {... */\n  mstore(0x40, 0x80)\n    /* \"Subasta_Bonaduce.sol\":5940:6235  constructor(uint _duration) {... */\n  callvalue\n  dup1\n  iszero\n  tag_1\n  jumpi\n  0x00\n  dup1\n  revert\ntag_1:\n  pop\n  mload(0x40)\n  sub(codesize, bytecodeSize)\n  dup1\n  bytecodeSize\n  dup4\n  codecopy\n  dup2\n  dup2\n  add\n  0x40\n  mstore\n  dup2\n  add\n  swap1\n  tag_2\n  swap2\n  swap1\n  tag_3\n  jump\t// in\ntag_2:\n    /* \"Subasta_Bonaduce.sol\":6000:6010  20 minutes */\n  0x04b0\n    /* \"Subasta_Bonaduce.sol\":5987:5996  _duration */\n  dup2\n    /* \"Subasta_Bonaduce.sol\":5987:6010  _duration >= 20 minutes */\n  lt\n  iszero\n    /* \"Subasta_Bonaduce.sol\":5987:6033  _duration >= 20 minutes && _duration <= 7 days */\n  dup1\n  iszero\n  tag_6\n  jumpi\n  pop\n    /* \"Subasta_Bonaduce.sol\":6027:6033  7 days */\n  0x093a80\n    /* \"Subasta_Bonaduce.sol\":6014:6023  _duration */\n  dup2\n    /* \"Subasta_Bonaduce.sol\":6014:6033  _duration <= 7 days */\n  gt\n  iszero\n    /* \"Subasta_Bonaduce.sol\":5987:6033  _duration >= 20 minutes && _duration <= 7 days */\ntag_6:\n    /* \"Subasta_Bonaduce.sol\":5979:6098  require(_duration >= 20 minutes && _duration <= 7 days,... */\n  tag_7\n  jumpi\n  mload(0x40)\n  0x08c379a000000000000000000000000000000000000000000000000000000000\n  dup2\n  mstore\n  0x04\n  add\n  tag_8\n  swap1\n  tag_9\n  jump\t// in\ntag_8:\n  mload(0x40)\n  dup1\n  swap2\n  sub\n  swap1\n  revert\ntag_7:\n    /* \"Subasta_Bonaduce.sol\":6144:6153  _duration */\n  dup1\n    /* \"Subasta_Bonaduce.sol\":6126:6141  block.timestamp */\n  timestamp\n    /* \"Subasta_Bonaduce.sol\":6126:6153  block.timestamp + _duration */\n  tag_10\n  swap2\n  swap1\n  tag_11\n  jump\t// in\ntag_10:\n    /* \"Subasta_Bonaduce.sol\":6109:6123  auctionEndTime */\n  0x01\n    /* \"Subasta_Bonaduce.sol\":6109:6153  auctionEndTime = block.timestamp + _duration */\n  dup2\n  swap1\n  sstore\n  pop\n    /* \"Subasta_Bonaduce.sol\":6179:6198  AuctionState.Active */\n  0x00\n    /* \"Subasta_Bonaduce.sol\":6164:6176  auctionState */\n  dup1\n  0x00\n    /* \"Subasta_Bonaduce.sol\":6164:6198  auctionState = AuctionState.Active */\n  0x0100\n  exp\n  dup2\n  sload\n  dup2\n  0xff\n  mul\n  not\n  and\n  swap1\n  dup4\n  0x03\n  dup2\n  gt\n  iszero\n  tag_12\n  jumpi\n  tag_13\n  tag_14\n  jump\t// in\ntag_13:\ntag_12:\n  mul\n  or\n  swap1\n  sstore\n  pop\n    /* \"Subasta_Bonaduce.sol\":6217:6227  msg.sender */\n  caller\n    /* \"Subasta_Bonaduce.sol\":6209:6214  owner */\n  0x05\n  0x00\n    /* \"Subasta_Bonaduce.sol\":6209:6227  owner = msg.sender */\n  0x0100\n  exp\n  dup2\n  sload\n  dup2\n  0xffffffffffffffffffffffffffffffffffffffff\n  mul\n  not\n  and\n  swap1\n  dup4\n  0xffffffffffffffffffffffffffffffffffffffff\n  and\n  mul\n  or\n  swap1\n  sstore\n  pop\n    /* \"Subasta_Bonaduce.sol\":5940:6235  constructor(uint _duration) {... */\n  pop\n    /* \"Subasta_Bonaduce.sol\":719:12760  contract AuctionBsAs {... */\n  jump(tag_15)\n    /* \"#utility.yul\":88:205   */\ntag_17:\n    /* \"#utility.yul\":197:198   */\n  0x00\n    /* \"#utility.yul\":194:195   */\n  dup1\n    /* \"#utility.yul\":187:199   */\n  revert\n    /* \"#utility.yul\":334:411   */\ntag_19:\n    /* \"#utility.yul\":371:378   */\n  0x00\n    /* \"#utility.yul\":400:405   */\n  dup2\n    /* \"#utility.yul\":389:405   */\n  swap1\n  pop\n    /* \"#utility.yul\":334:411   */\n  swap2\n  swap1\n  pop\n  jump\t// out\n    /* \"#utility.yul\":417:539   */\ntag_20:\n    /* \"#utility.yul\":490:514   */\n  tag_32\n    /* \"#utility.yul\":508:513   */\n  dup2\n    /* \"#utility.yul\":490:514   */\n  tag_19\n  jump\t// in\ntag_32:\n    /* \"#utility.yul\":483:488   */\n  dup2\n    /* \"#utility.yul\":480:515   */\n  eq\n    /* \"#utility.yul\":470:533   */\n  tag_33\n  jumpi\n    /* \"#utility.yul\":529:530   */\n  0x00\n    /* \"#utility.yul\":526:527   */\n  dup1\n    /* \"#utility.yul\":519:531   */\n  revert\n    /* \"#utility.yul\":470:533   */\ntag_33:\n    /* \"#utility.yul\":417:539   */\n  pop\n  jump\t// out\n    /* \"#utility.yul\":545:688   */\ntag_21:\n    /* \"#utility.yul\":602:607   */\n  0x00\n    /* \"#utility.yul\":633:639   */\n  dup2\n    /* \"#utility.yul\":627:640   */\n  mload\n    /* \"#utility.yul\":618:640   */\n  swap1\n  pop\n    /* \"#utility.yul\":649:682   */\n  tag_35\n    /* \"#utility.yul\":676:681   */\n  dup2\n    /* \"#utility.yul\":649:682   */\n  tag_20\n  jump\t// in\ntag_35:\n    /* \"#utility.yul\":545:688   */\n  swap3\n  swap2\n  pop\n  pop\n  jump\t// out\n    /* \"#utility.yul\":694:1045   */\ntag_3:\n    /* \"#utility.yul\":764:770   */\n  0x00\n    /* \"#utility.yul\":813:815   */\n  0x20\n    /* \"#utility.yul\":801:810   */\n  dup3\n    /* \"#utility.yul\":792:799   */\n  dup5\n    /* \"#utility.yul\":788:811   */\n  sub\n    /* \"#utility.yul\":784:816   */\n  slt\n    /* \"#utility.yul\":781:900   */\n  iszero\n  tag_37\n  jumpi\n    /* \"#utility.yul\":819:898   */\n  tag_38\n  tag_17\n  jump\t// in\ntag_38:\n    /* \"#utility.yul\":781:900   */\ntag_37:\n    /* \"#utility.yul\":939:940   */\n  0x00\n    /* \"#utility.yul\":964:1028   */\n  tag_39\n    /* \"#utility.yul\":1020:1027   */\n  dup5\n    /* \"#utility.yul\":1011:1017   */\n  dup3\n    /* \"#utility.yul\":1000:1009   */\n  dup6\n    /* \"#utility.yul\":996:1018   */\n  add\n    /* \"#utility.yul\":964:1028   */\n  tag_21\n  jump\t// in\ntag_39:\n    /* \"#utility.yul\":954:1028   */\n  swap2\n  pop\n    /* \"#utility.yul\":910:1038   */\n  pop\n    /* \"#utility.yul\":694:1045   */\n  swap3\n  swap2\n  pop\n  pop\n  jump\t// out\n    /* \"#utility.yul\":1051:1220   */\ntag_22:\n    /* \"#utility.yul\":1135:1146   */\n  0x00\n    /* \"#utility.yul\":1169:1175   */\n  dup3\n    /* \"#utility.yul\":1164:1167   */\n  dup3\n    /* \"#utility.yul\":1157:1176   */\n  mstore\n    /* \"#utility.yul\":1209:1213   */\n  0x20\n    /* \"#utility.yul\":1204:1207   */\n  dup3\n    /* \"#utility.yul\":1200:1214   */\n  add\n    /* \"#utility.yul\":1185:1214   */\n  swap1\n  pop\n    /* \"#utility.yul\":1051:1220   */\n  swap3\n  swap2\n  pop\n  pop\n  jump\t// out\n    /* \"#utility.yul\":1226:1460   */\ntag_23:\n    /* \"#utility.yul\":1366:1400   */\n  0x4c61206475726163696f6e20646562652073657220656e747265203230206d69\n    /* \"#utility.yul\":1362:1363   */\n  0x00\n    /* \"#utility.yul\":1354:1360   */\n  dup3\n    /* \"#utility.yul\":1350:1364   */\n  add\n    /* \"#utility.yul\":1343:1401   */\n  mstore\n    /* \"#utility.yul\":1435:1452   */\n  0x6e75746f732079203720646961732e0000000000000000000000000000000000\n    /* \"#utility.yul\":1430:1432   */\n  0x20\n    /* \"#utility.yul\":1422:1428   */\n  dup3\n    /* \"#utility.yul\":1418:1433   */\n  add\n    /* \"#utility.yul\":1411:1453   */\n  mstore\n    /* \"#utility.yul\":1226:1460   */\n  pop\n  jump\t// out\n    /* \"#utility.yul\":1466:1832   */\ntag_24:\n    /* \"#utility.yul\":1608:1611   */\n  0x00\n    /* \"#utility.yul\":1629:1696   */\n  tag_43\n    /* \"#utility.yul\":1693:1695   */\n  0x2f\n    /* \"#utility.yul\":1688:1691   */\n  dup4\n    /* \"#utility.yul\":1629:1696   */\n  tag_22\n  jump\t// in\ntag_43:\n    /* \"#utility.yul\":1622:1696   */\n  swap2\n  pop\n    /* \"#utility.yul\":1705:1798   */\n  tag_44\n    /* \"#utility.yul\":1794:1797   */\n  dup3\n    /* \"#utility.yul\":1705:1798   */\n  tag_23\n  jump\t// in\ntag_44:\n    /* \"#utility.yul\":1823:1825   */\n  0x40\n    /* \"#utility.yul\":1818:1821   */\n  dup3\n    /* \"#utility.yul\":1814:1826   */\n  add\n    /* \"#utility.yul\":1807:1826   */\n  swap1\n  pop\n    /* \"#utility.yul\":1466:1832   */\n  swap2\n  swap1\n  pop\n  jump\t// out\n    /* \"#utility.yul\":1838:2257   */\ntag_9:\n    /* \"#utility.yul\":2004:2008   */\n  0x00\n    /* \"#utility.yul\":2042:2044   */\n  0x20\n    /* \"#utility.yul\":2031:2040   */\n  dup3\n    /* \"#utility.yul\":2027:2045   */\n  add\n    /* \"#utility.yul\":2019:2045   */\n  swap1\n  pop\n    /* \"#utility.yul\":2091:2100   */\n  dup2\n    /* \"#utility.yul\":2085:2089   */\n  dup2\n    /* \"#utility.yul\":2081:2101   */\n  sub\n    /* \"#utility.yul\":2077:2078   */\n  0x00\n    /* \"#utility.yul\":2066:2075   */\n  dup4\n    /* \"#utility.yul\":2062:2079   */\n  add\n    /* \"#utility.yul\":2055:2102   */\n  mstore\n    /* \"#utility.yul\":2119:2250   */\n  tag_46\n    /* \"#utility.yul\":2245:2249   */\n  dup2\n    /* \"#utility.yul\":2119:2250   */\n  tag_24\n  jump\t// in\ntag_46:\n    /* \"#utility.yul\":2111:2250   */\n  swap1\n  pop\n    /* \"#utility.yul\":1838:2257   */\n  swap2\n  swap1\n  pop\n  jump\t// out\n    /* \"#utility.yul\":2263:2443   */\ntag_25:\n    /* \"#utility.yul\":2311:2388   */\n  0x4e487b7100000000000000000000000000000000000000000000000000000000\n    /* \"#utility.yul\":2308:2309   */\n  0x00\n    /* \"#utility.yul\":2301:2389   */\n  mstore\n    /* \"#utility.yul\":2408:2412   */\n  0x11\n    /* \"#utility.yul\":2405:2406   */\n  0x04\n    /* \"#utility.yul\":2398:2413   */\n  mstore\n    /* \"#utility.yul\":2432:2436   */\n  0x24\n    /* \"#utility.yul\":2429:2430   */\n  0x00\n    /* \"#utility.yul\":2422:2437   */\n  revert\n    /* \"#utility.yul\":2449:2640   */\ntag_11:\n    /* \"#utility.yul\":2489:2492   */\n  0x00\n    /* \"#utility.yul\":2508:2528   */\n  tag_49\n    /* \"#utility.yul\":2526:2527   */\n  dup3\n    /* \"#utility.yul\":2508:2528   */\n  tag_19\n  jump\t// in\ntag_49:\n    /* \"#utility.yul\":2503:2528   */\n  swap2\n  pop\n    /* \"#utility.yul\":2542:2562   */\n  tag_50\n    /* \"#utility.yul\":2560:2561   */\n  dup4\n    /* \"#utility.yul\":2542:2562   */\n  tag_19\n  jump\t// in\ntag_50:\n    /* \"#utility.yul\":2537:2562   */\n  swap3\n  pop\n    /* \"#utility.yul\":2585:2586   */\n  dup3\n    /* \"#utility.yul\":2582:2583   */\n  dup3\n    /* \"#utility.yul\":2578:2587   */\n  add\n    /* \"#utility.yul\":2571:2587   */\n  swap1\n  pop\n    /* \"#utility.yul\":2606:2609   */\n  dup1\n    /* \"#utility.yul\":2603:2604   */\n  dup3\n    /* \"#utility.yul\":2600:2610   */\n  gt\n    /* \"#utility.yul\":2597:2633   */\n  iszero\n  tag_51\n  jumpi\n    /* \"#utility.yul\":2613:2631   */\n  tag_52\n  tag_25\n  jump\t// in\ntag_52:\n    /* \"#utility.yul\":2597:2633   */\ntag_51:\n    /* \"#utility.yul\":2449:2640   */\n  swap3\n  swap2\n  pop\n  pop\n  jump\t// out\n    /* \"#utility.yul\":2646:2826   */\ntag_14:\n    /* \"#utility.yul\":2694:2771   */\n  0x4e487b7100000000000000000000000000000000000000000000000000000000\n    /* \"#utility.yul\":2691:2692   */\n  0x00\n    /* \"#utility.yul\":2684:2772   */\n  mstore\n    /* \"#utility.yul\":2791:2795   */\n  0x21\n    /* \"#utility.yul\":2788:2789   */\n  0x04\n    /* \"#utility.yul\":2781:2796   */\n  mstore\n    /* \"#utility.yul\":2815:2819   */\n  0x24\n    /* \"#utility.yul\":2812:2813   */\n  0x00\n    /* \"#utility.yul\":2805:2820   */\n  revert\n    /* \"Subasta_Bonaduce.sol\":719:12760  contract AuctionBsAs {... */\ntag_15:\n  dataSize(sub_0)\n  dup1\n  dataOffset(sub_0)\n  0x00\n  codecopy\n  0x00\n  return\nstop\n\nsub_0: assembly {\n        /* \"Subasta_Bonaduce.sol\":719:12760  contract AuctionBsAs {... */\n      mstore(0x40, 0x80)\n      jumpi(tag_1, lt(calldatasize, 0x04))\n      shr(0xe0, calldataload(0x00))\n      dup1\n      0x8da5cb5b\n      gt\n      tag_21\n      jumpi\n      dup1\n      0xd57bde79\n      gt\n      tag_22\n      jumpi\n      dup1\n      0xd57bde79\n      eq\n      tag_16\n      jumpi\n      dup1\n      0xe34d1e69\n      eq\n      tag_17\n      jumpi\n      dup1\n      0xeba7bb9d\n      eq\n      tag_18\n      jumpi\n      dup1\n      0xecfc7ecc\n      eq\n      tag_19\n      jumpi\n      dup1\n      0xfe67a54b\n      eq\n      tag_20\n      jumpi\n      jump(tag_1)\n    tag_22:\n      dup1\n      0x8da5cb5b\n      eq\n      tag_11\n      jumpi\n      dup1\n      0x91f90157\n      eq\n      tag_12\n      jumpi\n      dup1\n      0x92bff767\n      eq\n      tag_13\n      jumpi\n      dup1\n      0xbe35460b\n      eq\n      tag_14\n      jumpi\n      dup1\n      0xcff29dfd\n      eq\n      tag_15\n      jumpi\n      jump(tag_1)\n    tag_21:\n      dup1\n      0x4b449cba\n      gt\n      tag_23\n      jumpi\n      dup1\n      0x4b449cba\n      eq\n      tag_6\n      jumpi\n      dup1\n      0x62c71635\n      eq\n      tag_7\n      jumpi\n      dup1\n      0x7cf2ed22\n      eq\n      tag_8\n      jumpi\n      dup1\n      0x7d615e65\n      eq\n      tag_9\n      jumpi\n      dup1\n      0x7fb45099\n      eq\n      tag_10\n      jumpi\n      jump(tag_1)\n    tag_23:\n      dup1\n      0x1ce2bcf5\n      eq\n      tag_2\n      jumpi\n      dup1\n      0x25abd4c7\n      eq\n      tag_3\n      jumpi\n      dup1\n      0x2f49e964\n      eq\n      tag_4\n      jumpi\n      dup1\n      0x47343711\n      eq\n      tag_5\n      jumpi\n    tag_1:\n      0x00\n      dup1\n      revert\n        /* \"Subasta_Bonaduce.sol\":7734:9199  function partialRefund() external onlyDuringActiveAuction {... */\n    tag_2:\n      callvalue\n      dup1\n      iszero\n      tag_24\n      jumpi\n      0x00\n      dup1\n      revert\n    tag_24:\n      pop\n      tag_25\n      tag_26\n      jump\t// in\n    tag_25:\n      stop\n        /* \"Subasta_Bonaduce.sol\":1876:1921  mapping(address => uint[]) public bidsHistory */\n    tag_3:\n      callvalue\n      dup1\n      iszero\n      tag_27\n      jumpi\n      0x00\n      dup1\n      revert\n    tag_27:\n      pop\n      tag_28\n      0x04\n      dup1\n      calldatasize\n      sub\n      dup2\n      add\n      swap1\n      tag_29\n      swap2\n      swap1\n      tag_30\n      jump\t// in\n    tag_29:\n      tag_31\n      jump\t// in\n    tag_28:\n      mload(0x40)\n      tag_32\n      swap2\n      swap1\n      tag_33\n      jump\t// in\n    tag_32:\n      mload(0x40)\n      dup1\n      swap2\n      sub\n      swap1\n      return\n        /* \"Subasta_Bonaduce.sol\":12067:12757  function withdrawWinningBid() external onlyOwner onlyAfterDepositsRefunded {... */\n    tag_4:\n      callvalue\n      dup1\n      iszero\n      tag_34\n      jumpi\n      0x00\n      dup1\n      revert\n    tag_34:\n      pop\n      tag_35\n      tag_36\n      jump\t// in\n    tag_35:\n      stop\n        /* \"Subasta_Bonaduce.sol\":7466:7566  function viewOffers() external view returns (Offer[] memory) {... */\n    tag_5:\n      callvalue\n      dup1\n      iszero\n      tag_37\n      jumpi\n      0x00\n      dup1\n      revert\n    tag_37:\n      pop\n      tag_38\n      tag_39\n      jump\t// in\n    tag_38:\n      mload(0x40)\n      tag_40\n      swap2\n      swap1\n      tag_41\n      jump\t// in\n    tag_40:\n      mload(0x40)\n      dup1\n      swap2\n      sub\n      swap1\n      return\n        /* \"Subasta_Bonaduce.sol\":1027:1053  uint public auctionEndTime */\n    tag_6:\n      callvalue\n      dup1\n      iszero\n      tag_42\n      jumpi\n      0x00\n      dup1\n      revert\n    tag_42:\n      pop\n      tag_43\n      tag_44\n      jump\t// in\n    tag_43:\n      mload(0x40)\n      tag_45\n      swap2\n      swap1\n      tag_33\n      jump\t// in\n    tag_45:\n      mload(0x40)\n      dup1\n      swap2\n      sub\n      swap1\n      return\n        /* \"Subasta_Bonaduce.sol\":2035:2076  mapping(address => uint) public totalBids */\n    tag_7:\n      callvalue\n      dup1\n      iszero\n      tag_46\n      jumpi\n      0x00\n      dup1\n      revert\n    tag_46:\n      pop\n      tag_47\n      0x04\n      dup1\n      calldatasize\n      sub\n      dup2\n      add\n      swap1\n      tag_48\n      swap2\n      swap1\n      tag_49\n      jump\t// in\n    tag_48:\n      tag_50\n      jump\t// in\n    tag_47:\n      mload(0x40)\n      tag_51\n      swap2\n      swap1\n      tag_33\n      jump\t// in\n    tag_51:\n      mload(0x40)\n      dup1\n      swap2\n      sub\n      swap1\n      return\n        /* \"Subasta_Bonaduce.sol\":10449:11374  function withdrawDeposits() external onlyOwner onlyAfterAuctionEnded {... */\n    tag_8:\n      callvalue\n      dup1\n      iszero\n      tag_52\n      jumpi\n      0x00\n      dup1\n      revert\n    tag_52:\n      pop\n      tag_53\n      tag_54\n      jump\t// in\n    tag_53:\n      stop\n        /* \"Subasta_Bonaduce.sol\":5712:5740  Offer[] public offersHistory */\n    tag_9:\n      callvalue\n      dup1\n      iszero\n      tag_55\n      jumpi\n      0x00\n      dup1\n      revert\n    tag_55:\n      pop\n      tag_56\n      0x04\n      dup1\n      calldatasize\n      sub\n      dup2\n      add\n      swap1\n      tag_57\n      swap2\n      swap1\n      tag_58\n      jump\t// in\n    tag_57:\n      tag_59\n      jump\t// in\n    tag_56:\n      mload(0x40)\n      tag_60\n      swap3\n      swap2\n      swap1\n      tag_61\n      jump\t// in\n    tag_60:\n      mload(0x40)\n      dup1\n      swap2\n      sub\n      swap1\n      return\n        /* \"Subasta_Bonaduce.sol\":933:965  AuctionState public auctionState */\n    tag_10:\n      callvalue\n      dup1\n      iszero\n      tag_62\n      jumpi\n      0x00\n      dup1\n      revert\n    tag_62:\n      pop\n      tag_63\n      tag_64\n      jump\t// in\n    tag_63:\n      mload(0x40)\n      tag_65\n      swap2\n      swap1\n      tag_66\n      jump\t// in\n    tag_65:\n      mload(0x40)\n      dup1\n      swap2\n      sub\n      swap1\n      return\n        /* \"Subasta_Bonaduce.sol\":1390:1410  address public owner */\n    tag_11:\n      callvalue\n      dup1\n      iszero\n      tag_67\n      jumpi\n      0x00\n      dup1\n      revert\n    tag_67:\n      pop\n      tag_68\n      tag_69\n      jump\t// in\n    tag_68:\n      mload(0x40)\n      tag_70\n      swap2\n      swap1\n      tag_71\n      jump\t// in\n    tag_70:\n      mload(0x40)\n      dup1\n      swap2\n      sub\n      swap1\n      return\n        /* \"Subasta_Bonaduce.sol\":1295:1323  address public highestBidder */\n    tag_12:\n      callvalue\n      dup1\n      iszero\n      tag_72\n      jumpi\n      0x00\n      dup1\n      revert\n    tag_72:\n      pop\n      tag_73\n      tag_74\n      jump\t// in\n    tag_73:\n      mload(0x40)\n      tag_75\n      swap2\n      swap1\n      tag_71\n      jump\t// in\n    tag_75:\n      mload(0x40)\n      dup1\n      swap2\n      sub\n      swap1\n      return\n        /* \"Subasta_Bonaduce.sol\":9368:9830  function viewDeposits() external view returns (address[] memory, uint[] memory) {... */\n    tag_13:\n      callvalue\n      dup1\n      iszero\n      tag_76\n      jumpi\n      0x00\n      dup1\n      revert\n    tag_76:\n      pop\n      tag_77\n      tag_78\n      jump\t// in\n    tag_77:\n      mload(0x40)\n      tag_79\n      swap3\n      swap2\n      swap1\n      tag_80\n      jump\t// in\n    tag_79:\n      mload(0x40)\n      dup1\n      swap2\n      sub\n      swap1\n      return\n        /* \"Subasta_Bonaduce.sol\":2201:2254  mapping(address => uint) public partialRefundedAmount */\n    tag_14:\n      callvalue\n      dup1\n      iszero\n      tag_81\n      jumpi\n      0x00\n      dup1\n      revert\n    tag_81:\n      pop\n      tag_82\n      0x04\n      dup1\n      calldatasize\n      sub\n      dup2\n      add\n      swap1\n      tag_83\n      swap2\n      swap1\n      tag_49\n      jump\t// in\n    tag_83:\n      tag_84\n      jump\t// in\n    tag_82:\n      mload(0x40)\n      tag_85\n      swap2\n      swap1\n      tag_33\n      jump\t// in\n    tag_85:\n      mload(0x40)\n      dup1\n      swap2\n      sub\n      swap1\n      return\n        /* \"Subasta_Bonaduce.sol\":2372:2396  address[] public bidders */\n    tag_15:\n      callvalue\n      dup1\n      iszero\n      tag_86\n      jumpi\n      0x00\n      dup1\n      revert\n    tag_86:\n      pop\n      tag_87\n      0x04\n      dup1\n      calldatasize\n      sub\n      dup2\n      add\n      swap1\n      tag_88\n      swap2\n      swap1\n      tag_58\n      jump\t// in\n    tag_88:\n      tag_89\n      jump\t// in\n    tag_87:\n      mload(0x40)\n      tag_90\n      swap2\n      swap1\n      tag_71\n      jump\t// in\n    tag_90:\n      mload(0x40)\n      dup1\n      swap2\n      sub\n      swap1\n      return\n        /* \"Subasta_Bonaduce.sol\":1201:1223  uint public highestBid */\n    tag_16:\n      callvalue\n      dup1\n      iszero\n      tag_91\n      jumpi\n      0x00\n      dup1\n      revert\n    tag_91:\n      pop\n      tag_92\n      tag_93\n      jump\t// in\n    tag_92:\n      mload(0x40)\n      tag_94\n      swap2\n      swap1\n      tag_33\n      jump\t// in\n    tag_94:\n      mload(0x40)\n      dup1\n      swap2\n      sub\n      swap1\n      return\n        /* \"Subasta_Bonaduce.sol\":11456:11992  function withdrawCommissions() external onlyOwner onlyAfterDepositsRefunded {... */\n    tag_17:\n      callvalue\n      dup1\n      iszero\n      tag_95\n      jumpi\n      0x00\n      dup1\n      revert\n    tag_95:\n      pop\n      tag_96\n      tag_97\n      jump\t// in\n    tag_96:\n      stop\n        /* \"Subasta_Bonaduce.sol\":1124:1151  uint public commissionFunds */\n    tag_18:\n      callvalue\n      dup1\n      iszero\n      tag_98\n      jumpi\n      0x00\n      dup1\n      revert\n    tag_98:\n      pop\n      tag_99\n      tag_100\n      jump\t// in\n    tag_99:\n      mload(0x40)\n      tag_101\n      swap2\n      swap1\n      tag_33\n      jump\t// in\n    tag_101:\n      mload(0x40)\n      dup1\n      swap2\n      sub\n      swap1\n      return\n        /* \"Subasta_Bonaduce.sol\":6423:7312  function placeBid() external payable onlyDuringActiveAuction validBid(msg.value) {... */\n    tag_19:\n      tag_102\n      tag_103\n      jump\t// in\n    tag_102:\n      stop\n        /* \"Subasta_Bonaduce.sol\":9916:10268  function endAuction() external onlyOwner onlyAfterAuctionEnded {... */\n    tag_20:\n      callvalue\n      dup1\n      iszero\n      tag_104\n      jumpi\n      0x00\n      dup1\n      revert\n    tag_104:\n      pop\n      tag_105\n      tag_106\n      jump\t// in\n    tag_105:\n      stop\n        /* \"Subasta_Bonaduce.sol\":7734:9199  function partialRefund() external onlyDuringActiveAuction {... */\n    tag_26:\n        /* \"Subasta_Bonaduce.sol\":2773:2792  AuctionState.Active */\n      0x00\n        /* \"Subasta_Bonaduce.sol\":2757:2792  auctionState == AuctionState.Active */\n      0x03\n      dup2\n      gt\n      iszero\n      tag_108\n      jumpi\n      tag_109\n      tag_110\n      jump\t// in\n    tag_109:\n    tag_108:\n        /* \"Subasta_Bonaduce.sol\":2757:2769  auctionState */\n      0x00\n      dup1\n      sload\n      swap1\n      0x0100\n      exp\n      swap1\n      div\n      0xff\n      and\n        /* \"Subasta_Bonaduce.sol\":2757:2792  auctionState == AuctionState.Active */\n      0x03\n      dup2\n      gt\n      iszero\n      tag_111\n      jumpi\n      tag_112\n      tag_110\n      jump\t// in\n    tag_112:\n    tag_111:\n      eq\n        /* \"Subasta_Bonaduce.sol\":2749:2822  require(auctionState == AuctionState.Active, \"La subasta no esta activa\") */\n      tag_113\n      jumpi\n      mload(0x40)\n      0x08c379a000000000000000000000000000000000000000000000000000000000\n      dup2\n      mstore\n      0x04\n      add\n      tag_114\n      swap1\n      tag_115\n      jump\t// in\n    tag_114:\n      mload(0x40)\n      dup1\n      swap2\n      sub\n      swap1\n      revert\n    tag_113:\n        /* \"Subasta_Bonaduce.sol\":7823:7845  AuctionState.Completed */\n      0x03\n        /* \"Subasta_Bonaduce.sol\":7807:7845  auctionState != AuctionState.Completed */\n      dup1\n      dup2\n      gt\n      iszero\n      tag_117\n      jumpi\n      tag_118\n      tag_110\n      jump\t// in\n    tag_118:\n    tag_117:\n        /* \"Subasta_Bonaduce.sol\":7807:7819  auctionState */\n      0x00\n      dup1\n      sload\n      swap1\n      0x0100\n      exp\n      swap1\n      div\n      0xff\n      and\n        /* \"Subasta_Bonaduce.sol\":7807:7845  auctionState != AuctionState.Completed */\n      0x03\n      dup2\n      gt\n      iszero\n      tag_119\n      jumpi\n      tag_120\n      tag_110\n      jump\t// in\n    tag_120:\n    tag_119:\n      sub\n        /* \"Subasta_Bonaduce.sol\":7799:7883  require(auctionState != AuctionState.Completed, \"La subasta ya ha sido completada.\") */\n      tag_121\n      jumpi\n      mload(0x40)\n      0x08c379a000000000000000000000000000000000000000000000000000000000\n      dup2\n      mstore\n      0x04\n      add\n      tag_122\n      swap1\n      tag_123\n      jump\t// in\n    tag_122:\n      mload(0x40)\n      dup1\n      swap2\n      sub\n      swap1\n      revert\n    tag_121:\n        /* \"Subasta_Bonaduce.sol\":7890:7912  uint totalPreviousBids */\n      0x00\n        /* \"Subasta_Bonaduce.sol\":7923:7946  uint[] storage userBids */\n      dup1\n        /* \"Subasta_Bonaduce.sol\":7949:7960  bidsHistory */\n      0x06\n        /* \"Subasta_Bonaduce.sol\":7949:7972  bidsHistory[msg.sender] */\n      0x00\n        /* \"Subasta_Bonaduce.sol\":7961:7971  msg.sender */\n      caller\n        /* \"Subasta_Bonaduce.sol\":7949:7972  bidsHistory[msg.sender] */\n      0xffffffffffffffffffffffffffffffffffffffff\n      and\n      0xffffffffffffffffffffffffffffffffffffffff\n      and\n      dup2\n      mstore\n      0x20\n      add\n      swap1\n      dup2\n      mstore\n      0x20\n      add\n      0x00\n      keccak256\n        /* \"Subasta_Bonaduce.sol\":7923:7972  uint[] storage userBids = bidsHistory[msg.sender] */\n      swap1\n      pop\n        /* \"Subasta_Bonaduce.sol\":8005:8006  1 */\n      0x01\n        /* \"Subasta_Bonaduce.sol\":7987:7995  userBids */\n      dup2\n        /* \"Subasta_Bonaduce.sol\":7987:8002  userBids.length */\n      dup1\n      sload\n      swap1\n      pop\n        /* \"Subasta_Bonaduce.sol\":7987:8006  userBids.length > 1 */\n      gt\n        /* \"Subasta_Bonaduce.sol\":7979:8050  require(userBids.length > 1, \"No hay ofertas anteriores para retirar.\") */\n      tag_124\n      jumpi\n      mload(0x40)\n      0x08c379a000000000000000000000000000000000000000000000000000000000\n      dup2\n      mstore\n      0x04\n      add\n      tag_125\n      swap1\n      tag_126\n      jump\t// in\n    tag_125:\n      mload(0x40)\n      dup1\n      swap2\n      sub\n      swap1\n      revert\n    tag_124:\n        /* \"Subasta_Bonaduce.sol\":8129:8135  uint i */\n      0x00\n        /* \"Subasta_Bonaduce.sol\":8124:8222  for (uint i = 0; i < userBids.length - 1; i++) {... */\n    tag_127:\n        /* \"Subasta_Bonaduce.sol\":8163:8164  1 */\n      0x01\n        /* \"Subasta_Bonaduce.sol\":8145:8153  userBids */\n      dup3\n        /* \"Subasta_Bonaduce.sol\":8145:8160  userBids.length */\n      dup1\n      sload\n      swap1\n      pop\n        /* \"Subasta_Bonaduce.sol\":8145:8164  userBids.length - 1 */\n      tag_130\n      swap2\n      swap1\n      tag_131\n      jump\t// in\n    tag_130:\n        /* \"Subasta_Bonaduce.sol\":8141:8142  i */\n      dup2\n        /* \"Subasta_Bonaduce.sol\":8141:8164  i < userBids.length - 1 */\n      lt\n        /* \"Subasta_Bonaduce.sol\":8124:8222  for (uint i = 0; i < userBids.length - 1; i++) {... */\n      iszero\n      tag_128\n      jumpi\n        /* \"Subasta_Bonaduce.sol\":8203:8211  userBids */\n      dup2\n        /* \"Subasta_Bonaduce.sol\":8212:8213  i */\n      dup2\n        /* \"Subasta_Bonaduce.sol\":8203:8214  userBids[i] */\n      dup2\n      sload\n      dup2\n      lt\n      tag_132\n      jumpi\n      tag_133\n      tag_134\n      jump\t// in\n    tag_133:\n    tag_132:\n      swap1\n      0x00\n      mstore\n      keccak256(0x00, 0x20)\n      add\n      sload\n        /* \"Subasta_Bonaduce.sol\":8182:8214  totalPreviousBids += userBids[i] */\n      dup4\n      tag_136\n      swap2\n      swap1\n      tag_137\n      jump\t// in\n    tag_136:\n      swap3\n      pop\n        /* \"Subasta_Bonaduce.sol\":8166:8169  i++ */\n      dup1\n      dup1\n      0x01\n      add\n      swap2\n      pop\n      pop\n        /* \"Subasta_Bonaduce.sol\":8124:8222  for (uint i = 0; i < userBids.length - 1; i++) {... */\n      jump(tag_127)\n    tag_128:\n      pop\n        /* \"Subasta_Bonaduce.sol\":8304:8325  uint refundableAmount */\n      0x00\n        /* \"Subasta_Bonaduce.sol\":8348:8369  partialRefundedAmount */\n      0x08\n        /* \"Subasta_Bonaduce.sol\":8348:8381  partialRefundedAmount[msg.sender] */\n      0x00\n        /* \"Subasta_Bonaduce.sol\":8370:8380  msg.sender */\n      caller\n        /* \"Subasta_Bonaduce.sol\":8348:8381  partialRefundedAmount[msg.sender] */\n      0xffffffffffffffffffffffffffffffffffffffff\n      and\n      0xffffffffffffffffffffffffffffffffffffffff\n      and\n      dup2\n      mstore\n      0x20\n      add\n      swap1\n      dup2\n      mstore\n      0x20\n      add\n      0x00\n      keccak256\n      sload\n        /* \"Subasta_Bonaduce.sol\":8328:8345  totalPreviousBids */\n      dup4\n        /* \"Subasta_Bonaduce.sol\":8328:8381  totalPreviousBids - partialRefundedAmount[msg.sender] */\n      tag_138\n      swap2\n      swap1\n      tag_131\n      jump\t// in\n    tag_138:\n        /* \"Subasta_Bonaduce.sol\":8304:8381  uint refundableAmount = totalPreviousBids - partialRefundedAmount[msg.sender] */\n      swap1\n      pop\n        /* \"Subasta_Bonaduce.sol\":8415:8416  0 */\n      0x00\n        /* \"Subasta_Bonaduce.sol\":8396:8412  refundableAmount */\n      dup2\n        /* \"Subasta_Bonaduce.sol\":8396:8416  refundableAmount > 0 */\n      gt\n        /* \"Subasta_Bonaduce.sol\":8388:8460  require(refundableAmount > 0, \"No hay saldo adicional para reembolsar.\") */\n      tag_139\n      jumpi\n      mload(0x40)\n      0x08c379a000000000000000000000000000000000000000000000000000000000\n      dup2\n      mstore\n      0x04\n      add\n      tag_140\n      swap1\n      tag_141\n      jump\t// in\n    tag_140:\n      mload(0x40)\n      dup1\n      swap2\n      sub\n      swap1\n      revert\n    tag_139:\n        /* \"Subasta_Bonaduce.sol\":8564:8580  refundableAmount */\n      dup1\n        /* \"Subasta_Bonaduce.sol\":8527:8548  partialRefundedAmount */\n      0x08\n        /* \"Subasta_Bonaduce.sol\":8527:8560  partialRefundedAmount[msg.sender] */\n      0x00\n        /* \"Subasta_Bonaduce.sol\":8549:8559  msg.sender */\n      caller\n        /* \"Subasta_Bonaduce.sol\":8527:8560  partialRefundedAmount[msg.sender] */\n      0xffffffffffffffffffffffffffffffffffffffff\n      and\n      0xffffffffffffffffffffffffffffffffffffffff\n      and\n      dup2\n      mstore\n      0x20\n      add\n      swap1\n      dup2\n      mstore\n      0x20\n      add\n      0x00\n      keccak256\n      0x00\n        /* \"Subasta_Bonaduce.sol\":8527:8580  partialRefundedAmount[msg.sender] += refundableAmount */\n      dup3\n      dup3\n      sload\n      tag_142\n      swap2\n      swap1\n      tag_137\n      jump\t// in\n    tag_142:\n      swap3\n      pop\n      pop\n      dup2\n      swap1\n      sstore\n      pop\n        /* \"Subasta_Bonaduce.sol\":8615:8636  uint commissionAmount */\n      0x00\n        /* \"Subasta_Bonaduce.sol\":8673:8676  100 */\n      0x64\n        /* \"Subasta_Bonaduce.sol\":1542:1543  2 */\n      0x02\n        /* \"Subasta_Bonaduce.sol\":8640:8656  refundableAmount */\n      dup4\n        /* \"Subasta_Bonaduce.sol\":8640:8669  refundableAmount * COMMISSION */\n      tag_143\n      swap2\n      swap1\n      tag_144\n      jump\t// in\n    tag_143:\n        /* \"Subasta_Bonaduce.sol\":8639:8676  (refundableAmount * COMMISSION) / 100 */\n      tag_145\n      swap2\n      swap1\n      tag_146\n      jump\t// in\n    tag_145:\n        /* \"Subasta_Bonaduce.sol\":8615:8676  uint commissionAmount = (refundableAmount * COMMISSION) / 100 */\n      swap1\n      pop\n        /* \"Subasta_Bonaduce.sol\":8683:8700  uint refundAmount */\n      0x00\n        /* \"Subasta_Bonaduce.sol\":8722:8738  commissionAmount */\n      dup2\n        /* \"Subasta_Bonaduce.sol\":8703:8719  refundableAmount */\n      dup4\n        /* \"Subasta_Bonaduce.sol\":8703:8738  refundableAmount - commissionAmount */\n      tag_147\n      swap2\n      swap1\n      tag_131\n      jump\t// in\n    tag_147:\n        /* \"Subasta_Bonaduce.sol\":8683:8738  uint refundAmount = refundableAmount - commissionAmount */\n      swap1\n      pop\n        /* \"Subasta_Bonaduce.sol\":8843:8851  userBids */\n      dup4\n        /* \"Subasta_Bonaduce.sol\":8870:8871  1 */\n      0x01\n        /* \"Subasta_Bonaduce.sol\":8852:8860  userBids */\n      dup6\n        /* \"Subasta_Bonaduce.sol\":8852:8867  userBids.length */\n      dup1\n      sload\n      swap1\n      pop\n        /* \"Subasta_Bonaduce.sol\":8852:8871  userBids.length - 1 */\n      tag_148\n      swap2\n      swap1\n      tag_131\n      jump\t// in\n    tag_148:\n        /* \"Subasta_Bonaduce.sol\":8843:8872  userBids[userBids.length - 1] */\n      dup2\n      sload\n      dup2\n      lt\n      tag_149\n      jumpi\n      tag_150\n      tag_134\n      jump\t// in\n    tag_150:\n    tag_149:\n      swap1\n      0x00\n      mstore\n      keccak256(0x00, 0x20)\n      add\n      sload\n        /* \"Subasta_Bonaduce.sol\":8819:8828  totalBids */\n      0x07\n        /* \"Subasta_Bonaduce.sol\":8819:8840  totalBids[msg.sender] */\n      0x00\n        /* \"Subasta_Bonaduce.sol\":8829:8839  msg.sender */\n      caller\n        /* \"Subasta_Bonaduce.sol\":8819:8840  totalBids[msg.sender] */\n      0xffffffffffffffffffffffffffffffffffffffff\n      and\n      0xffffffffffffffffffffffffffffffffffffffff\n      and\n      dup2\n      mstore\n      0x20\n      add\n      swap1\n      dup2\n      mstore\n      0x20\n      add\n      0x00\n      keccak256\n        /* \"Subasta_Bonaduce.sol\":8819:8872  totalBids[msg.sender] = userBids[userBids.length - 1] */\n      dup2\n      swap1\n      sstore\n      pop\n        /* \"Subasta_Bonaduce.sol\":8943:8959  commissionAmount */\n      dup2\n        /* \"Subasta_Bonaduce.sol\":8924:8939  commissionFunds */\n      0x02\n      0x00\n        /* \"Subasta_Bonaduce.sol\":8924:8959  commissionFunds += commissionAmount */\n      dup3\n      dup3\n      sload\n      tag_152\n      swap2\n      swap1\n      tag_137\n      jump\t// in\n    tag_152:\n      swap3\n      pop\n      pop\n      dup2\n      swap1\n      sstore\n      pop\n        /* \"Subasta_Bonaduce.sol\":9009:9021  bool success */\n      0x00\n        /* \"Subasta_Bonaduce.sol\":9035:9045  msg.sender */\n      caller\n        /* \"Subasta_Bonaduce.sol\":9027:9051  payable(msg.sender).call */\n      0xffffffffffffffffffffffffffffffffffffffff\n      and\n        /* \"Subasta_Bonaduce.sol\":9059:9071  refundAmount */\n      dup3\n        /* \"Subasta_Bonaduce.sol\":9027:9076  payable(msg.sender).call{value: refundAmount}(\"\") */\n      mload(0x40)\n      tag_153\n      swap1\n      tag_154\n      jump\t// in\n    tag_153:\n      0x00\n      mload(0x40)\n      dup1\n      dup4\n      sub\n      dup2\n      dup6\n      dup8\n      gas\n      call\n      swap3\n      pop\n      pop\n      pop\n      returndatasize\n      dup1\n      0x00\n      dup2\n      eq\n      tag_157\n      jumpi\n      mload(0x40)\n      swap2\n      pop\n      and(add(returndatasize, 0x3f), not(0x1f))\n      dup3\n      add\n      0x40\n      mstore\n      returndatasize\n      dup3\n      mstore\n      returndatasize\n      0x00\n      0x20\n      dup5\n      add\n      returndatacopy\n      jump(tag_156)\n    tag_157:\n      0x60\n      swap2\n      pop\n    tag_156:\n      pop\n        /* \"Subasta_Bonaduce.sol\":9008:9076  (bool success, ) = payable(msg.sender).call{value: refundAmount}(\"\") */\n      pop\n      swap1\n      pop\n        /* \"Subasta_Bonaduce.sol\":9091:9098  success */\n      dup1\n        /* \"Subasta_Bonaduce.sol\":9083:9142  require(success, \"Fallo al realizar el reembolso parcial.\") */\n      tag_158\n      jumpi\n      mload(0x40)\n      0x08c379a000000000000000000000000000000000000000000000000000000000\n      dup2\n      mstore\n      0x04\n      add\n      tag_159\n      swap1\n      tag_160\n      jump\t// in\n    tag_159:\n      mload(0x40)\n      dup1\n      swap2\n      sub\n      swap1\n      revert\n    tag_158:\n        /* \"Subasta_Bonaduce.sol\":9170:9180  msg.sender */\n      caller\n        /* \"Subasta_Bonaduce.sol\":9156:9195  PartialRefund(msg.sender, refundAmount) */\n      0xffffffffffffffffffffffffffffffffffffffff\n      and\n      0xdce68997783ae47468b6fb0dd39cca315f9082d51d9ab3df8747c70512aa8ff2\n        /* \"Subasta_Bonaduce.sol\":9182:9194  refundAmount */\n      dup4\n        /* \"Subasta_Bonaduce.sol\":9156:9195  PartialRefund(msg.sender, refundAmount) */\n      mload(0x40)\n      tag_161\n      swap2\n      swap1\n      tag_33\n      jump\t// in\n    tag_161:\n      mload(0x40)\n      dup1\n      swap2\n      sub\n      swap1\n      log2\n        /* \"Subasta_Bonaduce.sol\":7792:9199  {... */\n      pop\n      pop\n      pop\n      pop\n      pop\n      pop\n        /* \"Subasta_Bonaduce.sol\":7734:9199  function partialRefund() external onlyDuringActiveAuction {... */\n      jump\t// out\n        /* \"Subasta_Bonaduce.sol\":1876:1921  mapping(address => uint[]) public bidsHistory */\n    tag_31:\n      mstore(0x20, 0x06)\n      dup2\n      0x00\n      mstore\n      keccak256(0x00, 0x40)\n      dup2\n      dup2\n      sload\n      dup2\n      lt\n      tag_162\n      jumpi\n      0x00\n      dup1\n      revert\n    tag_162:\n      swap1\n      0x00\n      mstore\n      keccak256(0x00, 0x20)\n      add\n      0x00\n      swap2\n      pop\n      swap2\n      pop\n      pop\n      sload\n      dup2\n      jump\t// out\n        /* \"Subasta_Bonaduce.sol\":12067:12757  function withdrawWinningBid() external onlyOwner onlyAfterDepositsRefunded {... */\n    tag_36:\n        /* \"Subasta_Bonaduce.sol\":2550:2555  owner */\n      0x05\n      0x00\n      swap1\n      sload\n      swap1\n      0x0100\n      exp\n      swap1\n      div\n      0xffffffffffffffffffffffffffffffffffffffff\n      and\n        /* \"Subasta_Bonaduce.sol\":2536:2555  msg.sender == owner */\n      0xffffffffffffffffffffffffffffffffffffffff\n      and\n        /* \"Subasta_Bonaduce.sol\":2536:2546  msg.sender */\n      caller\n        /* \"Subasta_Bonaduce.sol\":2536:2555  msg.sender == owner */\n      0xffffffffffffffffffffffffffffffffffffffff\n      and\n      eq\n        /* \"Subasta_Bonaduce.sol\":2528:2607  require(msg.sender == owner, \"Solo el propietario puede ejecutar esta funcion\") */\n      tag_165\n      jumpi\n      mload(0x40)\n      0x08c379a000000000000000000000000000000000000000000000000000000000\n      dup2\n      mstore\n      0x04\n      add\n      tag_166\n      swap1\n      tag_167\n      jump\t// in\n    tag_166:\n      mload(0x40)\n      dup1\n      swap2\n      sub\n      swap1\n      revert\n    tag_165:\n        /* \"Subasta_Bonaduce.sol\":3570:3599  AuctionState.DepositsRefunded */\n      0x02\n        /* \"Subasta_Bonaduce.sol\":3554:3599  auctionState == AuctionState.DepositsRefunded */\n      0x03\n      dup2\n      gt\n      iszero\n      tag_169\n      jumpi\n      tag_170\n      tag_110\n      jump\t// in\n    tag_170:\n    tag_169:\n        /* \"Subasta_Bonaduce.sol\":3554:3566  auctionState */\n      0x00\n      dup1\n      sload\n      swap1\n      0x0100\n      exp\n      swap1\n      div\n      0xff\n      and\n        /* \"Subasta_Bonaduce.sol\":3554:3599  auctionState == AuctionState.DepositsRefunded */\n      0x03\n      dup2\n      gt\n      iszero\n      tag_171\n      jumpi\n      tag_172\n      tag_110\n      jump\t// in\n    tag_172:\n    tag_171:\n      eq\n        /* \"Subasta_Bonaduce.sol\":3546:3643  require(auctionState == AuctionState.DepositsRefunded, \"Los depositos no han sido reembolsados.\") */\n      tag_173\n      jumpi\n      mload(0x40)\n      0x08c379a000000000000000000000000000000000000000000000000000000000\n      dup2\n      mstore\n      0x04\n      add\n      tag_174\n      swap1\n      tag_175\n      jump\t// in\n    tag_174:\n      mload(0x40)\n      dup1\n      swap2\n      sub\n      swap1\n      revert\n    tag_173:\n        /* \"Subasta_Bonaduce.sol\":12177:12199  AuctionState.Completed */\n      0x03\n        /* \"Subasta_Bonaduce.sol\":12161:12199  auctionState != AuctionState.Completed */\n      dup1\n      dup2\n      gt\n      iszero\n      tag_177\n      jumpi\n      tag_178\n      tag_110\n      jump\t// in\n    tag_178:\n    tag_177:\n        /* \"Subasta_Bonaduce.sol\":12161:12173  auctionState */\n      0x00\n      dup1\n      sload\n      swap1\n      0x0100\n      exp\n      swap1\n      div\n      0xff\n      and\n        /* \"Subasta_Bonaduce.sol\":12161:12199  auctionState != AuctionState.Completed */\n      0x03\n      dup2\n      gt\n      iszero\n      tag_179\n      jumpi\n      tag_180\n      tag_110\n      jump\t// in\n    tag_180:\n    tag_179:\n      sub\n        /* \"Subasta_Bonaduce.sol\":12153:12237  require(auctionState != AuctionState.Completed, \"La subasta ya ha sido completada.\") */\n      tag_181\n      jumpi\n      mload(0x40)\n      0x08c379a000000000000000000000000000000000000000000000000000000000\n      dup2\n      mstore\n      0x04\n      add\n      tag_182\n      swap1\n      tag_123\n      jump\t// in\n    tag_182:\n      mload(0x40)\n      dup1\n      swap2\n      sub\n      swap1\n      revert\n    tag_181:\n        /* \"Subasta_Bonaduce.sol\":12272:12301  AuctionState.DepositsRefunded */\n      0x02\n        /* \"Subasta_Bonaduce.sol\":12256:12301  auctionState == AuctionState.DepositsRefunded */\n      0x03\n      dup2\n      gt\n      iszero\n      tag_183\n      jumpi\n      tag_184\n      tag_110\n      jump\t// in\n    tag_184:\n    tag_183:\n        /* \"Subasta_Bonaduce.sol\":12256:12268  auctionState */\n      0x00\n      dup1\n      sload\n      swap1\n      0x0100\n      exp\n      swap1\n      div\n      0xff\n      and\n        /* \"Subasta_Bonaduce.sol\":12256:12301  auctionState == AuctionState.DepositsRefunded */\n      0x03\n      dup2\n      gt\n      iszero\n      tag_185\n      jumpi\n      tag_186\n      tag_110\n      jump\t// in\n    tag_186:\n    tag_185:\n      eq\n        /* \"Subasta_Bonaduce.sol\":12248:12345  require(auctionState == AuctionState.DepositsRefunded, \"Los depositos no han sido reembolsados.\") */\n      tag_187\n      jumpi\n      mload(0x40)\n      0x08c379a000000000000000000000000000000000000000000000000000000000\n      dup2\n      mstore\n      0x04\n      add\n      tag_188\n      swap1\n      tag_175\n      jump\t// in\n    tag_188:\n      mload(0x40)\n      dup1\n      swap2\n      sub\n      swap1\n      revert\n    tag_187:\n        /* \"Subasta_Bonaduce.sol\":12356:12367  uint amount */\n      0x00\n        /* \"Subasta_Bonaduce.sol\":12370:12380  highestBid */\n      sload(0x03)\n        /* \"Subasta_Bonaduce.sol\":12356:12380  uint amount = highestBid */\n      swap1\n      pop\n        /* \"Subasta_Bonaduce.sol\":12406:12428  AuctionState.Completed */\n      0x03\n        /* \"Subasta_Bonaduce.sol\":12391:12403  auctionState */\n      0x00\n      dup1\n        /* \"Subasta_Bonaduce.sol\":12391:12428  auctionState = AuctionState.Completed */\n      0x0100\n      exp\n      dup2\n      sload\n      dup2\n      0xff\n      mul\n      not\n      and\n      swap1\n      dup4\n      0x03\n      dup2\n      gt\n      iszero\n      tag_189\n      jumpi\n      tag_190\n      tag_110\n      jump\t// in\n    tag_190:\n    tag_189:\n      mul\n      or\n      swap1\n      sstore\n      pop\n        /* \"Subasta_Bonaduce.sol\":12523:12524  0 */\n      0x00\n        /* \"Subasta_Bonaduce.sol\":12496:12505  totalBids */\n      0x07\n        /* \"Subasta_Bonaduce.sol\":12496:12520  totalBids[highestBidder] */\n      0x00\n        /* \"Subasta_Bonaduce.sol\":12506:12519  highestBidder */\n      0x04\n      0x00\n      swap1\n      sload\n      swap1\n      0x0100\n      exp\n      swap1\n      div\n      0xffffffffffffffffffffffffffffffffffffffff\n      and\n        /* \"Subasta_Bonaduce.sol\":12496:12520  totalBids[highestBidder] */\n      0xffffffffffffffffffffffffffffffffffffffff\n      and\n      0xffffffffffffffffffffffffffffffffffffffff\n      and\n      dup2\n      mstore\n      0x20\n      add\n      swap1\n      dup2\n      mstore\n      0x20\n      add\n      0x00\n      keccak256\n        /* \"Subasta_Bonaduce.sol\":12496:12524  totalBids[highestBidder] = 0 */\n      dup2\n      swap1\n      sstore\n      pop\n        /* \"Subasta_Bonaduce.sol\":12538:12550  bool success */\n      0x00\n        /* \"Subasta_Bonaduce.sol\":12564:12569  owner */\n      0x05\n      0x00\n      swap1\n      sload\n      swap1\n      0x0100\n      exp\n      swap1\n      div\n      0xffffffffffffffffffffffffffffffffffffffff\n      and\n        /* \"Subasta_Bonaduce.sol\":12556:12575  payable(owner).call */\n      0xffffffffffffffffffffffffffffffffffffffff\n      and\n        /* \"Subasta_Bonaduce.sol\":12583:12589  amount */\n      dup3\n        /* \"Subasta_Bonaduce.sol\":12556:12594  payable(owner).call{value: amount}(\"\") */\n      mload(0x40)\n      tag_191\n      swap1\n      tag_154\n      jump\t// in\n    tag_191:\n      0x00\n      mload(0x40)\n      dup1\n      dup4\n      sub\n      dup2\n      dup6\n      dup8\n      gas\n      call\n      swap3\n      pop\n      pop\n      pop\n      returndatasize\n      dup1\n      0x00\n      dup2\n      eq\n      tag_194\n      jumpi\n      mload(0x40)\n      swap2\n      pop\n      and(add(returndatasize, 0x3f), not(0x1f))\n      dup3\n      add\n      0x40\n      mstore\n      returndatasize\n      dup3\n      mstore\n      returndatasize\n      0x00\n      0x20\n      dup5\n      add\n      returndatacopy\n      jump(tag_193)\n    tag_194:\n      0x60\n      swap2\n      pop\n    tag_193:\n      pop\n        /* \"Subasta_Bonaduce.sol\":12537:12594  (bool success, ) = payable(owner).call{value: amount}(\"\") */\n      pop\n      swap1\n      pop\n        /* \"Subasta_Bonaduce.sol\":12613:12620  success */\n      dup1\n        /* \"Subasta_Bonaduce.sol\":12605:12661  require(success, \"Fallo al retirar la oferta ganadora.\") */\n      tag_195\n      jumpi\n      mload(0x40)\n      0x08c379a000000000000000000000000000000000000000000000000000000000\n      dup2\n      mstore\n      0x04\n      add\n      tag_196\n      swap1\n      tag_197\n      jump\t// in\n    tag_196:\n      mload(0x40)\n      dup1\n      swap2\n      sub\n      swap1\n      revert\n    tag_195:\n        /* \"Subasta_Bonaduce.sol\":12679:12706  WinningBidWithdrawn(amount) */\n      0xdb23c6f1ecd7f6b51f64de3f6317061f4bb0cb9a23217a658fac91c6af46aaaa\n        /* \"Subasta_Bonaduce.sol\":12699:12705  amount */\n      dup3\n        /* \"Subasta_Bonaduce.sol\":12679:12706  WinningBidWithdrawn(amount) */\n      mload(0x40)\n      tag_198\n      swap2\n      swap1\n      tag_33\n      jump\t// in\n    tag_198:\n      mload(0x40)\n      dup1\n      swap2\n      sub\n      swap1\n      log1\n        /* \"Subasta_Bonaduce.sol\":12724:12749  AuctionCompleted(success) */\n      0xd32867df73bc4c73068741f056b4515ddce6636a748ab9317e2c69e0fbcb356a\n        /* \"Subasta_Bonaduce.sol\":12741:12748  success */\n      dup2\n        /* \"Subasta_Bonaduce.sol\":12724:12749  AuctionCompleted(success) */\n      mload(0x40)\n      tag_199\n      swap2\n      swap1\n      tag_200\n      jump\t// in\n    tag_199:\n      mload(0x40)\n      dup1\n      swap2\n      sub\n      swap1\n      log1\n        /* \"Subasta_Bonaduce.sol\":12142:12757  {... */\n      pop\n      pop\n        /* \"Subasta_Bonaduce.sol\":12067:12757  function withdrawWinningBid() external onlyOwner onlyAfterDepositsRefunded {... */\n      jump\t// out\n        /* \"Subasta_Bonaduce.sol\":7466:7566  function viewOffers() external view returns (Offer[] memory) {... */\n    tag_39:\n        /* \"Subasta_Bonaduce.sol\":7511:7525  Offer[] memory */\n      0x60\n        /* \"Subasta_Bonaduce.sol\":7545:7558  offersHistory */\n      0x0a\n        /* \"Subasta_Bonaduce.sol\":7538:7558  return offersHistory */\n      dup1\n      sload\n      dup1\n      0x20\n      mul\n      0x20\n      add\n      mload(0x40)\n      swap1\n      dup2\n      add\n      0x40\n      mstore\n      dup1\n      swap3\n      swap2\n      swap1\n      dup2\n      dup2\n      mstore\n      0x20\n      add\n      0x00\n      swap1\n    tag_202:\n      dup3\n      dup3\n      lt\n      iszero\n      tag_203\n      jumpi\n      dup4\n      dup3\n      swap1\n      0x00\n      mstore\n      keccak256(0x00, 0x20)\n      swap1\n      0x02\n      mul\n      add\n      mload(0x40)\n      dup1\n      0x40\n      add\n      0x40\n      mstore\n      swap1\n      dup2\n      0x00\n      dup3\n      add\n      0x00\n      swap1\n      sload\n      swap1\n      0x0100\n      exp\n      swap1\n      div\n      0xffffffffffffffffffffffffffffffffffffffff\n      and\n      0xffffffffffffffffffffffffffffffffffffffff\n      and\n      0xffffffffffffffffffffffffffffffffffffffff\n      and\n      dup2\n      mstore\n      0x20\n      add\n      0x01\n      dup3\n      add\n      sload\n      dup2\n      mstore\n      pop\n      pop\n      dup2\n      mstore\n      0x20\n      add\n      swap1\n      0x01\n      add\n      swap1\n      jump(tag_202)\n    tag_203:\n      pop\n      pop\n      pop\n      pop\n      swap1\n      pop\n        /* \"Subasta_Bonaduce.sol\":7466:7566  function viewOffers() external view returns (Offer[] memory) {... */\n      swap1\n      jump\t// out\n        /* \"Subasta_Bonaduce.sol\":1027:1053  uint public auctionEndTime */\n    tag_44:\n      sload(0x01)\n      dup2\n      jump\t// out\n        /* \"Subasta_Bonaduce.sol\":2035:2076  mapping(address => uint) public totalBids */\n    tag_50:\n      mstore(0x20, 0x07)\n      dup1\n      0x00\n      mstore\n      keccak256(0x00, 0x40)\n      0x00\n      swap2\n      pop\n      swap1\n      pop\n      sload\n      dup2\n      jump\t// out\n        /* \"Subasta_Bonaduce.sol\":10449:11374  function withdrawDeposits() external onlyOwner onlyAfterAuctionEnded {... */\n    tag_54:\n        /* \"Subasta_Bonaduce.sol\":2550:2555  owner */\n      0x05\n      0x00\n      swap1\n      sload\n      swap1\n      0x0100\n      exp\n      swap1\n      div\n      0xffffffffffffffffffffffffffffffffffffffff\n      and\n        /* \"Subasta_Bonaduce.sol\":2536:2555  msg.sender == owner */\n      0xffffffffffffffffffffffffffffffffffffffff\n      and\n        /* \"Subasta_Bonaduce.sol\":2536:2546  msg.sender */\n      caller\n        /* \"Subasta_Bonaduce.sol\":2536:2555  msg.sender == owner */\n      0xffffffffffffffffffffffffffffffffffffffff\n      and\n      eq\n        /* \"Subasta_Bonaduce.sol\":2528:2607  require(msg.sender == owner, \"Solo el propietario puede ejecutar esta funcion\") */\n      tag_206\n      jumpi\n      mload(0x40)\n      0x08c379a000000000000000000000000000000000000000000000000000000000\n      dup2\n      mstore\n      0x04\n      add\n      tag_207\n      swap1\n      tag_167\n      jump\t// in\n    tag_207:\n      mload(0x40)\n      dup1\n      swap2\n      sub\n      swap1\n      revert\n    tag_206:\n        /* \"Subasta_Bonaduce.sol\":3312:3326  auctionEndTime */\n      sload(0x01)\n        /* \"Subasta_Bonaduce.sol\":3293:3308  block.timestamp */\n      timestamp\n        /* \"Subasta_Bonaduce.sol\":3293:3326  block.timestamp >= auctionEndTime */\n      lt\n      iszero\n        /* \"Subasta_Bonaduce.sol\":3285:3357  require(block.timestamp >= auctionEndTime, \"La subasta no ha terminado\") */\n      tag_209\n      jumpi\n      mload(0x40)\n      0x08c379a000000000000000000000000000000000000000000000000000000000\n      dup2\n      mstore\n      0x04\n      add\n      tag_210\n      swap1\n      tag_211\n      jump\t// in\n    tag_210:\n      mload(0x40)\n      dup1\n      swap2\n      sub\n      swap1\n      revert\n    tag_209:\n        /* \"Subasta_Bonaduce.sol\":10553:10575  AuctionState.Completed */\n      0x03\n        /* \"Subasta_Bonaduce.sol\":10537:10575  auctionState != AuctionState.Completed */\n      dup1\n      dup2\n      gt\n      iszero\n      tag_213\n      jumpi\n      tag_214\n      tag_110\n      jump\t// in\n    tag_214:\n    tag_213:\n        /* \"Subasta_Bonaduce.sol\":10537:10549  auctionState */\n      0x00\n      dup1\n      sload\n      swap1\n      0x0100\n      exp\n      swap1\n      div\n      0xff\n      and\n        /* \"Subasta_Bonaduce.sol\":10537:10575  auctionState != AuctionState.Completed */\n      0x03\n      dup2\n      gt\n      iszero\n      tag_215\n      jumpi\n      tag_216\n      tag_110\n      jump\t// in\n    tag_216:\n    tag_215:\n      sub\n        /* \"Subasta_Bonaduce.sol\":10529:10613  require(auctionState != AuctionState.Completed, \"La subasta ya ha sido completada.\") */\n      tag_217\n      jumpi\n      mload(0x40)\n      0x08c379a000000000000000000000000000000000000000000000000000000000\n      dup2\n      mstore\n      0x04\n      add\n      tag_218\n      swap1\n      tag_123\n      jump\t// in\n    tag_218:\n      mload(0x40)\n      dup1\n      swap2\n      sub\n      swap1\n      revert\n    tag_217:\n        /* \"Subasta_Bonaduce.sol\":10648:10666  AuctionState.Ended */\n      0x01\n        /* \"Subasta_Bonaduce.sol\":10632:10666  auctionState == AuctionState.Ended */\n      0x03\n      dup2\n      gt\n      iszero\n      tag_219\n      jumpi\n      tag_220\n      tag_110\n      jump\t// in\n    tag_220:\n    tag_219:\n        /* \"Subasta_Bonaduce.sol\":10632:10644  auctionState */\n      0x00\n      dup1\n      sload\n      swap1\n      0x0100\n      exp\n      swap1\n      div\n      0xff\n      and\n        /* \"Subasta_Bonaduce.sol\":10632:10666  auctionState == AuctionState.Ended */\n      0x03\n      dup2\n      gt\n      iszero\n      tag_221\n      jumpi\n      tag_222\n      tag_110\n      jump\t// in\n    tag_222:\n    tag_221:\n      eq\n        /* \"Subasta_Bonaduce.sol\":10624:10702  require(auctionState == AuctionState.Ended, \"La subasta aun no ha terminado.\") */\n      tag_223\n      jumpi\n      mload(0x40)\n      0x08c379a000000000000000000000000000000000000000000000000000000000\n      dup2\n      mstore\n      0x04\n      add\n      tag_224\n      swap1\n      tag_225\n      jump\t// in\n    tag_224:\n      mload(0x40)\n      dup1\n      swap2\n      sub\n      swap1\n      revert\n    tag_223:\n        /* \"Subasta_Bonaduce.sol\":10720:10726  uint i */\n      0x00\n        /* \"Subasta_Bonaduce.sol\":10715:11310  for (uint i = 0; i < bidders.length; i++) {... */\n    tag_226:\n        /* \"Subasta_Bonaduce.sol\":10736:10743  bidders */\n      0x09\n        /* \"Subasta_Bonaduce.sol\":10736:10750  bidders.length */\n      dup1\n      sload\n      swap1\n      pop\n        /* \"Subasta_Bonaduce.sol\":10732:10733  i */\n      dup2\n        /* \"Subasta_Bonaduce.sol\":10732:10750  i < bidders.length */\n      lt\n        /* \"Subasta_Bonaduce.sol\":10715:11310  for (uint i = 0; i < bidders.length; i++) {... */\n      iszero\n      tag_227\n      jumpi\n        /* \"Subasta_Bonaduce.sol\":10772:10786  address bidder */\n      0x00\n        /* \"Subasta_Bonaduce.sol\":10789:10796  bidders */\n      0x09\n        /* \"Subasta_Bonaduce.sol\":10797:10798  i */\n      dup3\n        /* \"Subasta_Bonaduce.sol\":10789:10799  bidders[i] */\n      dup2\n      sload\n      dup2\n      lt\n      tag_229\n      jumpi\n      tag_230\n      tag_134\n      jump\t// in\n    tag_230:\n    tag_229:\n      swap1\n      0x00\n      mstore\n      keccak256(0x00, 0x20)\n      add\n      0x00\n      swap1\n      sload\n      swap1\n      0x0100\n      exp\n      swap1\n      div\n      0xffffffffffffffffffffffffffffffffffffffff\n      and\n        /* \"Subasta_Bonaduce.sol\":10772:10799  address bidder = bidders[i] */\n      swap1\n      pop\n        /* \"Subasta_Bonaduce.sol\":10828:10841  highestBidder */\n      0x04\n      0x00\n      swap1\n      sload\n      swap1\n      0x0100\n      exp\n      swap1\n      div\n      0xffffffffffffffffffffffffffffffffffffffff\n      and\n        /* \"Subasta_Bonaduce.sol\":10818:10841  bidder != highestBidder */\n      0xffffffffffffffffffffffffffffffffffffffff\n      and\n        /* \"Subasta_Bonaduce.sol\":10818:10824  bidder */\n      dup2\n        /* \"Subasta_Bonaduce.sol\":10818:10841  bidder != highestBidder */\n      0xffffffffffffffffffffffffffffffffffffffff\n      and\n      eq\n        /* \"Subasta_Bonaduce.sol\":10814:11299  if (bidder != highestBidder) {  // Solo reembolsamos a los postores que no ganaron... */\n      tag_232\n      jumpi\n        /* \"Subasta_Bonaduce.sol\":10914:10931  uint refundAmount */\n      0x00\n        /* \"Subasta_Bonaduce.sol\":10934:10943  totalBids */\n      0x07\n        /* \"Subasta_Bonaduce.sol\":10934:10951  totalBids[bidder] */\n      0x00\n        /* \"Subasta_Bonaduce.sol\":10944:10950  bidder */\n      dup4\n        /* \"Subasta_Bonaduce.sol\":10934:10951  totalBids[bidder] */\n      0xffffffffffffffffffffffffffffffffffffffff\n      and\n      0xffffffffffffffffffffffffffffffffffffffff\n      and\n      dup2\n      mstore\n      0x20\n      add\n      swap1\n      dup2\n      mstore\n      0x20\n      add\n      0x00\n      keccak256\n      sload\n        /* \"Subasta_Bonaduce.sol\":10914:10951  uint refundAmount = totalBids[bidder] */\n      swap1\n      pop\n        /* \"Subasta_Bonaduce.sol\":10990:10991  0 */\n      0x00\n        /* \"Subasta_Bonaduce.sol\":10970:10979  totalBids */\n      0x07\n        /* \"Subasta_Bonaduce.sol\":10970:10987  totalBids[bidder] */\n      0x00\n        /* \"Subasta_Bonaduce.sol\":10980:10986  bidder */\n      dup5\n        /* \"Subasta_Bonaduce.sol\":10970:10987  totalBids[bidder] */\n      0xffffffffffffffffffffffffffffffffffffffff\n      and\n      0xffffffffffffffffffffffffffffffffffffffff\n      and\n      dup2\n      mstore\n      0x20\n      add\n      swap1\n      dup2\n      mstore\n      0x20\n      add\n      0x00\n      keccak256\n        /* \"Subasta_Bonaduce.sol\":10970:10991  totalBids[bidder] = 0 */\n      dup2\n      swap1\n      sstore\n      pop\n        /* \"Subasta_Bonaduce.sol\":11031:11032  0 */\n      0x00\n        /* \"Subasta_Bonaduce.sol\":11016:11028  refundAmount */\n      dup2\n        /* \"Subasta_Bonaduce.sol\":11016:11032  refundAmount > 0 */\n      gt\n        /* \"Subasta_Bonaduce.sol\":11012:11284  if (refundAmount > 0) {... */\n      iszero\n      tag_233\n      jumpi\n        /* \"Subasta_Bonaduce.sol\":11058:11070  bool success */\n      0x00\n        /* \"Subasta_Bonaduce.sol\":11084:11090  bidder */\n      dup3\n        /* \"Subasta_Bonaduce.sol\":11076:11096  payable(bidder).call */\n      0xffffffffffffffffffffffffffffffffffffffff\n      and\n        /* \"Subasta_Bonaduce.sol\":11104:11116  refundAmount */\n      dup3\n        /* \"Subasta_Bonaduce.sol\":11076:11121  payable(bidder).call{value: refundAmount}(\"\") */\n      mload(0x40)\n      tag_234\n      swap1\n      tag_154\n      jump\t// in\n    tag_234:\n      0x00\n      mload(0x40)\n      dup1\n      dup4\n      sub\n      dup2\n      dup6\n      dup8\n      gas\n      call\n      swap3\n      pop\n      pop\n      pop\n      returndatasize\n      dup1\n      0x00\n      dup2\n      eq\n      tag_237\n      jumpi\n      mload(0x40)\n      swap2\n      pop\n      and(add(returndatasize, 0x3f), not(0x1f))\n      dup3\n      add\n      0x40\n      mstore\n      returndatasize\n      dup3\n      mstore\n      returndatasize\n      0x00\n      0x20\n      dup5\n      add\n      returndatacopy\n      jump(tag_236)\n    tag_237:\n      0x60\n      swap2\n      pop\n    tag_236:\n      pop\n        /* \"Subasta_Bonaduce.sol\":11057:11121  (bool success, ) = payable(bidder).call{value: refundAmount}(\"\") */\n      pop\n      swap1\n      pop\n        /* \"Subasta_Bonaduce.sol\":11152:11159  success */\n      dup1\n        /* \"Subasta_Bonaduce.sol\":11144:11196  require(success, \"Fallo al devolver los depositos.\") */\n      tag_238\n      jumpi\n      mload(0x40)\n      0x08c379a000000000000000000000000000000000000000000000000000000000\n      dup2\n      mstore\n      0x04\n      add\n      tag_239\n      swap1\n      tag_240\n      jump\t// in\n    tag_239:\n      mload(0x40)\n      dup1\n      swap2\n      sub\n      swap1\n      revert\n    tag_238:\n        /* \"Subasta_Bonaduce.sol\":11243:11249  bidder */\n      dup3\n        /* \"Subasta_Bonaduce.sol\":11226:11264  DepositWithdrawn(bidder, refundAmount) */\n      0xffffffffffffffffffffffffffffffffffffffff\n      and\n      0x4482101800a5c2e900f4156e57e05e19ffd7b366cde579553d723fd3abb2180e\n        /* \"Subasta_Bonaduce.sol\":11251:11263  refundAmount */\n      dup4\n        /* \"Subasta_Bonaduce.sol\":11226:11264  DepositWithdrawn(bidder, refundAmount) */\n      mload(0x40)\n      tag_241\n      swap2\n      swap1\n      tag_33\n      jump\t// in\n    tag_241:\n      mload(0x40)\n      dup1\n      swap2\n      sub\n      swap1\n      log2\n        /* \"Subasta_Bonaduce.sol\":11034:11284  {... */\n      pop\n        /* \"Subasta_Bonaduce.sol\":11012:11284  if (refundAmount > 0) {... */\n    tag_233:\n        /* \"Subasta_Bonaduce.sol\":10843:11299  {  // Solo reembolsamos a los postores que no ganaron... */\n      pop\n        /* \"Subasta_Bonaduce.sol\":10814:11299  if (bidder != highestBidder) {  // Solo reembolsamos a los postores que no ganaron... */\n    tag_232:\n        /* \"Subasta_Bonaduce.sol\":10757:11310  {... */\n      pop\n        /* \"Subasta_Bonaduce.sol\":10752:10755  i++ */\n      dup1\n      dup1\n      0x01\n      add\n      swap2\n      pop\n      pop\n        /* \"Subasta_Bonaduce.sol\":10715:11310  for (uint i = 0; i < bidders.length; i++) {... */\n      jump(tag_226)\n    tag_227:\n      pop\n        /* \"Subasta_Bonaduce.sol\":11337:11366  AuctionState.DepositsRefunded */\n      0x02\n        /* \"Subasta_Bonaduce.sol\":11322:11334  auctionState */\n      0x00\n      dup1\n        /* \"Subasta_Bonaduce.sol\":11322:11366  auctionState = AuctionState.DepositsRefunded */\n      0x0100\n      exp\n      dup2\n      sload\n      dup2\n      0xff\n      mul\n      not\n      and\n      swap1\n      dup4\n      0x03\n      dup2\n      gt\n      iszero\n      tag_242\n      jumpi\n      tag_243\n      tag_110\n      jump\t// in\n    tag_243:\n    tag_242:\n      mul\n      or\n      swap1\n      sstore\n      pop\n        /* \"Subasta_Bonaduce.sol\":10449:11374  function withdrawDeposits() external onlyOwner onlyAfterAuctionEnded {... */\n      jump\t// out\n        /* \"Subasta_Bonaduce.sol\":5712:5740  Offer[] public offersHistory */\n    tag_59:\n      0x0a\n      dup2\n      dup2\n      sload\n      dup2\n      lt\n      tag_244\n      jumpi\n      0x00\n      dup1\n      revert\n    tag_244:\n      swap1\n      0x00\n      mstore\n      keccak256(0x00, 0x20)\n      swap1\n      0x02\n      mul\n      add\n      0x00\n      swap2\n      pop\n      swap1\n      pop\n      dup1\n      0x00\n      add\n      0x00\n      swap1\n      sload\n      swap1\n      0x0100\n      exp\n      swap1\n      div\n      0xffffffffffffffffffffffffffffffffffffffff\n      and\n      swap1\n      dup1\n      0x01\n      add\n      sload\n      swap1\n      pop\n      dup3\n      jump\t// out\n        /* \"Subasta_Bonaduce.sol\":933:965  AuctionState public auctionState */\n    tag_64:\n      0x00\n      dup1\n      sload\n      swap1\n      0x0100\n      exp\n      swap1\n      div\n      0xff\n      and\n      dup2\n      jump\t// out\n        /* \"Subasta_Bonaduce.sol\":1390:1410  address public owner */\n    tag_69:\n      0x05\n      0x00\n      swap1\n      sload\n      swap1\n      0x0100\n      exp\n      swap1\n      div\n      0xffffffffffffffffffffffffffffffffffffffff\n      and\n      dup2\n      jump\t// out\n        /* \"Subasta_Bonaduce.sol\":1295:1323  address public highestBidder */\n    tag_74:\n      0x04\n      0x00\n      swap1\n      sload\n      swap1\n      0x0100\n      exp\n      swap1\n      div\n      0xffffffffffffffffffffffffffffffffffffffff\n      and\n      dup2\n      jump\t// out\n        /* \"Subasta_Bonaduce.sol\":9368:9830  function viewDeposits() external view returns (address[] memory, uint[] memory) {... */\n    tag_78:\n        /* \"Subasta_Bonaduce.sol\":9415:9431  address[] memory */\n      0x60\n        /* \"Subasta_Bonaduce.sol\":9433:9446  uint[] memory */\n      dup1\n        /* \"Subasta_Bonaduce.sol\":9459:9470  uint length */\n      0x00\n        /* \"Subasta_Bonaduce.sol\":9473:9480  bidders */\n      0x09\n        /* \"Subasta_Bonaduce.sol\":9473:9487  bidders.length */\n      dup1\n      sload\n      swap1\n      pop\n        /* \"Subasta_Bonaduce.sol\":9459:9487  uint length = bidders.length */\n      swap1\n      pop\n        /* \"Subasta_Bonaduce.sol\":9498:9524  address[] memory addresses */\n      0x00\n        /* \"Subasta_Bonaduce.sol\":9541:9547  length */\n      dup2\n        /* \"Subasta_Bonaduce.sol\":9527:9548  new address[](length) */\n      0xffffffffffffffff\n      dup2\n      gt\n      iszero\n      tag_247\n      jumpi\n      tag_248\n      tag_249\n      jump\t// in\n    tag_248:\n    tag_247:\n      mload(0x40)\n      swap1\n      dup1\n      dup3\n      mstore\n      dup1\n      0x20\n      mul\n      0x20\n      add\n      dup3\n      add\n      0x40\n      mstore\n      dup1\n      iszero\n      tag_250\n      jumpi\n      dup2\n      0x20\n      add\n      0x20\n      dup3\n      mul\n      dup1\n      calldatasize\n      dup4\n      calldatacopy\n      dup1\n      dup3\n      add\n      swap2\n      pop\n      pop\n      swap1\n      pop\n    tag_250:\n      pop\n        /* \"Subasta_Bonaduce.sol\":9498:9548  address[] memory addresses = new address[](length) */\n      swap1\n      pop\n        /* \"Subasta_Bonaduce.sol\":9559:9580  uint[] memory amounts */\n      0x00\n        /* \"Subasta_Bonaduce.sol\":9594:9600  length */\n      dup3\n        /* \"Subasta_Bonaduce.sol\":9583:9601  new uint[](length) */\n      0xffffffffffffffff\n      dup2\n      gt\n      iszero\n      tag_251\n      jumpi\n      tag_252\n      tag_249\n      jump\t// in\n    tag_252:\n    tag_251:\n      mload(0x40)\n      swap1\n      dup1\n      dup3\n      mstore\n      dup1\n      0x20\n      mul\n      0x20\n      add\n      dup3\n      add\n      0x40\n      mstore\n      dup1\n      iszero\n      tag_253\n      jumpi\n      dup2\n      0x20\n      add\n      0x20\n      dup3\n      mul\n      dup1\n      calldatasize\n      dup4\n      calldatacopy\n      dup1\n      dup3\n      add\n      swap2\n      pop\n      pop\n      swap1\n      pop\n    tag_253:\n      pop\n        /* \"Subasta_Bonaduce.sol\":9559:9601  uint[] memory amounts = new uint[](length) */\n      swap1\n      pop\n        /* \"Subasta_Bonaduce.sol\":9619:9625  uint i */\n      0x00\n        /* \"Subasta_Bonaduce.sol\":9614:9783  for (uint i = 0; i < length; i++) {... */\n    tag_254:\n        /* \"Subasta_Bonaduce.sol\":9635:9641  length */\n      dup4\n        /* \"Subasta_Bonaduce.sol\":9631:9632  i */\n      dup2\n        /* \"Subasta_Bonaduce.sol\":9631:9641  i < length */\n      lt\n        /* \"Subasta_Bonaduce.sol\":9614:9783  for (uint i = 0; i < length; i++) {... */\n      iszero\n      tag_255\n      jumpi\n        /* \"Subasta_Bonaduce.sol\":9663:9677  address bidder */\n      0x00\n        /* \"Subasta_Bonaduce.sol\":9680:9687  bidders */\n      0x09\n        /* \"Subasta_Bonaduce.sol\":9688:9689  i */\n      dup3\n        /* \"Subasta_Bonaduce.sol\":9680:9690  bidders[i] */\n      dup2\n      sload\n      dup2\n      lt\n      tag_257\n      jumpi\n      tag_258\n      tag_134\n      jump\t// in\n    tag_258:\n    tag_257:\n      swap1\n      0x00\n      mstore\n      keccak256(0x00, 0x20)\n      add\n      0x00\n      swap1\n      sload\n      swap1\n      0x0100\n      exp\n      swap1\n      div\n      0xffffffffffffffffffffffffffffffffffffffff\n      and\n        /* \"Subasta_Bonaduce.sol\":9663:9690  address bidder = bidders[i] */\n      swap1\n      pop\n        /* \"Subasta_Bonaduce.sol\":9720:9726  bidder */\n      dup1\n        /* \"Subasta_Bonaduce.sol\":9705:9714  addresses */\n      dup5\n        /* \"Subasta_Bonaduce.sol\":9715:9716  i */\n      dup4\n        /* \"Subasta_Bonaduce.sol\":9705:9717  addresses[i] */\n      dup2\n      mload\n      dup2\n      lt\n      tag_260\n      jumpi\n      tag_261\n      tag_134\n      jump\t// in\n    tag_261:\n    tag_260:\n      0x20\n      mul\n      0x20\n      add\n      add\n        /* \"Subasta_Bonaduce.sol\":9705:9726  addresses[i] = bidder */\n      swap1\n      0xffffffffffffffffffffffffffffffffffffffff\n      and\n      swap1\n      dup2\n      0xffffffffffffffffffffffffffffffffffffffff\n      and\n      dup2\n      mstore\n      pop\n      pop\n        /* \"Subasta_Bonaduce.sol\":9754:9763  totalBids */\n      0x07\n        /* \"Subasta_Bonaduce.sol\":9754:9771  totalBids[bidder] */\n      0x00\n        /* \"Subasta_Bonaduce.sol\":9764:9770  bidder */\n      dup3\n        /* \"Subasta_Bonaduce.sol\":9754:9771  totalBids[bidder] */\n      0xffffffffffffffffffffffffffffffffffffffff\n      and\n      0xffffffffffffffffffffffffffffffffffffffff\n      and\n      dup2\n      mstore\n      0x20\n      add\n      swap1\n      dup2\n      mstore\n      0x20\n      add\n      0x00\n      keccak256\n      sload\n        /* \"Subasta_Bonaduce.sol\":9741:9748  amounts */\n      dup4\n        /* \"Subasta_Bonaduce.sol\":9749:9750  i */\n      dup4\n        /* \"Subasta_Bonaduce.sol\":9741:9751  amounts[i] */\n      dup2\n      mload\n      dup2\n      lt\n      tag_262\n      jumpi\n      tag_263\n      tag_134\n      jump\t// in\n    tag_263:\n    tag_262:\n      0x20\n      mul\n      0x20\n      add\n      add\n        /* \"Subasta_Bonaduce.sol\":9741:9771  amounts[i] = totalBids[bidder] */\n      dup2\n      dup2\n      mstore\n      pop\n      pop\n        /* \"Subasta_Bonaduce.sol\":9648:9783  {... */\n      pop\n        /* \"Subasta_Bonaduce.sol\":9643:9646  i++ */\n      dup1\n      dup1\n      0x01\n      add\n      swap2\n      pop\n      pop\n        /* \"Subasta_Bonaduce.sol\":9614:9783  for (uint i = 0; i < length; i++) {... */\n      jump(tag_254)\n    tag_255:\n      pop\n        /* \"Subasta_Bonaduce.sol\":9803:9812  addresses */\n      dup2\n        /* \"Subasta_Bonaduce.sol\":9814:9821  amounts */\n      dup2\n        /* \"Subasta_Bonaduce.sol\":9795:9822  return (addresses, amounts) */\n      swap5\n      pop\n      swap5\n      pop\n      pop\n      pop\n      pop\n        /* \"Subasta_Bonaduce.sol\":9368:9830  function viewDeposits() external view returns (address[] memory, uint[] memory) {... */\n      swap1\n      swap2\n      jump\t// out\n        /* \"Subasta_Bonaduce.sol\":2201:2254  mapping(address => uint) public partialRefundedAmount */\n    tag_84:\n      mstore(0x20, 0x08)\n      dup1\n      0x00\n      mstore\n      keccak256(0x00, 0x40)\n      0x00\n      swap2\n      pop\n      swap1\n      pop\n      sload\n      dup2\n      jump\t// out\n        /* \"Subasta_Bonaduce.sol\":2372:2396  address[] public bidders */\n    tag_89:\n      0x09\n      dup2\n      dup2\n      sload\n      dup2\n      lt\n      tag_264\n      jumpi\n      0x00\n      dup1\n      revert\n    tag_264:\n      swap1\n      0x00\n      mstore\n      keccak256(0x00, 0x20)\n      add\n      0x00\n      swap2\n      pop\n      sload\n      swap1\n      0x0100\n      exp\n      swap1\n      div\n      0xffffffffffffffffffffffffffffffffffffffff\n      and\n      dup2\n      jump\t// out\n        /* \"Subasta_Bonaduce.sol\":1201:1223  uint public highestBid */\n    tag_93:\n      sload(0x03)\n      dup2\n      jump\t// out\n        /* \"Subasta_Bonaduce.sol\":11456:11992  function withdrawCommissions() external onlyOwner onlyAfterDepositsRefunded {... */\n    tag_97:\n        /* \"Subasta_Bonaduce.sol\":2550:2555  owner */\n      0x05\n      0x00\n      swap1\n      sload\n      swap1\n      0x0100\n      exp\n      swap1\n      div\n      0xffffffffffffffffffffffffffffffffffffffff\n      and\n        /* \"Subasta_Bonaduce.sol\":2536:2555  msg.sender == owner */\n      0xffffffffffffffffffffffffffffffffffffffff\n      and\n        /* \"Subasta_Bonaduce.sol\":2536:2546  msg.sender */\n      caller\n        /* \"Subasta_Bonaduce.sol\":2536:2555  msg.sender == owner */\n      0xffffffffffffffffffffffffffffffffffffffff\n      and\n      eq\n        /* \"Subasta_Bonaduce.sol\":2528:2607  require(msg.sender == owner, \"Solo el propietario puede ejecutar esta funcion\") */\n      tag_267\n      jumpi\n      mload(0x40)\n      0x08c379a000000000000000000000000000000000000000000000000000000000\n      dup2\n      mstore\n      0x04\n      add\n      tag_268\n      swap1\n      tag_167\n      jump\t// in\n    tag_268:\n      mload(0x40)\n      dup1\n      swap2\n      sub\n      swap1\n      revert\n    tag_267:\n        /* \"Subasta_Bonaduce.sol\":3570:3599  AuctionState.DepositsRefunded */\n      0x02\n        /* \"Subasta_Bonaduce.sol\":3554:3599  auctionState == AuctionState.DepositsRefunded */\n      0x03\n      dup2\n      gt\n      iszero\n      tag_270\n      jumpi\n      tag_271\n      tag_110\n      jump\t// in\n    tag_271:\n    tag_270:\n        /* \"Subasta_Bonaduce.sol\":3554:3566  auctionState */\n      0x00\n      dup1\n      sload\n      swap1\n      0x0100\n      exp\n      swap1\n      div\n      0xff\n      and\n        /* \"Subasta_Bonaduce.sol\":3554:3599  auctionState == AuctionState.DepositsRefunded */\n      0x03\n      dup2\n      gt\n      iszero\n      tag_272\n      jumpi\n      tag_273\n      tag_110\n      jump\t// in\n    tag_273:\n    tag_272:\n      eq\n        /* \"Subasta_Bonaduce.sol\":3546:3643  require(auctionState == AuctionState.DepositsRefunded, \"Los depositos no han sido reembolsados.\") */\n      tag_274\n      jumpi\n      mload(0x40)\n      0x08c379a000000000000000000000000000000000000000000000000000000000\n      dup2\n      mstore\n      0x04\n      add\n      tag_275\n      swap1\n      tag_175\n      jump\t// in\n    tag_275:\n      mload(0x40)\n      dup1\n      swap2\n      sub\n      swap1\n      revert\n    tag_274:\n        /* \"Subasta_Bonaduce.sol\":11567:11589  AuctionState.Completed */\n      0x03\n        /* \"Subasta_Bonaduce.sol\":11551:11589  auctionState != AuctionState.Completed */\n      dup1\n      dup2\n      gt\n      iszero\n      tag_277\n      jumpi\n      tag_278\n      tag_110\n      jump\t// in\n    tag_278:\n    tag_277:\n        /* \"Subasta_Bonaduce.sol\":11551:11563  auctionState */\n      0x00\n      dup1\n      sload\n      swap1\n      0x0100\n      exp\n      swap1\n      div\n      0xff\n      and\n        /* \"Subasta_Bonaduce.sol\":11551:11589  auctionState != AuctionState.Completed */\n      0x03\n      dup2\n      gt\n      iszero\n      tag_279\n      jumpi\n      tag_280\n      tag_110\n      jump\t// in\n    tag_280:\n    tag_279:\n      sub\n        /* \"Subasta_Bonaduce.sol\":11543:11627  require(auctionState != AuctionState.Completed, \"La subasta ya ha sido completada.\") */\n      tag_281\n      jumpi\n      mload(0x40)\n      0x08c379a000000000000000000000000000000000000000000000000000000000\n      dup2\n      mstore\n      0x04\n      add\n      tag_282\n      swap1\n      tag_123\n      jump\t// in\n    tag_282:\n      mload(0x40)\n      dup1\n      swap2\n      sub\n      swap1\n      revert\n    tag_281:\n        /* \"Subasta_Bonaduce.sol\":11662:11691  AuctionState.DepositsRefunded */\n      0x02\n        /* \"Subasta_Bonaduce.sol\":11646:11691  auctionState == AuctionState.DepositsRefunded */\n      0x03\n      dup2\n      gt\n      iszero\n      tag_283\n      jumpi\n      tag_284\n      tag_110\n      jump\t// in\n    tag_284:\n    tag_283:\n        /* \"Subasta_Bonaduce.sol\":11646:11658  auctionState */\n      0x00\n      dup1\n      sload\n      swap1\n      0x0100\n      exp\n      swap1\n      div\n      0xff\n      and\n        /* \"Subasta_Bonaduce.sol\":11646:11691  auctionState == AuctionState.DepositsRefunded */\n      0x03\n      dup2\n      gt\n      iszero\n      tag_285\n      jumpi\n      tag_286\n      tag_110\n      jump\t// in\n    tag_286:\n    tag_285:\n      eq\n        /* \"Subasta_Bonaduce.sol\":11638:11735  require(auctionState == AuctionState.DepositsRefunded, \"Los depositos no han sido reembolsados.\") */\n      tag_287\n      jumpi\n      mload(0x40)\n      0x08c379a000000000000000000000000000000000000000000000000000000000\n      dup2\n      mstore\n      0x04\n      add\n      tag_288\n      swap1\n      tag_175\n      jump\t// in\n    tag_288:\n      mload(0x40)\n      dup1\n      swap2\n      sub\n      swap1\n      revert\n    tag_287:\n        /* \"Subasta_Bonaduce.sol\":11746:11757  uint amount */\n      0x00\n        /* \"Subasta_Bonaduce.sol\":11760:11775  commissionFunds */\n      sload(0x02)\n        /* \"Subasta_Bonaduce.sol\":11746:11775  uint amount = commissionFunds */\n      swap1\n      pop\n        /* \"Subasta_Bonaduce.sol\":11804:11805  0 */\n      0x00\n        /* \"Subasta_Bonaduce.sol\":11786:11801  commissionFunds */\n      0x02\n        /* \"Subasta_Bonaduce.sol\":11786:11805  commissionFunds = 0 */\n      dup2\n      swap1\n      sstore\n      pop\n        /* \"Subasta_Bonaduce.sol\":11819:11831  bool success */\n      0x00\n        /* \"Subasta_Bonaduce.sol\":11845:11850  owner */\n      0x05\n      0x00\n      swap1\n      sload\n      swap1\n      0x0100\n      exp\n      swap1\n      div\n      0xffffffffffffffffffffffffffffffffffffffff\n      and\n        /* \"Subasta_Bonaduce.sol\":11837:11856  payable(owner).call */\n      0xffffffffffffffffffffffffffffffffffffffff\n      and\n        /* \"Subasta_Bonaduce.sol\":11864:11870  amount */\n      dup3\n        /* \"Subasta_Bonaduce.sol\":11837:11875  payable(owner).call{value: amount}(\"\") */\n      mload(0x40)\n      tag_289\n      swap1\n      tag_154\n      jump\t// in\n    tag_289:\n      0x00\n      mload(0x40)\n      dup1\n      dup4\n      sub\n      dup2\n      dup6\n      dup8\n      gas\n      call\n      swap3\n      pop\n      pop\n      pop\n      returndatasize\n      dup1\n      0x00\n      dup2\n      eq\n      tag_292\n      jumpi\n      mload(0x40)\n      swap2\n      pop\n      and(add(returndatasize, 0x3f), not(0x1f))\n      dup3\n      add\n      0x40\n      mstore\n      returndatasize\n      dup3\n      mstore\n      returndatasize\n      0x00\n      0x20\n      dup5\n      add\n      returndatacopy\n      jump(tag_291)\n    tag_292:\n      0x60\n      swap2\n      pop\n    tag_291:\n      pop\n        /* \"Subasta_Bonaduce.sol\":11818:11875  (bool success, ) = payable(owner).call{value: amount}(\"\") */\n      pop\n      swap1\n      pop\n        /* \"Subasta_Bonaduce.sol\":11894:11901  success */\n      dup1\n        /* \"Subasta_Bonaduce.sol\":11886:11938  require(success, \"Fallo al retirar las comisiones.\") */\n      tag_293\n      jumpi\n      mload(0x40)\n      0x08c379a000000000000000000000000000000000000000000000000000000000\n      dup2\n      mstore\n      0x04\n      add\n      tag_294\n      swap1\n      tag_295\n      jump\t// in\n    tag_294:\n      mload(0x40)\n      dup1\n      swap2\n      sub\n      swap1\n      revert\n    tag_293:\n        /* \"Subasta_Bonaduce.sol\":11956:11984  CommissionsWithdrawn(amount) */\n      0x2f424443129f9599dfb4d73878ad554b820124e747bde094b660fb1280ed3d15\n        /* \"Subasta_Bonaduce.sol\":11977:11983  amount */\n      dup3\n        /* \"Subasta_Bonaduce.sol\":11956:11984  CommissionsWithdrawn(amount) */\n      mload(0x40)\n      tag_296\n      swap2\n      swap1\n      tag_33\n      jump\t// in\n    tag_296:\n      mload(0x40)\n      dup1\n      swap2\n      sub\n      swap1\n      log1\n        /* \"Subasta_Bonaduce.sol\":11532:11992  {... */\n      pop\n      pop\n        /* \"Subasta_Bonaduce.sol\":11456:11992  function withdrawCommissions() external onlyOwner onlyAfterDepositsRefunded {... */\n      jump\t// out\n        /* \"Subasta_Bonaduce.sol\":1124:1151  uint public commissionFunds */\n    tag_100:\n      sload(0x02)\n      dup2\n      jump\t// out\n        /* \"Subasta_Bonaduce.sol\":6423:7312  function placeBid() external payable onlyDuringActiveAuction validBid(msg.value) {... */\n    tag_103:\n        /* \"Subasta_Bonaduce.sol\":2773:2792  AuctionState.Active */\n      0x00\n        /* \"Subasta_Bonaduce.sol\":2757:2792  auctionState == AuctionState.Active */\n      0x03\n      dup2\n      gt\n      iszero\n      tag_298\n      jumpi\n      tag_299\n      tag_110\n      jump\t// in\n    tag_299:\n    tag_298:\n        /* \"Subasta_Bonaduce.sol\":2757:2769  auctionState */\n      0x00\n      dup1\n      sload\n      swap1\n      0x0100\n      exp\n      swap1\n      div\n      0xff\n      and\n        /* \"Subasta_Bonaduce.sol\":2757:2792  auctionState == AuctionState.Active */\n      0x03\n      dup2\n      gt\n      iszero\n      tag_300\n      jumpi\n      tag_301\n      tag_110\n      jump\t// in\n    tag_301:\n    tag_300:\n      eq\n        /* \"Subasta_Bonaduce.sol\":2749:2822  require(auctionState == AuctionState.Active, \"La subasta no esta activa\") */\n      tag_302\n      jumpi\n      mload(0x40)\n      0x08c379a000000000000000000000000000000000000000000000000000000000\n      dup2\n      mstore\n      0x04\n      add\n      tag_303\n      swap1\n      tag_115\n      jump\t// in\n    tag_303:\n      mload(0x40)\n      dup1\n      swap2\n      sub\n      swap1\n      revert\n    tag_302:\n        /* \"Subasta_Bonaduce.sol\":6493:6502  msg.value */\n      callvalue\n        /* \"Subasta_Bonaduce.sol\":3056:3059  100 */\n      0x64\n        /* \"Subasta_Bonaduce.sol\":1683:1684  5 */\n      0x05\n        /* \"Subasta_Bonaduce.sol\":3026:3036  highestBid */\n      sload(0x03)\n        /* \"Subasta_Bonaduce.sol\":3026:3052  highestBid * MIN_INCREMENT */\n      tag_305\n      swap2\n      swap1\n      tag_144\n      jump\t// in\n    tag_305:\n        /* \"Subasta_Bonaduce.sol\":3025:3059  (highestBid * MIN_INCREMENT) / 100 */\n      tag_306\n      swap2\n      swap1\n      tag_146\n      jump\t// in\n    tag_306:\n        /* \"Subasta_Bonaduce.sol\":3011:3021  highestBid */\n      sload(0x03)\n        /* \"Subasta_Bonaduce.sol\":3011:3060  highestBid + ((highestBid * MIN_INCREMENT) / 100) */\n      tag_307\n      swap2\n      swap1\n      tag_137\n      jump\t// in\n    tag_307:\n        /* \"Subasta_Bonaduce.sol\":3001:3007  amount */\n      dup2\n        /* \"Subasta_Bonaduce.sol\":3001:3060  amount >= highestBid + ((highestBid * MIN_INCREMENT) / 100) */\n      lt\n      iszero\n        /* \"Subasta_Bonaduce.sol\":2993:3141  require(amount >= highestBid + ((highestBid * MIN_INCREMENT) / 100),... */\n      tag_308\n      jumpi\n      mload(0x40)\n      0x08c379a000000000000000000000000000000000000000000000000000000000\n      dup2\n      mstore\n      0x04\n      add\n      tag_309\n      swap1\n      tag_310\n      jump\t// in\n    tag_309:\n      mload(0x40)\n      dup1\n      swap2\n      sub\n      swap1\n      revert\n    tag_308:\n        /* \"Subasta_Bonaduce.sol\":6542:6556  auctionEndTime */\n      sload(0x01)\n        /* \"Subasta_Bonaduce.sol\":6523:6538  block.timestamp */\n      timestamp\n        /* \"Subasta_Bonaduce.sol\":6523:6556  block.timestamp <= auctionEndTime */\n      gt\n      iszero\n        /* \"Subasta_Bonaduce.sol\":6515:6586  require(block.timestamp <= auctionEndTime, \"La subasta ha finalizado.\") */\n      tag_312\n      jumpi\n      mload(0x40)\n      0x08c379a000000000000000000000000000000000000000000000000000000000\n      dup2\n      mstore\n      0x04\n      add\n      tag_313\n      swap1\n      tag_314\n      jump\t// in\n    tag_313:\n      mload(0x40)\n      dup1\n      swap2\n      sub\n      swap1\n      revert\n    tag_312:\n        /* \"Subasta_Bonaduce.sol\":1789:1799  10 minutes */\n      0x0258\n        /* \"Subasta_Bonaduce.sol\":6621:6635  auctionEndTime */\n      sload(0x01)\n        /* \"Subasta_Bonaduce.sol\":6621:6652  auctionEndTime - TIME_EXTENSION */\n      tag_315\n      swap2\n      swap1\n      tag_131\n      jump\t// in\n    tag_315:\n        /* \"Subasta_Bonaduce.sol\":6603:6618  block.timestamp */\n      timestamp\n        /* \"Subasta_Bonaduce.sol\":6603:6652  block.timestamp > auctionEndTime - TIME_EXTENSION */\n      gt\n        /* \"Subasta_Bonaduce.sol\":6599:6764  if (block.timestamp > auctionEndTime - TIME_EXTENSION) {... */\n      iszero\n      tag_316\n      jumpi\n        /* \"Subasta_Bonaduce.sol\":1789:1799  10 minutes */\n      0x0258\n        /* \"Subasta_Bonaduce.sol\":6669:6683  auctionEndTime */\n      0x01\n      0x00\n        /* \"Subasta_Bonaduce.sol\":6669:6701  auctionEndTime += TIME_EXTENSION */\n      dup3\n      dup3\n      sload\n      tag_317\n      swap2\n      swap1\n      tag_137\n      jump\t// in\n    tag_317:\n      swap3\n      pop\n      pop\n      dup2\n      swap1\n      sstore\n      pop\n        /* \"Subasta_Bonaduce.sol\":6721:6752  AuctionExtended(auctionEndTime) */\n      0xc2b459809119087ca9d2bc10dea53a51b7d848b1a11075db037bdca58292c3e8\n        /* \"Subasta_Bonaduce.sol\":6737:6751  auctionEndTime */\n      sload(0x01)\n        /* \"Subasta_Bonaduce.sol\":6721:6752  AuctionExtended(auctionEndTime) */\n      mload(0x40)\n      tag_318\n      swap2\n      swap1\n      tag_33\n      jump\t// in\n    tag_318:\n      mload(0x40)\n      dup1\n      swap2\n      sub\n      swap1\n      log1\n        /* \"Subasta_Bonaduce.sol\":6599:6764  if (block.timestamp > auctionEndTime - TIME_EXTENSION) {... */\n    tag_316:\n        /* \"Subasta_Bonaduce.sol\":6776:6787  uint newBid */\n      0x00\n        /* \"Subasta_Bonaduce.sol\":6790:6799  msg.value */\n      callvalue\n        /* \"Subasta_Bonaduce.sol\":6776:6799  uint newBid = msg.value */\n      swap1\n      pop\n        /* \"Subasta_Bonaduce.sol\":6810:6821  bidsHistory */\n      0x06\n        /* \"Subasta_Bonaduce.sol\":6810:6833  bidsHistory[msg.sender] */\n      0x00\n        /* \"Subasta_Bonaduce.sol\":6822:6832  msg.sender */\n      caller\n        /* \"Subasta_Bonaduce.sol\":6810:6833  bidsHistory[msg.sender] */\n      0xffffffffffffffffffffffffffffffffffffffff\n      and\n      0xffffffffffffffffffffffffffffffffffffffff\n      and\n      dup2\n      mstore\n      0x20\n      add\n      swap1\n      dup2\n      mstore\n      0x20\n      add\n      0x00\n      keccak256\n        /* \"Subasta_Bonaduce.sol\":6839:6845  newBid */\n      dup2\n        /* \"Subasta_Bonaduce.sol\":6810:6846  bidsHistory[msg.sender].push(newBid) */\n      swap1\n      dup1\n      0x01\n      dup2\n      sload\n      add\n      dup1\n      dup3\n      sstore\n      dup1\n      swap2\n      pop\n      pop\n      0x01\n      swap1\n      sub\n      swap1\n      0x00\n      mstore\n      keccak256(0x00, 0x20)\n      add\n      0x00\n      swap1\n      swap2\n      swap1\n      swap2\n      swap1\n      swap2\n      pop\n      sstore\n        /* \"Subasta_Bonaduce.sol\":6882:6888  newBid */\n      dup1\n        /* \"Subasta_Bonaduce.sol\":6857:6866  totalBids */\n      0x07\n        /* \"Subasta_Bonaduce.sol\":6857:6878  totalBids[msg.sender] */\n      0x00\n        /* \"Subasta_Bonaduce.sol\":6867:6877  msg.sender */\n      caller\n        /* \"Subasta_Bonaduce.sol\":6857:6878  totalBids[msg.sender] */\n      0xffffffffffffffffffffffffffffffffffffffff\n      and\n      0xffffffffffffffffffffffffffffffffffffffff\n      and\n      dup2\n      mstore\n      0x20\n      add\n      swap1\n      dup2\n      mstore\n      0x20\n      add\n      0x00\n      keccak256\n      0x00\n        /* \"Subasta_Bonaduce.sol\":6857:6888  totalBids[msg.sender] += newBid */\n      dup3\n      dup3\n      sload\n      tag_320\n      swap2\n      swap1\n      tag_137\n      jump\t// in\n    tag_320:\n      swap3\n      pop\n      pop\n      dup2\n      swap1\n      sstore\n      pop\n        /* \"Subasta_Bonaduce.sol\":6984:6997  offersHistory */\n      0x0a\n        /* \"Subasta_Bonaduce.sol\":7003:7028  Offer(msg.sender, newBid) */\n      mload(0x40)\n      dup1\n      0x40\n      add\n      0x40\n      mstore\n      dup1\n        /* \"Subasta_Bonaduce.sol\":7009:7019  msg.sender */\n      caller\n        /* \"Subasta_Bonaduce.sol\":7003:7028  Offer(msg.sender, newBid) */\n      0xffffffffffffffffffffffffffffffffffffffff\n      and\n      dup2\n      mstore\n      0x20\n      add\n        /* \"Subasta_Bonaduce.sol\":7021:7027  newBid */\n      dup4\n        /* \"Subasta_Bonaduce.sol\":7003:7028  Offer(msg.sender, newBid) */\n      dup2\n      mstore\n      pop\n        /* \"Subasta_Bonaduce.sol\":6984:7029  offersHistory.push(Offer(msg.sender, newBid)) */\n      swap1\n      dup1\n      0x01\n      dup2\n      sload\n      add\n      dup1\n      dup3\n      sstore\n      dup1\n      swap2\n      pop\n      pop\n      0x01\n      swap1\n      sub\n      swap1\n      0x00\n      mstore\n      keccak256(0x00, 0x20)\n      swap1\n      0x02\n      mul\n      add\n      0x00\n      swap1\n      swap2\n      swap1\n      swap2\n      swap1\n      swap2\n      pop\n      0x00\n      dup3\n      add\n      mload\n      dup2\n      0x00\n      add\n      exp(0x0100, 0x00)\n      dup2\n      sload\n      dup2\n      0xffffffffffffffffffffffffffffffffffffffff\n      mul\n      not\n      and\n      swap1\n      dup4\n      0xffffffffffffffffffffffffffffffffffffffff\n      and\n      mul\n      or\n      swap1\n      sstore\n      pop\n      0x20\n      dup3\n      add\n      mload\n      dup2\n      0x01\n      add\n      sstore\n      pop\n      pop\n        /* \"Subasta_Bonaduce.sol\":7055:7065  highestBid */\n      sload(0x03)\n        /* \"Subasta_Bonaduce.sol\":7046:7052  newBid */\n      dup2\n        /* \"Subasta_Bonaduce.sol\":7046:7065  newBid > highestBid */\n      gt\n        /* \"Subasta_Bonaduce.sol\":7042:7154  if (newBid > highestBid) {... */\n      iszero\n      tag_322\n      jumpi\n        /* \"Subasta_Bonaduce.sol\":7095:7101  newBid */\n      dup1\n        /* \"Subasta_Bonaduce.sol\":7082:7092  highestBid */\n      0x03\n        /* \"Subasta_Bonaduce.sol\":7082:7101  highestBid = newBid */\n      dup2\n      swap1\n      sstore\n      pop\n        /* \"Subasta_Bonaduce.sol\":7132:7142  msg.sender */\n      caller\n        /* \"Subasta_Bonaduce.sol\":7116:7129  highestBidder */\n      0x04\n      0x00\n        /* \"Subasta_Bonaduce.sol\":7116:7142  highestBidder = msg.sender */\n      0x0100\n      exp\n      dup2\n      sload\n      dup2\n      0xffffffffffffffffffffffffffffffffffffffff\n      mul\n      not\n      and\n      swap1\n      dup4\n      0xffffffffffffffffffffffffffffffffffffffff\n      and\n      mul\n      or\n      swap1\n      sstore\n      pop\n        /* \"Subasta_Bonaduce.sol\":7042:7154  if (newBid > highestBid) {... */\n    tag_322:\n        /* \"Subasta_Bonaduce.sol\":7204:7205  1 */\n      0x01\n        /* \"Subasta_Bonaduce.sol\":7170:7181  bidsHistory */\n      0x06\n        /* \"Subasta_Bonaduce.sol\":7170:7193  bidsHistory[msg.sender] */\n      0x00\n        /* \"Subasta_Bonaduce.sol\":7182:7192  msg.sender */\n      caller\n        /* \"Subasta_Bonaduce.sol\":7170:7193  bidsHistory[msg.sender] */\n      0xffffffffffffffffffffffffffffffffffffffff\n      and\n      0xffffffffffffffffffffffffffffffffffffffff\n      and\n      dup2\n      mstore\n      0x20\n      add\n      swap1\n      dup2\n      mstore\n      0x20\n      add\n      0x00\n      keccak256\n        /* \"Subasta_Bonaduce.sol\":7170:7200  bidsHistory[msg.sender].length */\n      dup1\n      sload\n      swap1\n      pop\n        /* \"Subasta_Bonaduce.sol\":7170:7205  bidsHistory[msg.sender].length == 1 */\n      sub\n        /* \"Subasta_Bonaduce.sol\":7166:7258  if (bidsHistory[msg.sender].length == 1) {... */\n      tag_323\n      jumpi\n        /* \"Subasta_Bonaduce.sol\":7222:7229  bidders */\n      0x09\n        /* \"Subasta_Bonaduce.sol\":7235:7245  msg.sender */\n      caller\n        /* \"Subasta_Bonaduce.sol\":7222:7246  bidders.push(msg.sender) */\n      swap1\n      dup1\n      0x01\n      dup2\n      sload\n      add\n      dup1\n      dup3\n      sstore\n      dup1\n      swap2\n      pop\n      pop\n      0x01\n      swap1\n      sub\n      swap1\n      0x00\n      mstore\n      keccak256(0x00, 0x20)\n      add\n      0x00\n      swap1\n      swap2\n      swap1\n      swap2\n      swap1\n      swap2\n      0x0100\n      exp\n      dup2\n      sload\n      dup2\n      0xffffffffffffffffffffffffffffffffffffffff\n      mul\n      not\n      and\n      swap1\n      dup4\n      0xffffffffffffffffffffffffffffffffffffffff\n      and\n      mul\n      or\n      swap1\n      sstore\n      pop\n        /* \"Subasta_Bonaduce.sol\":7166:7258  if (bidsHistory[msg.sender].length == 1) {... */\n    tag_323:\n        /* \"Subasta_Bonaduce.sol\":7285:7295  msg.sender */\n      caller\n        /* \"Subasta_Bonaduce.sol\":7275:7304  BidPlaced(msg.sender, newBid) */\n      0xffffffffffffffffffffffffffffffffffffffff\n      and\n      0x3fabff0a9c3ecd6814702e247fa9733e5d0aa69e3a38590f92cb18f623a2254d\n        /* \"Subasta_Bonaduce.sol\":7297:7303  newBid */\n      dup3\n        /* \"Subasta_Bonaduce.sol\":7275:7304  BidPlaced(msg.sender, newBid) */\n      mload(0x40)\n      tag_325\n      swap2\n      swap1\n      tag_33\n      jump\t// in\n    tag_325:\n      mload(0x40)\n      dup1\n      swap2\n      sub\n      swap1\n      log2\n        /* \"Subasta_Bonaduce.sol\":6504:7312  {... */\n      pop\n        /* \"Subasta_Bonaduce.sol\":2833:2834  _ */\n      pop\n        /* \"Subasta_Bonaduce.sol\":6423:7312  function placeBid() external payable onlyDuringActiveAuction validBid(msg.value) {... */\n      jump\t// out\n        /* \"Subasta_Bonaduce.sol\":9916:10268  function endAuction() external onlyOwner onlyAfterAuctionEnded {... */\n    tag_106:\n        /* \"Subasta_Bonaduce.sol\":2550:2555  owner */\n      0x05\n      0x00\n      swap1\n      sload\n      swap1\n      0x0100\n      exp\n      swap1\n      div\n      0xffffffffffffffffffffffffffffffffffffffff\n      and\n        /* \"Subasta_Bonaduce.sol\":2536:2555  msg.sender == owner */\n      0xffffffffffffffffffffffffffffffffffffffff\n      and\n        /* \"Subasta_Bonaduce.sol\":2536:2546  msg.sender */\n      caller\n        /* \"Subasta_Bonaduce.sol\":2536:2555  msg.sender == owner */\n      0xffffffffffffffffffffffffffffffffffffffff\n      and\n      eq\n        /* \"Subasta_Bonaduce.sol\":2528:2607  require(msg.sender == owner, \"Solo el propietario puede ejecutar esta funcion\") */\n      tag_327\n      jumpi\n      mload(0x40)\n      0x08c379a000000000000000000000000000000000000000000000000000000000\n      dup2\n      mstore\n      0x04\n      add\n      tag_328\n      swap1\n      tag_167\n      jump\t// in\n    tag_328:\n      mload(0x40)\n      dup1\n      swap2\n      sub\n      swap1\n      revert\n    tag_327:\n        /* \"Subasta_Bonaduce.sol\":3312:3326  auctionEndTime */\n      sload(0x01)\n        /* \"Subasta_Bonaduce.sol\":3293:3308  block.timestamp */\n      timestamp\n        /* \"Subasta_Bonaduce.sol\":3293:3326  block.timestamp >= auctionEndTime */\n      lt\n      iszero\n        /* \"Subasta_Bonaduce.sol\":3285:3357  require(block.timestamp >= auctionEndTime, \"La subasta no ha terminado\") */\n      tag_330\n      jumpi\n      mload(0x40)\n      0x08c379a000000000000000000000000000000000000000000000000000000000\n      dup2\n      mstore\n      0x04\n      add\n      tag_331\n      swap1\n      tag_211\n      jump\t// in\n    tag_331:\n      mload(0x40)\n      dup1\n      swap2\n      sub\n      swap1\n      revert\n    tag_330:\n        /* \"Subasta_Bonaduce.sol\":10014:10033  AuctionState.Active */\n      0x00\n        /* \"Subasta_Bonaduce.sol\":9998:10033  auctionState == AuctionState.Active */\n      0x03\n      dup2\n      gt\n      iszero\n      tag_333\n      jumpi\n      tag_334\n      tag_110\n      jump\t// in\n    tag_334:\n    tag_333:\n        /* \"Subasta_Bonaduce.sol\":9998:10010  auctionState */\n      0x00\n      dup1\n      sload\n      swap1\n      0x0100\n      exp\n      swap1\n      div\n      0xff\n      and\n        /* \"Subasta_Bonaduce.sol\":9998:10033  auctionState == AuctionState.Active */\n      0x03\n      dup2\n      gt\n      iszero\n      tag_335\n      jumpi\n      tag_336\n      tag_110\n      jump\t// in\n    tag_336:\n    tag_335:\n      eq\n        /* \"Subasta_Bonaduce.sol\":9990:10071  require(auctionState == AuctionState.Active, \"La subasta ya ha sido finalizada.\") */\n      tag_337\n      jumpi\n      mload(0x40)\n      0x08c379a000000000000000000000000000000000000000000000000000000000\n      dup2\n      mstore\n      0x04\n      add\n      tag_338\n      swap1\n      tag_339\n      jump\t// in\n    tag_338:\n      mload(0x40)\n      dup1\n      swap2\n      sub\n      swap1\n      revert\n    tag_337:\n        /* \"Subasta_Bonaduce.sol\":10109:10123  auctionEndTime */\n      sload(0x01)\n        /* \"Subasta_Bonaduce.sol\":10090:10105  block.timestamp */\n      timestamp\n        /* \"Subasta_Bonaduce.sol\":10090:10123  block.timestamp >= auctionEndTime */\n      lt\n      iszero\n        /* \"Subasta_Bonaduce.sol\":10082:10159  require(block.timestamp >= auctionEndTime, \"La subasta aun no ha terminado.\") */\n      tag_340\n      jumpi\n      mload(0x40)\n      0x08c379a000000000000000000000000000000000000000000000000000000000\n      dup2\n      mstore\n      0x04\n      add\n      tag_341\n      swap1\n      tag_225\n      jump\t// in\n    tag_341:\n      mload(0x40)\n      dup1\n      swap2\n      sub\n      swap1\n      revert\n    tag_340:\n        /* \"Subasta_Bonaduce.sol\":10185:10203  AuctionState.Ended */\n      0x01\n        /* \"Subasta_Bonaduce.sol\":10170:10182  auctionState */\n      0x00\n      dup1\n        /* \"Subasta_Bonaduce.sol\":10170:10203  auctionState = AuctionState.Ended */\n      0x0100\n      exp\n      dup2\n      sload\n      dup2\n      0xff\n      mul\n      not\n      and\n      swap1\n      dup4\n      0x03\n      dup2\n      gt\n      iszero\n      tag_342\n      jumpi\n      tag_343\n      tag_110\n      jump\t// in\n    tag_343:\n    tag_342:\n      mul\n      or\n      swap1\n      sstore\n      pop\n        /* \"Subasta_Bonaduce.sol\":10234:10247  highestBidder */\n      0x04\n      0x00\n      swap1\n      sload\n      swap1\n      0x0100\n      exp\n      swap1\n      div\n      0xffffffffffffffffffffffffffffffffffffffff\n      and\n        /* \"Subasta_Bonaduce.sol\":10221:10260  AuctionEnded(highestBidder, highestBid) */\n      0xffffffffffffffffffffffffffffffffffffffff\n      and\n      0xdaec4582d5d9595688c8c98545fdd1c696d41c6aeaeb636737e84ed2f5c00eda\n        /* \"Subasta_Bonaduce.sol\":10249:10259  highestBid */\n      sload(0x03)\n        /* \"Subasta_Bonaduce.sol\":10221:10260  AuctionEnded(highestBidder, highestBid) */\n      mload(0x40)\n      tag_344\n      swap2\n      swap1\n      tag_33\n      jump\t// in\n    tag_344:\n      mload(0x40)\n      dup1\n      swap2\n      sub\n      swap1\n      log2\n        /* \"Subasta_Bonaduce.sol\":9916:10268  function endAuction() external onlyOwner onlyAfterAuctionEnded {... */\n      jump\t// out\n        /* \"#utility.yul\":88:205   */\n    tag_346:\n        /* \"#utility.yul\":197:198   */\n      0x00\n        /* \"#utility.yul\":194:195   */\n      dup1\n        /* \"#utility.yul\":187:199   */\n      revert\n        /* \"#utility.yul\":334:460   */\n    tag_348:\n        /* \"#utility.yul\":371:378   */\n      0x00\n        /* \"#utility.yul\":411:453   */\n      0xffffffffffffffffffffffffffffffffffffffff\n        /* \"#utility.yul\":404:409   */\n      dup3\n        /* \"#utility.yul\":400:454   */\n      and\n        /* \"#utility.yul\":389:454   */\n      swap1\n      pop\n        /* \"#utility.yul\":334:460   */\n      swap2\n      swap1\n      pop\n      jump\t// out\n        /* \"#utility.yul\":466:562   */\n    tag_349:\n        /* \"#utility.yul\":503:510   */\n      0x00\n        /* \"#utility.yul\":532:556   */\n      tag_426\n        /* \"#utility.yul\":550:555   */\n      dup3\n        /* \"#utility.yul\":532:556   */\n      tag_348\n      jump\t// in\n    tag_426:\n        /* \"#utility.yul\":521:556   */\n      swap1\n      pop\n        /* \"#utility.yul\":466:562   */\n      swap2\n      swap1\n      pop\n      jump\t// out\n        /* \"#utility.yul\":568:690   */\n    tag_350:\n        /* \"#utility.yul\":641:665   */\n      tag_428\n        /* \"#utility.yul\":659:664   */\n      dup2\n        /* \"#utility.yul\":641:665   */\n      tag_349\n      jump\t// in\n    tag_428:\n        /* \"#utility.yul\":634:639   */\n      dup2\n        /* \"#utility.yul\":631:666   */\n      eq\n        /* \"#utility.yul\":621:684   */\n      tag_429\n      jumpi\n        /* \"#utility.yul\":680:681   */\n      0x00\n        /* \"#utility.yul\":677:678   */\n      dup1\n        /* \"#utility.yul\":670:682   */\n      revert\n        /* \"#utility.yul\":621:684   */\n    tag_429:\n        /* \"#utility.yul\":568:690   */\n      pop\n      jump\t// out\n        /* \"#utility.yul\":696:835   */\n    tag_351:\n        /* \"#utility.yul\":742:747   */\n      0x00\n        /* \"#utility.yul\":780:786   */\n      dup2\n        /* \"#utility.yul\":767:787   */\n      calldataload\n        /* \"#utility.yul\":758:787   */\n      swap1\n      pop\n        /* \"#utility.yul\":796:829   */\n      tag_431\n        /* \"#utility.yul\":823:828   */\n      dup2\n        /* \"#utility.yul\":796:829   */\n      tag_350\n      jump\t// in\n    tag_431:\n        /* \"#utility.yul\":696:835   */\n      swap3\n      swap2\n      pop\n      pop\n      jump\t// out\n        /* \"#utility.yul\":841:918   */\n    tag_352:\n        /* \"#utility.yul\":878:885   */\n      0x00\n        /* \"#utility.yul\":907:912   */\n      dup2\n        /* \"#utility.yul\":896:912   */\n      swap1\n      pop\n        /* \"#utility.yul\":841:918   */\n      swap2\n      swap1\n      pop\n      jump\t// out\n        /* \"#utility.yul\":924:1046   */\n    tag_353:\n        /* \"#utility.yul\":997:1021   */\n      tag_434\n        /* \"#utility.yul\":1015:1020   */\n      dup2\n        /* \"#utility.yul\":997:1021   */\n      tag_352\n      jump\t// in\n    tag_434:\n        /* \"#utility.yul\":990:995   */\n      dup2\n        /* \"#utility.yul\":987:1022   */\n      eq\n        /* \"#utility.yul\":977:1040   */\n      tag_435\n      jumpi\n        /* \"#utility.yul\":1036:1037   */\n      0x00\n        /* \"#utility.yul\":1033:1034   */\n      dup1\n        /* \"#utility.yul\":1026:1038   */\n      revert\n        /* \"#utility.yul\":977:1040   */\n    tag_435:\n        /* \"#utility.yul\":924:1046   */\n      pop\n      jump\t// out\n        /* \"#utility.yul\":1052:1191   */\n    tag_354:\n        /* \"#utility.yul\":1098:1103   */\n      0x00\n        /* \"#utility.yul\":1136:1142   */\n      dup2\n        /* \"#utility.yul\":1123:1143   */\n      calldataload\n        /* \"#utility.yul\":1114:1143   */\n      swap1\n      pop\n        /* \"#utility.yul\":1152:1185   */\n      tag_437\n        /* \"#utility.yul\":1179:1184   */\n      dup2\n        /* \"#utility.yul\":1152:1185   */\n      tag_353\n      jump\t// in\n    tag_437:\n        /* \"#utility.yul\":1052:1191   */\n      swap3\n      swap2\n      pop\n      pop\n      jump\t// out\n        /* \"#utility.yul\":1197:1671   */\n    tag_30:\n        /* \"#utility.yul\":1265:1271   */\n      0x00\n        /* \"#utility.yul\":1273:1279   */\n      dup1\n        /* \"#utility.yul\":1322:1324   */\n      0x40\n        /* \"#utility.yul\":1310:1319   */\n      dup4\n        /* \"#utility.yul\":1301:1308   */\n      dup6\n        /* \"#utility.yul\":1297:1320   */\n      sub\n        /* \"#utility.yul\":1293:1325   */\n      slt\n        /* \"#utility.yul\":1290:1409   */\n      iszero\n      tag_439\n      jumpi\n        /* \"#utility.yul\":1328:1407   */\n      tag_440\n      tag_346\n      jump\t// in\n    tag_440:\n        /* \"#utility.yul\":1290:1409   */\n    tag_439:\n        /* \"#utility.yul\":1448:1449   */\n      0x00\n        /* \"#utility.yul\":1473:1526   */\n      tag_441\n        /* \"#utility.yul\":1518:1525   */\n      dup6\n        /* \"#utility.yul\":1509:1515   */\n      dup3\n        /* \"#utility.yul\":1498:1507   */\n      dup7\n        /* \"#utility.yul\":1494:1516   */\n      add\n        /* \"#utility.yul\":1473:1526   */\n      tag_351\n      jump\t// in\n    tag_441:\n        /* \"#utility.yul\":1463:1526   */\n      swap3\n      pop\n        /* \"#utility.yul\":1419:1536   */\n      pop\n        /* \"#utility.yul\":1575:1577   */\n      0x20\n        /* \"#utility.yul\":1601:1654   */\n      tag_442\n        /* \"#utility.yul\":1646:1653   */\n      dup6\n        /* \"#utility.yul\":1637:1643   */\n      dup3\n        /* \"#utility.yul\":1626:1635   */\n      dup7\n        /* \"#utility.yul\":1622:1644   */\n      add\n        /* \"#utility.yul\":1601:1654   */\n      tag_354\n      jump\t// in\n    tag_442:\n        /* \"#utility.yul\":1591:1654   */\n      swap2\n      pop\n        /* \"#utility.yul\":1546:1664   */\n      pop\n        /* \"#utility.yul\":1197:1671   */\n      swap3\n      pop\n      swap3\n      swap1\n      pop\n      jump\t// out\n        /* \"#utility.yul\":1677:1795   */\n    tag_355:\n        /* \"#utility.yul\":1764:1788   */\n      tag_444\n        /* \"#utility.yul\":1782:1787   */\n      dup2\n        /* \"#utility.yul\":1764:1788   */\n      tag_352\n      jump\t// in\n    tag_444:\n        /* \"#utility.yul\":1759:1762   */\n      dup3\n        /* \"#utility.yul\":1752:1789   */\n      mstore\n        /* \"#utility.yul\":1677:1795   */\n      pop\n      pop\n      jump\t// out\n        /* \"#utility.yul\":1801:2023   */\n    tag_33:\n        /* \"#utility.yul\":1894:1898   */\n      0x00\n        /* \"#utility.yul\":1932:1934   */\n      0x20\n        /* \"#utility.yul\":1921:1930   */\n      dup3\n        /* \"#utility.yul\":1917:1935   */\n      add\n        /* \"#utility.yul\":1909:1935   */\n      swap1\n      pop\n        /* \"#utility.yul\":1945:2016   */\n      tag_446\n        /* \"#utility.yul\":2013:2014   */\n      0x00\n        /* \"#utility.yul\":2002:2011   */\n      dup4\n        /* \"#utility.yul\":1998:2015   */\n      add\n        /* \"#utility.yul\":1989:1995   */\n      dup5\n        /* \"#utility.yul\":1945:2016   */\n      tag_355\n      jump\t// in\n    tag_446:\n        /* \"#utility.yul\":1801:2023   */\n      swap3\n      swap2\n      pop\n      pop\n      jump\t// out\n        /* \"#utility.yul\":2029:2165   */\n    tag_356:\n        /* \"#utility.yul\":2118:2124   */\n      0x00\n        /* \"#utility.yul\":2152:2157   */\n      dup2\n        /* \"#utility.yul\":2146:2158   */\n      mload\n        /* \"#utility.yul\":2136:2158   */\n      swap1\n      pop\n        /* \"#utility.yul\":2029:2165   */\n      swap2\n      swap1\n      pop\n      jump\t// out\n        /* \"#utility.yul\":2171:2377   */\n    tag_357:\n        /* \"#utility.yul\":2292:2303   */\n      0x00\n        /* \"#utility.yul\":2326:2332   */\n      dup3\n        /* \"#utility.yul\":2321:2324   */\n      dup3\n        /* \"#utility.yul\":2314:2333   */\n      mstore\n        /* \"#utility.yul\":2366:2370   */\n      0x20\n        /* \"#utility.yul\":2361:2364   */\n      dup3\n        /* \"#utility.yul\":2357:2371   */\n      add\n        /* \"#utility.yul\":2342:2371   */\n      swap1\n      pop\n        /* \"#utility.yul\":2171:2377   */\n      swap3\n      swap2\n      pop\n      pop\n      jump\t// out\n        /* \"#utility.yul\":2383:2537   */\n    tag_358:\n        /* \"#utility.yul\":2472:2476   */\n      0x00\n        /* \"#utility.yul\":2495:2498   */\n      dup2\n        /* \"#utility.yul\":2487:2498   */\n      swap1\n      pop\n        /* \"#utility.yul\":2525:2529   */\n      0x20\n        /* \"#utility.yul\":2520:2523   */\n      dup3\n        /* \"#utility.yul\":2516:2530   */\n      add\n        /* \"#utility.yul\":2508:2530   */\n      swap1\n      pop\n        /* \"#utility.yul\":2383:2537   */\n      swap2\n      swap1\n      pop\n      jump\t// out\n        /* \"#utility.yul\":2543:2651   */\n    tag_359:\n        /* \"#utility.yul\":2620:2644   */\n      tag_451\n        /* \"#utility.yul\":2638:2643   */\n      dup2\n        /* \"#utility.yul\":2620:2644   */\n      tag_349\n      jump\t// in\n    tag_451:\n        /* \"#utility.yul\":2615:2618   */\n      dup3\n        /* \"#utility.yul\":2608:2645   */\n      mstore\n        /* \"#utility.yul\":2543:2651   */\n      pop\n      pop\n      jump\t// out\n        /* \"#utility.yul\":2657:2765   */\n    tag_360:\n        /* \"#utility.yul\":2734:2758   */\n      tag_453\n        /* \"#utility.yul\":2752:2757   */\n      dup2\n        /* \"#utility.yul\":2734:2758   */\n      tag_352\n      jump\t// in\n    tag_453:\n        /* \"#utility.yul\":2729:2732   */\n      dup3\n        /* \"#utility.yul\":2722:2759   */\n      mstore\n        /* \"#utility.yul\":2657:2765   */\n      pop\n      pop\n      jump\t// out\n        /* \"#utility.yul\":2831:3326   */\n    tag_361:\n        /* \"#utility.yul\":2962:2966   */\n      0x40\n        /* \"#utility.yul\":2957:2960   */\n      dup3\n        /* \"#utility.yul\":2953:2967   */\n      add\n        /* \"#utility.yul\":3051:3055   */\n      0x00\n        /* \"#utility.yul\":3044:3049   */\n      dup3\n        /* \"#utility.yul\":3040:3056   */\n      add\n        /* \"#utility.yul\":3034:3057   */\n      mload\n        /* \"#utility.yul\":3070:3133   */\n      tag_455\n        /* \"#utility.yul\":3127:3131   */\n      0x00\n        /* \"#utility.yul\":3122:3125   */\n      dup6\n        /* \"#utility.yul\":3118:3132   */\n      add\n        /* \"#utility.yul\":3104:3116   */\n      dup3\n        /* \"#utility.yul\":3070:3133   */\n      tag_359\n      jump\t// in\n    tag_455:\n        /* \"#utility.yul\":2977:3143   */\n      pop\n        /* \"#utility.yul\":3227:3231   */\n      0x20\n        /* \"#utility.yul\":3220:3225   */\n      dup3\n        /* \"#utility.yul\":3216:3232   */\n      add\n        /* \"#utility.yul\":3210:3233   */\n      mload\n        /* \"#utility.yul\":3246:3309   */\n      tag_456\n        /* \"#utility.yul\":3303:3307   */\n      0x20\n        /* \"#utility.yul\":3298:3301   */\n      dup6\n        /* \"#utility.yul\":3294:3308   */\n      add\n        /* \"#utility.yul\":3280:3292   */\n      dup3\n        /* \"#utility.yul\":3246:3309   */\n      tag_360\n      jump\t// in\n    tag_456:\n        /* \"#utility.yul\":3153:3319   */\n      pop\n        /* \"#utility.yul\":2931:3326   */\n      pop\n        /* \"#utility.yul\":2831:3326   */\n      pop\n      pop\n      jump\t// out\n        /* \"#utility.yul\":3332:3599   */\n    tag_362:\n        /* \"#utility.yul\":3445:3455   */\n      0x00\n        /* \"#utility.yul\":3466:3556   */\n      tag_458\n        /* \"#utility.yul\":3552:3555   */\n      dup4\n        /* \"#utility.yul\":3544:3550   */\n      dup4\n        /* \"#utility.yul\":3466:3556   */\n      tag_361\n      jump\t// in\n    tag_458:\n        /* \"#utility.yul\":3588:3592   */\n      0x40\n        /* \"#utility.yul\":3583:3586   */\n      dup4\n        /* \"#utility.yul\":3579:3593   */\n      add\n        /* \"#utility.yul\":3565:3593   */\n      swap1\n      pop\n        /* \"#utility.yul\":3332:3599   */\n      swap3\n      swap2\n      pop\n      pop\n      jump\t// out\n        /* \"#utility.yul\":3605:3740   */\n    tag_363:\n        /* \"#utility.yul\":3697:3701   */\n      0x00\n        /* \"#utility.yul\":3729:3733   */\n      0x20\n        /* \"#utility.yul\":3724:3727   */\n      dup3\n        /* \"#utility.yul\":3720:3734   */\n      add\n        /* \"#utility.yul\":3712:3734   */\n      swap1\n      pop\n        /* \"#utility.yul\":3605:3740   */\n      swap2\n      swap1\n      pop\n      jump\t// out\n        /* \"#utility.yul\":3810:4718   */\n    tag_364:\n        /* \"#utility.yul\":3973:3976   */\n      0x00\n        /* \"#utility.yul\":4002:4078   */\n      tag_461\n        /* \"#utility.yul\":4072:4077   */\n      dup3\n        /* \"#utility.yul\":4002:4078   */\n      tag_356\n      jump\t// in\n    tag_461:\n        /* \"#utility.yul\":4094:4202   */\n      tag_462\n        /* \"#utility.yul\":4195:4201   */\n      dup2\n        /* \"#utility.yul\":4190:4193   */\n      dup6\n        /* \"#utility.yul\":4094:4202   */\n      tag_357\n      jump\t// in\n    tag_462:\n        /* \"#utility.yul\":4087:4202   */\n      swap4\n      pop\n        /* \"#utility.yul\":4226:4304   */\n      tag_463\n        /* \"#utility.yul\":4298:4303   */\n      dup4\n        /* \"#utility.yul\":4226:4304   */\n      tag_358\n      jump\t// in\n    tag_463:\n        /* \"#utility.yul\":4327:4334   */\n      dup1\n        /* \"#utility.yul\":4358:4359   */\n      0x00\n        /* \"#utility.yul\":4343:4693   */\n    tag_464:\n        /* \"#utility.yul\":4368:4374   */\n      dup4\n        /* \"#utility.yul\":4365:4366   */\n      dup2\n        /* \"#utility.yul\":4362:4375   */\n      lt\n        /* \"#utility.yul\":4343:4693   */\n      iszero\n      tag_466\n      jumpi\n        /* \"#utility.yul\":4444:4450   */\n      dup2\n        /* \"#utility.yul\":4438:4451   */\n      mload\n        /* \"#utility.yul\":4471:4578   */\n      tag_467\n        /* \"#utility.yul\":4574:4577   */\n      dup9\n        /* \"#utility.yul\":4559:4572   */\n      dup3\n        /* \"#utility.yul\":4471:4578   */\n      tag_362\n      jump\t// in\n    tag_467:\n        /* \"#utility.yul\":4464:4578   */\n      swap8\n      pop\n        /* \"#utility.yul\":4601:4683   */\n      tag_468\n        /* \"#utility.yul\":4676:4682   */\n      dup4\n        /* \"#utility.yul\":4601:4683   */\n      tag_363\n      jump\t// in\n    tag_468:\n        /* \"#utility.yul\":4591:4683   */\n      swap3\n      pop\n        /* \"#utility.yul\":4403:4693   */\n      pop\n        /* \"#utility.yul\":4390:4391   */\n      0x01\n        /* \"#utility.yul\":4387:4388   */\n      dup2\n        /* \"#utility.yul\":4383:4392   */\n      add\n        /* \"#utility.yul\":4378:4392   */\n      swap1\n      pop\n        /* \"#utility.yul\":4343:4693   */\n      jump(tag_464)\n    tag_466:\n        /* \"#utility.yul\":4347:4361   */\n      pop\n        /* \"#utility.yul\":4709:4712   */\n      dup6\n        /* \"#utility.yul\":4702:4712   */\n      swap4\n      pop\n        /* \"#utility.yul\":3978:4718   */\n      pop\n      pop\n      pop\n        /* \"#utility.yul\":3810:4718   */\n      swap3\n      swap2\n      pop\n      pop\n      jump\t// out\n        /* \"#utility.yul\":4724:5185   */\n    tag_41:\n        /* \"#utility.yul\":4911:4915   */\n      0x00\n        /* \"#utility.yul\":4949:4951   */\n      0x20\n        /* \"#utility.yul\":4938:4947   */\n      dup3\n        /* \"#utility.yul\":4934:4952   */\n      add\n        /* \"#utility.yul\":4926:4952   */\n      swap1\n      pop\n        /* \"#utility.yul\":4998:5007   */\n      dup2\n        /* \"#utility.yul\":4992:4996   */\n      dup2\n        /* \"#utility.yul\":4988:5008   */\n      sub\n        /* \"#utility.yul\":4984:4985   */\n      0x00\n        /* \"#utility.yul\":4973:4982   */\n      dup4\n        /* \"#utility.yul\":4969:4986   */\n      add\n        /* \"#utility.yul\":4962:5009   */\n      mstore\n        /* \"#utility.yul\":5026:5178   */\n      tag_470\n        /* \"#utility.yul\":5173:5177   */\n      dup2\n        /* \"#utility.yul\":5164:5170   */\n      dup5\n        /* \"#utility.yul\":5026:5178   */\n      tag_364\n      jump\t// in\n    tag_470:\n        /* \"#utility.yul\":5018:5178   */\n      swap1\n      pop\n        /* \"#utility.yul\":4724:5185   */\n      swap3\n      swap2\n      pop\n      pop\n      jump\t// out\n        /* \"#utility.yul\":5191:5520   */\n    tag_49:\n        /* \"#utility.yul\":5250:5256   */\n      0x00\n        /* \"#utility.yul\":5299:5301   */\n      0x20\n        /* \"#utility.yul\":5287:5296   */\n      dup3\n        /* \"#utility.yul\":5278:5285   */\n      dup5\n        /* \"#utility.yul\":5274:5297   */\n      sub\n        /* \"#utility.yul\":5270:5302   */\n      slt\n        /* \"#utility.yul\":5267:5386   */\n      iszero\n      tag_472\n      jumpi\n        /* \"#utility.yul\":5305:5384   */\n      tag_473\n      tag_346\n      jump\t// in\n    tag_473:\n        /* \"#utility.yul\":5267:5386   */\n    tag_472:\n        /* \"#utility.yul\":5425:5426   */\n      0x00\n        /* \"#utility.yul\":5450:5503   */\n      tag_474\n        /* \"#utility.yul\":5495:5502   */\n      dup5\n        /* \"#utility.yul\":5486:5492   */\n      dup3\n        /* \"#utility.yul\":5475:5484   */\n      dup6\n        /* \"#utility.yul\":5471:5493   */\n      add\n        /* \"#utility.yul\":5450:5503   */\n      tag_351\n      jump\t// in\n    tag_474:\n        /* \"#utility.yul\":5440:5503   */\n      swap2\n      pop\n        /* \"#utility.yul\":5396:5513   */\n      pop\n        /* \"#utility.yul\":5191:5520   */\n      swap3\n      swap2\n      pop\n      pop\n      jump\t// out\n        /* \"#utility.yul\":5526:5855   */\n    tag_58:\n        /* \"#utility.yul\":5585:5591   */\n      0x00\n        /* \"#utility.yul\":5634:5636   */\n      0x20\n        /* \"#utility.yul\":5622:5631   */\n      dup3\n        /* \"#utility.yul\":5613:5620   */\n      dup5\n        /* \"#utility.yul\":5609:5632   */\n      sub\n        /* \"#utility.yul\":5605:5637   */\n      slt\n        /* \"#utility.yul\":5602:5721   */\n      iszero\n      tag_476\n      jumpi\n        /* \"#utility.yul\":5640:5719   */\n      tag_477\n      tag_346\n      jump\t// in\n    tag_477:\n        /* \"#utility.yul\":5602:5721   */\n    tag_476:\n        /* \"#utility.yul\":5760:5761   */\n      0x00\n        /* \"#utility.yul\":5785:5838   */\n      tag_478\n        /* \"#utility.yul\":5830:5837   */\n      dup5\n        /* \"#utility.yul\":5821:5827   */\n      dup3\n        /* \"#utility.yul\":5810:5819   */\n      dup6\n        /* \"#utility.yul\":5806:5828   */\n      add\n        /* \"#utility.yul\":5785:5838   */\n      tag_354\n      jump\t// in\n    tag_478:\n        /* \"#utility.yul\":5775:5838   */\n      swap2\n      pop\n        /* \"#utility.yul\":5731:5848   */\n      pop\n        /* \"#utility.yul\":5526:5855   */\n      swap3\n      swap2\n      pop\n      pop\n      jump\t// out\n        /* \"#utility.yul\":5861:5979   */\n    tag_365:\n        /* \"#utility.yul\":5948:5972   */\n      tag_480\n        /* \"#utility.yul\":5966:5971   */\n      dup2\n        /* \"#utility.yul\":5948:5972   */\n      tag_349\n      jump\t// in\n    tag_480:\n        /* \"#utility.yul\":5943:5946   */\n      dup3\n        /* \"#utility.yul\":5936:5973   */\n      mstore\n        /* \"#utility.yul\":5861:5979   */\n      pop\n      pop\n      jump\t// out\n        /* \"#utility.yul\":5985:6317   */\n    tag_61:\n        /* \"#utility.yul\":6106:6110   */\n      0x00\n        /* \"#utility.yul\":6144:6146   */\n      0x40\n        /* \"#utility.yul\":6133:6142   */\n      dup3\n        /* \"#utility.yul\":6129:6147   */\n      add\n        /* \"#utility.yul\":6121:6147   */\n      swap1\n      pop\n        /* \"#utility.yul\":6157:6228   */\n      tag_482\n        /* \"#utility.yul\":6225:6226   */\n      0x00\n        /* \"#utility.yul\":6214:6223   */\n      dup4\n        /* \"#utility.yul\":6210:6227   */\n      add\n        /* \"#utility.yul\":6201:6207   */\n      dup6\n        /* \"#utility.yul\":6157:6228   */\n      tag_365\n      jump\t// in\n    tag_482:\n        /* \"#utility.yul\":6238:6310   */\n      tag_483\n        /* \"#utility.yul\":6306:6308   */\n      0x20\n        /* \"#utility.yul\":6295:6304   */\n      dup4\n        /* \"#utility.yul\":6291:6309   */\n      add\n        /* \"#utility.yul\":6282:6288   */\n      dup5\n        /* \"#utility.yul\":6238:6310   */\n      tag_355\n      jump\t// in\n    tag_483:\n        /* \"#utility.yul\":5985:6317   */\n      swap4\n      swap3\n      pop\n      pop\n      pop\n      jump\t// out\n        /* \"#utility.yul\":6323:6503   */\n    tag_110:\n        /* \"#utility.yul\":6371:6448   */\n      0x4e487b7100000000000000000000000000000000000000000000000000000000\n        /* \"#utility.yul\":6368:6369   */\n      0x00\n        /* \"#utility.yul\":6361:6449   */\n      mstore\n        /* \"#utility.yul\":6468:6472   */\n      0x21\n        /* \"#utility.yul\":6465:6466   */\n      0x04\n        /* \"#utility.yul\":6458:6473   */\n      mstore\n        /* \"#utility.yul\":6492:6496   */\n      0x24\n        /* \"#utility.yul\":6489:6490   */\n      0x00\n        /* \"#utility.yul\":6482:6497   */\n      revert\n        /* \"#utility.yul\":6509:6628   */\n    tag_366:\n        /* \"#utility.yul\":6596:6597   */\n      0x04\n        /* \"#utility.yul\":6589:6594   */\n      dup2\n        /* \"#utility.yul\":6586:6598   */\n      lt\n        /* \"#utility.yul\":6576:6622   */\n      tag_486\n      jumpi\n        /* \"#utility.yul\":6602:6620   */\n      tag_487\n      tag_110\n      jump\t// in\n    tag_487:\n        /* \"#utility.yul\":6576:6622   */\n    tag_486:\n        /* \"#utility.yul\":6509:6628   */\n      pop\n      jump\t// out\n        /* \"#utility.yul\":6634:6773   */\n    tag_367:\n        /* \"#utility.yul\":6685:6692   */\n      0x00\n        /* \"#utility.yul\":6714:6719   */\n      dup2\n        /* \"#utility.yul\":6703:6719   */\n      swap1\n      pop\n        /* \"#utility.yul\":6720:6767   */\n      tag_489\n        /* \"#utility.yul\":6761:6766   */\n      dup3\n        /* \"#utility.yul\":6720:6767   */\n      tag_366\n      jump\t// in\n    tag_489:\n        /* \"#utility.yul\":6634:6773   */\n      swap2\n      swap1\n      pop\n      jump\t// out\n        /* \"#utility.yul\":6779:6918   */\n    tag_368:\n        /* \"#utility.yul\":6841:6850   */\n      0x00\n        /* \"#utility.yul\":6874:6912   */\n      tag_491\n        /* \"#utility.yul\":6906:6911   */\n      dup3\n        /* \"#utility.yul\":6874:6912   */\n      tag_367\n      jump\t// in\n    tag_491:\n        /* \"#utility.yul\":6861:6912   */\n      swap1\n      pop\n        /* \"#utility.yul\":6779:6918   */\n      swap2\n      swap1\n      pop\n      jump\t// out\n        /* \"#utility.yul\":6924:7079   */\n    tag_369:\n        /* \"#utility.yul\":7023:7072   */\n      tag_493\n        /* \"#utility.yul\":7066:7071   */\n      dup2\n        /* \"#utility.yul\":7023:7072   */\n      tag_368\n      jump\t// in\n    tag_493:\n        /* \"#utility.yul\":7018:7021   */\n      dup3\n        /* \"#utility.yul\":7011:7073   */\n      mstore\n        /* \"#utility.yul\":6924:7079   */\n      pop\n      pop\n      jump\t// out\n        /* \"#utility.yul\":7085:7331   */\n    tag_66:\n        /* \"#utility.yul\":7190:7194   */\n      0x00\n        /* \"#utility.yul\":7228:7230   */\n      0x20\n        /* \"#utility.yul\":7217:7226   */\n      dup3\n        /* \"#utility.yul\":7213:7231   */\n      add\n        /* \"#utility.yul\":7205:7231   */\n      swap1\n      pop\n        /* \"#utility.yul\":7241:7324   */\n      tag_495\n        /* \"#utility.yul\":7321:7322   */\n      0x00\n        /* \"#utility.yul\":7310:7319   */\n      dup4\n        /* \"#utility.yul\":7306:7323   */\n      add\n        /* \"#utility.yul\":7297:7303   */\n      dup5\n        /* \"#utility.yul\":7241:7324   */\n      tag_369\n      jump\t// in\n    tag_495:\n        /* \"#utility.yul\":7085:7331   */\n      swap3\n      swap2\n      pop\n      pop\n      jump\t// out\n        /* \"#utility.yul\":7337:7559   */\n    tag_71:\n        /* \"#utility.yul\":7430:7434   */\n      0x00\n        /* \"#utility.yul\":7468:7470   */\n      0x20\n        /* \"#utility.yul\":7457:7466   */\n      dup3\n        /* \"#utility.yul\":7453:7471   */\n      add\n        /* \"#utility.yul\":7445:7471   */\n      swap1\n      pop\n        /* \"#utility.yul\":7481:7552   */\n      tag_497\n        /* \"#utility.yul\":7549:7550   */\n      0x00\n        /* \"#utility.yul\":7538:7547   */\n      dup4\n        /* \"#utility.yul\":7534:7551   */\n      add\n        /* \"#utility.yul\":7525:7531   */\n      dup5\n        /* \"#utility.yul\":7481:7552   */\n      tag_365\n      jump\t// in\n    tag_497:\n        /* \"#utility.yul\":7337:7559   */\n      swap3\n      swap2\n      pop\n      pop\n      jump\t// out\n        /* \"#utility.yul\":7565:7679   */\n    tag_370:\n        /* \"#utility.yul\":7632:7638   */\n      0x00\n        /* \"#utility.yul\":7666:7671   */\n      dup2\n        /* \"#utility.yul\":7660:7672   */\n      mload\n        /* \"#utility.yul\":7650:7672   */\n      swap1\n      pop\n        /* \"#utility.yul\":7565:7679   */\n      swap2\n      swap1\n      pop\n      jump\t// out\n        /* \"#utility.yul\":7685:7869   */\n    tag_371:\n        /* \"#utility.yul\":7784:7795   */\n      0x00\n        /* \"#utility.yul\":7818:7824   */\n      dup3\n        /* \"#utility.yul\":7813:7816   */\n      dup3\n        /* \"#utility.yul\":7806:7825   */\n      mstore\n        /* \"#utility.yul\":7858:7862   */\n      0x20\n        /* \"#utility.yul\":7853:7856   */\n      dup3\n        /* \"#utility.yul\":7849:7863   */\n      add\n        /* \"#utility.yul\":7834:7863   */\n      swap1\n      pop\n        /* \"#utility.yul\":7685:7869   */\n      swap3\n      swap2\n      pop\n      pop\n      jump\t// out\n        /* \"#utility.yul\":7875:8007   */\n    tag_372:\n        /* \"#utility.yul\":7942:7946   */\n      0x00\n        /* \"#utility.yul\":7965:7968   */\n      dup2\n        /* \"#utility.yul\":7957:7968   */\n      swap1\n      pop\n        /* \"#utility.yul\":7995:7999   */\n      0x20\n        /* \"#utility.yul\":7990:7993   */\n      dup3\n        /* \"#utility.yul\":7986:8000   */\n      add\n        /* \"#utility.yul\":7978:8000   */\n      swap1\n      pop\n        /* \"#utility.yul\":7875:8007   */\n      swap2\n      swap1\n      pop\n      jump\t// out\n        /* \"#utility.yul\":8013:8192   */\n    tag_373:\n        /* \"#utility.yul\":8082:8092   */\n      0x00\n        /* \"#utility.yul\":8103:8149   */\n      tag_502\n        /* \"#utility.yul\":8145:8148   */\n      dup4\n        /* \"#utility.yul\":8137:8143   */\n      dup4\n        /* \"#utility.yul\":8103:8149   */\n      tag_359\n      jump\t// in\n    tag_502:\n        /* \"#utility.yul\":8181:8185   */\n      0x20\n        /* \"#utility.yul\":8176:8179   */\n      dup4\n        /* \"#utility.yul\":8172:8186   */\n      add\n        /* \"#utility.yul\":8158:8186   */\n      swap1\n      pop\n        /* \"#utility.yul\":8013:8192   */\n      swap3\n      swap2\n      pop\n      pop\n      jump\t// out\n        /* \"#utility.yul\":8198:8311   */\n    tag_374:\n        /* \"#utility.yul\":8268:8272   */\n      0x00\n        /* \"#utility.yul\":8300:8304   */\n      0x20\n        /* \"#utility.yul\":8295:8298   */\n      dup3\n        /* \"#utility.yul\":8291:8305   */\n      add\n        /* \"#utility.yul\":8283:8305   */\n      swap1\n      pop\n        /* \"#utility.yul\":8198:8311   */\n      swap2\n      swap1\n      pop\n      jump\t// out\n        /* \"#utility.yul\":8347:9079   */\n    tag_375:\n        /* \"#utility.yul\":8466:8469   */\n      0x00\n        /* \"#utility.yul\":8495:8549   */\n      tag_505\n        /* \"#utility.yul\":8543:8548   */\n      dup3\n        /* \"#utility.yul\":8495:8549   */\n      tag_370\n      jump\t// in\n    tag_505:\n        /* \"#utility.yul\":8565:8651   */\n      tag_506\n        /* \"#utility.yul\":8644:8650   */\n      dup2\n        /* \"#utility.yul\":8639:8642   */\n      dup6\n        /* \"#utility.yul\":8565:8651   */\n      tag_371\n      jump\t// in\n    tag_506:\n        /* \"#utility.yul\":8558:8651   */\n      swap4\n      pop\n        /* \"#utility.yul\":8675:8731   */\n      tag_507\n        /* \"#utility.yul\":8725:8730   */\n      dup4\n        /* \"#utility.yul\":8675:8731   */\n      tag_372\n      jump\t// in\n    tag_507:\n        /* \"#utility.yul\":8754:8761   */\n      dup1\n        /* \"#utility.yul\":8785:8786   */\n      0x00\n        /* \"#utility.yul\":8770:9054   */\n    tag_508:\n        /* \"#utility.yul\":8795:8801   */\n      dup4\n        /* \"#utility.yul\":8792:8793   */\n      dup2\n        /* \"#utility.yul\":8789:8802   */\n      lt\n        /* \"#utility.yul\":8770:9054   */\n      iszero\n      tag_510\n      jumpi\n        /* \"#utility.yul\":8871:8877   */\n      dup2\n        /* \"#utility.yul\":8865:8878   */\n      mload\n        /* \"#utility.yul\":8898:8961   */\n      tag_511\n        /* \"#utility.yul\":8957:8960   */\n      dup9\n        /* \"#utility.yul\":8942:8955   */\n      dup3\n        /* \"#utility.yul\":8898:8961   */\n      tag_373\n      jump\t// in\n    tag_511:\n        /* \"#utility.yul\":8891:8961   */\n      swap8\n      pop\n        /* \"#utility.yul\":8984:9044   */\n      tag_512\n        /* \"#utility.yul\":9037:9043   */\n      dup4\n        /* \"#utility.yul\":8984:9044   */\n      tag_374\n      jump\t// in\n    tag_512:\n        /* \"#utility.yul\":8974:9044   */\n      swap3\n      pop\n        /* \"#utility.yul\":8830:9054   */\n      pop\n        /* \"#utility.yul\":8817:8818   */\n      0x01\n        /* \"#utility.yul\":8814:8815   */\n      dup2\n        /* \"#utility.yul\":8810:8819   */\n      add\n        /* \"#utility.yul\":8805:8819   */\n      swap1\n      pop\n        /* \"#utility.yul\":8770:9054   */\n      jump(tag_508)\n    tag_510:\n        /* \"#utility.yul\":8774:8788   */\n      pop\n        /* \"#utility.yul\":9070:9073   */\n      dup6\n        /* \"#utility.yul\":9063:9073   */\n      swap4\n      pop\n        /* \"#utility.yul\":8471:9079   */\n      pop\n      pop\n      pop\n        /* \"#utility.yul\":8347:9079   */\n      swap3\n      swap2\n      pop\n      pop\n      jump\t// out\n        /* \"#utility.yul\":9085:9199   */\n    tag_376:\n        /* \"#utility.yul\":9152:9158   */\n      0x00\n        /* \"#utility.yul\":9186:9191   */\n      dup2\n        /* \"#utility.yul\":9180:9192   */\n      mload\n        /* \"#utility.yul\":9170:9192   */\n      swap1\n      pop\n        /* \"#utility.yul\":9085:9199   */\n      swap2\n      swap1\n      pop\n      jump\t// out\n        /* \"#utility.yul\":9205:9389   */\n    tag_377:\n        /* \"#utility.yul\":9304:9315   */\n      0x00\n        /* \"#utility.yul\":9338:9344   */\n      dup3\n        /* \"#utility.yul\":9333:9336   */\n      dup3\n        /* \"#utility.yul\":9326:9345   */\n      mstore\n        /* \"#utility.yul\":9378:9382   */\n      0x20\n        /* \"#utility.yul\":9373:9376   */\n      dup3\n        /* \"#utility.yul\":9369:9383   */\n      add\n        /* \"#utility.yul\":9354:9383   */\n      swap1\n      pop\n        /* \"#utility.yul\":9205:9389   */\n      swap3\n      swap2\n      pop\n      pop\n      jump\t// out\n        /* \"#utility.yul\":9395:9527   */\n    tag_378:\n        /* \"#utility.yul\":9462:9466   */\n      0x00\n        /* \"#utility.yul\":9485:9488   */\n      dup2\n        /* \"#utility.yul\":9477:9488   */\n      swap1\n      pop\n        /* \"#utility.yul\":9515:9519   */\n      0x20\n        /* \"#utility.yul\":9510:9513   */\n      dup3\n        /* \"#utility.yul\":9506:9520   */\n      add\n        /* \"#utility.yul\":9498:9520   */\n      swap1\n      pop\n        /* \"#utility.yul\":9395:9527   */\n      swap2\n      swap1\n      pop\n      jump\t// out\n        /* \"#utility.yul\":9533:9712   */\n    tag_379:\n        /* \"#utility.yul\":9602:9612   */\n      0x00\n        /* \"#utility.yul\":9623:9669   */\n      tag_517\n        /* \"#utility.yul\":9665:9668   */\n      dup4\n        /* \"#utility.yul\":9657:9663   */\n      dup4\n        /* \"#utility.yul\":9623:9669   */\n      tag_360\n      jump\t// in\n    tag_517:\n        /* \"#utility.yul\":9701:9705   */\n      0x20\n        /* \"#utility.yul\":9696:9699   */\n      dup4\n        /* \"#utility.yul\":9692:9706   */\n      add\n        /* \"#utility.yul\":9678:9706   */\n      swap1\n      pop\n        /* \"#utility.yul\":9533:9712   */\n      swap3\n      swap2\n      pop\n      pop\n      jump\t// out\n        /* \"#utility.yul\":9718:9831   */\n    tag_380:\n        /* \"#utility.yul\":9788:9792   */\n      0x00\n        /* \"#utility.yul\":9820:9824   */\n      0x20\n        /* \"#utility.yul\":9815:9818   */\n      dup3\n        /* \"#utility.yul\":9811:9825   */\n      add\n        /* \"#utility.yul\":9803:9825   */\n      swap1\n      pop\n        /* \"#utility.yul\":9718:9831   */\n      swap2\n      swap1\n      pop\n      jump\t// out\n        /* \"#utility.yul\":9867:10599   */\n    tag_381:\n        /* \"#utility.yul\":9986:9989   */\n      0x00\n        /* \"#utility.yul\":10015:10069   */\n      tag_520\n        /* \"#utility.yul\":10063:10068   */\n      dup3\n        /* \"#utility.yul\":10015:10069   */\n      tag_376\n      jump\t// in\n    tag_520:\n        /* \"#utility.yul\":10085:10171   */\n      tag_521\n        /* \"#utility.yul\":10164:10170   */\n      dup2\n        /* \"#utility.yul\":10159:10162   */\n      dup6\n        /* \"#utility.yul\":10085:10171   */\n      tag_377\n      jump\t// in\n    tag_521:\n        /* \"#utility.yul\":10078:10171   */\n      swap4\n      pop\n        /* \"#utility.yul\":10195:10251   */\n      tag_522\n        /* \"#utility.yul\":10245:10250   */\n      dup4\n        /* \"#utility.yul\":10195:10251   */\n      tag_378\n      jump\t// in\n    tag_522:\n        /* \"#utility.yul\":10274:10281   */\n      dup1\n        /* \"#utility.yul\":10305:10306   */\n      0x00\n        /* \"#utility.yul\":10290:10574   */\n    tag_523:\n        /* \"#utility.yul\":10315:10321   */\n      dup4\n        /* \"#utility.yul\":10312:10313   */\n      dup2\n        /* \"#utility.yul\":10309:10322   */\n      lt\n        /* \"#utility.yul\":10290:10574   */\n      iszero\n      tag_525\n      jumpi\n        /* \"#utility.yul\":10391:10397   */\n      dup2\n        /* \"#utility.yul\":10385:10398   */\n      mload\n        /* \"#utility.yul\":10418:10481   */\n      tag_526\n        /* \"#utility.yul\":10477:10480   */\n      dup9\n        /* \"#utility.yul\":10462:10475   */\n      dup3\n        /* \"#utility.yul\":10418:10481   */\n      tag_379\n      jump\t// in\n    tag_526:\n        /* \"#utility.yul\":10411:10481   */\n      swap8\n      pop\n        /* \"#utility.yul\":10504:10564   */\n      tag_527\n        /* \"#utility.yul\":10557:10563   */\n      dup4\n        /* \"#utility.yul\":10504:10564   */\n      tag_380\n      jump\t// in\n    tag_527:\n        /* \"#utility.yul\":10494:10564   */\n      swap3\n      pop\n        /* \"#utility.yul\":10350:10574   */\n      pop\n        /* \"#utility.yul\":10337:10338   */\n      0x01\n        /* \"#utility.yul\":10334:10335   */\n      dup2\n        /* \"#utility.yul\":10330:10339   */\n      add\n        /* \"#utility.yul\":10325:10339   */\n      swap1\n      pop\n        /* \"#utility.yul\":10290:10574   */\n      jump(tag_523)\n    tag_525:\n        /* \"#utility.yul\":10294:10308   */\n      pop\n        /* \"#utility.yul\":10590:10593   */\n      dup6\n        /* \"#utility.yul\":10583:10593   */\n      swap4\n      pop\n        /* \"#utility.yul\":9991:10599   */\n      pop\n      pop\n      pop\n        /* \"#utility.yul\":9867:10599   */\n      swap3\n      swap2\n      pop\n      pop\n      jump\t// out\n        /* \"#utility.yul\":10605:11239   */\n    tag_80:\n        /* \"#utility.yul\":10826:10830   */\n      0x00\n        /* \"#utility.yul\":10864:10866   */\n      0x40\n        /* \"#utility.yul\":10853:10862   */\n      dup3\n        /* \"#utility.yul\":10849:10867   */\n      add\n        /* \"#utility.yul\":10841:10867   */\n      swap1\n      pop\n        /* \"#utility.yul\":10913:10922   */\n      dup2\n        /* \"#utility.yul\":10907:10911   */\n      dup2\n        /* \"#utility.yul\":10903:10923   */\n      sub\n        /* \"#utility.yul\":10899:10900   */\n      0x00\n        /* \"#utility.yul\":10888:10897   */\n      dup4\n        /* \"#utility.yul\":10884:10901   */\n      add\n        /* \"#utility.yul\":10877:10924   */\n      mstore\n        /* \"#utility.yul\":10941:11049   */\n      tag_529\n        /* \"#utility.yul\":11044:11048   */\n      dup2\n        /* \"#utility.yul\":11035:11041   */\n      dup6\n        /* \"#utility.yul\":10941:11049   */\n      tag_375\n      jump\t// in\n    tag_529:\n        /* \"#utility.yul\":10933:11049   */\n      swap1\n      pop\n        /* \"#utility.yul\":11096:11105   */\n      dup2\n        /* \"#utility.yul\":11090:11094   */\n      dup2\n        /* \"#utility.yul\":11086:11106   */\n      sub\n        /* \"#utility.yul\":11081:11083   */\n      0x20\n        /* \"#utility.yul\":11070:11079   */\n      dup4\n        /* \"#utility.yul\":11066:11084   */\n      add\n        /* \"#utility.yul\":11059:11107   */\n      mstore\n        /* \"#utility.yul\":11124:11232   */\n      tag_530\n        /* \"#utility.yul\":11227:11231   */\n      dup2\n        /* \"#utility.yul\":11218:11224   */\n      dup5\n        /* \"#utility.yul\":11124:11232   */\n      tag_381\n      jump\t// in\n    tag_530:\n        /* \"#utility.yul\":11116:11232   */\n      swap1\n      pop\n        /* \"#utility.yul\":10605:11239   */\n      swap4\n      swap3\n      pop\n      pop\n      pop\n      jump\t// out\n        /* \"#utility.yul\":11245:11414   */\n    tag_382:\n        /* \"#utility.yul\":11329:11340   */\n      0x00\n        /* \"#utility.yul\":11363:11369   */\n      dup3\n        /* \"#utility.yul\":11358:11361   */\n      dup3\n        /* \"#utility.yul\":11351:11370   */\n      mstore\n        /* \"#utility.yul\":11403:11407   */\n      0x20\n        /* \"#utility.yul\":11398:11401   */\n      dup3\n        /* \"#utility.yul\":11394:11408   */\n      add\n        /* \"#utility.yul\":11379:11408   */\n      swap1\n      pop\n        /* \"#utility.yul\":11245:11414   */\n      swap3\n      swap2\n      pop\n      pop\n      jump\t// out\n        /* \"#utility.yul\":11420:11595   */\n    tag_383:\n        /* \"#utility.yul\":11560:11587   */\n      0x4c612073756261737461206e6f20657374612061637469766100000000000000\n        /* \"#utility.yul\":11556:11557   */\n      0x00\n        /* \"#utility.yul\":11548:11554   */\n      dup3\n        /* \"#utility.yul\":11544:11558   */\n      add\n        /* \"#utility.yul\":11537:11588   */\n      mstore\n        /* \"#utility.yul\":11420:11595   */\n      pop\n      jump\t// out\n        /* \"#utility.yul\":11601:11967   */\n    tag_384:\n        /* \"#utility.yul\":11743:11746   */\n      0x00\n        /* \"#utility.yul\":11764:11831   */\n      tag_534\n        /* \"#utility.yul\":11828:11830   */\n      0x19\n        /* \"#utility.yul\":11823:11826   */\n      dup4\n        /* \"#utility.yul\":11764:11831   */\n      tag_382\n      jump\t// in\n    tag_534:\n        /* \"#utility.yul\":11757:11831   */\n      swap2\n      pop\n        /* \"#utility.yul\":11840:11933   */\n      tag_535\n        /* \"#utility.yul\":11929:11932   */\n      dup3\n        /* \"#utility.yul\":11840:11933   */\n      tag_383\n      jump\t// in\n    tag_535:\n        /* \"#utility.yul\":11958:11960   */\n      0x20\n        /* \"#utility.yul\":11953:11956   */\n      dup3\n        /* \"#utility.yul\":11949:11961   */\n      add\n        /* \"#utility.yul\":11942:11961   */\n      swap1\n      pop\n        /* \"#utility.yul\":11601:11967   */\n      swap2\n      swap1\n      pop\n      jump\t// out\n        /* \"#utility.yul\":11973:12392   */\n    tag_115:\n        /* \"#utility.yul\":12139:12143   */\n      0x00\n        /* \"#utility.yul\":12177:12179   */\n      0x20\n        /* \"#utility.yul\":12166:12175   */\n      dup3\n        /* \"#utility.yul\":12162:12180   */\n      add\n        /* \"#utility.yul\":12154:12180   */\n      swap1\n      pop\n        /* \"#utility.yul\":12226:12235   */\n      dup2\n        /* \"#utility.yul\":12220:12224   */\n      dup2\n        /* \"#utility.yul\":12216:12236   */\n      sub\n        /* \"#utility.yul\":12212:12213   */\n      0x00\n        /* \"#utility.yul\":12201:12210   */\n      dup4\n        /* \"#utility.yul\":12197:12214   */\n      add\n        /* \"#utility.yul\":12190:12237   */\n      mstore\n        /* \"#utility.yul\":12254:12385   */\n      tag_537\n        /* \"#utility.yul\":12380:12384   */\n      dup2\n        /* \"#utility.yul\":12254:12385   */\n      tag_384\n      jump\t// in\n    tag_537:\n        /* \"#utility.yul\":12246:12385   */\n      swap1\n      pop\n        /* \"#utility.yul\":11973:12392   */\n      swap2\n      swap1\n      pop\n      jump\t// out\n        /* \"#utility.yul\":12398:12618   */\n    tag_385:\n        /* \"#utility.yul\":12538:12572   */\n      0x4c612073756261737461207961206861207369646f20636f6d706c6574616461\n        /* \"#utility.yul\":12534:12535   */\n      0x00\n        /* \"#utility.yul\":12526:12532   */\n      dup3\n        /* \"#utility.yul\":12522:12536   */\n      add\n        /* \"#utility.yul\":12515:12573   */\n      mstore\n        /* \"#utility.yul\":12607:12610   */\n      0x2e00000000000000000000000000000000000000000000000000000000000000\n        /* \"#utility.yul\":12602:12604   */\n      0x20\n        /* \"#utility.yul\":12594:12600   */\n      dup3\n        /* \"#utility.yul\":12590:12605   */\n      add\n        /* \"#utility.yul\":12583:12611   */\n      mstore\n        /* \"#utility.yul\":12398:12618   */\n      pop\n      jump\t// out\n        /* \"#utility.yul\":12624:12990   */\n    tag_386:\n        /* \"#utility.yul\":12766:12769   */\n      0x00\n        /* \"#utility.yul\":12787:12854   */\n      tag_540\n        /* \"#utility.yul\":12851:12853   */\n      0x21\n        /* \"#utility.yul\":12846:12849   */\n      dup4\n        /* \"#utility.yul\":12787:12854   */\n      tag_382\n      jump\t// in\n    tag_540:\n        /* \"#utility.yul\":12780:12854   */\n      swap2\n      pop\n        /* \"#utility.yul\":12863:12956   */\n      tag_541\n        /* \"#utility.yul\":12952:12955   */\n      dup3\n        /* \"#utility.yul\":12863:12956   */\n      tag_385\n      jump\t// in\n    tag_541:\n        /* \"#utility.yul\":12981:12983   */\n      0x40\n        /* \"#utility.yul\":12976:12979   */\n      dup3\n        /* \"#utility.yul\":12972:12984   */\n      add\n        /* \"#utility.yul\":12965:12984   */\n      swap1\n      pop\n        /* \"#utility.yul\":12624:12990   */\n      swap2\n      swap1\n      pop\n      jump\t// out\n        /* \"#utility.yul\":12996:13415   */\n    tag_123:\n        /* \"#utility.yul\":13162:13166   */\n      0x00\n        /* \"#utility.yul\":13200:13202   */\n      0x20\n        /* \"#utility.yul\":13189:13198   */\n      dup3\n        /* \"#utility.yul\":13185:13203   */\n      add\n        /* \"#utility.yul\":13177:13203   */\n      swap1\n      pop\n        /* \"#utility.yul\":13249:13258   */\n      dup2\n        /* \"#utility.yul\":13243:13247   */\n      dup2\n        /* \"#utility.yul\":13239:13259   */\n      sub\n        /* \"#utility.yul\":13235:13236   */\n      0x00\n        /* \"#utility.yul\":13224:13233   */\n      dup4\n        /* \"#utility.yul\":13220:13237   */\n      add\n        /* \"#utility.yul\":13213:13260   */\n      mstore\n        /* \"#utility.yul\":13277:13408   */\n      tag_543\n        /* \"#utility.yul\":13403:13407   */\n      dup2\n        /* \"#utility.yul\":13277:13408   */\n      tag_386\n      jump\t// in\n    tag_543:\n        /* \"#utility.yul\":13269:13408   */\n      swap1\n      pop\n        /* \"#utility.yul\":12996:13415   */\n      swap2\n      swap1\n      pop\n      jump\t// out\n        /* \"#utility.yul\":13421:13647   */\n    tag_387:\n        /* \"#utility.yul\":13561:13595   */\n      0x4e6f20686179206f66657274617320616e746572696f72657320706172612072\n        /* \"#utility.yul\":13557:13558   */\n      0x00\n        /* \"#utility.yul\":13549:13555   */\n      dup3\n        /* \"#utility.yul\":13545:13559   */\n      add\n        /* \"#utility.yul\":13538:13596   */\n      mstore\n        /* \"#utility.yul\":13630:13639   */\n      0x6574697261722e00000000000000000000000000000000000000000000000000\n        /* \"#utility.yul\":13625:13627   */\n      0x20\n        /* \"#utility.yul\":13617:13623   */\n      dup3\n        /* \"#utility.yul\":13613:13628   */\n      add\n        /* \"#utility.yul\":13606:13640   */\n      mstore\n        /* \"#utility.yul\":13421:13647   */\n      pop\n      jump\t// out\n        /* \"#utility.yul\":13653:14019   */\n    tag_388:\n        /* \"#utility.yul\":13795:13798   */\n      0x00\n        /* \"#utility.yul\":13816:13883   */\n      tag_546\n        /* \"#utility.yul\":13880:13882   */\n      0x27\n        /* \"#utility.yul\":13875:13878   */\n      dup4\n        /* \"#utility.yul\":13816:13883   */\n      tag_382\n      jump\t// in\n    tag_546:\n        /* \"#utility.yul\":13809:13883   */\n      swap2\n      pop\n        /* \"#utility.yul\":13892:13985   */\n      tag_547\n        /* \"#utility.yul\":13981:13984   */\n      dup3\n        /* \"#utility.yul\":13892:13985   */\n      tag_387\n      jump\t// in\n    tag_547:\n        /* \"#utility.yul\":14010:14012   */\n      0x40\n        /* \"#utility.yul\":14005:14008   */\n      dup3\n        /* \"#utility.yul\":14001:14013   */\n      add\n        /* \"#utility.yul\":13994:14013   */\n      swap1\n      pop\n        /* \"#utility.yul\":13653:14019   */\n      swap2\n      swap1\n      pop\n      jump\t// out\n        /* \"#utility.yul\":14025:14444   */\n    tag_126:\n        /* \"#utility.yul\":14191:14195   */\n      0x00\n        /* \"#utility.yul\":14229:14231   */\n      0x20\n        /* \"#utility.yul\":14218:14227   */\n      dup3\n        /* \"#utility.yul\":14214:14232   */\n      add\n        /* \"#utility.yul\":14206:14232   */\n      swap1\n      pop\n        /* \"#utility.yul\":14278:14287   */\n      dup2\n        /* \"#utility.yul\":14272:14276   */\n      dup2\n        /* \"#utility.yul\":14268:14288   */\n      sub\n        /* \"#utility.yul\":14264:14265   */\n      0x00\n        /* \"#utility.yul\":14253:14262   */\n      dup4\n        /* \"#utility.yul\":14249:14266   */\n      add\n        /* \"#utility.yul\":14242:14289   */\n      mstore\n        /* \"#utility.yul\":14306:14437   */\n      tag_549\n        /* \"#utility.yul\":14432:14436   */\n      dup2\n        /* \"#utility.yul\":14306:14437   */\n      tag_388\n      jump\t// in\n    tag_549:\n        /* \"#utility.yul\":14298:14437   */\n      swap1\n      pop\n        /* \"#utility.yul\":14025:14444   */\n      swap2\n      swap1\n      pop\n      jump\t// out\n        /* \"#utility.yul\":14450:14630   */\n    tag_389:\n        /* \"#utility.yul\":14498:14575   */\n      0x4e487b7100000000000000000000000000000000000000000000000000000000\n        /* \"#utility.yul\":14495:14496   */\n      0x00\n        /* \"#utility.yul\":14488:14576   */\n      mstore\n        /* \"#utility.yul\":14595:14599   */\n      0x11\n        /* \"#utility.yul\":14592:14593   */\n      0x04\n        /* \"#utility.yul\":14585:14600   */\n      mstore\n        /* \"#utility.yul\":14619:14623   */\n      0x24\n        /* \"#utility.yul\":14616:14617   */\n      0x00\n        /* \"#utility.yul\":14609:14624   */\n      revert\n        /* \"#utility.yul\":14636:14830   */\n    tag_131:\n        /* \"#utility.yul\":14676:14680   */\n      0x00\n        /* \"#utility.yul\":14696:14716   */\n      tag_552\n        /* \"#utility.yul\":14714:14715   */\n      dup3\n        /* \"#utility.yul\":14696:14716   */\n      tag_352\n      jump\t// in\n    tag_552:\n        /* \"#utility.yul\":14691:14716   */\n      swap2\n      pop\n        /* \"#utility.yul\":14730:14750   */\n      tag_553\n        /* \"#utility.yul\":14748:14749   */\n      dup4\n        /* \"#utility.yul\":14730:14750   */\n      tag_352\n      jump\t// in\n    tag_553:\n        /* \"#utility.yul\":14725:14750   */\n      swap3\n      pop\n        /* \"#utility.yul\":14774:14775   */\n      dup3\n        /* \"#utility.yul\":14771:14772   */\n      dup3\n        /* \"#utility.yul\":14767:14776   */\n      sub\n        /* \"#utility.yul\":14759:14776   */\n      swap1\n      pop\n        /* \"#utility.yul\":14798:14799   */\n      dup2\n        /* \"#utility.yul\":14792:14796   */\n      dup2\n        /* \"#utility.yul\":14789:14800   */\n      gt\n        /* \"#utility.yul\":14786:14823   */\n      iszero\n      tag_554\n      jumpi\n        /* \"#utility.yul\":14803:14821   */\n      tag_555\n      tag_389\n      jump\t// in\n    tag_555:\n        /* \"#utility.yul\":14786:14823   */\n    tag_554:\n        /* \"#utility.yul\":14636:14830   */\n      swap3\n      swap2\n      pop\n      pop\n      jump\t// out\n        /* \"#utility.yul\":14836:15016   */\n    tag_134:\n        /* \"#utility.yul\":14884:14961   */\n      0x4e487b7100000000000000000000000000000000000000000000000000000000\n        /* \"#utility.yul\":14881:14882   */\n      0x00\n        /* \"#utility.yul\":14874:14962   */\n      mstore\n        /* \"#utility.yul\":14981:14985   */\n      0x32\n        /* \"#utility.yul\":14978:14979   */\n      0x04\n        /* \"#utility.yul\":14971:14986   */\n      mstore\n        /* \"#utility.yul\":15005:15009   */\n      0x24\n        /* \"#utility.yul\":15002:15003   */\n      0x00\n        /* \"#utility.yul\":14995:15010   */\n      revert\n        /* \"#utility.yul\":15022:15213   */\n    tag_137:\n        /* \"#utility.yul\":15062:15065   */\n      0x00\n        /* \"#utility.yul\":15081:15101   */\n      tag_558\n        /* \"#utility.yul\":15099:15100   */\n      dup3\n        /* \"#utility.yul\":15081:15101   */\n      tag_352\n      jump\t// in\n    tag_558:\n        /* \"#utility.yul\":15076:15101   */\n      swap2\n      pop\n        /* \"#utility.yul\":15115:15135   */\n      tag_559\n        /* \"#utility.yul\":15133:15134   */\n      dup4\n        /* \"#utility.yul\":15115:15135   */\n      tag_352\n      jump\t// in\n    tag_559:\n        /* \"#utility.yul\":15110:15135   */\n      swap3\n      pop\n        /* \"#utility.yul\":15158:15159   */\n      dup3\n        /* \"#utility.yul\":15155:15156   */\n      dup3\n        /* \"#utility.yul\":15151:15160   */\n      add\n        /* \"#utility.yul\":15144:15160   */\n      swap1\n      pop\n        /* \"#utility.yul\":15179:15182   */\n      dup1\n        /* \"#utility.yul\":15176:15177   */\n      dup3\n        /* \"#utility.yul\":15173:15183   */\n      gt\n        /* \"#utility.yul\":15170:15206   */\n      iszero\n      tag_560\n      jumpi\n        /* \"#utility.yul\":15186:15204   */\n      tag_561\n      tag_389\n      jump\t// in\n    tag_561:\n        /* \"#utility.yul\":15170:15206   */\n    tag_560:\n        /* \"#utility.yul\":15022:15213   */\n      swap3\n      swap2\n      pop\n      pop\n      jump\t// out\n        /* \"#utility.yul\":15219:15445   */\n    tag_390:\n        /* \"#utility.yul\":15359:15393   */\n      0x4e6f206861792073616c646f2061646963696f6e616c2070617261207265656d\n        /* \"#utility.yul\":15355:15356   */\n      0x00\n        /* \"#utility.yul\":15347:15353   */\n      dup3\n        /* \"#utility.yul\":15343:15357   */\n      add\n        /* \"#utility.yul\":15336:15394   */\n      mstore\n        /* \"#utility.yul\":15428:15437   */\n      0x626f6c7361722e00000000000000000000000000000000000000000000000000\n        /* \"#utility.yul\":15423:15425   */\n      0x20\n        /* \"#utility.yul\":15415:15421   */\n      dup3\n        /* \"#utility.yul\":15411:15426   */\n      add\n        /* \"#utility.yul\":15404:15438   */\n      mstore\n        /* \"#utility.yul\":15219:15445   */\n      pop\n      jump\t// out\n        /* \"#utility.yul\":15451:15817   */\n    tag_391:\n        /* \"#utility.yul\":15593:15596   */\n      0x00\n        /* \"#utility.yul\":15614:15681   */\n      tag_564\n        /* \"#utility.yul\":15678:15680   */\n      0x27\n        /* \"#utility.yul\":15673:15676   */\n      dup4\n        /* \"#utility.yul\":15614:15681   */\n      tag_382\n      jump\t// in\n    tag_564:\n        /* \"#utility.yul\":15607:15681   */\n      swap2\n      pop\n        /* \"#utility.yul\":15690:15783   */\n      tag_565\n        /* \"#utility.yul\":15779:15782   */\n      dup3\n        /* \"#utility.yul\":15690:15783   */\n      tag_390\n      jump\t// in\n    tag_565:\n        /* \"#utility.yul\":15808:15810   */\n      0x40\n        /* \"#utility.yul\":15803:15806   */\n      dup3\n        /* \"#utility.yul\":15799:15811   */\n      add\n        /* \"#utility.yul\":15792:15811   */\n      swap1\n      pop\n        /* \"#utility.yul\":15451:15817   */\n      swap2\n      swap1\n      pop\n      jump\t// out\n        /* \"#utility.yul\":15823:16242   */\n    tag_141:\n        /* \"#utility.yul\":15989:15993   */\n      0x00\n        /* \"#utility.yul\":16027:16029   */\n      0x20\n        /* \"#utility.yul\":16016:16025   */\n      dup3\n        /* \"#utility.yul\":16012:16030   */\n      add\n        /* \"#utility.yul\":16004:16030   */\n      swap1\n      pop\n        /* \"#utility.yul\":16076:16085   */\n      dup2\n        /* \"#utility.yul\":16070:16074   */\n      dup2\n        /* \"#utility.yul\":16066:16086   */\n      sub\n        /* \"#utility.yul\":16062:16063   */\n      0x00\n        /* \"#utility.yul\":16051:16060   */\n      dup4\n        /* \"#utility.yul\":16047:16064   */\n      add\n        /* \"#utility.yul\":16040:16087   */\n      mstore\n        /* \"#utility.yul\":16104:16235   */\n      tag_567\n        /* \"#utility.yul\":16230:16234   */\n      dup2\n        /* \"#utility.yul\":16104:16235   */\n      tag_391\n      jump\t// in\n    tag_567:\n        /* \"#utility.yul\":16096:16235   */\n      swap1\n      pop\n        /* \"#utility.yul\":15823:16242   */\n      swap2\n      swap1\n      pop\n      jump\t// out\n        /* \"#utility.yul\":16248:16658   */\n    tag_144:\n        /* \"#utility.yul\":16288:16295   */\n      0x00\n        /* \"#utility.yul\":16311:16331   */\n      tag_569\n        /* \"#utility.yul\":16329:16330   */\n      dup3\n        /* \"#utility.yul\":16311:16331   */\n      tag_352\n      jump\t// in\n    tag_569:\n        /* \"#utility.yul\":16306:16331   */\n      swap2\n      pop\n        /* \"#utility.yul\":16345:16365   */\n      tag_570\n        /* \"#utility.yul\":16363:16364   */\n      dup4\n        /* \"#utility.yul\":16345:16365   */\n      tag_352\n      jump\t// in\n    tag_570:\n        /* \"#utility.yul\":16340:16365   */\n      swap3\n      pop\n        /* \"#utility.yul\":16400:16401   */\n      dup3\n        /* \"#utility.yul\":16397:16398   */\n      dup3\n        /* \"#utility.yul\":16393:16402   */\n      mul\n        /* \"#utility.yul\":16422:16452   */\n      tag_571\n        /* \"#utility.yul\":16440:16451   */\n      dup2\n        /* \"#utility.yul\":16422:16452   */\n      tag_352\n      jump\t// in\n    tag_571:\n        /* \"#utility.yul\":16411:16452   */\n      swap2\n      pop\n        /* \"#utility.yul\":16601:16602   */\n      dup3\n        /* \"#utility.yul\":16592:16599   */\n      dup3\n        /* \"#utility.yul\":16588:16603   */\n      div\n        /* \"#utility.yul\":16585:16586   */\n      dup5\n        /* \"#utility.yul\":16582:16604   */\n      eq\n        /* \"#utility.yul\":16562:16563   */\n      dup4\n        /* \"#utility.yul\":16555:16564   */\n      iszero\n        /* \"#utility.yul\":16535:16618   */\n      or\n        /* \"#utility.yul\":16512:16651   */\n      tag_572\n      jumpi\n        /* \"#utility.yul\":16631:16649   */\n      tag_573\n      tag_389\n      jump\t// in\n    tag_573:\n        /* \"#utility.yul\":16512:16651   */\n    tag_572:\n        /* \"#utility.yul\":16296:16658   */\n      pop\n        /* \"#utility.yul\":16248:16658   */\n      swap3\n      swap2\n      pop\n      pop\n      jump\t// out\n        /* \"#utility.yul\":16664:16844   */\n    tag_392:\n        /* \"#utility.yul\":16712:16789   */\n      0x4e487b7100000000000000000000000000000000000000000000000000000000\n        /* \"#utility.yul\":16709:16710   */\n      0x00\n        /* \"#utility.yul\":16702:16790   */\n      mstore\n        /* \"#utility.yul\":16809:16813   */\n      0x12\n        /* \"#utility.yul\":16806:16807   */\n      0x04\n        /* \"#utility.yul\":16799:16814   */\n      mstore\n        /* \"#utility.yul\":16833:16837   */\n      0x24\n        /* \"#utility.yul\":16830:16831   */\n      0x00\n        /* \"#utility.yul\":16823:16838   */\n      revert\n        /* \"#utility.yul\":16850:17035   */\n    tag_146:\n        /* \"#utility.yul\":16890:16891   */\n      0x00\n        /* \"#utility.yul\":16907:16927   */\n      tag_576\n        /* \"#utility.yul\":16925:16926   */\n      dup3\n        /* \"#utility.yul\":16907:16927   */\n      tag_352\n      jump\t// in\n    tag_576:\n        /* \"#utility.yul\":16902:16927   */\n      swap2\n      pop\n        /* \"#utility.yul\":16941:16961   */\n      tag_577\n        /* \"#utility.yul\":16959:16960   */\n      dup4\n        /* \"#utility.yul\":16941:16961   */\n      tag_352\n      jump\t// in\n    tag_577:\n        /* \"#utility.yul\":16936:16961   */\n      swap3\n      pop\n        /* \"#utility.yul\":16980:16981   */\n      dup3\n        /* \"#utility.yul\":16970:17005   */\n      tag_578\n      jumpi\n        /* \"#utility.yul\":16985:17003   */\n      tag_579\n      tag_392\n      jump\t// in\n    tag_579:\n        /* \"#utility.yul\":16970:17005   */\n    tag_578:\n        /* \"#utility.yul\":17027:17028   */\n      dup3\n        /* \"#utility.yul\":17024:17025   */\n      dup3\n        /* \"#utility.yul\":17020:17029   */\n      div\n        /* \"#utility.yul\":17015:17029   */\n      swap1\n      pop\n        /* \"#utility.yul\":16850:17035   */\n      swap3\n      swap2\n      pop\n      pop\n      jump\t// out\n        /* \"#utility.yul\":17041:17188   */\n    tag_393:\n        /* \"#utility.yul\":17142:17153   */\n      0x00\n        /* \"#utility.yul\":17179:17182   */\n      dup2\n        /* \"#utility.yul\":17164:17182   */\n      swap1\n      pop\n        /* \"#utility.yul\":17041:17188   */\n      swap3\n      swap2\n      pop\n      pop\n      jump\t// out\n        /* \"#utility.yul\":17194:17308   */\n    tag_394:\n      pop\n      jump\t// out\n        /* \"#utility.yul\":17314:17712   */\n    tag_395:\n        /* \"#utility.yul\":17473:17476   */\n      0x00\n        /* \"#utility.yul\":17494:17577   */\n      tag_583\n        /* \"#utility.yul\":17575:17576   */\n      0x00\n        /* \"#utility.yul\":17570:17573   */\n      dup4\n        /* \"#utility.yul\":17494:17577   */\n      tag_393\n      jump\t// in\n    tag_583:\n        /* \"#utility.yul\":17487:17577   */\n      swap2\n      pop\n        /* \"#utility.yul\":17586:17679   */\n      tag_584\n        /* \"#utility.yul\":17675:17678   */\n      dup3\n        /* \"#utility.yul\":17586:17679   */\n      tag_394\n      jump\t// in\n    tag_584:\n        /* \"#utility.yul\":17704:17705   */\n      0x00\n        /* \"#utility.yul\":17699:17702   */\n      dup3\n        /* \"#utility.yul\":17695:17706   */\n      add\n        /* \"#utility.yul\":17688:17706   */\n      swap1\n      pop\n        /* \"#utility.yul\":17314:17712   */\n      swap2\n      swap1\n      pop\n      jump\t// out\n        /* \"#utility.yul\":17718:18097   */\n    tag_154:\n        /* \"#utility.yul\":17902:17905   */\n      0x00\n        /* \"#utility.yul\":17924:18071   */\n      tag_586\n        /* \"#utility.yul\":18067:18070   */\n      dup3\n        /* \"#utility.yul\":17924:18071   */\n      tag_395\n      jump\t// in\n    tag_586:\n        /* \"#utility.yul\":17917:18071   */\n      swap2\n      pop\n        /* \"#utility.yul\":18088:18091   */\n      dup2\n        /* \"#utility.yul\":18081:18091   */\n      swap1\n      pop\n        /* \"#utility.yul\":17718:18097   */\n      swap2\n      swap1\n      pop\n      jump\t// out\n        /* \"#utility.yul\":18103:18329   */\n    tag_396:\n        /* \"#utility.yul\":18243:18277   */\n      0x46616c6c6f20616c207265616c697a617220656c207265656d626f6c736f2070\n        /* \"#utility.yul\":18239:18240   */\n      0x00\n        /* \"#utility.yul\":18231:18237   */\n      dup3\n        /* \"#utility.yul\":18227:18241   */\n      add\n        /* \"#utility.yul\":18220:18278   */\n      mstore\n        /* \"#utility.yul\":18312:18321   */\n      0x61726369616c2e00000000000000000000000000000000000000000000000000\n        /* \"#utility.yul\":18307:18309   */\n      0x20\n        /* \"#utility.yul\":18299:18305   */\n      dup3\n        /* \"#utility.yul\":18295:18310   */\n      add\n        /* \"#utility.yul\":18288:18322   */\n      mstore\n        /* \"#utility.yul\":18103:18329   */\n      pop\n      jump\t// out\n        /* \"#utility.yul\":18335:18701   */\n    tag_397:\n        /* \"#utility.yul\":18477:18480   */\n      0x00\n        /* \"#utility.yul\":18498:18565   */\n      tag_589\n        /* \"#utility.yul\":18562:18564   */\n      0x27\n        /* \"#utility.yul\":18557:18560   */\n      dup4\n        /* \"#utility.yul\":18498:18565   */\n      tag_382\n      jump\t// in\n    tag_589:\n        /* \"#utility.yul\":18491:18565   */\n      swap2\n      pop\n        /* \"#utility.yul\":18574:18667   */\n      tag_590\n        /* \"#utility.yul\":18663:18666   */\n      dup3\n        /* \"#utility.yul\":18574:18667   */\n      tag_396\n      jump\t// in\n    tag_590:\n        /* \"#utility.yul\":18692:18694   */\n      0x40\n        /* \"#utility.yul\":18687:18690   */\n      dup3\n        /* \"#utility.yul\":18683:18695   */\n      add\n        /* \"#utility.yul\":18676:18695   */\n      swap1\n      pop\n        /* \"#utility.yul\":18335:18701   */\n      swap2\n      swap1\n      pop\n      jump\t// out\n        /* \"#utility.yul\":18707:19126   */\n    tag_160:\n        /* \"#utility.yul\":18873:18877   */\n      0x00\n        /* \"#utility.yul\":18911:18913   */\n      0x20\n        /* \"#utility.yul\":18900:18909   */\n      dup3\n        /* \"#utility.yul\":18896:18914   */\n      add\n        /* \"#utility.yul\":18888:18914   */\n      swap1\n      pop\n        /* \"#utility.yul\":18960:18969   */\n      dup2\n        /* \"#utility.yul\":18954:18958   */\n      dup2\n        /* \"#utility.yul\":18950:18970   */\n      sub\n        /* \"#utility.yul\":18946:18947   */\n      0x00\n        /* \"#utility.yul\":18935:18944   */\n      dup4\n        /* \"#utility.yul\":18931:18948   */\n      add\n        /* \"#utility.yul\":18924:18971   */\n      mstore\n        /* \"#utility.yul\":18988:19119   */\n      tag_592\n        /* \"#utility.yul\":19114:19118   */\n      dup2\n        /* \"#utility.yul\":18988:19119   */\n      tag_397\n      jump\t// in\n    tag_592:\n        /* \"#utility.yul\":18980:19119   */\n      swap1\n      pop\n        /* \"#utility.yul\":18707:19126   */\n      swap2\n      swap1\n      pop\n      jump\t// out\n        /* \"#utility.yul\":19132:19366   */\n    tag_398:\n        /* \"#utility.yul\":19272:19306   */\n      0x536f6c6f20656c2070726f706965746172696f20707565646520656a65637574\n        /* \"#utility.yul\":19268:19269   */\n      0x00\n        /* \"#utility.yul\":19260:19266   */\n      dup3\n        /* \"#utility.yul\":19256:19270   */\n      add\n        /* \"#utility.yul\":19249:19307   */\n      mstore\n        /* \"#utility.yul\":19341:19358   */\n      0x617220657374612066756e63696f6e0000000000000000000000000000000000\n        /* \"#utility.yul\":19336:19338   */\n      0x20\n        /* \"#utility.yul\":19328:19334   */\n      dup3\n        /* \"#utility.yul\":19324:19339   */\n      add\n        /* \"#utility.yul\":19317:19359   */\n      mstore\n        /* \"#utility.yul\":19132:19366   */\n      pop\n      jump\t// out\n        /* \"#utility.yul\":19372:19738   */\n    tag_399:\n        /* \"#utility.yul\":19514:19517   */\n      0x00\n        /* \"#utility.yul\":19535:19602   */\n      tag_595\n        /* \"#utility.yul\":19599:19601   */\n      0x2f\n        /* \"#utility.yul\":19594:19597   */\n      dup4\n        /* \"#utility.yul\":19535:19602   */\n      tag_382\n      jump\t// in\n    tag_595:\n        /* \"#utility.yul\":19528:19602   */\n      swap2\n      pop\n        /* \"#utility.yul\":19611:19704   */\n      tag_596\n        /* \"#utility.yul\":19700:19703   */\n      dup3\n        /* \"#utility.yul\":19611:19704   */\n      tag_398\n      jump\t// in\n    tag_596:\n        /* \"#utility.yul\":19729:19731   */\n      0x40\n        /* \"#utility.yul\":19724:19727   */\n      dup3\n        /* \"#utility.yul\":19720:19732   */\n      add\n        /* \"#utility.yul\":19713:19732   */\n      swap1\n      pop\n        /* \"#utility.yul\":19372:19738   */\n      swap2\n      swap1\n      pop\n      jump\t// out\n        /* \"#utility.yul\":19744:20163   */\n    tag_167:\n        /* \"#utility.yul\":19910:19914   */\n      0x00\n        /* \"#utility.yul\":19948:19950   */\n      0x20\n        /* \"#utility.yul\":19937:19946   */\n      dup3\n        /* \"#utility.yul\":19933:19951   */\n      add\n        /* \"#utility.yul\":19925:19951   */\n      swap1\n      pop\n        /* \"#utility.yul\":19997:20006   */\n      dup2\n        /* \"#utility.yul\":19991:19995   */\n      dup2\n        /* \"#utility.yul\":19987:20007   */\n      sub\n        /* \"#utility.yul\":19983:19984   */\n      0x00\n        /* \"#utility.yul\":19972:19981   */\n      dup4\n        /* \"#utility.yul\":19968:19985   */\n      add\n        /* \"#utility.yul\":19961:20008   */\n      mstore\n        /* \"#utility.yul\":20025:20156   */\n      tag_598\n        /* \"#utility.yul\":20151:20155   */\n      dup2\n        /* \"#utility.yul\":20025:20156   */\n      tag_399\n      jump\t// in\n    tag_598:\n        /* \"#utility.yul\":20017:20156   */\n      swap1\n      pop\n        /* \"#utility.yul\":19744:20163   */\n      swap2\n      swap1\n      pop\n      jump\t// out\n        /* \"#utility.yul\":20169:20395   */\n    tag_400:\n        /* \"#utility.yul\":20309:20343   */\n      0x4c6f73206465706f7369746f73206e6f2068616e207369646f207265656d626f\n        /* \"#utility.yul\":20305:20306   */\n      0x00\n        /* \"#utility.yul\":20297:20303   */\n      dup3\n        /* \"#utility.yul\":20293:20307   */\n      add\n        /* \"#utility.yul\":20286:20344   */\n      mstore\n        /* \"#utility.yul\":20378:20387   */\n      0x6c7361646f732e00000000000000000000000000000000000000000000000000\n        /* \"#utility.yul\":20373:20375   */\n      0x20\n        /* \"#utility.yul\":20365:20371   */\n      dup3\n        /* \"#utility.yul\":20361:20376   */\n      add\n        /* \"#utility.yul\":20354:20388   */\n      mstore\n        /* \"#utility.yul\":20169:20395   */\n      pop\n      jump\t// out\n        /* \"#utility.yul\":20401:20767   */\n    tag_401:\n        /* \"#utility.yul\":20543:20546   */\n      0x00\n        /* \"#utility.yul\":20564:20631   */\n      tag_601\n        /* \"#utility.yul\":20628:20630   */\n      0x27\n        /* \"#utility.yul\":20623:20626   */\n      dup4\n        /* \"#utility.yul\":20564:20631   */\n      tag_382\n      jump\t// in\n    tag_601:\n        /* \"#utility.yul\":20557:20631   */\n      swap2\n      pop\n        /* \"#utility.yul\":20640:20733   */\n      tag_602\n        /* \"#utility.yul\":20729:20732   */\n      dup3\n        /* \"#utility.yul\":20640:20733   */\n      tag_400\n      jump\t// in\n    tag_602:\n        /* \"#utility.yul\":20758:20760   */\n      0x40\n        /* \"#utility.yul\":20753:20756   */\n      dup3\n        /* \"#utility.yul\":20749:20761   */\n      add\n        /* \"#utility.yul\":20742:20761   */\n      swap1\n      pop\n        /* \"#utility.yul\":20401:20767   */\n      swap2\n      swap1\n      pop\n      jump\t// out\n        /* \"#utility.yul\":20773:21192   */\n    tag_175:\n        /* \"#utility.yul\":20939:20943   */\n      0x00\n        /* \"#utility.yul\":20977:20979   */\n      0x20\n        /* \"#utility.yul\":20966:20975   */\n      dup3\n        /* \"#utility.yul\":20962:20980   */\n      add\n        /* \"#utility.yul\":20954:20980   */\n      swap1\n      pop\n        /* \"#utility.yul\":21026:21035   */\n      dup2\n        /* \"#utility.yul\":21020:21024   */\n      dup2\n        /* \"#utility.yul\":21016:21036   */\n      sub\n        /* \"#utility.yul\":21012:21013   */\n      0x00\n        /* \"#utility.yul\":21001:21010   */\n      dup4\n        /* \"#utility.yul\":20997:21014   */\n      add\n        /* \"#utility.yul\":20990:21037   */\n      mstore\n        /* \"#utility.yul\":21054:21185   */\n      tag_604\n        /* \"#utility.yul\":21180:21184   */\n      dup2\n        /* \"#utility.yul\":21054:21185   */\n      tag_401\n      jump\t// in\n    tag_604:\n        /* \"#utility.yul\":21046:21185   */\n      swap1\n      pop\n        /* \"#utility.yul\":20773:21192   */\n      swap2\n      swap1\n      pop\n      jump\t// out\n        /* \"#utility.yul\":21198:21421   */\n    tag_402:\n        /* \"#utility.yul\":21338:21372   */\n      0x46616c6c6f20616c2072657469726172206c61206f66657274612067616e6164\n        /* \"#utility.yul\":21334:21335   */\n      0x00\n        /* \"#utility.yul\":21326:21332   */\n      dup3\n        /* \"#utility.yul\":21322:21336   */\n      add\n        /* \"#utility.yul\":21315:21373   */\n      mstore\n        /* \"#utility.yul\":21407:21413   */\n      0x6f72612e00000000000000000000000000000000000000000000000000000000\n        /* \"#utility.yul\":21402:21404   */\n      0x20\n        /* \"#utility.yul\":21394:21400   */\n      dup3\n        /* \"#utility.yul\":21390:21405   */\n      add\n        /* \"#utility.yul\":21383:21414   */\n      mstore\n        /* \"#utility.yul\":21198:21421   */\n      pop\n      jump\t// out\n        /* \"#utility.yul\":21427:21793   */\n    tag_403:\n        /* \"#utility.yul\":21569:21572   */\n      0x00\n        /* \"#utility.yul\":21590:21657   */\n      tag_607\n        /* \"#utility.yul\":21654:21656   */\n      0x24\n        /* \"#utility.yul\":21649:21652   */\n      dup4\n        /* \"#utility.yul\":21590:21657   */\n      tag_382\n      jump\t// in\n    tag_607:\n        /* \"#utility.yul\":21583:21657   */\n      swap2\n      pop\n        /* \"#utility.yul\":21666:21759   */\n      tag_608\n        /* \"#utility.yul\":21755:21758   */\n      dup3\n        /* \"#utility.yul\":21666:21759   */\n      tag_402\n      jump\t// in\n    tag_608:\n        /* \"#utility.yul\":21784:21786   */\n      0x40\n        /* \"#utility.yul\":21779:21782   */\n      dup3\n        /* \"#utility.yul\":21775:21787   */\n      add\n        /* \"#utility.yul\":21768:21787   */\n      swap1\n      pop\n        /* \"#utility.yul\":21427:21793   */\n      swap2\n      swap1\n      pop\n      jump\t// out\n        /* \"#utility.yul\":21799:22218   */\n    tag_197:\n        /* \"#utility.yul\":21965:21969   */\n      0x00\n        /* \"#utility.yul\":22003:22005   */\n      0x20\n        /* \"#utility.yul\":21992:22001   */\n      dup3\n        /* \"#utility.yul\":21988:22006   */\n      add\n        /* \"#utility.yul\":21980:22006   */\n      swap1\n      pop\n        /* \"#utility.yul\":22052:22061   */\n      dup2\n        /* \"#utility.yul\":22046:22050   */\n      dup2\n        /* \"#utility.yul\":22042:22062   */\n      sub\n        /* \"#utility.yul\":22038:22039   */\n      0x00\n        /* \"#utility.yul\":22027:22036   */\n      dup4\n        /* \"#utility.yul\":22023:22040   */\n      add\n        /* \"#utility.yul\":22016:22063   */\n      mstore\n        /* \"#utility.yul\":22080:22211   */\n      tag_610\n        /* \"#utility.yul\":22206:22210   */\n      dup2\n        /* \"#utility.yul\":22080:22211   */\n      tag_403\n      jump\t// in\n    tag_610:\n        /* \"#utility.yul\":22072:22211   */\n      swap1\n      pop\n        /* \"#utility.yul\":21799:22218   */\n      swap2\n      swap1\n      pop\n      jump\t// out\n        /* \"#utility.yul\":22224:22314   */\n    tag_404:\n        /* \"#utility.yul\":22258:22265   */\n      0x00\n        /* \"#utility.yul\":22301:22306   */\n      dup2\n        /* \"#utility.yul\":22294:22307   */\n      iszero\n        /* \"#utility.yul\":22287:22308   */\n      iszero\n        /* \"#utility.yul\":22276:22308   */\n      swap1\n      pop\n        /* \"#utility.yul\":22224:22314   */\n      swap2\n      swap1\n      pop\n      jump\t// out\n        /* \"#utility.yul\":22320:22429   */\n    tag_405:\n        /* \"#utility.yul\":22401:22422   */\n      tag_613\n        /* \"#utility.yul\":22416:22421   */\n      dup2\n        /* \"#utility.yul\":22401:22422   */\n      tag_404\n      jump\t// in\n    tag_613:\n        /* \"#utility.yul\":22396:22399   */\n      dup3\n        /* \"#utility.yul\":22389:22423   */\n      mstore\n        /* \"#utility.yul\":22320:22429   */\n      pop\n      pop\n      jump\t// out\n        /* \"#utility.yul\":22435:22645   */\n    tag_200:\n        /* \"#utility.yul\":22522:22526   */\n      0x00\n        /* \"#utility.yul\":22560:22562   */\n      0x20\n        /* \"#utility.yul\":22549:22558   */\n      dup3\n        /* \"#utility.yul\":22545:22563   */\n      add\n        /* \"#utility.yul\":22537:22563   */\n      swap1\n      pop\n        /* \"#utility.yul\":22573:22638   */\n      tag_615\n        /* \"#utility.yul\":22635:22636   */\n      0x00\n        /* \"#utility.yul\":22624:22633   */\n      dup4\n        /* \"#utility.yul\":22620:22637   */\n      add\n        /* \"#utility.yul\":22611:22617   */\n      dup5\n        /* \"#utility.yul\":22573:22638   */\n      tag_405\n      jump\t// in\n    tag_615:\n        /* \"#utility.yul\":22435:22645   */\n      swap3\n      swap2\n      pop\n      pop\n      jump\t// out\n        /* \"#utility.yul\":22651:22827   */\n    tag_406:\n        /* \"#utility.yul\":22791:22819   */\n      0x4c612073756261737461206e6f206861207465726d696e61646f000000000000\n        /* \"#utility.yul\":22787:22788   */\n      0x00\n        /* \"#utility.yul\":22779:22785   */\n      dup3\n        /* \"#utility.yul\":22775:22789   */\n      add\n        /* \"#utility.yul\":22768:22820   */\n      mstore\n        /* \"#utility.yul\":22651:22827   */\n      pop\n      jump\t// out\n        /* \"#utility.yul\":22833:23199   */\n    tag_407:\n        /* \"#utility.yul\":22975:22978   */\n      0x00\n        /* \"#utility.yul\":22996:23063   */\n      tag_618\n        /* \"#utility.yul\":23060:23062   */\n      0x1a\n        /* \"#utility.yul\":23055:23058   */\n      dup4\n        /* \"#utility.yul\":22996:23063   */\n      tag_382\n      jump\t// in\n    tag_618:\n        /* \"#utility.yul\":22989:23063   */\n      swap2\n      pop\n        /* \"#utility.yul\":23072:23165   */\n      tag_619\n        /* \"#utility.yul\":23161:23164   */\n      dup3\n        /* \"#utility.yul\":23072:23165   */\n      tag_406\n      jump\t// in\n    tag_619:\n        /* \"#utility.yul\":23190:23192   */\n      0x20\n        /* \"#utility.yul\":23185:23188   */\n      dup3\n        /* \"#utility.yul\":23181:23193   */\n      add\n        /* \"#utility.yul\":23174:23193   */\n      swap1\n      pop\n        /* \"#utility.yul\":22833:23199   */\n      swap2\n      swap1\n      pop\n      jump\t// out\n        /* \"#utility.yul\":23205:23624   */\n    tag_211:\n        /* \"#utility.yul\":23371:23375   */\n      0x00\n        /* \"#utility.yul\":23409:23411   */\n      0x20\n        /* \"#utility.yul\":23398:23407   */\n      dup3\n        /* \"#utility.yul\":23394:23412   */\n      add\n        /* \"#utility.yul\":23386:23412   */\n      swap1\n      pop\n        /* \"#utility.yul\":23458:23467   */\n      dup2\n        /* \"#utility.yul\":23452:23456   */\n      dup2\n        /* \"#utility.yul\":23448:23468   */\n      sub\n        /* \"#utility.yul\":23444:23445   */\n      0x00\n        /* \"#utility.yul\":23433:23442   */\n      dup4\n        /* \"#utility.yul\":23429:23446   */\n      add\n        /* \"#utility.yul\":23422:23469   */\n      mstore\n        /* \"#utility.yul\":23486:23617   */\n      tag_621\n        /* \"#utility.yul\":23612:23616   */\n      dup2\n        /* \"#utility.yul\":23486:23617   */\n      tag_407\n      jump\t// in\n    tag_621:\n        /* \"#utility.yul\":23478:23617   */\n      swap1\n      pop\n        /* \"#utility.yul\":23205:23624   */\n      swap2\n      swap1\n      pop\n      jump\t// out\n        /* \"#utility.yul\":23630:23811   */\n    tag_408:\n        /* \"#utility.yul\":23770:23803   */\n      0x4c6120737562617374612061756e206e6f206861207465726d696e61646f2e00\n        /* \"#utility.yul\":23766:23767   */\n      0x00\n        /* \"#utility.yul\":23758:23764   */\n      dup3\n        /* \"#utility.yul\":23754:23768   */\n      add\n        /* \"#utility.yul\":23747:23804   */\n      mstore\n        /* \"#utility.yul\":23630:23811   */\n      pop\n      jump\t// out\n        /* \"#utility.yul\":23817:24183   */\n    tag_409:\n        /* \"#utility.yul\":23959:23962   */\n      0x00\n        /* \"#utility.yul\":23980:24047   */\n      tag_624\n        /* \"#utility.yul\":24044:24046   */\n      0x1f\n        /* \"#utility.yul\":24039:24042   */\n      dup4\n        /* \"#utility.yul\":23980:24047   */\n      tag_382\n      jump\t// in\n    tag_624:\n        /* \"#utility.yul\":23973:24047   */\n      swap2\n      pop\n        /* \"#utility.yul\":24056:24149   */\n      tag_625\n        /* \"#utility.yul\":24145:24148   */\n      dup3\n        /* \"#utility.yul\":24056:24149   */\n      tag_408\n      jump\t// in\n    tag_625:\n        /* \"#utility.yul\":24174:24176   */\n      0x20\n        /* \"#utility.yul\":24169:24172   */\n      dup3\n        /* \"#utility.yul\":24165:24177   */\n      add\n        /* \"#utility.yul\":24158:24177   */\n      swap1\n      pop\n        /* \"#utility.yul\":23817:24183   */\n      swap2\n      swap1\n      pop\n      jump\t// out\n        /* \"#utility.yul\":24189:24608   */\n    tag_225:\n        /* \"#utility.yul\":24355:24359   */\n      0x00\n        /* \"#utility.yul\":24393:24395   */\n      0x20\n        /* \"#utility.yul\":24382:24391   */\n      dup3\n        /* \"#utility.yul\":24378:24396   */\n      add\n        /* \"#utility.yul\":24370:24396   */\n      swap1\n      pop\n        /* \"#utility.yul\":24442:24451   */\n      dup2\n        /* \"#utility.yul\":24436:24440   */\n      dup2\n        /* \"#utility.yul\":24432:24452   */\n      sub\n        /* \"#utility.yul\":24428:24429   */\n      0x00\n        /* \"#utility.yul\":24417:24426   */\n      dup4\n        /* \"#utility.yul\":24413:24430   */\n      add\n        /* \"#utility.yul\":24406:24453   */\n      mstore\n        /* \"#utility.yul\":24470:24601   */\n      tag_627\n        /* \"#utility.yul\":24596:24600   */\n      dup2\n        /* \"#utility.yul\":24470:24601   */\n      tag_409\n      jump\t// in\n    tag_627:\n        /* \"#utility.yul\":24462:24601   */\n      swap1\n      pop\n        /* \"#utility.yul\":24189:24608   */\n      swap2\n      swap1\n      pop\n      jump\t// out\n        /* \"#utility.yul\":24614:24796   */\n    tag_410:\n        /* \"#utility.yul\":24754:24788   */\n      0x46616c6c6f20616c206465766f6c766572206c6f73206465706f7369746f732e\n        /* \"#utility.yul\":24750:24751   */\n      0x00\n        /* \"#utility.yul\":24742:24748   */\n      dup3\n        /* \"#utility.yul\":24738:24752   */\n      add\n        /* \"#utility.yul\":24731:24789   */\n      mstore\n        /* \"#utility.yul\":24614:24796   */\n      pop\n      jump\t// out\n        /* \"#utility.yul\":24802:25168   */\n    tag_411:\n        /* \"#utility.yul\":24944:24947   */\n      0x00\n        /* \"#utility.yul\":24965:25032   */\n      tag_630\n        /* \"#utility.yul\":25029:25031   */\n      0x20\n        /* \"#utility.yul\":25024:25027   */\n      dup4\n        /* \"#utility.yul\":24965:25032   */\n      tag_382\n      jump\t// in\n    tag_630:\n        /* \"#utility.yul\":24958:25032   */\n      swap2\n      pop\n        /* \"#utility.yul\":25041:25134   */\n      tag_631\n        /* \"#utility.yul\":25130:25133   */\n      dup3\n        /* \"#utility.yul\":25041:25134   */\n      tag_410\n      jump\t// in\n    tag_631:\n        /* \"#utility.yul\":25159:25161   */\n      0x20\n        /* \"#utility.yul\":25154:25157   */\n      dup3\n        /* \"#utility.yul\":25150:25162   */\n      add\n        /* \"#utility.yul\":25143:25162   */\n      swap1\n      pop\n        /* \"#utility.yul\":24802:25168   */\n      swap2\n      swap1\n      pop\n      jump\t// out\n        /* \"#utility.yul\":25174:25593   */\n    tag_240:\n        /* \"#utility.yul\":25340:25344   */\n      0x00\n        /* \"#utility.yul\":25378:25380   */\n      0x20\n        /* \"#utility.yul\":25367:25376   */\n      dup3\n        /* \"#utility.yul\":25363:25381   */\n      add\n        /* \"#utility.yul\":25355:25381   */\n      swap1\n      pop\n        /* \"#utility.yul\":25427:25436   */\n      dup2\n        /* \"#utility.yul\":25421:25425   */\n      dup2\n        /* \"#utility.yul\":25417:25437   */\n      sub\n        /* \"#utility.yul\":25413:25414   */\n      0x00\n        /* \"#utility.yul\":25402:25411   */\n      dup4\n        /* \"#utility.yul\":25398:25415   */\n      add\n        /* \"#utility.yul\":25391:25438   */\n      mstore\n        /* \"#utility.yul\":25455:25586   */\n      tag_633\n        /* \"#utility.yul\":25581:25585   */\n      dup2\n        /* \"#utility.yul\":25455:25586   */\n      tag_411\n      jump\t// in\n    tag_633:\n        /* \"#utility.yul\":25447:25586   */\n      swap1\n      pop\n        /* \"#utility.yul\":25174:25593   */\n      swap2\n      swap1\n      pop\n      jump\t// out\n        /* \"#utility.yul\":25599:25779   */\n    tag_249:\n        /* \"#utility.yul\":25647:25724   */\n      0x4e487b7100000000000000000000000000000000000000000000000000000000\n        /* \"#utility.yul\":25644:25645   */\n      0x00\n        /* \"#utility.yul\":25637:25725   */\n      mstore\n        /* \"#utility.yul\":25744:25748   */\n      0x41\n        /* \"#utility.yul\":25741:25742   */\n      0x04\n        /* \"#utility.yul\":25734:25749   */\n      mstore\n        /* \"#utility.yul\":25768:25772   */\n      0x24\n        /* \"#utility.yul\":25765:25766   */\n      0x00\n        /* \"#utility.yul\":25758:25773   */\n      revert\n        /* \"#utility.yul\":25785:25967   */\n    tag_412:\n        /* \"#utility.yul\":25925:25959   */\n      0x46616c6c6f20616c2072657469726172206c617320636f6d6973696f6e65732e\n        /* \"#utility.yul\":25921:25922   */\n      0x00\n        /* \"#utility.yul\":25913:25919   */\n      dup3\n        /* \"#utility.yul\":25909:25923   */\n      add\n        /* \"#utility.yul\":25902:25960   */\n      mstore\n        /* \"#utility.yul\":25785:25967   */\n      pop\n      jump\t// out\n        /* \"#utility.yul\":25973:26339   */\n    tag_413:\n        /* \"#utility.yul\":26115:26118   */\n      0x00\n        /* \"#utility.yul\":26136:26203   */\n      tag_637\n        /* \"#utility.yul\":26200:26202   */\n      0x20\n        /* \"#utility.yul\":26195:26198   */\n      dup4\n        /* \"#utility.yul\":26136:26203   */\n      tag_382\n      jump\t// in\n    tag_637:\n        /* \"#utility.yul\":26129:26203   */\n      swap2\n      pop\n        /* \"#utility.yul\":26212:26305   */\n      tag_638\n        /* \"#utility.yul\":26301:26304   */\n      dup3\n        /* \"#utility.yul\":26212:26305   */\n      tag_412\n      jump\t// in\n    tag_638:\n        /* \"#utility.yul\":26330:26332   */\n      0x20\n        /* \"#utility.yul\":26325:26328   */\n      dup3\n        /* \"#utility.yul\":26321:26333   */\n      add\n        /* \"#utility.yul\":26314:26333   */\n      swap1\n      pop\n        /* \"#utility.yul\":25973:26339   */\n      swap2\n      swap1\n      pop\n      jump\t// out\n        /* \"#utility.yul\":26345:26764   */\n    tag_295:\n        /* \"#utility.yul\":26511:26515   */\n      0x00\n        /* \"#utility.yul\":26549:26551   */\n      0x20\n        /* \"#utility.yul\":26538:26547   */\n      dup3\n        /* \"#utility.yul\":26534:26552   */\n      add\n        /* \"#utility.yul\":26526:26552   */\n      swap1\n      pop\n        /* \"#utility.yul\":26598:26607   */\n      dup2\n        /* \"#utility.yul\":26592:26596   */\n      dup2\n        /* \"#utility.yul\":26588:26608   */\n      sub\n        /* \"#utility.yul\":26584:26585   */\n      0x00\n        /* \"#utility.yul\":26573:26582   */\n      dup4\n        /* \"#utility.yul\":26569:26586   */\n      add\n        /* \"#utility.yul\":26562:26609   */\n      mstore\n        /* \"#utility.yul\":26626:26757   */\n      tag_640\n        /* \"#utility.yul\":26752:26756   */\n      dup2\n        /* \"#utility.yul\":26626:26757   */\n      tag_413\n      jump\t// in\n    tag_640:\n        /* \"#utility.yul\":26618:26757   */\n      swap1\n      pop\n        /* \"#utility.yul\":26345:26764   */\n      swap2\n      swap1\n      pop\n      jump\t// out\n        /* \"#utility.yul\":26770:27020   */\n    tag_414:\n        /* \"#utility.yul\":26910:26944   */\n      0x4c61206f666572746120646562652073657220616c206d656e6f7320756e2035\n        /* \"#utility.yul\":26906:26907   */\n      0x00\n        /* \"#utility.yul\":26898:26904   */\n      dup3\n        /* \"#utility.yul\":26894:26908   */\n      add\n        /* \"#utility.yul\":26887:26945   */\n      mstore\n        /* \"#utility.yul\":26979:27012   */\n      0x25206d61796f7220717565206c61206f66657274612067616e61646f72612e00\n        /* \"#utility.yul\":26974:26976   */\n      0x20\n        /* \"#utility.yul\":26966:26972   */\n      dup3\n        /* \"#utility.yul\":26962:26977   */\n      add\n        /* \"#utility.yul\":26955:27013   */\n      mstore\n        /* \"#utility.yul\":26770:27020   */\n      pop\n      jump\t// out\n        /* \"#utility.yul\":27026:27392   */\n    tag_415:\n        /* \"#utility.yul\":27168:27171   */\n      0x00\n        /* \"#utility.yul\":27189:27256   */\n      tag_643\n        /* \"#utility.yul\":27253:27255   */\n      0x3f\n        /* \"#utility.yul\":27248:27251   */\n      dup4\n        /* \"#utility.yul\":27189:27256   */\n      tag_382\n      jump\t// in\n    tag_643:\n        /* \"#utility.yul\":27182:27256   */\n      swap2\n      pop\n        /* \"#utility.yul\":27265:27358   */\n      tag_644\n        /* \"#utility.yul\":27354:27357   */\n      dup3\n        /* \"#utility.yul\":27265:27358   */\n      tag_414\n      jump\t// in\n    tag_644:\n        /* \"#utility.yul\":27383:27385   */\n      0x40\n        /* \"#utility.yul\":27378:27381   */\n      dup3\n        /* \"#utility.yul\":27374:27386   */\n      add\n        /* \"#utility.yul\":27367:27386   */\n      swap1\n      pop\n        /* \"#utility.yul\":27026:27392   */\n      swap2\n      swap1\n      pop\n      jump\t// out\n        /* \"#utility.yul\":27398:27817   */\n    tag_310:\n        /* \"#utility.yul\":27564:27568   */\n      0x00\n        /* \"#utility.yul\":27602:27604   */\n      0x20\n        /* \"#utility.yul\":27591:27600   */\n      dup3\n        /* \"#utility.yul\":27587:27605   */\n      add\n        /* \"#utility.yul\":27579:27605   */\n      swap1\n      pop\n        /* \"#utility.yul\":27651:27660   */\n      dup2\n        /* \"#utility.yul\":27645:27649   */\n      dup2\n        /* \"#utility.yul\":27641:27661   */\n      sub\n        /* \"#utility.yul\":27637:27638   */\n      0x00\n        /* \"#utility.yul\":27626:27635   */\n      dup4\n        /* \"#utility.yul\":27622:27639   */\n      add\n        /* \"#utility.yul\":27615:27662   */\n      mstore\n        /* \"#utility.yul\":27679:27810   */\n      tag_646\n        /* \"#utility.yul\":27805:27809   */\n      dup2\n        /* \"#utility.yul\":27679:27810   */\n      tag_415\n      jump\t// in\n    tag_646:\n        /* \"#utility.yul\":27671:27810   */\n      swap1\n      pop\n        /* \"#utility.yul\":27398:27817   */\n      swap2\n      swap1\n      pop\n      jump\t// out\n        /* \"#utility.yul\":27823:27998   */\n    tag_416:\n        /* \"#utility.yul\":27963:27990   */\n      0x4c6120737562617374612068612066696e616c697a61646f2e00000000000000\n        /* \"#utility.yul\":27959:27960   */\n      0x00\n        /* \"#utility.yul\":27951:27957   */\n      dup3\n        /* \"#utility.yul\":27947:27961   */\n      add\n        /* \"#utility.yul\":27940:27991   */\n      mstore\n        /* \"#utility.yul\":27823:27998   */\n      pop\n      jump\t// out\n        /* \"#utility.yul\":28004:28370   */\n    tag_417:\n        /* \"#utility.yul\":28146:28149   */\n      0x00\n        /* \"#utility.yul\":28167:28234   */\n      tag_649\n        /* \"#utility.yul\":28231:28233   */\n      0x19\n        /* \"#utility.yul\":28226:28229   */\n      dup4\n        /* \"#utility.yul\":28167:28234   */\n      tag_382\n      jump\t// in\n    tag_649:\n        /* \"#utility.yul\":28160:28234   */\n      swap2\n      pop\n        /* \"#utility.yul\":28243:28336   */\n      tag_650\n        /* \"#utility.yul\":28332:28335   */\n      dup3\n        /* \"#utility.yul\":28243:28336   */\n      tag_416\n      jump\t// in\n    tag_650:\n        /* \"#utility.yul\":28361:28363   */\n      0x20\n        /* \"#utility.yul\":28356:28359   */\n      dup3\n        /* \"#utility.yul\":28352:28364   */\n      add\n        /* \"#utility.yul\":28345:28364   */\n      swap1\n      pop\n        /* \"#utility.yul\":28004:28370   */\n      swap2\n      swap1\n      pop\n      jump\t// out\n        /* \"#utility.yul\":28376:28795   */\n    tag_314:\n        /* \"#utility.yul\":28542:28546   */\n      0x00\n        /* \"#utility.yul\":28580:28582   */\n      0x20\n        /* \"#utility.yul\":28569:28578   */\n      dup3\n        /* \"#utility.yul\":28565:28583   */\n      add\n        /* \"#utility.yul\":28557:28583   */\n      swap1\n      pop\n        /* \"#utility.yul\":28629:28638   */\n      dup2\n        /* \"#utility.yul\":28623:28627   */\n      dup2\n        /* \"#utility.yul\":28619:28639   */\n      sub\n        /* \"#utility.yul\":28615:28616   */\n      0x00\n        /* \"#utility.yul\":28604:28613   */\n      dup4\n        /* \"#utility.yul\":28600:28617   */\n      add\n        /* \"#utility.yul\":28593:28640   */\n      mstore\n        /* \"#utility.yul\":28657:28788   */\n      tag_652\n        /* \"#utility.yul\":28783:28787   */\n      dup2\n        /* \"#utility.yul\":28657:28788   */\n      tag_417\n      jump\t// in\n    tag_652:\n        /* \"#utility.yul\":28649:28788   */\n      swap1\n      pop\n        /* \"#utility.yul\":28376:28795   */\n      swap2\n      swap1\n      pop\n      jump\t// out\n        /* \"#utility.yul\":28801:29021   */\n    tag_418:\n        /* \"#utility.yul\":28941:28975   */\n      0x4c612073756261737461207961206861207369646f2066696e616c697a616461\n        /* \"#utility.yul\":28937:28938   */\n      0x00\n        /* \"#utility.yul\":28929:28935   */\n      dup3\n        /* \"#utility.yul\":28925:28939   */\n      add\n        /* \"#utility.yul\":28918:28976   */\n      mstore\n        /* \"#utility.yul\":29010:29013   */\n      0x2e00000000000000000000000000000000000000000000000000000000000000\n        /* \"#utility.yul\":29005:29007   */\n      0x20\n        /* \"#utility.yul\":28997:29003   */\n      dup3\n        /* \"#utility.yul\":28993:29008   */\n      add\n        /* \"#utility.yul\":28986:29014   */\n      mstore\n        /* \"#utility.yul\":28801:29021   */\n      pop\n      jump\t// out\n        /* \"#utility.yul\":29027:29393   */\n    tag_419:\n        /* \"#utility.yul\":29169:29172   */\n      0x00\n        /* \"#utility.yul\":29190:29257   */\n      tag_655\n        /* \"#utility.yul\":29254:29256   */\n      0x21\n        /* \"#utility.yul\":29249:29252   */\n      dup4\n        /* \"#utility.yul\":29190:29257   */\n      tag_382\n      jump\t// in\n    tag_655:\n        /* \"#utility.yul\":29183:29257   */\n      swap2\n      pop\n        /* \"#utility.yul\":29266:29359   */\n      tag_656\n        /* \"#utility.yul\":29355:29358   */\n      dup3\n        /* \"#utility.yul\":29266:29359   */\n      tag_418\n      jump\t// in\n    tag_656:\n        /* \"#utility.yul\":29384:29386   */\n      0x40\n        /* \"#utility.yul\":29379:29382   */\n      dup3\n        /* \"#utility.yul\":29375:29387   */\n      add\n        /* \"#utility.yul\":29368:29387   */\n      swap1\n      pop\n        /* \"#utility.yul\":29027:29393   */\n      swap2\n      swap1\n      pop\n      jump\t// out\n        /* \"#utility.yul\":29399:29818   */\n    tag_339:\n        /* \"#utility.yul\":29565:29569   */\n      0x00\n        /* \"#utility.yul\":29603:29605   */\n      0x20\n        /* \"#utility.yul\":29592:29601   */\n      dup3\n        /* \"#utility.yul\":29588:29606   */\n      add\n        /* \"#utility.yul\":29580:29606   */\n      swap1\n      pop\n        /* \"#utility.yul\":29652:29661   */\n      dup2\n        /* \"#utility.yul\":29646:29650   */\n      dup2\n        /* \"#utility.yul\":29642:29662   */\n      sub\n        /* \"#utility.yul\":29638:29639   */\n      0x00\n        /* \"#utility.yul\":29627:29636   */\n      dup4\n        /* \"#utility.yul\":29623:29640   */\n      add\n        /* \"#utility.yul\":29616:29663   */\n      mstore\n        /* \"#utility.yul\":29680:29811   */\n      tag_658\n        /* \"#utility.yul\":29806:29810   */\n      dup2\n        /* \"#utility.yul\":29680:29811   */\n      tag_419\n      jump\t// in\n    tag_658:\n        /* \"#utility.yul\":29672:29811   */\n      swap1\n      pop\n        /* \"#utility.yul\":29399:29818   */\n      swap2\n      swap1\n      pop\n      jump\t// out\n\n    auxdata: 0xa264697066735822122051536631e9046e8d28894ce7706d0e620c3608dec6ae6081bd2043028bd6757664736f6c634300081a0033\n}\n",
				"bytecode": {
					"linkReferences": {},
					"object": "608060405234801561000f575f80fd5b50604051612e45380380612e458339818101604052810190610031919061013c565b6104b08110158015610046575062093a808111155b610085576040517f08c379a000000000000000000000000000000000000000000000000000000000815260040161007c906101e7565b60405180910390fd5b80426100919190610232565b6001819055505f805f6101000a81548160ff021916908360038111156100ba576100b9610265565b5b02179055503360055f6101000a81548173ffffffffffffffffffffffffffffffffffffffff021916908373ffffffffffffffffffffffffffffffffffffffff16021790555050610292565b5f80fd5b5f819050919050565b61011b81610109565b8114610125575f80fd5b50565b5f8151905061013681610112565b92915050565b5f6020828403121561015157610150610105565b5b5f61015e84828501610128565b91505092915050565b5f82825260208201905092915050565b7f4c61206475726163696f6e20646562652073657220656e747265203230206d695f8201527f6e75746f732079203720646961732e0000000000000000000000000000000000602082015250565b5f6101d1602f83610167565b91506101dc82610177565b604082019050919050565b5f6020820190508181035f8301526101fe816101c5565b9050919050565b7f4e487b71000000000000000000000000000000000000000000000000000000005f52601160045260245ffd5b5f61023c82610109565b915061024783610109565b925082820190508082111561025f5761025e610205565b5b92915050565b7f4e487b71000000000000000000000000000000000000000000000000000000005f52602160045260245ffd5b612ba68061029f5f395ff3fe608060405260043610610113575f3560e01c80638da5cb5b1161009f578063d57bde7911610063578063d57bde7914610383578063e34d1e69146103ad578063eba7bb9d146103c3578063ecfc7ecc146103ed578063fe67a54b146103f757610113565b80638da5cb5b1461028c57806391f90157146102b657806392bff767146102e0578063be35460b1461030b578063cff29dfd1461034757610113565b80634b449cba116100e65780634b449cba146101a957806362c71635146101d35780637cf2ed221461020f5780637d615e65146102255780637fb450991461026257610113565b80631ce2bcf51461011757806325abd4c71461012d5780632f49e96414610169578063473437111461017f575b5f80fd5b348015610122575f80fd5b5061012b61040d565b005b348015610138575f80fd5b50610153600480360381019061014e9190611dc4565b610859565b6040516101609190611e11565b60405180910390f35b348015610174575f80fd5b5061017d610884565b005b34801561018a575f80fd5b50610193610c38565b6040516101a09190611f1d565b60405180910390f35b3480156101b4575f80fd5b506101bd610cf2565b6040516101ca9190611e11565b60405180910390f35b3480156101de575f80fd5b506101f960048036038101906101f49190611f3d565b610cf8565b6040516102069190611e11565b60405180910390f35b34801561021a575f80fd5b50610223610d0d565b005b348015610230575f80fd5b5061024b60048036038101906102469190611f68565b611127565b604051610259929190611fa2565b60405180910390f35b34801561026d575f80fd5b50610276611175565b604051610283919061203c565b60405180910390f35b348015610297575f80fd5b506102a0611185565b6040516102ad9190612055565b60405180910390f35b3480156102c1575f80fd5b506102ca6111aa565b6040516102d79190612055565b60405180910390f35b3480156102eb575f80fd5b506102f46111cf565b6040516103029291906121be565b60405180910390f35b348015610316575f80fd5b50610331600480360381019061032c9190611f3d565b611383565b60405161033e9190611e11565b60405180910390f35b348015610352575f80fd5b5061036d60048036038101906103689190611f68565b611398565b60405161037a9190612055565b60405180910390f35b34801561038e575f80fd5b506103976113d3565b6040516103a49190611e11565b60405180910390f35b3480156103b8575f80fd5b506103c16113d9565b005b3480156103ce575f80fd5b506103d76116d1565b6040516103e49190611e11565b60405180910390f35b6103f56116d7565b005b348015610402575f80fd5b5061040b611b0c565b005b5f60038111156104205761041f611fc9565b5b5f8054906101000a900460ff16600381111561043f5761043e611fc9565b5b1461047f576040517f08c379a00000000000000000000000000000000000000000000000000000000081526004016104769061224d565b60405180910390fd5b60038081111561049257610491611fc9565b5b5f8054906101000a900460ff1660038111156104b1576104b0611fc9565b5b036104f1576040517f08c379a00000000000000000000000000000000000000000000000000000000081526004016104e8906122db565b60405180910390fd5b5f8060065f3373ffffffffffffffffffffffffffffffffffffffff1673ffffffffffffffffffffffffffffffffffffffff1681526020019081526020015f2090506001818054905011610579576040517f08c379a000000000000000000000000000000000000000000000000000000000815260040161057090612369565b60405180910390fd5b5f5b6001828054905061058c91906123b4565b8110156105c9578181815481106105a6576105a56123e7565b5b905f5260205f200154836105ba9190612414565b9250808060010191505061057b565b505f60085f3373ffffffffffffffffffffffffffffffffffffffff1673ffffffffffffffffffffffffffffffffffffffff1681526020019081526020015f20548361061491906123b4565b90505f8111610658576040517f08c379a000000000000000000000000000000000000000000000000000000000815260040161064f906124b7565b60405180910390fd5b8060085f3373ffffffffffffffffffffffffffffffffffffffff1673ffffffffffffffffffffffffffffffffffffffff1681526020019081526020015f205f8282546106a49190612414565b925050819055505f60646002836106bb91906124d5565b6106c59190612543565b90505f81836106d491906123b4565b905083600185805490506106e891906123b4565b815481106106f9576106f86123e7565b5b905f5260205f20015460075f3373ffffffffffffffffffffffffffffffffffffffff1673ffffffffffffffffffffffffffffffffffffffff1681526020019081526020015f20819055508160025f8282546107549190612414565b925050819055505f3373ffffffffffffffffffffffffffffffffffffffff1682604051610780906125a0565b5f6040518083038185875af1925050503d805f81146107ba576040519150601f19603f3d011682016040523d82523d5f602084013e6107bf565b606091505b5050905080610803576040517f08c379a00000000000000000000000000000000000000000000000000000000081526004016107fa90612624565b60405180910390fd5b3373ffffffffffffffffffffffffffffffffffffffff167fdce68997783ae47468b6fb0dd39cca315f9082d51d9ab3df8747c70512aa8ff2836040516108499190611e11565b60405180910390a2505050505050565b6006602052815f5260405f208181548110610872575f80fd5b905f5260205f20015f91509150505481565b60055f9054906101000a900473ffffffffffffffffffffffffffffffffffffffff1673ffffffffffffffffffffffffffffffffffffffff163373ffffffffffffffffffffffffffffffffffffffff1614610913576040517f08c379a000000000000000000000000000000000000000000000000000000000815260040161090a906126b2565b60405180910390fd5b6002600381111561092757610926611fc9565b5b5f8054906101000a900460ff16600381111561094657610945611fc9565b5b14610986576040517f08c379a000000000000000000000000000000000000000000000000000000000815260040161097d90612740565b60405180910390fd5b60038081111561099957610998611fc9565b5b5f8054906101000a900460ff1660038111156109b8576109b7611fc9565b5b036109f8576040517f08c379a00000000000000000000000000000000000000000000000000000000081526004016109ef906122db565b60405180910390fd5b60026003811115610a0c57610a0b611fc9565b5b5f8054906101000a900460ff166003811115610a2b57610a2a611fc9565b5b14610a6b576040517f08c379a0000000000000000000000000000000000000000000000000000000008152600401610a6290612740565b60405180910390fd5b5f600354905060035f806101000a81548160ff02191690836003811115610a9557610a94611fc9565b5b02179055505f60075f60045f9054906101000a900473ffffffffffffffffffffffffffffffffffffffff1673ffffffffffffffffffffffffffffffffffffffff1673ffffffffffffffffffffffffffffffffffffffff1681526020019081526020015f20819055505f60055f9054906101000a900473ffffffffffffffffffffffffffffffffffffffff1673ffffffffffffffffffffffffffffffffffffffff1682604051610b43906125a0565b5f6040518083038185875af1925050503d805f8114610b7d576040519150601f19603f3d011682016040523d82523d5f602084013e610b82565b606091505b5050905080610bc6576040517f08c379a0000000000000000000000000000000000000000000000000000000008152600401610bbd906127ce565b60405180910390fd5b7fdb23c6f1ecd7f6b51f64de3f6317061f4bb0cb9a23217a658fac91c6af46aaaa82604051610bf59190611e11565b60405180910390a17fd32867df73bc4c73068741f056b4515ddce6636a748ab9317e2c69e0fbcb356a81604051610c2c9190612806565b60405180910390a15050565b6060600a805480602002602001604051908101604052809291908181526020015f905b82821015610ce9578382905f5260205f2090600202016040518060400160405290815f82015f9054906101000a900473ffffffffffffffffffffffffffffffffffffffff1673ffffffffffffffffffffffffffffffffffffffff1673ffffffffffffffffffffffffffffffffffffffff16815260200160018201548152505081526020019060010190610c5b565b50505050905090565b60015481565b6007602052805f5260405f205f915090505481565b60055f9054906101000a900473ffffffffffffffffffffffffffffffffffffffff1673ffffffffffffffffffffffffffffffffffffffff163373ffffffffffffffffffffffffffffffffffffffff1614610d9c576040517f08c379a0000000000000000000000000000000000000000000000000000000008152600401610d93906126b2565b60405180910390fd5b600154421015610de1576040517f08c379a0000000000000000000000000000000000000000000000000000000008152600401610dd890612869565b60405180910390fd5b600380811115610df457610df3611fc9565b5b5f8054906101000a900460ff166003811115610e1357610e12611fc9565b5b03610e53576040517f08c379a0000000000000000000000000000000000000000000000000000000008152600401610e4a906122db565b60405180910390fd5b60016003811115610e6757610e66611fc9565b5b5f8054906101000a900460ff166003811115610e8657610e85611fc9565b5b14610ec6576040517f08c379a0000000000000000000000000000000000000000000000000000000008152600401610ebd906128d1565b60405180910390fd5b5f5b6009805490508110156110fb575f60098281548110610eea57610ee96123e7565b5b905f5260205f20015f9054906101000a900473ffffffffffffffffffffffffffffffffffffffff16905060045f9054906101000a900473ffffffffffffffffffffffffffffffffffffffff1673ffffffffffffffffffffffffffffffffffffffff168173ffffffffffffffffffffffffffffffffffffffff16146110ed575f60075f8373ffffffffffffffffffffffffffffffffffffffff1673ffffffffffffffffffffffffffffffffffffffff1681526020019081526020015f205490505f60075f8473ffffffffffffffffffffffffffffffffffffffff1673ffffffffffffffffffffffffffffffffffffffff1681526020019081526020015f20819055505f8111156110eb575f8273ffffffffffffffffffffffffffffffffffffffff1682604051611018906125a0565b5f6040518083038185875af1925050503d805f8114611052576040519150601f19603f3d011682016040523d82523d5f602084013e611057565b606091505b505090508061109b576040517f08c379a000000000000000000000000000000000000000000000000000000000815260040161109290612939565b60405180910390fd5b8273ffffffffffffffffffffffffffffffffffffffff167f4482101800a5c2e900f4156e57e05e19ffd7b366cde579553d723fd3abb2180e836040516110e19190611e11565b60405180910390a2505b505b508080600101915050610ec8565b5060025f806101000a81548160ff021916908360038111156111205761111f611fc9565b5b0217905550565b600a8181548110611136575f80fd5b905f5260205f2090600202015f91509050805f015f9054906101000a900473ffffffffffffffffffffffffffffffffffffffff16908060010154905082565b5f8054906101000a900460ff1681565b60055f9054906101000a900473ffffffffffffffffffffffffffffffffffffffff1681565b60045f9054906101000a900473ffffffffffffffffffffffffffffffffffffffff1681565b6060805f60098054905090505f8167ffffffffffffffff8111156111f6576111f5612957565b5b6040519080825280602002602001820160405280156112245781602001602082028036833780820191505090505b5090505f8267ffffffffffffffff81111561124257611241612957565b5b6040519080825280602002602001820160405280156112705781602001602082028036833780820191505090505b5090505f5b83811015611375575f60098281548110611292576112916123e7565b5b905f5260205f20015f9054906101000a900473ffffffffffffffffffffffffffffffffffffffff169050808483815181106112d0576112cf6123e7565b5b602002602001019073ffffffffffffffffffffffffffffffffffffffff16908173ffffffffffffffffffffffffffffffffffffffff168152505060075f8273ffffffffffffffffffffffffffffffffffffffff1673ffffffffffffffffffffffffffffffffffffffff1681526020019081526020015f205483838151811061135b5761135a6123e7565b5b602002602001018181525050508080600101915050611275565b508181945094505050509091565b6008602052805f5260405f205f915090505481565b600981815481106113a7575f80fd5b905f5260205f20015f915054906101000a900473ffffffffffffffffffffffffffffffffffffffff1681565b60035481565b60055f9054906101000a900473ffffffffffffffffffffffffffffffffffffffff1673ffffffffffffffffffffffffffffffffffffffff163373ffffffffffffffffffffffffffffffffffffffff1614611468576040517f08c379a000000000000000000000000000000000000000000000000000000000815260040161145f906126b2565b60405180910390fd5b6002600381111561147c5761147b611fc9565b5b5f8054906101000a900460ff16600381111561149b5761149a611fc9565b5b146114db576040517f08c379a00000000000000000000000000000000000000000000000000000000081526004016114d290612740565b60405180910390fd5b6003808111156114ee576114ed611fc9565b5b5f8054906101000a900460ff16600381111561150d5761150c611fc9565b5b0361154d576040517f08c379a0000000000000000000000000000000000000000000000000000000008152600401611544906122db565b60405180910390fd5b6002600381111561156157611560611fc9565b5b5f8054906101000a900460ff1660038111156115805761157f611fc9565b5b146115c0576040517f08c379a00000000000000000000000000000000000000000000000000000000081526004016115b790612740565b60405180910390fd5b5f60025490505f6002819055505f60055f9054906101000a900473ffffffffffffffffffffffffffffffffffffffff1673ffffffffffffffffffffffffffffffffffffffff1682604051611613906125a0565b5f6040518083038185875af1925050503d805f811461164d576040519150601f19603f3d011682016040523d82523d5f602084013e611652565b606091505b5050905080611696576040517f08c379a000000000000000000000000000000000000000000000000000000000815260040161168d906129ce565b60405180910390fd5b7f2f424443129f9599dfb4d73878ad554b820124e747bde094b660fb1280ed3d15826040516116c59190611e11565b60405180910390a15050565b60025481565b5f60038111156116ea576116e9611fc9565b5b5f8054906101000a900460ff16600381111561170957611708611fc9565b5b14611749576040517f08c379a00000000000000000000000000000000000000000000000000000000081526004016117409061224d565b60405180910390fd5b346064600560035461175b91906124d5565b6117659190612543565b6003546117729190612414565b8110156117b4576040517f08c379a00000000000000000000000000000000000000000000000000000000081526004016117ab90612a5c565b60405180910390fd5b6001544211156117f9576040517f08c379a00000000000000000000000000000000000000000000000000000000081526004016117f090612ac4565b60405180910390fd5b61025860015461180991906123b4565b4211156118645761025860015f8282546118239190612414565b925050819055507fc2b459809119087ca9d2bc10dea53a51b7d848b1a11075db037bdca58292c3e860015460405161185b9190611e11565b60405180910390a15b5f34905060065f3373ffffffffffffffffffffffffffffffffffffffff1673ffffffffffffffffffffffffffffffffffffffff1681526020019081526020015f2081908060018154018082558091505060019003905f5260205f20015f90919091909150558060075f3373ffffffffffffffffffffffffffffffffffffffff1673ffffffffffffffffffffffffffffffffffffffff1681526020019081526020015f205f8282546119159190612414565b92505081905550600a60405180604001604052803373ffffffffffffffffffffffffffffffffffffffff16815260200183815250908060018154018082558091505060019003905f5260205f2090600202015f909190919091505f820151815f015f6101000a81548173ffffffffffffffffffffffffffffffffffffffff021916908373ffffffffffffffffffffffffffffffffffffffff160217905550602082015181600101555050600354811115611a1157806003819055503360045f6101000a81548173ffffffffffffffffffffffffffffffffffffffff021916908373ffffffffffffffffffffffffffffffffffffffff1602179055505b600160065f3373ffffffffffffffffffffffffffffffffffffffff1673ffffffffffffffffffffffffffffffffffffffff1681526020019081526020015f208054905003611aba57600933908060018154018082558091505060019003905f5260205f20015f9091909190916101000a81548173ffffffffffffffffffffffffffffffffffffffff021916908373ffffffffffffffffffffffffffffffffffffffff1602179055505b3373ffffffffffffffffffffffffffffffffffffffff167f3fabff0a9c3ecd6814702e247fa9733e5d0aa69e3a38590f92cb18f623a2254d82604051611b009190611e11565b60405180910390a25050565b60055f9054906101000a900473ffffffffffffffffffffffffffffffffffffffff1673ffffffffffffffffffffffffffffffffffffffff163373ffffffffffffffffffffffffffffffffffffffff1614611b9b576040517f08c379a0000000000000000000000000000000000000000000000000000000008152600401611b92906126b2565b60405180910390fd5b600154421015611be0576040517f08c379a0000000000000000000000000000000000000000000000000000000008152600401611bd790612869565b60405180910390fd5b5f6003811115611bf357611bf2611fc9565b5b5f8054906101000a900460ff166003811115611c1257611c11611fc9565b5b14611c52576040517f08c379a0000000000000000000000000000000000000000000000000000000008152600401611c4990612b52565b60405180910390fd5b600154421015611c97576040517f08c379a0000000000000000000000000000000000000000000000000000000008152600401611c8e906128d1565b60405180910390fd5b60015f806101000a81548160ff02191690836003811115611cbb57611cba611fc9565b5b021790555060045f9054906101000a900473ffffffffffffffffffffffffffffffffffffffff1673ffffffffffffffffffffffffffffffffffffffff167fdaec4582d5d9595688c8c98545fdd1c696d41c6aeaeb636737e84ed2f5c00eda600354604051611d299190611e11565b60405180910390a2565b5f80fd5b5f73ffffffffffffffffffffffffffffffffffffffff82169050919050565b5f611d6082611d37565b9050919050565b611d7081611d56565b8114611d7a575f80fd5b50565b5f81359050611d8b81611d67565b92915050565b5f819050919050565b611da381611d91565b8114611dad575f80fd5b50565b5f81359050611dbe81611d9a565b92915050565b5f8060408385031215611dda57611dd9611d33565b5b5f611de785828601611d7d565b9250506020611df885828601611db0565b9150509250929050565b611e0b81611d91565b82525050565b5f602082019050611e245f830184611e02565b92915050565b5f81519050919050565b5f82825260208201905092915050565b5f819050602082019050919050565b611e5c81611d56565b82525050565b611e6b81611d91565b82525050565b604082015f820151611e855f850182611e53565b506020820151611e986020850182611e62565b50505050565b5f611ea98383611e71565b60408301905092915050565b5f602082019050919050565b5f611ecb82611e2a565b611ed58185611e34565b9350611ee083611e44565b805f5b83811015611f10578151611ef78882611e9e565b9750611f0283611eb5565b925050600181019050611ee3565b5085935050505092915050565b5f6020820190508181035f830152611f358184611ec1565b905092915050565b5f60208284031215611f5257611f51611d33565b5b5f611f5f84828501611d7d565b91505092915050565b5f60208284031215611f7d57611f7c611d33565b5b5f611f8a84828501611db0565b91505092915050565b611f9c81611d56565b82525050565b5f604082019050611fb55f830185611f93565b611fc26020830184611e02565b9392505050565b7f4e487b71000000000000000000000000000000000000000000000000000000005f52602160045260245ffd5b6004811061200757612006611fc9565b5b50565b5f81905061201782611ff6565b919050565b5f6120268261200a565b9050919050565b6120368161201c565b82525050565b5f60208201905061204f5f83018461202d565b92915050565b5f6020820190506120685f830184611f93565b92915050565b5f81519050919050565b5f82825260208201905092915050565b5f819050602082019050919050565b5f6120a28383611e53565b60208301905092915050565b5f602082019050919050565b5f6120c48261206e565b6120ce8185612078565b93506120d983612088565b805f5b838110156121095781516120f08882612097565b97506120fb836120ae565b9250506001810190506120dc565b5085935050505092915050565b5f81519050919050565b5f82825260208201905092915050565b5f819050602082019050919050565b5f61214a8383611e62565b60208301905092915050565b5f602082019050919050565b5f61216c82612116565b6121768185612120565b935061218183612130565b805f5b838110156121b1578151612198888261213f565b97506121a383612156565b925050600181019050612184565b5085935050505092915050565b5f6040820190508181035f8301526121d681856120ba565b905081810360208301526121ea8184612162565b90509392505050565b5f82825260208201905092915050565b7f4c612073756261737461206e6f206573746120616374697661000000000000005f82015250565b5f6122376019836121f3565b915061224282612203565b602082019050919050565b5f6020820190508181035f8301526122648161222b565b9050919050565b7f4c612073756261737461207961206861207369646f20636f6d706c65746164615f8201527f2e00000000000000000000000000000000000000000000000000000000000000602082015250565b5f6122c56021836121f3565b91506122d08261226b565b604082019050919050565b5f6020820190508181035f8301526122f2816122b9565b9050919050565b7f4e6f20686179206f66657274617320616e746572696f726573207061726120725f8201527f6574697261722e00000000000000000000000000000000000000000000000000602082015250565b5f6123536027836121f3565b915061235e826122f9565b604082019050919050565b5f6020820190508181035f83015261238081612347565b9050919050565b7f4e487b71000000000000000000000000000000000000000000000000000000005f52601160045260245ffd5b5f6123be82611d91565b91506123c983611d91565b92508282039050818111156123e1576123e0612387565b5b92915050565b7f4e487b71000000000000000000000000000000000000000000000000000000005f52603260045260245ffd5b5f61241e82611d91565b915061242983611d91565b925082820190508082111561244157612440612387565b5b92915050565b7f4e6f206861792073616c646f2061646963696f6e616c2070617261207265656d5f8201527f626f6c7361722e00000000000000000000000000000000000000000000000000602082015250565b5f6124a16027836121f3565b91506124ac82612447565b604082019050919050565b5f6020820190508181035f8301526124ce81612495565b9050919050565b5f6124df82611d91565b91506124ea83611d91565b92508282026124f881611d91565b9150828204841483151761250f5761250e612387565b5b5092915050565b7f4e487b71000000000000000000000000000000000000000000000000000000005f52601260045260245ffd5b5f61254d82611d91565b915061255883611d91565b92508261256857612567612516565b5b828204905092915050565b5f81905092915050565b50565b5f61258b5f83612573565b91506125968261257d565b5f82019050919050565b5f6125aa82612580565b9150819050919050565b7f46616c6c6f20616c207265616c697a617220656c207265656d626f6c736f20705f8201527f61726369616c2e00000000000000000000000000000000000000000000000000602082015250565b5f61260e6027836121f3565b9150612619826125b4565b604082019050919050565b5f6020820190508181035f83015261263b81612602565b9050919050565b7f536f6c6f20656c2070726f706965746172696f20707565646520656a656375745f8201527f617220657374612066756e63696f6e0000000000000000000000000000000000602082015250565b5f61269c602f836121f3565b91506126a782612642565b604082019050919050565b5f6020820190508181035f8301526126c981612690565b9050919050565b7f4c6f73206465706f7369746f73206e6f2068616e207369646f207265656d626f5f8201527f6c7361646f732e00000000000000000000000000000000000000000000000000602082015250565b5f61272a6027836121f3565b9150612735826126d0565b604082019050919050565b5f6020820190508181035f8301526127578161271e565b9050919050565b7f46616c6c6f20616c2072657469726172206c61206f66657274612067616e61645f8201527f6f72612e00000000000000000000000000000000000000000000000000000000602082015250565b5f6127b86024836121f3565b91506127c38261275e565b604082019050919050565b5f6020820190508181035f8301526127e5816127ac565b9050919050565b5f8115159050919050565b612800816127ec565b82525050565b5f6020820190506128195f8301846127f7565b92915050565b7f4c612073756261737461206e6f206861207465726d696e61646f0000000000005f82015250565b5f612853601a836121f3565b915061285e8261281f565b602082019050919050565b5f6020820190508181035f83015261288081612847565b9050919050565b7f4c6120737562617374612061756e206e6f206861207465726d696e61646f2e005f82015250565b5f6128bb601f836121f3565b91506128c682612887565b602082019050919050565b5f6020820190508181035f8301526128e8816128af565b9050919050565b7f46616c6c6f20616c206465766f6c766572206c6f73206465706f7369746f732e5f82015250565b5f6129236020836121f3565b915061292e826128ef565b602082019050919050565b5f6020820190508181035f83015261295081612917565b9050919050565b7f4e487b71000000000000000000000000000000000000000000000000000000005f52604160045260245ffd5b7f46616c6c6f20616c2072657469726172206c617320636f6d6973696f6e65732e5f82015250565b5f6129b86020836121f3565b91506129c382612984565b602082019050919050565b5f6020820190508181035f8301526129e5816129ac565b9050919050565b7f4c61206f666572746120646562652073657220616c206d656e6f7320756e20355f8201527f25206d61796f7220717565206c61206f66657274612067616e61646f72612e00602082015250565b5f612a46603f836121f3565b9150612a51826129ec565b604082019050919050565b5f6020820190508181035f830152612a7381612a3a565b9050919050565b7f4c6120737562617374612068612066696e616c697a61646f2e000000000000005f82015250565b5f612aae6019836121f3565b9150612ab982612a7a565b602082019050919050565b5f6020820190508181035f830152612adb81612aa2565b9050919050565b7f4c612073756261737461207961206861207369646f2066696e616c697a6164615f8201527f2e00000000000000000000000000000000000000000000000000000000000000602082015250565b5f612b3c6021836121f3565b9150612b4782612ae2565b604082019050919050565b5f6020820190508181035f830152612b6981612b30565b905091905056fea264697066735822122051536631e9046e8d28894ce7706d0e620c3608dec6ae6081bd2043028bd6757664736f6c634300081a0033",
					"opcodes": "PUSH1 0x80 PUSH1 0x40 MSTORE CALLVALUE DUP1 ISZERO PUSH2 0xF JUMPI PUSH0 DUP1 REVERT JUMPDEST POP PUSH1 0x40 MLOAD PUSH2 0x2E45 CODESIZE SUB DUP1 PUSH2 0x2E45 DUP4 CODECOPY DUP2 DUP2 ADD PUSH1 0x40 MSTORE DUP2 ADD SWAP1 PUSH2 0x31 SWAP2 SWAP1 PUSH2 0x13C JUMP JUMPDEST PUSH2 0x4B0 DUP2 LT ISZERO DUP1 ISZERO PUSH2 0x46 JUMPI POP PUSH3 0x93A80 DUP2 GT ISZERO JUMPDEST PUSH2 0x85 JUMPI PUSH1 0x40 MLOAD PUSH32 0x8C379A000000000000000000000000000000000000000000000000000000000 DUP2 MSTORE PUSH1 0x4 ADD PUSH2 0x7C SWAP1 PUSH2 0x1E7 JUMP JUMPDEST PUSH1 0x40 MLOAD DUP1 SWAP2 SUB SWAP1 REVERT JUMPDEST DUP1 TIMESTAMP PUSH2 0x91 SWAP2 SWAP1 PUSH2 0x232 JUMP JUMPDEST PUSH1 0x1 DUP2 SWAP1 SSTORE POP PUSH0 DUP1 PUSH0 PUSH2 0x100 EXP DUP2 SLOAD DUP2 PUSH1 0xFF MUL NOT AND SWAP1 DUP4 PUSH1 0x3 DUP2 GT ISZERO PUSH2 0xBA JUMPI PUSH2 0xB9 PUSH2 0x265 JUMP JUMPDEST JUMPDEST MUL OR SWAP1 SSTORE POP CALLER PUSH1 0x5 PUSH0 PUSH2 0x100 EXP DUP2 SLOAD DUP2 PUSH20 0xFFFFFFFFFFFFFFFFFFFFFFFFFFFFFFFFFFFFFFFF MUL NOT AND SWAP1 DUP4 PUSH20 0xFFFFFFFFFFFFFFFFFFFFFFFFFFFFFFFFFFFFFFFF AND MUL OR SWAP1 SSTORE POP POP PUSH2 0x292 JUMP JUMPDEST PUSH0 DUP1 REVERT JUMPDEST PUSH0 DUP2 SWAP1 POP SWAP2 SWAP1 POP JUMP JUMPDEST PUSH2 0x11B DUP2 PUSH2 0x109 JUMP JUMPDEST DUP2 EQ PUSH2 0x125 JUMPI PUSH0 DUP1 REVERT JUMPDEST POP JUMP JUMPDEST PUSH0 DUP2 MLOAD SWAP1 POP PUSH2 0x136 DUP2 PUSH2 0x112 JUMP JUMPDEST SWAP3 SWAP2 POP POP JUMP JUMPDEST PUSH0 PUSH1 0x20 DUP3 DUP5 SUB SLT ISZERO PUSH2 0x151 JUMPI PUSH2 0x150 PUSH2 0x105 JUMP JUMPDEST JUMPDEST PUSH0 PUSH2 0x15E DUP5 DUP3 DUP6 ADD PUSH2 0x128 JUMP JUMPDEST SWAP2 POP POP SWAP3 SWAP2 POP POP JUMP JUMPDEST PUSH0 DUP3 DUP3 MSTORE PUSH1 0x20 DUP3 ADD SWAP1 POP SWAP3 SWAP2 POP POP JUMP JUMPDEST PUSH32 0x4C61206475726163696F6E20646562652073657220656E747265203230206D69 PUSH0 DUP3 ADD MSTORE PUSH32 0x6E75746F732079203720646961732E0000000000000000000000000000000000 PUSH1 0x20 DUP3 ADD MSTORE POP JUMP JUMPDEST PUSH0 PUSH2 0x1D1 PUSH1 0x2F DUP4 PUSH2 0x167 JUMP JUMPDEST SWAP2 POP PUSH2 0x1DC DUP3 PUSH2 0x177 JUMP JUMPDEST PUSH1 0x40 DUP3 ADD SWAP1 POP SWAP2 SWAP1 POP JUMP JUMPDEST PUSH0 PUSH1 0x20 DUP3 ADD SWAP1 POP DUP2 DUP2 SUB PUSH0 DUP4 ADD MSTORE PUSH2 0x1FE DUP2 PUSH2 0x1C5 JUMP JUMPDEST SWAP1 POP SWAP2 SWAP1 POP JUMP JUMPDEST PUSH32 0x4E487B7100000000000000000000000000000000000000000000000000000000 PUSH0 MSTORE PUSH1 0x11 PUSH1 0x4 MSTORE PUSH1 0x24 PUSH0 REVERT JUMPDEST PUSH0 PUSH2 0x23C DUP3 PUSH2 0x109 JUMP JUMPDEST SWAP2 POP PUSH2 0x247 DUP4 PUSH2 0x109 JUMP JUMPDEST SWAP3 POP DUP3 DUP3 ADD SWAP1 POP DUP1 DUP3 GT ISZERO PUSH2 0x25F JUMPI PUSH2 0x25E PUSH2 0x205 JUMP JUMPDEST JUMPDEST SWAP3 SWAP2 POP POP JUMP JUMPDEST PUSH32 0x4E487B7100000000000000000000000000000000000000000000000000000000 PUSH0 MSTORE PUSH1 0x21 PUSH1 0x4 MSTORE PUSH1 0x24 PUSH0 REVERT JUMPDEST PUSH2 0x2BA6 DUP1 PUSH2 0x29F PUSH0 CODECOPY PUSH0 RETURN INVALID PUSH1 0x80 PUSH1 0x40 MSTORE PUSH1 0x4 CALLDATASIZE LT PUSH2 0x113 JUMPI PUSH0 CALLDATALOAD PUSH1 0xE0 SHR DUP1 PUSH4 0x8DA5CB5B GT PUSH2 0x9F JUMPI DUP1 PUSH4 0xD57BDE79 GT PUSH2 0x63 JUMPI DUP1 PUSH4 0xD57BDE79 EQ PUSH2 0x383 JUMPI DUP1 PUSH4 0xE34D1E69 EQ PUSH2 0x3AD JUMPI DUP1 PUSH4 0xEBA7BB9D EQ PUSH2 0x3C3 JUMPI DUP1 PUSH4 0xECFC7ECC EQ PUSH2 0x3ED JUMPI DUP1 PUSH4 0xFE67A54B EQ PUSH2 0x3F7 JUMPI PUSH2 0x113 JUMP JUMPDEST DUP1 PUSH4 0x8DA5CB5B EQ PUSH2 0x28C JUMPI DUP1 PUSH4 0x91F90157 EQ PUSH2 0x2B6 JUMPI DUP1 PUSH4 0x92BFF767 EQ PUSH2 0x2E0 JUMPI DUP1 PUSH4 0xBE35460B EQ PUSH2 0x30B JUMPI DUP1 PUSH4 0xCFF29DFD EQ PUSH2 0x347 JUMPI PUSH2 0x113 JUMP JUMPDEST DUP1 PUSH4 0x4B449CBA GT PUSH2 0xE6 JUMPI DUP1 PUSH4 0x4B449CBA EQ PUSH2 0x1A9 JUMPI DUP1 PUSH4 0x62C71635 EQ PUSH2 0x1D3 JUMPI DUP1 PUSH4 0x7CF2ED22 EQ PUSH2 0x20F JUMPI DUP1 PUSH4 0x7D615E65 EQ PUSH2 0x225 JUMPI DUP1 PUSH4 0x7FB45099 EQ PUSH2 0x262 JUMPI PUSH2 0x113 JUMP JUMPDEST DUP1 PUSH4 0x1CE2BCF5 EQ PUSH2 0x117 JUMPI DUP1 PUSH4 0x25ABD4C7 EQ PUSH2 0x12D JUMPI DUP1 PUSH4 0x2F49E964 EQ PUSH2 0x169 JUMPI DUP1 PUSH4 0x47343711 EQ PUSH2 0x17F JUMPI JUMPDEST PUSH0 DUP1 REVERT JUMPDEST CALLVALUE DUP1 ISZERO PUSH2 0x122 JUMPI PUSH0 DUP1 REVERT JUMPDEST POP PUSH2 0x12B PUSH2 0x40D JUMP JUMPDEST STOP JUMPDEST CALLVALUE DUP1 ISZERO PUSH2 0x138 JUMPI PUSH0 DUP1 REVERT JUMPDEST POP PUSH2 0x153 PUSH1 0x4 DUP1 CALLDATASIZE SUB DUP2 ADD SWAP1 PUSH2 0x14E SWAP2 SWAP1 PUSH2 0x1DC4 JUMP JUMPDEST PUSH2 0x859 JUMP JUMPDEST PUSH1 0x40 MLOAD PUSH2 0x160 SWAP2 SWAP1 PUSH2 0x1E11 JUMP JUMPDEST PUSH1 0x40 MLOAD DUP1 SWAP2 SUB SWAP1 RETURN JUMPDEST CALLVALUE DUP1 ISZERO PUSH2 0x174 JUMPI PUSH0 DUP1 REVERT JUMPDEST POP PUSH2 0x17D PUSH2 0x884 JUMP JUMPDEST STOP JUMPDEST CALLVALUE DUP1 ISZERO PUSH2 0x18A JUMPI PUSH0 DUP1 REVERT JUMPDEST POP PUSH2 0x193 PUSH2 0xC38 JUMP JUMPDEST PUSH1 0x40 MLOAD PUSH2 0x1A0 SWAP2 SWAP1 PUSH2 0x1F1D JUMP JUMPDEST PUSH1 0x40 MLOAD DUP1 SWAP2 SUB SWAP1 RETURN JUMPDEST CALLVALUE DUP1 ISZERO PUSH2 0x1B4 JUMPI PUSH0 DUP1 REVERT JUMPDEST POP PUSH2 0x1BD PUSH2 0xCF2 JUMP JUMPDEST PUSH1 0x40 MLOAD PUSH2 0x1CA SWAP2 SWAP1 PUSH2 0x1E11 JUMP JUMPDEST PUSH1 0x40 MLOAD DUP1 SWAP2 SUB SWAP1 RETURN JUMPDEST CALLVALUE DUP1 ISZERO PUSH2 0x1DE JUMPI PUSH0 DUP1 REVERT JUMPDEST POP PUSH2 0x1F9 PUSH1 0x4 DUP1 CALLDATASIZE SUB DUP2 ADD SWAP1 PUSH2 0x1F4 SWAP2 SWAP1 PUSH2 0x1F3D JUMP JUMPDEST PUSH2 0xCF8 JUMP JUMPDEST PUSH1 0x40 MLOAD PUSH2 0x206 SWAP2 SWAP1 PUSH2 0x1E11 JUMP JUMPDEST PUSH1 0x40 MLOAD DUP1 SWAP2 SUB SWAP1 RETURN JUMPDEST CALLVALUE DUP1 ISZERO PUSH2 0x21A JUMPI PUSH0 DUP1 REVERT JUMPDEST POP PUSH2 0x223 PUSH2 0xD0D JUMP JUMPDEST STOP JUMPDEST CALLVALUE DUP1 ISZERO PUSH2 0x230 JUMPI PUSH0 DUP1 REVERT JUMPDEST POP PUSH2 0x24B PUSH1 0x4 DUP1 CALLDATASIZE SUB DUP2 ADD SWAP1 PUSH2 0x246 SWAP2 SWAP1 PUSH2 0x1F68 JUMP JUMPDEST PUSH2 0x1127 JUMP JUMPDEST PUSH1 0x40 MLOAD PUSH2 0x259 SWAP3 SWAP2 SWAP1 PUSH2 0x1FA2 JUMP JUMPDEST PUSH1 0x40 MLOAD DUP1 SWAP2 SUB SWAP1 RETURN JUMPDEST CALLVALUE DUP1 ISZERO PUSH2 0x26D JUMPI PUSH0 DUP1 REVERT JUMPDEST POP PUSH2 0x276 PUSH2 0x1175 JUMP JUMPDEST PUSH1 0x40 MLOAD PUSH2 0x283 SWAP2 SWAP1 PUSH2 0x203C JUMP JUMPDEST PUSH1 0x40 MLOAD DUP1 SWAP2 SUB SWAP1 RETURN JUMPDEST CALLVALUE DUP1 ISZERO PUSH2 0x297 JUMPI PUSH0 DUP1 REVERT JUMPDEST POP PUSH2 0x2A0 PUSH2 0x1185 JUMP JUMPDEST PUSH1 0x40 MLOAD PUSH2 0x2AD SWAP2 SWAP1 PUSH2 0x2055 JUMP JUMPDEST PUSH1 0x40 MLOAD DUP1 SWAP2 SUB SWAP1 RETURN JUMPDEST CALLVALUE DUP1 ISZERO PUSH2 0x2C1 JUMPI PUSH0 DUP1 REVERT JUMPDEST POP PUSH2 0x2CA PUSH2 0x11AA JUMP JUMPDEST PUSH1 0x40 MLOAD PUSH2 0x2D7 SWAP2 SWAP1 PUSH2 0x2055 JUMP JUMPDEST PUSH1 0x40 MLOAD DUP1 SWAP2 SUB SWAP1 RETURN JUMPDEST CALLVALUE DUP1 ISZERO PUSH2 0x2EB JUMPI PUSH0 DUP1 REVERT JUMPDEST POP PUSH2 0x2F4 PUSH2 0x11CF JUMP JUMPDEST PUSH1 0x40 MLOAD PUSH2 0x302 SWAP3 SWAP2 SWAP1 PUSH2 0x21BE JUMP JUMPDEST PUSH1 0x40 MLOAD DUP1 SWAP2 SUB SWAP1 RETURN JUMPDEST CALLVALUE DUP1 ISZERO PUSH2 0x316 JUMPI PUSH0 DUP1 REVERT JUMPDEST POP PUSH2 0x331 PUSH1 0x4 DUP1 CALLDATASIZE SUB DUP2 ADD SWAP1 PUSH2 0x32C SWAP2 SWAP1 PUSH2 0x1F3D JUMP JUMPDEST PUSH2 0x1383 JUMP JUMPDEST PUSH1 0x40 MLOAD PUSH2 0x33E SWAP2 SWAP1 PUSH2 0x1E11 JUMP JUMPDEST PUSH1 0x40 MLOAD DUP1 SWAP2 SUB SWAP1 RETURN JUMPDEST CALLVALUE DUP1 ISZERO PUSH2 0x352 JUMPI PUSH0 DUP1 REVERT JUMPDEST POP PUSH2 0x36D PUSH1 0x4 DUP1 CALLDATASIZE SUB DUP2 ADD SWAP1 PUSH2 0x368 SWAP2 SWAP1 PUSH2 0x1F68 JUMP JUMPDEST PUSH2 0x1398 JUMP JUMPDEST PUSH1 0x40 MLOAD PUSH2 0x37A SWAP2 SWAP1 PUSH2 0x2055 JUMP JUMPDEST PUSH1 0x40 MLOAD DUP1 SWAP2 SUB SWAP1 RETURN JUMPDEST CALLVALUE DUP1 ISZERO PUSH2 0x38E JUMPI PUSH0 DUP1 REVERT JUMPDEST POP PUSH2 0x397 PUSH2 0x13D3 JUMP JUMPDEST PUSH1 0x40 MLOAD PUSH2 0x3A4 SWAP2 SWAP1 PUSH2 0x1E11 JUMP JUMPDEST PUSH1 0x40 MLOAD DUP1 SWAP2 SUB SWAP1 RETURN JUMPDEST CALLVALUE DUP1 ISZERO PUSH2 0x3B8 JUMPI PUSH0 DUP1 REVERT JUMPDEST POP PUSH2 0x3C1 PUSH2 0x13D9 JUMP JUMPDEST STOP JUMPDEST CALLVALUE DUP1 ISZERO PUSH2 0x3CE JUMPI PUSH0 DUP1 REVERT JUMPDEST POP PUSH2 0x3D7 PUSH2 0x16D1 JUMP JUMPDEST PUSH1 0x40 MLOAD PUSH2 0x3E4 SWAP2 SWAP1 PUSH2 0x1E11 JUMP JUMPDEST PUSH1 0x40 MLOAD DUP1 SWAP2 SUB SWAP1 RETURN JUMPDEST PUSH2 0x3F5 PUSH2 0x16D7 JUMP JUMPDEST STOP JUMPDEST CALLVALUE DUP1 ISZERO PUSH2 0x402 JUMPI PUSH0 DUP1 REVERT JUMPDEST POP PUSH2 0x40B PUSH2 0x1B0C JUMP JUMPDEST STOP JUMPDEST PUSH0 PUSH1 0x3 DUP2 GT ISZERO PUSH2 0x420 JUMPI PUSH2 0x41F PUSH2 0x1FC9 JUMP JUMPDEST JUMPDEST PUSH0 DUP1 SLOAD SWAP1 PUSH2 0x100 EXP SWAP1 DIV PUSH1 0xFF AND PUSH1 0x3 DUP2 GT ISZERO PUSH2 0x43F JUMPI PUSH2 0x43E PUSH2 0x1FC9 JUMP JUMPDEST JUMPDEST EQ PUSH2 0x47F JUMPI PUSH1 0x40 MLOAD PUSH32 0x8C379A000000000000000000000000000000000000000000000000000000000 DUP2 MSTORE PUSH1 0x4 ADD PUSH2 0x476 SWAP1 PUSH2 0x224D JUMP JUMPDEST PUSH1 0x40 MLOAD DUP1 SWAP2 SUB SWAP1 REVERT JUMPDEST PUSH1 0x3 DUP1 DUP2 GT ISZERO PUSH2 0x492 JUMPI PUSH2 0x491 PUSH2 0x1FC9 JUMP JUMPDEST JUMPDEST PUSH0 DUP1 SLOAD SWAP1 PUSH2 0x100 EXP SWAP1 DIV PUSH1 0xFF AND PUSH1 0x3 DUP2 GT ISZERO PUSH2 0x4B1 JUMPI PUSH2 0x4B0 PUSH2 0x1FC9 JUMP JUMPDEST JUMPDEST SUB PUSH2 0x4F1 JUMPI PUSH1 0x40 MLOAD PUSH32 0x8C379A000000000000000000000000000000000000000000000000000000000 DUP2 MSTORE PUSH1 0x4 ADD PUSH2 0x4E8 SWAP1 PUSH2 0x22DB JUMP JUMPDEST PUSH1 0x40 MLOAD DUP1 SWAP2 SUB SWAP1 REVERT JUMPDEST PUSH0 DUP1 PUSH1 0x6 PUSH0 CALLER PUSH20 0xFFFFFFFFFFFFFFFFFFFFFFFFFFFFFFFFFFFFFFFF AND PUSH20 0xFFFFFFFFFFFFFFFFFFFFFFFFFFFFFFFFFFFFFFFF AND DUP2 MSTORE PUSH1 0x20 ADD SWAP1 DUP2 MSTORE PUSH1 0x20 ADD PUSH0 KECCAK256 SWAP1 POP PUSH1 0x1 DUP2 DUP1 SLOAD SWAP1 POP GT PUSH2 0x579 JUMPI PUSH1 0x40 MLOAD PUSH32 0x8C379A000000000000000000000000000000000000000000000000000000000 DUP2 MSTORE PUSH1 0x4 ADD PUSH2 0x570 SWAP1 PUSH2 0x2369 JUMP JUMPDEST PUSH1 0x40 MLOAD DUP1 SWAP2 SUB SWAP1 REVERT JUMPDEST PUSH0 JUMPDEST PUSH1 0x1 DUP3 DUP1 SLOAD SWAP1 POP PUSH2 0x58C SWAP2 SWAP1 PUSH2 0x23B4 JUMP JUMPDEST DUP2 LT ISZERO PUSH2 0x5C9 JUMPI DUP2 DUP2 DUP2 SLOAD DUP2 LT PUSH2 0x5A6 JUMPI PUSH2 0x5A5 PUSH2 0x23E7 JUMP JUMPDEST JUMPDEST SWAP1 PUSH0 MSTORE PUSH1 0x20 PUSH0 KECCAK256 ADD SLOAD DUP4 PUSH2 0x5BA SWAP2 SWAP1 PUSH2 0x2414 JUMP JUMPDEST SWAP3 POP DUP1 DUP1 PUSH1 0x1 ADD SWAP2 POP POP PUSH2 0x57B JUMP JUMPDEST POP PUSH0 PUSH1 0x8 PUSH0 CALLER PUSH20 0xFFFFFFFFFFFFFFFFFFFFFFFFFFFFFFFFFFFFFFFF AND PUSH20 0xFFFFFFFFFFFFFFFFFFFFFFFFFFFFFFFFFFFFFFFF AND DUP2 MSTORE PUSH1 0x20 ADD SWAP1 DUP2 MSTORE PUSH1 0x20 ADD PUSH0 KECCAK256 SLOAD DUP4 PUSH2 0x614 SWAP2 SWAP1 PUSH2 0x23B4 JUMP JUMPDEST SWAP1 POP PUSH0 DUP2 GT PUSH2 0x658 JUMPI PUSH1 0x40 MLOAD PUSH32 0x8C379A000000000000000000000000000000000000000000000000000000000 DUP2 MSTORE PUSH1 0x4 ADD PUSH2 0x64F SWAP1 PUSH2 0x24B7 JUMP JUMPDEST PUSH1 0x40 MLOAD DUP1 SWAP2 SUB SWAP1 REVERT JUMPDEST DUP1 PUSH1 0x8 PUSH0 CALLER PUSH20 0xFFFFFFFFFFFFFFFFFFFFFFFFFFFFFFFFFFFFFFFF AND PUSH20 0xFFFFFFFFFFFFFFFFFFFFFFFFFFFFFFFFFFFFFFFF AND DUP2 MSTORE PUSH1 0x20 ADD SWAP1 DUP2 MSTORE PUSH1 0x20 ADD PUSH0 KECCAK256 PUSH0 DUP3 DUP3 SLOAD PUSH2 0x6A4 SWAP2 SWAP1 PUSH2 0x2414 JUMP JUMPDEST SWAP3 POP POP DUP2 SWAP1 SSTORE POP PUSH0 PUSH1 0x64 PUSH1 0x2 DUP4 PUSH2 0x6BB SWAP2 SWAP1 PUSH2 0x24D5 JUMP JUMPDEST PUSH2 0x6C5 SWAP2 SWAP1 PUSH2 0x2543 JUMP JUMPDEST SWAP1 POP PUSH0 DUP2 DUP4 PUSH2 0x6D4 SWAP2 SWAP1 PUSH2 0x23B4 JUMP JUMPDEST SWAP1 POP DUP4 PUSH1 0x1 DUP6 DUP1 SLOAD SWAP1 POP PUSH2 0x6E8 SWAP2 SWAP1 PUSH2 0x23B4 JUMP JUMPDEST DUP2 SLOAD DUP2 LT PUSH2 0x6F9 JUMPI PUSH2 0x6F8 PUSH2 0x23E7 JUMP JUMPDEST JUMPDEST SWAP1 PUSH0 MSTORE PUSH1 0x20 PUSH0 KECCAK256 ADD SLOAD PUSH1 0x7 PUSH0 CALLER PUSH20 0xFFFFFFFFFFFFFFFFFFFFFFFFFFFFFFFFFFFFFFFF AND PUSH20 0xFFFFFFFFFFFFFFFFFFFFFFFFFFFFFFFFFFFFFFFF AND DUP2 MSTORE PUSH1 0x20 ADD SWAP1 DUP2 MSTORE PUSH1 0x20 ADD PUSH0 KECCAK256 DUP2 SWAP1 SSTORE POP DUP2 PUSH1 0x2 PUSH0 DUP3 DUP3 SLOAD PUSH2 0x754 SWAP2 SWAP1 PUSH2 0x2414 JUMP JUMPDEST SWAP3 POP POP DUP2 SWAP1 SSTORE POP PUSH0 CALLER PUSH20 0xFFFFFFFFFFFFFFFFFFFFFFFFFFFFFFFFFFFFFFFF AND DUP3 PUSH1 0x40 MLOAD PUSH2 0x780 SWAP1 PUSH2 0x25A0 JUMP JUMPDEST PUSH0 PUSH1 0x40 MLOAD DUP1 DUP4 SUB DUP2 DUP6 DUP8 GAS CALL SWAP3 POP POP POP RETURNDATASIZE DUP1 PUSH0 DUP2 EQ PUSH2 0x7BA JUMPI PUSH1 0x40 MLOAD SWAP2 POP PUSH1 0x1F NOT PUSH1 0x3F RETURNDATASIZE ADD AND DUP3 ADD PUSH1 0x40 MSTORE RETURNDATASIZE DUP3 MSTORE RETURNDATASIZE PUSH0 PUSH1 0x20 DUP5 ADD RETURNDATACOPY PUSH2 0x7BF JUMP JUMPDEST PUSH1 0x60 SWAP2 POP JUMPDEST POP POP SWAP1 POP DUP1 PUSH2 0x803 JUMPI PUSH1 0x40 MLOAD PUSH32 0x8C379A000000000000000000000000000000000000000000000000000000000 DUP2 MSTORE PUSH1 0x4 ADD PUSH2 0x7FA SWAP1 PUSH2 0x2624 JUMP JUMPDEST PUSH1 0x40 MLOAD DUP1 SWAP2 SUB SWAP1 REVERT JUMPDEST CALLER PUSH20 0xFFFFFFFFFFFFFFFFFFFFFFFFFFFFFFFFFFFFFFFF AND PUSH32 0xDCE68997783AE47468B6FB0DD39CCA315F9082D51D9AB3DF8747C70512AA8FF2 DUP4 PUSH1 0x40 MLOAD PUSH2 0x849 SWAP2 SWAP1 PUSH2 0x1E11 JUMP JUMPDEST PUSH1 0x40 MLOAD DUP1 SWAP2 SUB SWAP1 LOG2 POP POP POP POP POP POP JUMP JUMPDEST PUSH1 0x6 PUSH1 0x20 MSTORE DUP2 PUSH0 MSTORE PUSH1 0x40 PUSH0 KECCAK256 DUP2 DUP2 SLOAD DUP2 LT PUSH2 0x872 JUMPI PUSH0 DUP1 REVERT JUMPDEST SWAP1 PUSH0 MSTORE PUSH1 0x20 PUSH0 KECCAK256 ADD PUSH0 SWAP2 POP SWAP2 POP POP SLOAD DUP2 JUMP JUMPDEST PUSH1 0x5 PUSH0 SWAP1 SLOAD SWAP1 PUSH2 0x100 EXP SWAP1 DIV PUSH20 0xFFFFFFFFFFFFFFFFFFFFFFFFFFFFFFFFFFFFFFFF AND PUSH20 0xFFFFFFFFFFFFFFFFFFFFFFFFFFFFFFFFFFFFFFFF AND CALLER PUSH20 0xFFFFFFFFFFFFFFFFFFFFFFFFFFFFFFFFFFFFFFFF AND EQ PUSH2 0x913 JUMPI PUSH1 0x40 MLOAD PUSH32 0x8C379A000000000000000000000000000000000000000000000000000000000 DUP2 MSTORE PUSH1 0x4 ADD PUSH2 0x90A SWAP1 PUSH2 0x26B2 JUMP JUMPDEST PUSH1 0x40 MLOAD DUP1 SWAP2 SUB SWAP1 REVERT JUMPDEST PUSH1 0x2 PUSH1 0x3 DUP2 GT ISZERO PUSH2 0x927 JUMPI PUSH2 0x926 PUSH2 0x1FC9 JUMP JUMPDEST JUMPDEST PUSH0 DUP1 SLOAD SWAP1 PUSH2 0x100 EXP SWAP1 DIV PUSH1 0xFF AND PUSH1 0x3 DUP2 GT ISZERO PUSH2 0x946 JUMPI PUSH2 0x945 PUSH2 0x1FC9 JUMP JUMPDEST JUMPDEST EQ PUSH2 0x986 JUMPI PUSH1 0x40 MLOAD PUSH32 0x8C379A000000000000000000000000000000000000000000000000000000000 DUP2 MSTORE PUSH1 0x4 ADD PUSH2 0x97D SWAP1 PUSH2 0x2740 JUMP JUMPDEST PUSH1 0x40 MLOAD DUP1 SWAP2 SUB SWAP1 REVERT JUMPDEST PUSH1 0x3 DUP1 DUP2 GT ISZERO PUSH2 0x999 JUMPI PUSH2 0x998 PUSH2 0x1FC9 JUMP JUMPDEST JUMPDEST PUSH0 DUP1 SLOAD SWAP1 PUSH2 0x100 EXP SWAP1 DIV PUSH1 0xFF AND PUSH1 0x3 DUP2 GT ISZERO PUSH2 0x9B8 JUMPI PUSH2 0x9B7 PUSH2 0x1FC9 JUMP JUMPDEST JUMPDEST SUB PUSH2 0x9F8 JUMPI PUSH1 0x40 MLOAD PUSH32 0x8C379A000000000000000000000000000000000000000000000000000000000 DUP2 MSTORE PUSH1 0x4 ADD PUSH2 0x9EF SWAP1 PUSH2 0x22DB JUMP JUMPDEST PUSH1 0x40 MLOAD DUP1 SWAP2 SUB SWAP1 REVERT JUMPDEST PUSH1 0x2 PUSH1 0x3 DUP2 GT ISZERO PUSH2 0xA0C JUMPI PUSH2 0xA0B PUSH2 0x1FC9 JUMP JUMPDEST JUMPDEST PUSH0 DUP1 SLOAD SWAP1 PUSH2 0x100 EXP SWAP1 DIV PUSH1 0xFF AND PUSH1 0x3 DUP2 GT ISZERO PUSH2 0xA2B JUMPI PUSH2 0xA2A PUSH2 0x1FC9 JUMP JUMPDEST JUMPDEST EQ PUSH2 0xA6B JUMPI PUSH1 0x40 MLOAD PUSH32 0x8C379A000000000000000000000000000000000000000000000000000000000 DUP2 MSTORE PUSH1 0x4 ADD PUSH2 0xA62 SWAP1 PUSH2 0x2740 JUMP JUMPDEST PUSH1 0x40 MLOAD DUP1 SWAP2 SUB SWAP1 REVERT JUMPDEST PUSH0 PUSH1 0x3 SLOAD SWAP1 POP PUSH1 0x3 PUSH0 DUP1 PUSH2 0x100 EXP DUP2 SLOAD DUP2 PUSH1 0xFF MUL NOT AND SWAP1 DUP4 PUSH1 0x3 DUP2 GT ISZERO PUSH2 0xA95 JUMPI PUSH2 0xA94 PUSH2 0x1FC9 JUMP JUMPDEST JUMPDEST MUL OR SWAP1 SSTORE POP PUSH0 PUSH1 0x7 PUSH0 PUSH1 0x4 PUSH0 SWAP1 SLOAD SWAP1 PUSH2 0x100 EXP SWAP1 DIV PUSH20 0xFFFFFFFFFFFFFFFFFFFFFFFFFFFFFFFFFFFFFFFF AND PUSH20 0xFFFFFFFFFFFFFFFFFFFFFFFFFFFFFFFFFFFFFFFF AND PUSH20 0xFFFFFFFFFFFFFFFFFFFFFFFFFFFFFFFFFFFFFFFF AND DUP2 MSTORE PUSH1 0x20 ADD SWAP1 DUP2 MSTORE PUSH1 0x20 ADD PUSH0 KECCAK256 DUP2 SWAP1 SSTORE POP PUSH0 PUSH1 0x5 PUSH0 SWAP1 SLOAD SWAP1 PUSH2 0x100 EXP SWAP1 DIV PUSH20 0xFFFFFFFFFFFFFFFFFFFFFFFFFFFFFFFFFFFFFFFF AND PUSH20 0xFFFFFFFFFFFFFFFFFFFFFFFFFFFFFFFFFFFFFFFF AND DUP3 PUSH1 0x40 MLOAD PUSH2 0xB43 SWAP1 PUSH2 0x25A0 JUMP JUMPDEST PUSH0 PUSH1 0x40 MLOAD DUP1 DUP4 SUB DUP2 DUP6 DUP8 GAS CALL SWAP3 POP POP POP RETURNDATASIZE DUP1 PUSH0 DUP2 EQ PUSH2 0xB7D JUMPI PUSH1 0x40 MLOAD SWAP2 POP PUSH1 0x1F NOT PUSH1 0x3F RETURNDATASIZE ADD AND DUP3 ADD PUSH1 0x40 MSTORE RETURNDATASIZE DUP3 MSTORE RETURNDATASIZE PUSH0 PUSH1 0x20 DUP5 ADD RETURNDATACOPY PUSH2 0xB82 JUMP JUMPDEST PUSH1 0x60 SWAP2 POP JUMPDEST POP POP SWAP1 POP DUP1 PUSH2 0xBC6 JUMPI PUSH1 0x40 MLOAD PUSH32 0x8C379A000000000000000000000000000000000000000000000000000000000 DUP2 MSTORE PUSH1 0x4 ADD PUSH2 0xBBD SWAP1 PUSH2 0x27CE JUMP JUMPDEST PUSH1 0x40 MLOAD DUP1 SWAP2 SUB SWAP1 REVERT JUMPDEST PUSH32 0xDB23C6F1ECD7F6B51F64DE3F6317061F4BB0CB9A23217A658FAC91C6AF46AAAA DUP3 PUSH1 0x40 MLOAD PUSH2 0xBF5 SWAP2 SWAP1 PUSH2 0x1E11 JUMP JUMPDEST PUSH1 0x40 MLOAD DUP1 SWAP2 SUB SWAP1 LOG1 PUSH32 0xD32867DF73BC4C73068741F056B4515DDCE6636A748AB9317E2C69E0FBCB356A DUP2 PUSH1 0x40 MLOAD PUSH2 0xC2C SWAP2 SWAP1 PUSH2 0x2806 JUMP JUMPDEST PUSH1 0x40 MLOAD DUP1 SWAP2 SUB SWAP1 LOG1 POP POP JUMP JUMPDEST PUSH1 0x60 PUSH1 0xA DUP1 SLOAD DUP1 PUSH1 0x20 MUL PUSH1 0x20 ADD PUSH1 0x40 MLOAD SWAP1 DUP2 ADD PUSH1 0x40 MSTORE DUP1 SWAP3 SWAP2 SWAP1 DUP2 DUP2 MSTORE PUSH1 0x20 ADD PUSH0 SWAP1 JUMPDEST DUP3 DUP3 LT ISZERO PUSH2 0xCE9 JUMPI DUP4 DUP3 SWAP1 PUSH0 MSTORE PUSH1 0x20 PUSH0 KECCAK256 SWAP1 PUSH1 0x2 MUL ADD PUSH1 0x40 MLOAD DUP1 PUSH1 0x40 ADD PUSH1 0x40 MSTORE SWAP1 DUP2 PUSH0 DUP3 ADD PUSH0 SWAP1 SLOAD SWAP1 PUSH2 0x100 EXP SWAP1 DIV PUSH20 0xFFFFFFFFFFFFFFFFFFFFFFFFFFFFFFFFFFFFFFFF AND PUSH20 0xFFFFFFFFFFFFFFFFFFFFFFFFFFFFFFFFFFFFFFFF AND PUSH20 0xFFFFFFFFFFFFFFFFFFFFFFFFFFFFFFFFFFFFFFFF AND DUP2 MSTORE PUSH1 0x20 ADD PUSH1 0x1 DUP3 ADD SLOAD DUP2 MSTORE POP POP DUP2 MSTORE PUSH1 0x20 ADD SWAP1 PUSH1 0x1 ADD SWAP1 PUSH2 0xC5B JUMP JUMPDEST POP POP POP POP SWAP1 POP SWAP1 JUMP JUMPDEST PUSH1 0x1 SLOAD DUP2 JUMP JUMPDEST PUSH1 0x7 PUSH1 0x20 MSTORE DUP1 PUSH0 MSTORE PUSH1 0x40 PUSH0 KECCAK256 PUSH0 SWAP2 POP SWAP1 POP SLOAD DUP2 JUMP JUMPDEST PUSH1 0x5 PUSH0 SWAP1 SLOAD SWAP1 PUSH2 0x100 EXP SWAP1 DIV PUSH20 0xFFFFFFFFFFFFFFFFFFFFFFFFFFFFFFFFFFFFFFFF AND PUSH20 0xFFFFFFFFFFFFFFFFFFFFFFFFFFFFFFFFFFFFFFFF AND CALLER PUSH20 0xFFFFFFFFFFFFFFFFFFFFFFFFFFFFFFFFFFFFFFFF AND EQ PUSH2 0xD9C JUMPI PUSH1 0x40 MLOAD PUSH32 0x8C379A000000000000000000000000000000000000000000000000000000000 DUP2 MSTORE PUSH1 0x4 ADD PUSH2 0xD93 SWAP1 PUSH2 0x26B2 JUMP JUMPDEST PUSH1 0x40 MLOAD DUP1 SWAP2 SUB SWAP1 REVERT JUMPDEST PUSH1 0x1 SLOAD TIMESTAMP LT ISZERO PUSH2 0xDE1 JUMPI PUSH1 0x40 MLOAD PUSH32 0x8C379A000000000000000000000000000000000000000000000000000000000 DUP2 MSTORE PUSH1 0x4 ADD PUSH2 0xDD8 SWAP1 PUSH2 0x2869 JUMP JUMPDEST PUSH1 0x40 MLOAD DUP1 SWAP2 SUB SWAP1 REVERT JUMPDEST PUSH1 0x3 DUP1 DUP2 GT ISZERO PUSH2 0xDF4 JUMPI PUSH2 0xDF3 PUSH2 0x1FC9 JUMP JUMPDEST JUMPDEST PUSH0 DUP1 SLOAD SWAP1 PUSH2 0x100 EXP SWAP1 DIV PUSH1 0xFF AND PUSH1 0x3 DUP2 GT ISZERO PUSH2 0xE13 JUMPI PUSH2 0xE12 PUSH2 0x1FC9 JUMP JUMPDEST JUMPDEST SUB PUSH2 0xE53 JUMPI PUSH1 0x40 MLOAD PUSH32 0x8C379A000000000000000000000000000000000000000000000000000000000 DUP2 MSTORE PUSH1 0x4 ADD PUSH2 0xE4A SWAP1 PUSH2 0x22DB JUMP JUMPDEST PUSH1 0x40 MLOAD DUP1 SWAP2 SUB SWAP1 REVERT JUMPDEST PUSH1 0x1 PUSH1 0x3 DUP2 GT ISZERO PUSH2 0xE67 JUMPI PUSH2 0xE66 PUSH2 0x1FC9 JUMP JUMPDEST JUMPDEST PUSH0 DUP1 SLOAD SWAP1 PUSH2 0x100 EXP SWAP1 DIV PUSH1 0xFF AND PUSH1 0x3 DUP2 GT ISZERO PUSH2 0xE86 JUMPI PUSH2 0xE85 PUSH2 0x1FC9 JUMP JUMPDEST JUMPDEST EQ PUSH2 0xEC6 JUMPI PUSH1 0x40 MLOAD PUSH32 0x8C379A000000000000000000000000000000000000000000000000000000000 DUP2 MSTORE PUSH1 0x4 ADD PUSH2 0xEBD SWAP1 PUSH2 0x28D1 JUMP JUMPDEST PUSH1 0x40 MLOAD DUP1 SWAP2 SUB SWAP1 REVERT JUMPDEST PUSH0 JUMPDEST PUSH1 0x9 DUP1 SLOAD SWAP1 POP DUP2 LT ISZERO PUSH2 0x10FB JUMPI PUSH0 PUSH1 0x9 DUP3 DUP2 SLOAD DUP2 LT PUSH2 0xEEA JUMPI PUSH2 0xEE9 PUSH2 0x23E7 JUMP JUMPDEST JUMPDEST SWAP1 PUSH0 MSTORE PUSH1 0x20 PUSH0 KECCAK256 ADD PUSH0 SWAP1 SLOAD SWAP1 PUSH2 0x100 EXP SWAP1 DIV PUSH20 0xFFFFFFFFFFFFFFFFFFFFFFFFFFFFFFFFFFFFFFFF AND SWAP1 POP PUSH1 0x4 PUSH0 SWAP1 SLOAD SWAP1 PUSH2 0x100 EXP SWAP1 DIV PUSH20 0xFFFFFFFFFFFFFFFFFFFFFFFFFFFFFFFFFFFFFFFF AND PUSH20 0xFFFFFFFFFFFFFFFFFFFFFFFFFFFFFFFFFFFFFFFF AND DUP2 PUSH20 0xFFFFFFFFFFFFFFFFFFFFFFFFFFFFFFFFFFFFFFFF AND EQ PUSH2 0x10ED JUMPI PUSH0 PUSH1 0x7 PUSH0 DUP4 PUSH20 0xFFFFFFFFFFFFFFFFFFFFFFFFFFFFFFFFFFFFFFFF AND PUSH20 0xFFFFFFFFFFFFFFFFFFFFFFFFFFFFFFFFFFFFFFFF AND DUP2 MSTORE PUSH1 0x20 ADD SWAP1 DUP2 MSTORE PUSH1 0x20 ADD PUSH0 KECCAK256 SLOAD SWAP1 POP PUSH0 PUSH1 0x7 PUSH0 DUP5 PUSH20 0xFFFFFFFFFFFFFFFFFFFFFFFFFFFFFFFFFFFFFFFF AND PUSH20 0xFFFFFFFFFFFFFFFFFFFFFFFFFFFFFFFFFFFFFFFF AND DUP2 MSTORE PUSH1 0x20 ADD SWAP1 DUP2 MSTORE PUSH1 0x20 ADD PUSH0 KECCAK256 DUP2 SWAP1 SSTORE POP PUSH0 DUP2 GT ISZERO PUSH2 0x10EB JUMPI PUSH0 DUP3 PUSH20 0xFFFFFFFFFFFFFFFFFFFFFFFFFFFFFFFFFFFFFFFF AND DUP3 PUSH1 0x40 MLOAD PUSH2 0x1018 SWAP1 PUSH2 0x25A0 JUMP JUMPDEST PUSH0 PUSH1 0x40 MLOAD DUP1 DUP4 SUB DUP2 DUP6 DUP8 GAS CALL SWAP3 POP POP POP RETURNDATASIZE DUP1 PUSH0 DUP2 EQ PUSH2 0x1052 JUMPI PUSH1 0x40 MLOAD SWAP2 POP PUSH1 0x1F NOT PUSH1 0x3F RETURNDATASIZE ADD AND DUP3 ADD PUSH1 0x40 MSTORE RETURNDATASIZE DUP3 MSTORE RETURNDATASIZE PUSH0 PUSH1 0x20 DUP5 ADD RETURNDATACOPY PUSH2 0x1057 JUMP JUMPDEST PUSH1 0x60 SWAP2 POP JUMPDEST POP POP SWAP1 POP DUP1 PUSH2 0x109B JUMPI PUSH1 0x40 MLOAD PUSH32 0x8C379A000000000000000000000000000000000000000000000000000000000 DUP2 MSTORE PUSH1 0x4 ADD PUSH2 0x1092 SWAP1 PUSH2 0x2939 JUMP JUMPDEST PUSH1 0x40 MLOAD DUP1 SWAP2 SUB SWAP1 REVERT JUMPDEST DUP3 PUSH20 0xFFFFFFFFFFFFFFFFFFFFFFFFFFFFFFFFFFFFFFFF AND PUSH32 0x4482101800A5C2E900F4156E57E05E19FFD7B366CDE579553D723FD3ABB2180E DUP4 PUSH1 0x40 MLOAD PUSH2 0x10E1 SWAP2 SWAP1 PUSH2 0x1E11 JUMP JUMPDEST PUSH1 0x40 MLOAD DUP1 SWAP2 SUB SWAP1 LOG2 POP JUMPDEST POP JUMPDEST POP DUP1 DUP1 PUSH1 0x1 ADD SWAP2 POP POP PUSH2 0xEC8 JUMP JUMPDEST POP PUSH1 0x2 PUSH0 DUP1 PUSH2 0x100 EXP DUP2 SLOAD DUP2 PUSH1 0xFF MUL NOT AND SWAP1 DUP4 PUSH1 0x3 DUP2 GT ISZERO PUSH2 0x1120 JUMPI PUSH2 0x111F PUSH2 0x1FC9 JUMP JUMPDEST JUMPDEST MUL OR SWAP1 SSTORE POP JUMP JUMPDEST PUSH1 0xA DUP2 DUP2 SLOAD DUP2 LT PUSH2 0x1136 JUMPI PUSH0 DUP1 REVERT JUMPDEST SWAP1 PUSH0 MSTORE PUSH1 0x20 PUSH0 KECCAK256 SWAP1 PUSH1 0x2 MUL ADD PUSH0 SWAP2 POP SWAP1 POP DUP1 PUSH0 ADD PUSH0 SWAP1 SLOAD SWAP1 PUSH2 0x100 EXP SWAP1 DIV PUSH20 0xFFFFFFFFFFFFFFFFFFFFFFFFFFFFFFFFFFFFFFFF AND SWAP1 DUP1 PUSH1 0x1 ADD SLOAD SWAP1 POP DUP3 JUMP JUMPDEST PUSH0 DUP1 SLOAD SWAP1 PUSH2 0x100 EXP SWAP1 DIV PUSH1 0xFF AND DUP2 JUMP JUMPDEST PUSH1 0x5 PUSH0 SWAP1 SLOAD SWAP1 PUSH2 0x100 EXP SWAP1 DIV PUSH20 0xFFFFFFFFFFFFFFFFFFFFFFFFFFFFFFFFFFFFFFFF AND DUP2 JUMP JUMPDEST PUSH1 0x4 PUSH0 SWAP1 SLOAD SWAP1 PUSH2 0x100 EXP SWAP1 DIV PUSH20 0xFFFFFFFFFFFFFFFFFFFFFFFFFFFFFFFFFFFFFFFF AND DUP2 JUMP JUMPDEST PUSH1 0x60 DUP1 PUSH0 PUSH1 0x9 DUP1 SLOAD SWAP1 POP SWAP1 POP PUSH0 DUP2 PUSH8 0xFFFFFFFFFFFFFFFF DUP2 GT ISZERO PUSH2 0x11F6 JUMPI PUSH2 0x11F5 PUSH2 0x2957 JUMP JUMPDEST JUMPDEST PUSH1 0x40 MLOAD SWAP1 DUP1 DUP3 MSTORE DUP1 PUSH1 0x20 MUL PUSH1 0x20 ADD DUP3 ADD PUSH1 0x40 MSTORE DUP1 ISZERO PUSH2 0x1224 JUMPI DUP2 PUSH1 0x20 ADD PUSH1 0x20 DUP3 MUL DUP1 CALLDATASIZE DUP4 CALLDATACOPY DUP1 DUP3 ADD SWAP2 POP POP SWAP1 POP JUMPDEST POP SWAP1 POP PUSH0 DUP3 PUSH8 0xFFFFFFFFFFFFFFFF DUP2 GT ISZERO PUSH2 0x1242 JUMPI PUSH2 0x1241 PUSH2 0x2957 JUMP JUMPDEST JUMPDEST PUSH1 0x40 MLOAD SWAP1 DUP1 DUP3 MSTORE DUP1 PUSH1 0x20 MUL PUSH1 0x20 ADD DUP3 ADD PUSH1 0x40 MSTORE DUP1 ISZERO PUSH2 0x1270 JUMPI DUP2 PUSH1 0x20 ADD PUSH1 0x20 DUP3 MUL DUP1 CALLDATASIZE DUP4 CALLDATACOPY DUP1 DUP3 ADD SWAP2 POP POP SWAP1 POP JUMPDEST POP SWAP1 POP PUSH0 JUMPDEST DUP4 DUP2 LT ISZERO PUSH2 0x1375 JUMPI PUSH0 PUSH1 0x9 DUP3 DUP2 SLOAD DUP2 LT PUSH2 0x1292 JUMPI PUSH2 0x1291 PUSH2 0x23E7 JUMP JUMPDEST JUMPDEST SWAP1 PUSH0 MSTORE PUSH1 0x20 PUSH0 KECCAK256 ADD PUSH0 SWAP1 SLOAD SWAP1 PUSH2 0x100 EXP SWAP1 DIV PUSH20 0xFFFFFFFFFFFFFFFFFFFFFFFFFFFFFFFFFFFFFFFF AND SWAP1 POP DUP1 DUP5 DUP4 DUP2 MLOAD DUP2 LT PUSH2 0x12D0 JUMPI PUSH2 0x12CF PUSH2 0x23E7 JUMP JUMPDEST JUMPDEST PUSH1 0x20 MUL PUSH1 0x20 ADD ADD SWAP1 PUSH20 0xFFFFFFFFFFFFFFFFFFFFFFFFFFFFFFFFFFFFFFFF AND SWAP1 DUP2 PUSH20 0xFFFFFFFFFFFFFFFFFFFFFFFFFFFFFFFFFFFFFFFF AND DUP2 MSTORE POP POP PUSH1 0x7 PUSH0 DUP3 PUSH20 0xFFFFFFFFFFFFFFFFFFFFFFFFFFFFFFFFFFFFFFFF AND PUSH20 0xFFFFFFFFFFFFFFFFFFFFFFFFFFFFFFFFFFFFFFFF AND DUP2 MSTORE PUSH1 0x20 ADD SWAP1 DUP2 MSTORE PUSH1 0x20 ADD PUSH0 KECCAK256 SLOAD DUP4 DUP4 DUP2 MLOAD DUP2 LT PUSH2 0x135B JUMPI PUSH2 0x135A PUSH2 0x23E7 JUMP JUMPDEST JUMPDEST PUSH1 0x20 MUL PUSH1 0x20 ADD ADD DUP2 DUP2 MSTORE POP POP POP DUP1 DUP1 PUSH1 0x1 ADD SWAP2 POP POP PUSH2 0x1275 JUMP JUMPDEST POP DUP2 DUP2 SWAP5 POP SWAP5 POP POP POP POP SWAP1 SWAP2 JUMP JUMPDEST PUSH1 0x8 PUSH1 0x20 MSTORE DUP1 PUSH0 MSTORE PUSH1 0x40 PUSH0 KECCAK256 PUSH0 SWAP2 POP SWAP1 POP SLOAD DUP2 JUMP JUMPDEST PUSH1 0x9 DUP2 DUP2 SLOAD DUP2 LT PUSH2 0x13A7 JUMPI PUSH0 DUP1 REVERT JUMPDEST SWAP1 PUSH0 MSTORE PUSH1 0x20 PUSH0 KECCAK256 ADD PUSH0 SWAP2 POP SLOAD SWAP1 PUSH2 0x100 EXP SWAP1 DIV PUSH20 0xFFFFFFFFFFFFFFFFFFFFFFFFFFFFFFFFFFFFFFFF AND DUP2 JUMP JUMPDEST PUSH1 0x3 SLOAD DUP2 JUMP JUMPDEST PUSH1 0x5 PUSH0 SWAP1 SLOAD SWAP1 PUSH2 0x100 EXP SWAP1 DIV PUSH20 0xFFFFFFFFFFFFFFFFFFFFFFFFFFFFFFFFFFFFFFFF AND PUSH20 0xFFFFFFFFFFFFFFFFFFFFFFFFFFFFFFFFFFFFFFFF AND CALLER PUSH20 0xFFFFFFFFFFFFFFFFFFFFFFFFFFFFFFFFFFFFFFFF AND EQ PUSH2 0x1468 JUMPI PUSH1 0x40 MLOAD PUSH32 0x8C379A000000000000000000000000000000000000000000000000000000000 DUP2 MSTORE PUSH1 0x4 ADD PUSH2 0x145F SWAP1 PUSH2 0x26B2 JUMP JUMPDEST PUSH1 0x40 MLOAD DUP1 SWAP2 SUB SWAP1 REVERT JUMPDEST PUSH1 0x2 PUSH1 0x3 DUP2 GT ISZERO PUSH2 0x147C JUMPI PUSH2 0x147B PUSH2 0x1FC9 JUMP JUMPDEST JUMPDEST PUSH0 DUP1 SLOAD SWAP1 PUSH2 0x100 EXP SWAP1 DIV PUSH1 0xFF AND PUSH1 0x3 DUP2 GT ISZERO PUSH2 0x149B JUMPI PUSH2 0x149A PUSH2 0x1FC9 JUMP JUMPDEST JUMPDEST EQ PUSH2 0x14DB JUMPI PUSH1 0x40 MLOAD PUSH32 0x8C379A000000000000000000000000000000000000000000000000000000000 DUP2 MSTORE PUSH1 0x4 ADD PUSH2 0x14D2 SWAP1 PUSH2 0x2740 JUMP JUMPDEST PUSH1 0x40 MLOAD DUP1 SWAP2 SUB SWAP1 REVERT JUMPDEST PUSH1 0x3 DUP1 DUP2 GT ISZERO PUSH2 0x14EE JUMPI PUSH2 0x14ED PUSH2 0x1FC9 JUMP JUMPDEST JUMPDEST PUSH0 DUP1 SLOAD SWAP1 PUSH2 0x100 EXP SWAP1 DIV PUSH1 0xFF AND PUSH1 0x3 DUP2 GT ISZERO PUSH2 0x150D JUMPI PUSH2 0x150C PUSH2 0x1FC9 JUMP JUMPDEST JUMPDEST SUB PUSH2 0x154D JUMPI PUSH1 0x40 MLOAD PUSH32 0x8C379A000000000000000000000000000000000000000000000000000000000 DUP2 MSTORE PUSH1 0x4 ADD PUSH2 0x1544 SWAP1 PUSH2 0x22DB JUMP JUMPDEST PUSH1 0x40 MLOAD DUP1 SWAP2 SUB SWAP1 REVERT JUMPDEST PUSH1 0x2 PUSH1 0x3 DUP2 GT ISZERO PUSH2 0x1561 JUMPI PUSH2 0x1560 PUSH2 0x1FC9 JUMP JUMPDEST JUMPDEST PUSH0 DUP1 SLOAD SWAP1 PUSH2 0x100 EXP SWAP1 DIV PUSH1 0xFF AND PUSH1 0x3 DUP2 GT ISZERO PUSH2 0x1580 JUMPI PUSH2 0x157F PUSH2 0x1FC9 JUMP JUMPDEST JUMPDEST EQ PUSH2 0x15C0 JUMPI PUSH1 0x40 MLOAD PUSH32 0x8C379A000000000000000000000000000000000000000000000000000000000 DUP2 MSTORE PUSH1 0x4 ADD PUSH2 0x15B7 SWAP1 PUSH2 0x2740 JUMP JUMPDEST PUSH1 0x40 MLOAD DUP1 SWAP2 SUB SWAP1 REVERT JUMPDEST PUSH0 PUSH1 0x2 SLOAD SWAP1 POP PUSH0 PUSH1 0x2 DUP2 SWAP1 SSTORE POP PUSH0 PUSH1 0x5 PUSH0 SWAP1 SLOAD SWAP1 PUSH2 0x100 EXP SWAP1 DIV PUSH20 0xFFFFFFFFFFFFFFFFFFFFFFFFFFFFFFFFFFFFFFFF AND PUSH20 0xFFFFFFFFFFFFFFFFFFFFFFFFFFFFFFFFFFFFFFFF AND DUP3 PUSH1 0x40 MLOAD PUSH2 0x1613 SWAP1 PUSH2 0x25A0 JUMP JUMPDEST PUSH0 PUSH1 0x40 MLOAD DUP1 DUP4 SUB DUP2 DUP6 DUP8 GAS CALL SWAP3 POP POP POP RETURNDATASIZE DUP1 PUSH0 DUP2 EQ PUSH2 0x164D JUMPI PUSH1 0x40 MLOAD SWAP2 POP PUSH1 0x1F NOT PUSH1 0x3F RETURNDATASIZE ADD AND DUP3 ADD PUSH1 0x40 MSTORE RETURNDATASIZE DUP3 MSTORE RETURNDATASIZE PUSH0 PUSH1 0x20 DUP5 ADD RETURNDATACOPY PUSH2 0x1652 JUMP JUMPDEST PUSH1 0x60 SWAP2 POP JUMPDEST POP POP SWAP1 POP DUP1 PUSH2 0x1696 JUMPI PUSH1 0x40 MLOAD PUSH32 0x8C379A000000000000000000000000000000000000000000000000000000000 DUP2 MSTORE PUSH1 0x4 ADD PUSH2 0x168D SWAP1 PUSH2 0x29CE JUMP JUMPDEST PUSH1 0x40 MLOAD DUP1 SWAP2 SUB SWAP1 REVERT JUMPDEST PUSH32 0x2F424443129F9599DFB4D73878AD554B820124E747BDE094B660FB1280ED3D15 DUP3 PUSH1 0x40 MLOAD PUSH2 0x16C5 SWAP2 SWAP1 PUSH2 0x1E11 JUMP JUMPDEST PUSH1 0x40 MLOAD DUP1 SWAP2 SUB SWAP1 LOG1 POP POP JUMP JUMPDEST PUSH1 0x2 SLOAD DUP2 JUMP JUMPDEST PUSH0 PUSH1 0x3 DUP2 GT ISZERO PUSH2 0x16EA JUMPI PUSH2 0x16E9 PUSH2 0x1FC9 JUMP JUMPDEST JUMPDEST PUSH0 DUP1 SLOAD SWAP1 PUSH2 0x100 EXP SWAP1 DIV PUSH1 0xFF AND PUSH1 0x3 DUP2 GT ISZERO PUSH2 0x1709 JUMPI PUSH2 0x1708 PUSH2 0x1FC9 JUMP JUMPDEST JUMPDEST EQ PUSH2 0x1749 JUMPI PUSH1 0x40 MLOAD PUSH32 0x8C379A000000000000000000000000000000000000000000000000000000000 DUP2 MSTORE PUSH1 0x4 ADD PUSH2 0x1740 SWAP1 PUSH2 0x224D JUMP JUMPDEST PUSH1 0x40 MLOAD DUP1 SWAP2 SUB SWAP1 REVERT JUMPDEST CALLVALUE PUSH1 0x64 PUSH1 0x5 PUSH1 0x3 SLOAD PUSH2 0x175B SWAP2 SWAP1 PUSH2 0x24D5 JUMP JUMPDEST PUSH2 0x1765 SWAP2 SWAP1 PUSH2 0x2543 JUMP JUMPDEST PUSH1 0x3 SLOAD PUSH2 0x1772 SWAP2 SWAP1 PUSH2 0x2414 JUMP JUMPDEST DUP2 LT ISZERO PUSH2 0x17B4 JUMPI PUSH1 0x40 MLOAD PUSH32 0x8C379A000000000000000000000000000000000000000000000000000000000 DUP2 MSTORE PUSH1 0x4 ADD PUSH2 0x17AB SWAP1 PUSH2 0x2A5C JUMP JUMPDEST PUSH1 0x40 MLOAD DUP1 SWAP2 SUB SWAP1 REVERT JUMPDEST PUSH1 0x1 SLOAD TIMESTAMP GT ISZERO PUSH2 0x17F9 JUMPI PUSH1 0x40 MLOAD PUSH32 0x8C379A000000000000000000000000000000000000000000000000000000000 DUP2 MSTORE PUSH1 0x4 ADD PUSH2 0x17F0 SWAP1 PUSH2 0x2AC4 JUMP JUMPDEST PUSH1 0x40 MLOAD DUP1 SWAP2 SUB SWAP1 REVERT JUMPDEST PUSH2 0x258 PUSH1 0x1 SLOAD PUSH2 0x1809 SWAP2 SWAP1 PUSH2 0x23B4 JUMP JUMPDEST TIMESTAMP GT ISZERO PUSH2 0x1864 JUMPI PUSH2 0x258 PUSH1 0x1 PUSH0 DUP3 DUP3 SLOAD PUSH2 0x1823 SWAP2 SWAP1 PUSH2 0x2414 JUMP JUMPDEST SWAP3 POP POP DUP2 SWAP1 SSTORE POP PUSH32 0xC2B459809119087CA9D2BC10DEA53A51B7D848B1A11075DB037BDCA58292C3E8 PUSH1 0x1 SLOAD PUSH1 0x40 MLOAD PUSH2 0x185B SWAP2 SWAP1 PUSH2 0x1E11 JUMP JUMPDEST PUSH1 0x40 MLOAD DUP1 SWAP2 SUB SWAP1 LOG1 JUMPDEST PUSH0 CALLVALUE SWAP1 POP PUSH1 0x6 PUSH0 CALLER PUSH20 0xFFFFFFFFFFFFFFFFFFFFFFFFFFFFFFFFFFFFFFFF AND PUSH20 0xFFFFFFFFFFFFFFFFFFFFFFFFFFFFFFFFFFFFFFFF AND DUP2 MSTORE PUSH1 0x20 ADD SWAP1 DUP2 MSTORE PUSH1 0x20 ADD PUSH0 KECCAK256 DUP2 SWAP1 DUP1 PUSH1 0x1 DUP2 SLOAD ADD DUP1 DUP3 SSTORE DUP1 SWAP2 POP POP PUSH1 0x1 SWAP1 SUB SWAP1 PUSH0 MSTORE PUSH1 0x20 PUSH0 KECCAK256 ADD PUSH0 SWAP1 SWAP2 SWAP1 SWAP2 SWAP1 SWAP2 POP SSTORE DUP1 PUSH1 0x7 PUSH0 CALLER PUSH20 0xFFFFFFFFFFFFFFFFFFFFFFFFFFFFFFFFFFFFFFFF AND PUSH20 0xFFFFFFFFFFFFFFFFFFFFFFFFFFFFFFFFFFFFFFFF AND DUP2 MSTORE PUSH1 0x20 ADD SWAP1 DUP2 MSTORE PUSH1 0x20 ADD PUSH0 KECCAK256 PUSH0 DUP3 DUP3 SLOAD PUSH2 0x1915 SWAP2 SWAP1 PUSH2 0x2414 JUMP JUMPDEST SWAP3 POP POP DUP2 SWAP1 SSTORE POP PUSH1 0xA PUSH1 0x40 MLOAD DUP1 PUSH1 0x40 ADD PUSH1 0x40 MSTORE DUP1 CALLER PUSH20 0xFFFFFFFFFFFFFFFFFFFFFFFFFFFFFFFFFFFFFFFF AND DUP2 MSTORE PUSH1 0x20 ADD DUP4 DUP2 MSTORE POP SWAP1 DUP1 PUSH1 0x1 DUP2 SLOAD ADD DUP1 DUP3 SSTORE DUP1 SWAP2 POP POP PUSH1 0x1 SWAP1 SUB SWAP1 PUSH0 MSTORE PUSH1 0x20 PUSH0 KECCAK256 SWAP1 PUSH1 0x2 MUL ADD PUSH0 SWAP1 SWAP2 SWAP1 SWAP2 SWAP1 SWAP2 POP PUSH0 DUP3 ADD MLOAD DUP2 PUSH0 ADD PUSH0 PUSH2 0x100 EXP DUP2 SLOAD DUP2 PUSH20 0xFFFFFFFFFFFFFFFFFFFFFFFFFFFFFFFFFFFFFFFF MUL NOT AND SWAP1 DUP4 PUSH20 0xFFFFFFFFFFFFFFFFFFFFFFFFFFFFFFFFFFFFFFFF AND MUL OR SWAP1 SSTORE POP PUSH1 0x20 DUP3 ADD MLOAD DUP2 PUSH1 0x1 ADD SSTORE POP POP PUSH1 0x3 SLOAD DUP2 GT ISZERO PUSH2 0x1A11 JUMPI DUP1 PUSH1 0x3 DUP2 SWAP1 SSTORE POP CALLER PUSH1 0x4 PUSH0 PUSH2 0x100 EXP DUP2 SLOAD DUP2 PUSH20 0xFFFFFFFFFFFFFFFFFFFFFFFFFFFFFFFFFFFFFFFF MUL NOT AND SWAP1 DUP4 PUSH20 0xFFFFFFFFFFFFFFFFFFFFFFFFFFFFFFFFFFFFFFFF AND MUL OR SWAP1 SSTORE POP JUMPDEST PUSH1 0x1 PUSH1 0x6 PUSH0 CALLER PUSH20 0xFFFFFFFFFFFFFFFFFFFFFFFFFFFFFFFFFFFFFFFF AND PUSH20 0xFFFFFFFFFFFFFFFFFFFFFFFFFFFFFFFFFFFFFFFF AND DUP2 MSTORE PUSH1 0x20 ADD SWAP1 DUP2 MSTORE PUSH1 0x20 ADD PUSH0 KECCAK256 DUP1 SLOAD SWAP1 POP SUB PUSH2 0x1ABA JUMPI PUSH1 0x9 CALLER SWAP1 DUP1 PUSH1 0x1 DUP2 SLOAD ADD DUP1 DUP3 SSTORE DUP1 SWAP2 POP POP PUSH1 0x1 SWAP1 SUB SWAP1 PUSH0 MSTORE PUSH1 0x20 PUSH0 KECCAK256 ADD PUSH0 SWAP1 SWAP2 SWAP1 SWAP2 SWAP1 SWAP2 PUSH2 0x100 EXP DUP2 SLOAD DUP2 PUSH20 0xFFFFFFFFFFFFFFFFFFFFFFFFFFFFFFFFFFFFFFFF MUL NOT AND SWAP1 DUP4 PUSH20 0xFFFFFFFFFFFFFFFFFFFFFFFFFFFFFFFFFFFFFFFF AND MUL OR SWAP1 SSTORE POP JUMPDEST CALLER PUSH20 0xFFFFFFFFFFFFFFFFFFFFFFFFFFFFFFFFFFFFFFFF AND PUSH32 0x3FABFF0A9C3ECD6814702E247FA9733E5D0AA69E3A38590F92CB18F623A2254D DUP3 PUSH1 0x40 MLOAD PUSH2 0x1B00 SWAP2 SWAP1 PUSH2 0x1E11 JUMP JUMPDEST PUSH1 0x40 MLOAD DUP1 SWAP2 SUB SWAP1 LOG2 POP POP JUMP JUMPDEST PUSH1 0x5 PUSH0 SWAP1 SLOAD SWAP1 PUSH2 0x100 EXP SWAP1 DIV PUSH20 0xFFFFFFFFFFFFFFFFFFFFFFFFFFFFFFFFFFFFFFFF AND PUSH20 0xFFFFFFFFFFFFFFFFFFFFFFFFFFFFFFFFFFFFFFFF AND CALLER PUSH20 0xFFFFFFFFFFFFFFFFFFFFFFFFFFFFFFFFFFFFFFFF AND EQ PUSH2 0x1B9B JUMPI PUSH1 0x40 MLOAD PUSH32 0x8C379A000000000000000000000000000000000000000000000000000000000 DUP2 MSTORE PUSH1 0x4 ADD PUSH2 0x1B92 SWAP1 PUSH2 0x26B2 JUMP JUMPDEST PUSH1 0x40 MLOAD DUP1 SWAP2 SUB SWAP1 REVERT JUMPDEST PUSH1 0x1 SLOAD TIMESTAMP LT ISZERO PUSH2 0x1BE0 JUMPI PUSH1 0x40 MLOAD PUSH32 0x8C379A000000000000000000000000000000000000000000000000000000000 DUP2 MSTORE PUSH1 0x4 ADD PUSH2 0x1BD7 SWAP1 PUSH2 0x2869 JUMP JUMPDEST PUSH1 0x40 MLOAD DUP1 SWAP2 SUB SWAP1 REVERT JUMPDEST PUSH0 PUSH1 0x3 DUP2 GT ISZERO PUSH2 0x1BF3 JUMPI PUSH2 0x1BF2 PUSH2 0x1FC9 JUMP JUMPDEST JUMPDEST PUSH0 DUP1 SLOAD SWAP1 PUSH2 0x100 EXP SWAP1 DIV PUSH1 0xFF AND PUSH1 0x3 DUP2 GT ISZERO PUSH2 0x1C12 JUMPI PUSH2 0x1C11 PUSH2 0x1FC9 JUMP JUMPDEST JUMPDEST EQ PUSH2 0x1C52 JUMPI PUSH1 0x40 MLOAD PUSH32 0x8C379A000000000000000000000000000000000000000000000000000000000 DUP2 MSTORE PUSH1 0x4 ADD PUSH2 0x1C49 SWAP1 PUSH2 0x2B52 JUMP JUMPDEST PUSH1 0x40 MLOAD DUP1 SWAP2 SUB SWAP1 REVERT JUMPDEST PUSH1 0x1 SLOAD TIMESTAMP LT ISZERO PUSH2 0x1C97 JUMPI PUSH1 0x40 MLOAD PUSH32 0x8C379A000000000000000000000000000000000000000000000000000000000 DUP2 MSTORE PUSH1 0x4 ADD PUSH2 0x1C8E SWAP1 PUSH2 0x28D1 JUMP JUMPDEST PUSH1 0x40 MLOAD DUP1 SWAP2 SUB SWAP1 REVERT JUMPDEST PUSH1 0x1 PUSH0 DUP1 PUSH2 0x100 EXP DUP2 SLOAD DUP2 PUSH1 0xFF MUL NOT AND SWAP1 DUP4 PUSH1 0x3 DUP2 GT ISZERO PUSH2 0x1CBB JUMPI PUSH2 0x1CBA PUSH2 0x1FC9 JUMP JUMPDEST JUMPDEST MUL OR SWAP1 SSTORE POP PUSH1 0x4 PUSH0 SWAP1 SLOAD SWAP1 PUSH2 0x100 EXP SWAP1 DIV PUSH20 0xFFFFFFFFFFFFFFFFFFFFFFFFFFFFFFFFFFFFFFFF AND PUSH20 0xFFFFFFFFFFFFFFFFFFFFFFFFFFFFFFFFFFFFFFFF AND PUSH32 0xDAEC4582D5D9595688C8C98545FDD1C696D41C6AEAEB636737E84ED2F5C00EDA PUSH1 0x3 SLOAD PUSH1 0x40 MLOAD PUSH2 0x1D29 SWAP2 SWAP1 PUSH2 0x1E11 JUMP JUMPDEST PUSH1 0x40 MLOAD DUP1 SWAP2 SUB SWAP1 LOG2 JUMP JUMPDEST PUSH0 DUP1 REVERT JUMPDEST PUSH0 PUSH20 0xFFFFFFFFFFFFFFFFFFFFFFFFFFFFFFFFFFFFFFFF DUP3 AND SWAP1 POP SWAP2 SWAP1 POP JUMP JUMPDEST PUSH0 PUSH2 0x1D60 DUP3 PUSH2 0x1D37 JUMP JUMPDEST SWAP1 POP SWAP2 SWAP1 POP JUMP JUMPDEST PUSH2 0x1D70 DUP2 PUSH2 0x1D56 JUMP JUMPDEST DUP2 EQ PUSH2 0x1D7A JUMPI PUSH0 DUP1 REVERT JUMPDEST POP JUMP JUMPDEST PUSH0 DUP2 CALLDATALOAD SWAP1 POP PUSH2 0x1D8B DUP2 PUSH2 0x1D67 JUMP JUMPDEST SWAP3 SWAP2 POP POP JUMP JUMPDEST PUSH0 DUP2 SWAP1 POP SWAP2 SWAP1 POP JUMP JUMPDEST PUSH2 0x1DA3 DUP2 PUSH2 0x1D91 JUMP JUMPDEST DUP2 EQ PUSH2 0x1DAD JUMPI PUSH0 DUP1 REVERT JUMPDEST POP JUMP JUMPDEST PUSH0 DUP2 CALLDATALOAD SWAP1 POP PUSH2 0x1DBE DUP2 PUSH2 0x1D9A JUMP JUMPDEST SWAP3 SWAP2 POP POP JUMP JUMPDEST PUSH0 DUP1 PUSH1 0x40 DUP4 DUP6 SUB SLT ISZERO PUSH2 0x1DDA JUMPI PUSH2 0x1DD9 PUSH2 0x1D33 JUMP JUMPDEST JUMPDEST PUSH0 PUSH2 0x1DE7 DUP6 DUP3 DUP7 ADD PUSH2 0x1D7D JUMP JUMPDEST SWAP3 POP POP PUSH1 0x20 PUSH2 0x1DF8 DUP6 DUP3 DUP7 ADD PUSH2 0x1DB0 JUMP JUMPDEST SWAP2 POP POP SWAP3 POP SWAP3 SWAP1 POP JUMP JUMPDEST PUSH2 0x1E0B DUP2 PUSH2 0x1D91 JUMP JUMPDEST DUP3 MSTORE POP POP JUMP JUMPDEST PUSH0 PUSH1 0x20 DUP3 ADD SWAP1 POP PUSH2 0x1E24 PUSH0 DUP4 ADD DUP5 PUSH2 0x1E02 JUMP JUMPDEST SWAP3 SWAP2 POP POP JUMP JUMPDEST PUSH0 DUP2 MLOAD SWAP1 POP SWAP2 SWAP1 POP JUMP JUMPDEST PUSH0 DUP3 DUP3 MSTORE PUSH1 0x20 DUP3 ADD SWAP1 POP SWAP3 SWAP2 POP POP JUMP JUMPDEST PUSH0 DUP2 SWAP1 POP PUSH1 0x20 DUP3 ADD SWAP1 POP SWAP2 SWAP1 POP JUMP JUMPDEST PUSH2 0x1E5C DUP2 PUSH2 0x1D56 JUMP JUMPDEST DUP3 MSTORE POP POP JUMP JUMPDEST PUSH2 0x1E6B DUP2 PUSH2 0x1D91 JUMP JUMPDEST DUP3 MSTORE POP POP JUMP JUMPDEST PUSH1 0x40 DUP3 ADD PUSH0 DUP3 ADD MLOAD PUSH2 0x1E85 PUSH0 DUP6 ADD DUP3 PUSH2 0x1E53 JUMP JUMPDEST POP PUSH1 0x20 DUP3 ADD MLOAD PUSH2 0x1E98 PUSH1 0x20 DUP6 ADD DUP3 PUSH2 0x1E62 JUMP JUMPDEST POP POP POP POP JUMP JUMPDEST PUSH0 PUSH2 0x1EA9 DUP4 DUP4 PUSH2 0x1E71 JUMP JUMPDEST PUSH1 0x40 DUP4 ADD SWAP1 POP SWAP3 SWAP2 POP POP JUMP JUMPDEST PUSH0 PUSH1 0x20 DUP3 ADD SWAP1 POP SWAP2 SWAP1 POP JUMP JUMPDEST PUSH0 PUSH2 0x1ECB DUP3 PUSH2 0x1E2A JUMP JUMPDEST PUSH2 0x1ED5 DUP2 DUP6 PUSH2 0x1E34 JUMP JUMPDEST SWAP4 POP PUSH2 0x1EE0 DUP4 PUSH2 0x1E44 JUMP JUMPDEST DUP1 PUSH0 JUMPDEST DUP4 DUP2 LT ISZERO PUSH2 0x1F10 JUMPI DUP2 MLOAD PUSH2 0x1EF7 DUP9 DUP3 PUSH2 0x1E9E JUMP JUMPDEST SWAP8 POP PUSH2 0x1F02 DUP4 PUSH2 0x1EB5 JUMP JUMPDEST SWAP3 POP POP PUSH1 0x1 DUP2 ADD SWAP1 POP PUSH2 0x1EE3 JUMP JUMPDEST POP DUP6 SWAP4 POP POP POP POP SWAP3 SWAP2 POP POP JUMP JUMPDEST PUSH0 PUSH1 0x20 DUP3 ADD SWAP1 POP DUP2 DUP2 SUB PUSH0 DUP4 ADD MSTORE PUSH2 0x1F35 DUP2 DUP5 PUSH2 0x1EC1 JUMP JUMPDEST SWAP1 POP SWAP3 SWAP2 POP POP JUMP JUMPDEST PUSH0 PUSH1 0x20 DUP3 DUP5 SUB SLT ISZERO PUSH2 0x1F52 JUMPI PUSH2 0x1F51 PUSH2 0x1D33 JUMP JUMPDEST JUMPDEST PUSH0 PUSH2 0x1F5F DUP5 DUP3 DUP6 ADD PUSH2 0x1D7D JUMP JUMPDEST SWAP2 POP POP SWAP3 SWAP2 POP POP JUMP JUMPDEST PUSH0 PUSH1 0x20 DUP3 DUP5 SUB SLT ISZERO PUSH2 0x1F7D JUMPI PUSH2 0x1F7C PUSH2 0x1D33 JUMP JUMPDEST JUMPDEST PUSH0 PUSH2 0x1F8A DUP5 DUP3 DUP6 ADD PUSH2 0x1DB0 JUMP JUMPDEST SWAP2 POP POP SWAP3 SWAP2 POP POP JUMP JUMPDEST PUSH2 0x1F9C DUP2 PUSH2 0x1D56 JUMP JUMPDEST DUP3 MSTORE POP POP JUMP JUMPDEST PUSH0 PUSH1 0x40 DUP3 ADD SWAP1 POP PUSH2 0x1FB5 PUSH0 DUP4 ADD DUP6 PUSH2 0x1F93 JUMP JUMPDEST PUSH2 0x1FC2 PUSH1 0x20 DUP4 ADD DUP5 PUSH2 0x1E02 JUMP JUMPDEST SWAP4 SWAP3 POP POP POP JUMP JUMPDEST PUSH32 0x4E487B7100000000000000000000000000000000000000000000000000000000 PUSH0 MSTORE PUSH1 0x21 PUSH1 0x4 MSTORE PUSH1 0x24 PUSH0 REVERT JUMPDEST PUSH1 0x4 DUP2 LT PUSH2 0x2007 JUMPI PUSH2 0x2006 PUSH2 0x1FC9 JUMP JUMPDEST JUMPDEST POP JUMP JUMPDEST PUSH0 DUP2 SWAP1 POP PUSH2 0x2017 DUP3 PUSH2 0x1FF6 JUMP JUMPDEST SWAP2 SWAP1 POP JUMP JUMPDEST PUSH0 PUSH2 0x2026 DUP3 PUSH2 0x200A JUMP JUMPDEST SWAP1 POP SWAP2 SWAP1 POP JUMP JUMPDEST PUSH2 0x2036 DUP2 PUSH2 0x201C JUMP JUMPDEST DUP3 MSTORE POP POP JUMP JUMPDEST PUSH0 PUSH1 0x20 DUP3 ADD SWAP1 POP PUSH2 0x204F PUSH0 DUP4 ADD DUP5 PUSH2 0x202D JUMP JUMPDEST SWAP3 SWAP2 POP POP JUMP JUMPDEST PUSH0 PUSH1 0x20 DUP3 ADD SWAP1 POP PUSH2 0x2068 PUSH0 DUP4 ADD DUP5 PUSH2 0x1F93 JUMP JUMPDEST SWAP3 SWAP2 POP POP JUMP JUMPDEST PUSH0 DUP2 MLOAD SWAP1 POP SWAP2 SWAP1 POP JUMP JUMPDEST PUSH0 DUP3 DUP3 MSTORE PUSH1 0x20 DUP3 ADD SWAP1 POP SWAP3 SWAP2 POP POP JUMP JUMPDEST PUSH0 DUP2 SWAP1 POP PUSH1 0x20 DUP3 ADD SWAP1 POP SWAP2 SWAP1 POP JUMP JUMPDEST PUSH0 PUSH2 0x20A2 DUP4 DUP4 PUSH2 0x1E53 JUMP JUMPDEST PUSH1 0x20 DUP4 ADD SWAP1 POP SWAP3 SWAP2 POP POP JUMP JUMPDEST PUSH0 PUSH1 0x20 DUP3 ADD SWAP1 POP SWAP2 SWAP1 POP JUMP JUMPDEST PUSH0 PUSH2 0x20C4 DUP3 PUSH2 0x206E JUMP JUMPDEST PUSH2 0x20CE DUP2 DUP6 PUSH2 0x2078 JUMP JUMPDEST SWAP4 POP PUSH2 0x20D9 DUP4 PUSH2 0x2088 JUMP JUMPDEST DUP1 PUSH0 JUMPDEST DUP4 DUP2 LT ISZERO PUSH2 0x2109 JUMPI DUP2 MLOAD PUSH2 0x20F0 DUP9 DUP3 PUSH2 0x2097 JUMP JUMPDEST SWAP8 POP PUSH2 0x20FB DUP4 PUSH2 0x20AE JUMP JUMPDEST SWAP3 POP POP PUSH1 0x1 DUP2 ADD SWAP1 POP PUSH2 0x20DC JUMP JUMPDEST POP DUP6 SWAP4 POP POP POP POP SWAP3 SWAP2 POP POP JUMP JUMPDEST PUSH0 DUP2 MLOAD SWAP1 POP SWAP2 SWAP1 POP JUMP JUMPDEST PUSH0 DUP3 DUP3 MSTORE PUSH1 0x20 DUP3 ADD SWAP1 POP SWAP3 SWAP2 POP POP JUMP JUMPDEST PUSH0 DUP2 SWAP1 POP PUSH1 0x20 DUP3 ADD SWAP1 POP SWAP2 SWAP1 POP JUMP JUMPDEST PUSH0 PUSH2 0x214A DUP4 DUP4 PUSH2 0x1E62 JUMP JUMPDEST PUSH1 0x20 DUP4 ADD SWAP1 POP SWAP3 SWAP2 POP POP JUMP JUMPDEST PUSH0 PUSH1 0x20 DUP3 ADD SWAP1 POP SWAP2 SWAP1 POP JUMP JUMPDEST PUSH0 PUSH2 0x216C DUP3 PUSH2 0x2116 JUMP JUMPDEST PUSH2 0x2176 DUP2 DUP6 PUSH2 0x2120 JUMP JUMPDEST SWAP4 POP PUSH2 0x2181 DUP4 PUSH2 0x2130 JUMP JUMPDEST DUP1 PUSH0 JUMPDEST DUP4 DUP2 LT ISZERO PUSH2 0x21B1 JUMPI DUP2 MLOAD PUSH2 0x2198 DUP9 DUP3 PUSH2 0x213F JUMP JUMPDEST SWAP8 POP PUSH2 0x21A3 DUP4 PUSH2 0x2156 JUMP JUMPDEST SWAP3 POP POP PUSH1 0x1 DUP2 ADD SWAP1 POP PUSH2 0x2184 JUMP JUMPDEST POP DUP6 SWAP4 POP POP POP POP SWAP3 SWAP2 POP POP JUMP JUMPDEST PUSH0 PUSH1 0x40 DUP3 ADD SWAP1 POP DUP2 DUP2 SUB PUSH0 DUP4 ADD MSTORE PUSH2 0x21D6 DUP2 DUP6 PUSH2 0x20BA JUMP JUMPDEST SWAP1 POP DUP2 DUP2 SUB PUSH1 0x20 DUP4 ADD MSTORE PUSH2 0x21EA DUP2 DUP5 PUSH2 0x2162 JUMP JUMPDEST SWAP1 POP SWAP4 SWAP3 POP POP POP JUMP JUMPDEST PUSH0 DUP3 DUP3 MSTORE PUSH1 0x20 DUP3 ADD SWAP1 POP SWAP3 SWAP2 POP POP JUMP JUMPDEST PUSH32 0x4C612073756261737461206E6F20657374612061637469766100000000000000 PUSH0 DUP3 ADD MSTORE POP JUMP JUMPDEST PUSH0 PUSH2 0x2237 PUSH1 0x19 DUP4 PUSH2 0x21F3 JUMP JUMPDEST SWAP2 POP PUSH2 0x2242 DUP3 PUSH2 0x2203 JUMP JUMPDEST PUSH1 0x20 DUP3 ADD SWAP1 POP SWAP2 SWAP1 POP JUMP JUMPDEST PUSH0 PUSH1 0x20 DUP3 ADD SWAP1 POP DUP2 DUP2 SUB PUSH0 DUP4 ADD MSTORE PUSH2 0x2264 DUP2 PUSH2 0x222B JUMP JUMPDEST SWAP1 POP SWAP2 SWAP1 POP JUMP JUMPDEST PUSH32 0x4C612073756261737461207961206861207369646F20636F6D706C6574616461 PUSH0 DUP3 ADD MSTORE PUSH32 0x2E00000000000000000000000000000000000000000000000000000000000000 PUSH1 0x20 DUP3 ADD MSTORE POP JUMP JUMPDEST PUSH0 PUSH2 0x22C5 PUSH1 0x21 DUP4 PUSH2 0x21F3 JUMP JUMPDEST SWAP2 POP PUSH2 0x22D0 DUP3 PUSH2 0x226B JUMP JUMPDEST PUSH1 0x40 DUP3 ADD SWAP1 POP SWAP2 SWAP1 POP JUMP JUMPDEST PUSH0 PUSH1 0x20 DUP3 ADD SWAP1 POP DUP2 DUP2 SUB PUSH0 DUP4 ADD MSTORE PUSH2 0x22F2 DUP2 PUSH2 0x22B9 JUMP JUMPDEST SWAP1 POP SWAP2 SWAP1 POP JUMP JUMPDEST PUSH32 0x4E6F20686179206F66657274617320616E746572696F72657320706172612072 PUSH0 DUP3 ADD MSTORE PUSH32 0x6574697261722E00000000000000000000000000000000000000000000000000 PUSH1 0x20 DUP3 ADD MSTORE POP JUMP JUMPDEST PUSH0 PUSH2 0x2353 PUSH1 0x27 DUP4 PUSH2 0x21F3 JUMP JUMPDEST SWAP2 POP PUSH2 0x235E DUP3 PUSH2 0x22F9 JUMP JUMPDEST PUSH1 0x40 DUP3 ADD SWAP1 POP SWAP2 SWAP1 POP JUMP JUMPDEST PUSH0 PUSH1 0x20 DUP3 ADD SWAP1 POP DUP2 DUP2 SUB PUSH0 DUP4 ADD MSTORE PUSH2 0x2380 DUP2 PUSH2 0x2347 JUMP JUMPDEST SWAP1 POP SWAP2 SWAP1 POP JUMP JUMPDEST PUSH32 0x4E487B7100000000000000000000000000000000000000000000000000000000 PUSH0 MSTORE PUSH1 0x11 PUSH1 0x4 MSTORE PUSH1 0x24 PUSH0 REVERT JUMPDEST PUSH0 PUSH2 0x23BE DUP3 PUSH2 0x1D91 JUMP JUMPDEST SWAP2 POP PUSH2 0x23C9 DUP4 PUSH2 0x1D91 JUMP JUMPDEST SWAP3 POP DUP3 DUP3 SUB SWAP1 POP DUP2 DUP2 GT ISZERO PUSH2 0x23E1 JUMPI PUSH2 0x23E0 PUSH2 0x2387 JUMP JUMPDEST JUMPDEST SWAP3 SWAP2 POP POP JUMP JUMPDEST PUSH32 0x4E487B7100000000000000000000000000000000000000000000000000000000 PUSH0 MSTORE PUSH1 0x32 PUSH1 0x4 MSTORE PUSH1 0x24 PUSH0 REVERT JUMPDEST PUSH0 PUSH2 0x241E DUP3 PUSH2 0x1D91 JUMP JUMPDEST SWAP2 POP PUSH2 0x2429 DUP4 PUSH2 0x1D91 JUMP JUMPDEST SWAP3 POP DUP3 DUP3 ADD SWAP1 POP DUP1 DUP3 GT ISZERO PUSH2 0x2441 JUMPI PUSH2 0x2440 PUSH2 0x2387 JUMP JUMPDEST JUMPDEST SWAP3 SWAP2 POP POP JUMP JUMPDEST PUSH32 0x4E6F206861792073616C646F2061646963696F6E616C2070617261207265656D PUSH0 DUP3 ADD MSTORE PUSH32 0x626F6C7361722E00000000000000000000000000000000000000000000000000 PUSH1 0x20 DUP3 ADD MSTORE POP JUMP JUMPDEST PUSH0 PUSH2 0x24A1 PUSH1 0x27 DUP4 PUSH2 0x21F3 JUMP JUMPDEST SWAP2 POP PUSH2 0x24AC DUP3 PUSH2 0x2447 JUMP JUMPDEST PUSH1 0x40 DUP3 ADD SWAP1 POP SWAP2 SWAP1 POP JUMP JUMPDEST PUSH0 PUSH1 0x20 DUP3 ADD SWAP1 POP DUP2 DUP2 SUB PUSH0 DUP4 ADD MSTORE PUSH2 0x24CE DUP2 PUSH2 0x2495 JUMP JUMPDEST SWAP1 POP SWAP2 SWAP1 POP JUMP JUMPDEST PUSH0 PUSH2 0x24DF DUP3 PUSH2 0x1D91 JUMP JUMPDEST SWAP2 POP PUSH2 0x24EA DUP4 PUSH2 0x1D91 JUMP JUMPDEST SWAP3 POP DUP3 DUP3 MUL PUSH2 0x24F8 DUP2 PUSH2 0x1D91 JUMP JUMPDEST SWAP2 POP DUP3 DUP3 DIV DUP5 EQ DUP4 ISZERO OR PUSH2 0x250F JUMPI PUSH2 0x250E PUSH2 0x2387 JUMP JUMPDEST JUMPDEST POP SWAP3 SWAP2 POP POP JUMP JUMPDEST PUSH32 0x4E487B7100000000000000000000000000000000000000000000000000000000 PUSH0 MSTORE PUSH1 0x12 PUSH1 0x4 MSTORE PUSH1 0x24 PUSH0 REVERT JUMPDEST PUSH0 PUSH2 0x254D DUP3 PUSH2 0x1D91 JUMP JUMPDEST SWAP2 POP PUSH2 0x2558 DUP4 PUSH2 0x1D91 JUMP JUMPDEST SWAP3 POP DUP3 PUSH2 0x2568 JUMPI PUSH2 0x2567 PUSH2 0x2516 JUMP JUMPDEST JUMPDEST DUP3 DUP3 DIV SWAP1 POP SWAP3 SWAP2 POP POP JUMP JUMPDEST PUSH0 DUP2 SWAP1 POP SWAP3 SWAP2 POP POP JUMP JUMPDEST POP JUMP JUMPDEST PUSH0 PUSH2 0x258B PUSH0 DUP4 PUSH2 0x2573 JUMP JUMPDEST SWAP2 POP PUSH2 0x2596 DUP3 PUSH2 0x257D JUMP JUMPDEST PUSH0 DUP3 ADD SWAP1 POP SWAP2 SWAP1 POP JUMP JUMPDEST PUSH0 PUSH2 0x25AA DUP3 PUSH2 0x2580 JUMP JUMPDEST SWAP2 POP DUP2 SWAP1 POP SWAP2 SWAP1 POP JUMP JUMPDEST PUSH32 0x46616C6C6F20616C207265616C697A617220656C207265656D626F6C736F2070 PUSH0 DUP3 ADD MSTORE PUSH32 0x61726369616C2E00000000000000000000000000000000000000000000000000 PUSH1 0x20 DUP3 ADD MSTORE POP JUMP JUMPDEST PUSH0 PUSH2 0x260E PUSH1 0x27 DUP4 PUSH2 0x21F3 JUMP JUMPDEST SWAP2 POP PUSH2 0x2619 DUP3 PUSH2 0x25B4 JUMP JUMPDEST PUSH1 0x40 DUP3 ADD SWAP1 POP SWAP2 SWAP1 POP JUMP JUMPDEST PUSH0 PUSH1 0x20 DUP3 ADD SWAP1 POP DUP2 DUP2 SUB PUSH0 DUP4 ADD MSTORE PUSH2 0x263B DUP2 PUSH2 0x2602 JUMP JUMPDEST SWAP1 POP SWAP2 SWAP1 POP JUMP JUMPDEST PUSH32 0x536F6C6F20656C2070726F706965746172696F20707565646520656A65637574 PUSH0 DUP3 ADD MSTORE PUSH32 0x617220657374612066756E63696F6E0000000000000000000000000000000000 PUSH1 0x20 DUP3 ADD MSTORE POP JUMP JUMPDEST PUSH0 PUSH2 0x269C PUSH1 0x2F DUP4 PUSH2 0x21F3 JUMP JUMPDEST SWAP2 POP PUSH2 0x26A7 DUP3 PUSH2 0x2642 JUMP JUMPDEST PUSH1 0x40 DUP3 ADD SWAP1 POP SWAP2 SWAP1 POP JUMP JUMPDEST PUSH0 PUSH1 0x20 DUP3 ADD SWAP1 POP DUP2 DUP2 SUB PUSH0 DUP4 ADD MSTORE PUSH2 0x26C9 DUP2 PUSH2 0x2690 JUMP JUMPDEST SWAP1 POP SWAP2 SWAP1 POP JUMP JUMPDEST PUSH32 0x4C6F73206465706F7369746F73206E6F2068616E207369646F207265656D626F PUSH0 DUP3 ADD MSTORE PUSH32 0x6C7361646F732E00000000000000000000000000000000000000000000000000 PUSH1 0x20 DUP3 ADD MSTORE POP JUMP JUMPDEST PUSH0 PUSH2 0x272A PUSH1 0x27 DUP4 PUSH2 0x21F3 JUMP JUMPDEST SWAP2 POP PUSH2 0x2735 DUP3 PUSH2 0x26D0 JUMP JUMPDEST PUSH1 0x40 DUP3 ADD SWAP1 POP SWAP2 SWAP1 POP JUMP JUMPDEST PUSH0 PUSH1 0x20 DUP3 ADD SWAP1 POP DUP2 DUP2 SUB PUSH0 DUP4 ADD MSTORE PUSH2 0x2757 DUP2 PUSH2 0x271E JUMP JUMPDEST SWAP1 POP SWAP2 SWAP1 POP JUMP JUMPDEST PUSH32 0x46616C6C6F20616C2072657469726172206C61206F66657274612067616E6164 PUSH0 DUP3 ADD MSTORE PUSH32 0x6F72612E00000000000000000000000000000000000000000000000000000000 PUSH1 0x20 DUP3 ADD MSTORE POP JUMP JUMPDEST PUSH0 PUSH2 0x27B8 PUSH1 0x24 DUP4 PUSH2 0x21F3 JUMP JUMPDEST SWAP2 POP PUSH2 0x27C3 DUP3 PUSH2 0x275E JUMP JUMPDEST PUSH1 0x40 DUP3 ADD SWAP1 POP SWAP2 SWAP1 POP JUMP JUMPDEST PUSH0 PUSH1 0x20 DUP3 ADD SWAP1 POP DUP2 DUP2 SUB PUSH0 DUP4 ADD MSTORE PUSH2 0x27E5 DUP2 PUSH2 0x27AC JUMP JUMPDEST SWAP1 POP SWAP2 SWAP1 POP JUMP JUMPDEST PUSH0 DUP2 ISZERO ISZERO SWAP1 POP SWAP2 SWAP1 POP JUMP JUMPDEST PUSH2 0x2800 DUP2 PUSH2 0x27EC JUMP JUMPDEST DUP3 MSTORE POP POP JUMP JUMPDEST PUSH0 PUSH1 0x20 DUP3 ADD SWAP1 POP PUSH2 0x2819 PUSH0 DUP4 ADD DUP5 PUSH2 0x27F7 JUMP JUMPDEST SWAP3 SWAP2 POP POP JUMP JUMPDEST PUSH32 0x4C612073756261737461206E6F206861207465726D696E61646F000000000000 PUSH0 DUP3 ADD MSTORE POP JUMP JUMPDEST PUSH0 PUSH2 0x2853 PUSH1 0x1A DUP4 PUSH2 0x21F3 JUMP JUMPDEST SWAP2 POP PUSH2 0x285E DUP3 PUSH2 0x281F JUMP JUMPDEST PUSH1 0x20 DUP3 ADD SWAP1 POP SWAP2 SWAP1 POP JUMP JUMPDEST PUSH0 PUSH1 0x20 DUP3 ADD SWAP1 POP DUP2 DUP2 SUB PUSH0 DUP4 ADD MSTORE PUSH2 0x2880 DUP2 PUSH2 0x2847 JUMP JUMPDEST SWAP1 POP SWAP2 SWAP1 POP JUMP JUMPDEST PUSH32 0x4C6120737562617374612061756E206E6F206861207465726D696E61646F2E00 PUSH0 DUP3 ADD MSTORE POP JUMP JUMPDEST PUSH0 PUSH2 0x28BB PUSH1 0x1F DUP4 PUSH2 0x21F3 JUMP JUMPDEST SWAP2 POP PUSH2 0x28C6 DUP3 PUSH2 0x2887 JUMP JUMPDEST PUSH1 0x20 DUP3 ADD SWAP1 POP SWAP2 SWAP1 POP JUMP JUMPDEST PUSH0 PUSH1 0x20 DUP3 ADD SWAP1 POP DUP2 DUP2 SUB PUSH0 DUP4 ADD MSTORE PUSH2 0x28E8 DUP2 PUSH2 0x28AF JUMP JUMPDEST SWAP1 POP SWAP2 SWAP1 POP JUMP JUMPDEST PUSH32 0x46616C6C6F20616C206465766F6C766572206C6F73206465706F7369746F732E PUSH0 DUP3 ADD MSTORE POP JUMP JUMPDEST PUSH0 PUSH2 0x2923 PUSH1 0x20 DUP4 PUSH2 0x21F3 JUMP JUMPDEST SWAP2 POP PUSH2 0x292E DUP3 PUSH2 0x28EF JUMP JUMPDEST PUSH1 0x20 DUP3 ADD SWAP1 POP SWAP2 SWAP1 POP JUMP JUMPDEST PUSH0 PUSH1 0x20 DUP3 ADD SWAP1 POP DUP2 DUP2 SUB PUSH0 DUP4 ADD MSTORE PUSH2 0x2950 DUP2 PUSH2 0x2917 JUMP JUMPDEST SWAP1 POP SWAP2 SWAP1 POP JUMP JUMPDEST PUSH32 0x4E487B7100000000000000000000000000000000000000000000000000000000 PUSH0 MSTORE PUSH1 0x41 PUSH1 0x4 MSTORE PUSH1 0x24 PUSH0 REVERT JUMPDEST PUSH32 0x46616C6C6F20616C2072657469726172206C617320636F6D6973696F6E65732E PUSH0 DUP3 ADD MSTORE POP JUMP JUMPDEST PUSH0 PUSH2 0x29B8 PUSH1 0x20 DUP4 PUSH2 0x21F3 JUMP JUMPDEST SWAP2 POP PUSH2 0x29C3 DUP3 PUSH2 0x2984 JUMP JUMPDEST PUSH1 0x20 DUP3 ADD SWAP1 POP SWAP2 SWAP1 POP JUMP JUMPDEST PUSH0 PUSH1 0x20 DUP3 ADD SWAP1 POP DUP2 DUP2 SUB PUSH0 DUP4 ADD MSTORE PUSH2 0x29E5 DUP2 PUSH2 0x29AC JUMP JUMPDEST SWAP1 POP SWAP2 SWAP1 POP JUMP JUMPDEST PUSH32 0x4C61206F666572746120646562652073657220616C206D656E6F7320756E2035 PUSH0 DUP3 ADD MSTORE PUSH32 0x25206D61796F7220717565206C61206F66657274612067616E61646F72612E00 PUSH1 0x20 DUP3 ADD MSTORE POP JUMP JUMPDEST PUSH0 PUSH2 0x2A46 PUSH1 0x3F DUP4 PUSH2 0x21F3 JUMP JUMPDEST SWAP2 POP PUSH2 0x2A51 DUP3 PUSH2 0x29EC JUMP JUMPDEST PUSH1 0x40 DUP3 ADD SWAP1 POP SWAP2 SWAP1 POP JUMP JUMPDEST PUSH0 PUSH1 0x20 DUP3 ADD SWAP1 POP DUP2 DUP2 SUB PUSH0 DUP4 ADD MSTORE PUSH2 0x2A73 DUP2 PUSH2 0x2A3A JUMP JUMPDEST SWAP1 POP SWAP2 SWAP1 POP JUMP JUMPDEST PUSH32 0x4C6120737562617374612068612066696E616C697A61646F2E00000000000000 PUSH0 DUP3 ADD MSTORE POP JUMP JUMPDEST PUSH0 PUSH2 0x2AAE PUSH1 0x19 DUP4 PUSH2 0x21F3 JUMP JUMPDEST SWAP2 POP PUSH2 0x2AB9 DUP3 PUSH2 0x2A7A JUMP JUMPDEST PUSH1 0x20 DUP3 ADD SWAP1 POP SWAP2 SWAP1 POP JUMP JUMPDEST PUSH0 PUSH1 0x20 DUP3 ADD SWAP1 POP DUP2 DUP2 SUB PUSH0 DUP4 ADD MSTORE PUSH2 0x2ADB DUP2 PUSH2 0x2AA2 JUMP JUMPDEST SWAP1 POP SWAP2 SWAP1 POP JUMP JUMPDEST PUSH32 0x4C612073756261737461207961206861207369646F2066696E616C697A616461 PUSH0 DUP3 ADD MSTORE PUSH32 0x2E00000000000000000000000000000000000000000000000000000000000000 PUSH1 0x20 DUP3 ADD MSTORE POP JUMP JUMPDEST PUSH0 PUSH2 0x2B3C PUSH1 0x21 DUP4 PUSH2 0x21F3 JUMP JUMPDEST SWAP2 POP PUSH2 0x2B47 DUP3 PUSH2 0x2AE2 JUMP JUMPDEST PUSH1 0x40 DUP3 ADD SWAP1 POP SWAP2 SWAP1 POP JUMP JUMPDEST PUSH0 PUSH1 0x20 DUP3 ADD SWAP1 POP DUP2 DUP2 SUB PUSH0 DUP4 ADD MSTORE PUSH2 0x2B69 DUP2 PUSH2 0x2B30 JUMP JUMPDEST SWAP1 POP SWAP2 SWAP1 POP JUMP INVALID LOG2 PUSH5 0x6970667358 0x22 SLT KECCAK256 MLOAD MSTORE8 PUSH7 0x31E9046E8D2889 0x4C 0xE7 PUSH17 0x6D0E620C3608DEC6AE6081BD2043028BD6 PUSH22 0x7664736F6C634300081A003300000000000000000000 "
				},
				"gasEstimates": {
					"creation": {
						"codeDepositCost": "2234800",
						"executionCost": "infinite",
						"totalCost": "infinite"
					},
					"external": {
						"auctionEndTime()": "2448",
						"auctionState()": "2662",
						"bidders(uint256)": "5055",
						"bidsHistory(address,uint256)": "infinite",
						"commissionFunds()": "2491",
						"endAuction()": "38971",
						"highestBid()": "2447",
						"highestBidder()": "2553",
						"offersHistory(uint256)": "infinite",
						"owner()": "2531",
						"partialRefund()": "infinite",
						"partialRefundedAmount(address)": "2891",
						"placeBid()": "infinite",
						"totalBids(address)": "2847",
						"viewDeposits()": "infinite",
						"viewOffers()": "infinite",
						"withdrawCommissions()": "infinite",
						"withdrawDeposits()": "infinite",
						"withdrawWinningBid()": "infinite"
					}
				},
				"methodIdentifiers": {
					"auctionEndTime()": "4b449cba",
					"auctionState()": "7fb45099",
					"bidders(uint256)": "cff29dfd",
					"bidsHistory(address,uint256)": "25abd4c7",
					"commissionFunds()": "eba7bb9d",
					"endAuction()": "fe67a54b",
					"highestBid()": "d57bde79",
					"highestBidder()": "91f90157",
					"offersHistory(uint256)": "7d615e65",
					"owner()": "8da5cb5b",
					"partialRefund()": "1ce2bcf5",
					"partialRefundedAmount(address)": "be35460b",
					"placeBid()": "ecfc7ecc",
					"totalBids(address)": "62c71635",
					"viewDeposits()": "92bff767",
					"viewOffers()": "47343711",
					"withdrawCommissions()": "e34d1e69",
					"withdrawDeposits()": "7cf2ed22",
					"withdrawWinningBid()": "2f49e964"
				}
			},
			"storageLayout": {
				"storage": [
					{
						"astId": 12,
						"contract": "Subasta_Bonaduce.sol:AuctionBsAs",
						"label": "auctionState",
						"offset": 0,
						"slot": "0",
						"type": "t_enum(AuctionState)8"
					},
					{
						"astId": 15,
						"contract": "Subasta_Bonaduce.sol:AuctionBsAs",
						"label": "auctionEndTime",
						"offset": 0,
						"slot": "1",
						"type": "t_uint256"
					},
					{
						"astId": 18,
						"contract": "Subasta_Bonaduce.sol:AuctionBsAs",
						"label": "commissionFunds",
						"offset": 0,
						"slot": "2",
						"type": "t_uint256"
					},
					{
						"astId": 21,
						"contract": "Subasta_Bonaduce.sol:AuctionBsAs",
						"label": "highestBid",
						"offset": 0,
						"slot": "3",
						"type": "t_uint256"
					},
					{
						"astId": 24,
						"contract": "Subasta_Bonaduce.sol:AuctionBsAs",
						"label": "highestBidder",
						"offset": 0,
						"slot": "4",
						"type": "t_address"
					},
					{
						"astId": 27,
						"contract": "Subasta_Bonaduce.sol:AuctionBsAs",
						"label": "owner",
						"offset": 0,
						"slot": "5",
						"type": "t_address"
					},
					{
						"astId": 45,
						"contract": "Subasta_Bonaduce.sol:AuctionBsAs",
						"label": "bidsHistory",
						"offset": 0,
						"slot": "6",
						"type": "t_mapping(t_address,t_array(t_uint256)dyn_storage)"
					},
					{
						"astId": 50,
						"contract": "Subasta_Bonaduce.sol:AuctionBsAs",
						"label": "totalBids",
						"offset": 0,
						"slot": "7",
						"type": "t_mapping(t_address,t_uint256)"
					},
					{
						"astId": 55,
						"contract": "Subasta_Bonaduce.sol:AuctionBsAs",
						"label": "partialRefundedAmount",
						"offset": 0,
						"slot": "8",
						"type": "t_mapping(t_address,t_uint256)"
					},
					{
						"astId": 59,
						"contract": "Subasta_Bonaduce.sol:AuctionBsAs",
						"label": "bidders",
						"offset": 0,
						"slot": "9",
						"type": "t_array(t_address)dyn_storage"
					},
					{
						"astId": 193,
						"contract": "Subasta_Bonaduce.sol:AuctionBsAs",
						"label": "offersHistory",
						"offset": 0,
						"slot": "10",
						"type": "t_array(t_struct(Offer)188_storage)dyn_storage"
					}
				],
				"types": {
					"t_address": {
						"encoding": "inplace",
						"label": "address",
						"numberOfBytes": "20"
					},
					"t_array(t_address)dyn_storage": {
						"base": "t_address",
						"encoding": "dynamic_array",
						"label": "address[]",
						"numberOfBytes": "32"
					},
					"t_array(t_struct(Offer)188_storage)dyn_storage": {
						"base": "t_struct(Offer)188_storage",
						"encoding": "dynamic_array",
						"label": "struct AuctionBsAs.Offer[]",
						"numberOfBytes": "32"
					},
					"t_array(t_uint256)dyn_storage": {
						"base": "t_uint256",
						"encoding": "dynamic_array",
						"label": "uint256[]",
						"numberOfBytes": "32"
					},
					"t_enum(AuctionState)8": {
						"encoding": "inplace",
						"label": "enum AuctionBsAs.AuctionState",
						"numberOfBytes": "1"
					},
					"t_mapping(t_address,t_array(t_uint256)dyn_storage)": {
						"encoding": "mapping",
						"key": "t_address",
						"label": "mapping(address => uint256[])",
						"numberOfBytes": "32",
						"value": "t_array(t_uint256)dyn_storage"
					},
					"t_mapping(t_address,t_uint256)": {
						"encoding": "mapping",
						"key": "t_address",
						"label": "mapping(address => uint256)",
						"numberOfBytes": "32",
						"value": "t_uint256"
					},
					"t_struct(Offer)188_storage": {
						"encoding": "inplace",
						"label": "struct AuctionBsAs.Offer",
						"members": [
							{
								"astId": 184,
								"contract": "Subasta_Bonaduce.sol:AuctionBsAs",
								"label": "bidder",
								"offset": 0,
								"slot": "0",
								"type": "t_address"
							},
							{
								"astId": 187,
								"contract": "Subasta_Bonaduce.sol:AuctionBsAs",
								"label": "amount",
								"offset": 0,
								"slot": "1",
								"type": "t_uint256"
							}
						],
						"numberOfBytes": "64"
					},
					"t_uint256": {
						"encoding": "inplace",
						"label": "uint256",
						"numberOfBytes": "32"
					}
				}
			},
			"userdoc": {
				"events": {
					"AuctionCompleted(bool)": {
						"notice": "Evento que se emite cuando la subasta se ha completado exitosamente "
					},
					"AuctionEnded(address,uint256)": {
						"notice": "Evento que se emite cuando la subasta termina mostrando el ganador y el monto ganador"
					},
					"AuctionExtended(uint256)": {
						"notice": "Evento que se emite cuando la subasta es extendida"
					},
					"BidPlaced(address,uint256)": {
						"notice": "Evento que se emite cuando un postor realiza una nueva oferta"
					},
					"CommissionsWithdrawn(uint256)": {
						"notice": "Evento que se emite cuando el propietario retira las comisiones"
					},
					"DepositWithdrawn(address,uint256)": {
						"notice": "Evento que se emite cuando el owner reenbolsa          los depositos a los postores"
					},
					"PartialRefund(address,uint256)": {
						"notice": "Evento que se emite cuando se realiza un reembolso parcial"
					},
					"WinningBidWithdrawn(uint256)": {
						"notice": "Evento que se emite cuando el propietario retira la oferta ganadora"
					}
				},
				"kind": "user",
				"methods": {
					"auctionEndTime()": {
						"notice": "Hora de finalización de la subasta"
					},
					"auctionState()": {
						"notice": "Estado actual de la subasta"
					},
					"commissionFunds()": {
						"notice": "Fondo acumulado por comisiones de la subasta"
					},
					"constructor": {
						"notice": "Constructor de la subasta, establece el tiempo de duración"
					},
					"endAuction()": {
						"notice": "Finaliza la subasta, indicando el ganador y el monto ganador"
					},
					"highestBid()": {
						"notice": "Oferta más alta actual"
					},
					"highestBidder()": {
						"notice": "Dirección del postor con la oferta más alta"
					},
					"owner()": {
						"notice": "Dirección del propietario de la subasta"
					},
					"partialRefund()": {
						"notice": "Permite a los postores solicitar un reembolso parcial de sus ofertas anteriores"
					},
					"placeBid()": {
						"notice": "Permite a un postor realizar una oferta en la subasta"
					},
					"viewDeposits()": {
						"notice": "Permite ver los depósitos actuales de todos los postores"
					},
					"viewOffers()": {
						"notice": "Permite a cualquier usuario ver el historial completo de ofertas"
					},
					"withdrawCommissions()": {
						"notice": "Permite al propietario retirar las comisiones acumuladas"
					},
					"withdrawDeposits()": {
						"notice": "Permite al propietario reembolsar los depósitos de los postores menos la oferta ganadora          despues de marcar la subasta como finalizada   "
					},
					"withdrawWinningBid()": {
						"notice": "Permite al propietario retirar la oferta ganadora"
					}
				},
				"notice": "Este contrato solo es accesible por el propietario para ciertas funciones         ",
				"version": 1
			}
		}
	}
}