{
	"Subasta_Bonaduce.sol": {
		"AuctionSubasta": {
			"abi": [
				{
					"inputs": [
						{
							"internalType": "uint256",
							"name": "_duration",
							"type": "uint256"
						}
					],
					"stateMutability": "nonpayable",
					"type": "constructor"
				},
				{
					"anonymous": false,
					"inputs": [
						{
							"indexed": false,
							"internalType": "bool",
							"name": "success",
							"type": "bool"
						}
					],
					"name": "AuctionCompleted",
					"type": "event"
				},
				{
					"anonymous": false,
					"inputs": [
						{
							"indexed": true,
							"internalType": "address",
							"name": "winner",
							"type": "address"
						},
						{
							"indexed": false,
							"internalType": "uint256",
							"name": "winningBid",
							"type": "uint256"
						}
					],
					"name": "AuctionEnded",
					"type": "event"
				},
				{
					"anonymous": false,
					"inputs": [
						{
							"indexed": false,
							"internalType": "uint256",
							"name": "newEndTime",
							"type": "uint256"
						}
					],
					"name": "AuctionExtended",
					"type": "event"
				},
				{
					"anonymous": false,
					"inputs": [
						{
							"indexed": true,
							"internalType": "address",
							"name": "bidder",
							"type": "address"
						},
						{
							"indexed": false,
							"internalType": "uint256",
							"name": "amount",
							"type": "uint256"
						}
					],
					"name": "BidPlaced",
					"type": "event"
				},
				{
					"anonymous": false,
					"inputs": [
						{
							"indexed": false,
							"internalType": "uint256",
							"name": "amount",
							"type": "uint256"
						}
					],
					"name": "CommissionsWithdrawn",
					"type": "event"
				},
				{
					"anonymous": false,
					"inputs": [
						{
							"indexed": true,
							"internalType": "address",
							"name": "bidder",
							"type": "address"
						},
						{
							"indexed": false,
							"internalType": "uint256",
							"name": "amount",
							"type": "uint256"
						}
					],
					"name": "DepositWithdrawn",
					"type": "event"
				},
				{
					"anonymous": false,
					"inputs": [
						{
							"indexed": true,
							"internalType": "address",
							"name": "bidder",
							"type": "address"
						},
						{
							"indexed": false,
							"internalType": "uint256",
							"name": "amount",
							"type": "uint256"
						}
					],
					"name": "PartialRefund",
					"type": "event"
				},
				{
					"anonymous": false,
					"inputs": [
						{
							"indexed": false,
							"internalType": "uint256",
							"name": "amount",
							"type": "uint256"
						}
					],
					"name": "WinningBidWithdrawn",
					"type": "event"
				},
				{
					"inputs": [],
					"name": "auctionEndTime",
					"outputs": [
						{
							"internalType": "uint256",
							"name": "",
							"type": "uint256"
						}
					],
					"stateMutability": "view",
					"type": "function"
				},
				{
					"inputs": [],
					"name": "auctionState",
					"outputs": [
						{
							"internalType": "enum AuctionSubasta.AuctionState",
							"name": "",
							"type": "uint8"
						}
					],
					"stateMutability": "view",
					"type": "function"
				},
				{
					"inputs": [
						{
							"internalType": "uint256",
							"name": "",
							"type": "uint256"
						}
					],
					"name": "bidders",
					"outputs": [
						{
							"internalType": "address",
							"name": "",
							"type": "address"
						}
					],
					"stateMutability": "view",
					"type": "function"
				},
				{
					"inputs": [
						{
							"internalType": "address",
							"name": "",
							"type": "address"
						},
						{
							"internalType": "uint256",
							"name": "",
							"type": "uint256"
						}
					],
					"name": "bidsHistory",
					"outputs": [
						{
							"internalType": "uint256",
							"name": "",
							"type": "uint256"
						}
					],
					"stateMutability": "view",
					"type": "function"
				},
				{
					"inputs": [],
					"name": "commissionFunds",
					"outputs": [
						{
							"internalType": "uint256",
							"name": "",
							"type": "uint256"
						}
					],
					"stateMutability": "view",
					"type": "function"
				},
				{
					"inputs": [],
					"name": "endAuction",
					"outputs": [],
					"stateMutability": "nonpayable",
					"type": "function"
				},
				{
					"inputs": [],
					"name": "highestBid",
					"outputs": [
						{
							"internalType": "uint256",
							"name": "",
							"type": "uint256"
						}
					],
					"stateMutability": "view",
					"type": "function"
				},
				{
					"inputs": [],
					"name": "highestBidder",
					"outputs": [
						{
							"internalType": "address",
							"name": "",
							"type": "address"
						}
					],
					"stateMutability": "view",
					"type": "function"
				},
				{
					"inputs": [
						{
							"internalType": "uint256",
							"name": "",
							"type": "uint256"
						}
					],
					"name": "offersHistory",
					"outputs": [
						{
							"internalType": "address",
							"name": "bidder",
							"type": "address"
						},
						{
							"internalType": "uint256",
							"name": "amount",
							"type": "uint256"
						}
					],
					"stateMutability": "view",
					"type": "function"
				},
				{
					"inputs": [],
					"name": "owner",
					"outputs": [
						{
							"internalType": "address",
							"name": "",
							"type": "address"
						}
					],
					"stateMutability": "view",
					"type": "function"
				},
				{
					"inputs": [],
					"name": "partialRefund",
					"outputs": [],
					"stateMutability": "nonpayable",
					"type": "function"
				},
				{
					"inputs": [
						{
							"internalType": "address",
							"name": "",
							"type": "address"
						}
					],
					"name": "partialRefundedAmount",
					"outputs": [
						{
							"internalType": "uint256",
							"name": "",
							"type": "uint256"
						}
					],
					"stateMutability": "view",
					"type": "function"
				},
				{
					"inputs": [],
					"name": "placeBid",
					"outputs": [],
					"stateMutability": "payable",
					"type": "function"
				},
				{
					"inputs": [
						{
							"internalType": "address",
							"name": "",
							"type": "address"
						}
					],
					"name": "totalBids",
					"outputs": [
						{
							"internalType": "uint256",
							"name": "",
							"type": "uint256"
						}
					],
					"stateMutability": "view",
					"type": "function"
				},
				{
					"inputs": [],
					"name": "viewDeposits",
					"outputs": [
						{
							"internalType": "address[]",
							"name": "",
							"type": "address[]"
						},
						{
							"internalType": "uint256[]",
							"name": "",
							"type": "uint256[]"
						}
					],
					"stateMutability": "view",
					"type": "function"
				},
				{
					"inputs": [],
					"name": "viewOffers",
					"outputs": [
						{
							"components": [
								{
									"internalType": "address",
									"name": "bidder",
									"type": "address"
								},
								{
									"internalType": "uint256",
									"name": "amount",
									"type": "uint256"
								}
							],
							"internalType": "struct AuctionSubasta.Offer[]",
							"name": "",
							"type": "tuple[]"
						}
					],
					"stateMutability": "view",
					"type": "function"
				},
				{
					"inputs": [],
					"name": "withdrawCommissions",
					"outputs": [],
					"stateMutability": "nonpayable",
					"type": "function"
				},
				{
					"inputs": [],
					"name": "withdrawDeposits",
					"outputs": [],
					"stateMutability": "nonpayable",
					"type": "function"
				},
				{
					"inputs": [],
					"name": "withdrawWinningBid",
					"outputs": [],
					"stateMutability": "nonpayable",
					"type": "function"
				}
			],
			"devdoc": {
				"author": "Pablo Luján Bonaduce",
				"details": "Este contrato implementa una subasta donde los usuarios pueden ofertar,       retirar reenbolsos parciales, y el propietario puede retirar las comisiones       y la oferta ganadora una vez que reenbolsa a los postores y la subasta esta finalizada finaliza.      El contrato también maneja una extensión de tiempo si se colocan ofertas cerca del final de la subasta.",
				"events": {
					"AuctionCompleted(bool)": {
						"params": {
							"success": "Indica si la subasta se completó sin errores (true si no hubo errores) "
						}
					},
					"AuctionEnded(address,uint256)": {
						"params": {
							"winner": "Dirección del postor ganador",
							"winningBid": "Monto de la oferta ganadora"
						}
					},
					"AuctionExtended(uint256)": {
						"params": {
							"newEndTime": "Nueva hora de finalización de la subasta"
						}
					},
					"BidPlaced(address,uint256)": {
						"params": {
							"amount": "Monto de la oferta realizada",
							"bidder": "Dirección del postor"
						}
					},
					"CommissionsWithdrawn(uint256)": {
						"params": {
							"amount": "Monto retirado"
						}
					},
					"DepositWithdrawn(address,uint256)": {
						"params": {
							"amount": "Monto reenbolsado",
							"bidder": "Dirección del postor"
						}
					},
					"PartialRefund(address,uint256)": {
						"params": {
							"amount": "Monto reembolsado",
							"bidder": "Dirección del postor"
						}
					},
					"WinningBidWithdrawn(uint256)": {
						"params": {
							"amount": "Monto retirado"
						}
					}
				},
				"kind": "dev",
				"methods": {
					"constructor": {
						"params": {
							"_duration": "Duración de la subasta en segundos"
						}
					},
					"partialRefund()": {
						"details": "Solo puede realizarse durante una subasta activa"
					},
					"placeBid()": {
						"details": "Solo es válida durante una subasta activa, y debe cumplir con los requisitos de oferta valida"
					},
					"viewDeposits()": {
						"returns": {
							"_0": "Un arreglo con las direcciones de los postores y sus montos actuales"
						}
					},
					"viewOffers()": {
						"returns": {
							"_0": "Un arreglo de ofertas realizadas en la subasta"
						}
					}
				},
				"stateVariables": {
					"bidders": {
						"details": "Lista de postores que han participado en la subasta"
					},
					"bidsHistory": {
						"details": "Mapeo de todas las ofertas realizadas por cada postor"
					},
					"offersHistory": {
						"details": "Historial de todas las ofertas realizadas en la subasta"
					},
					"partialRefundedAmount": {
						"details": "Mapeo del monto ya reembolsado parcialmente a cada postor"
					},
					"totalBids": {
						"details": "Mapeo del total de las ofertas de cada postor"
					}
				},
				"title": "Contrato de Subasta Bonaduce",
				"version": 1
			},
			"evm": {
				"assembly": "    /* \"Subasta_Bonaduce.sol\":640:12684  contract AuctionSubasta {... */\n  mstore(0x40, 0x80)\n    /* \"Subasta_Bonaduce.sol\":5864:6159  constructor(uint _duration) {... */\n  callvalue\n  dup1\n  iszero\n  tag_1\n  jumpi\n  0x00\n  dup1\n  revert\ntag_1:\n  pop\n  mload(0x40)\n  sub(codesize, bytecodeSize)\n  dup1\n  bytecodeSize\n  dup4\n  codecopy\n  dup2\n  dup2\n  add\n  0x40\n  mstore\n  dup2\n  add\n  swap1\n  tag_2\n  swap2\n  swap1\n  tag_3\n  jump\t// in\ntag_2:\n    /* \"Subasta_Bonaduce.sol\":5924:5934  20 minutes */\n  0x04b0\n    /* \"Subasta_Bonaduce.sol\":5911:5920  _duration */\n  dup2\n    /* \"Subasta_Bonaduce.sol\":5911:5934  _duration >= 20 minutes */\n  lt\n  iszero\n    /* \"Subasta_Bonaduce.sol\":5911:5957  _duration >= 20 minutes && _duration <= 7 days */\n  dup1\n  iszero\n  tag_6\n  jumpi\n  pop\n    /* \"Subasta_Bonaduce.sol\":5951:5957  7 days */\n  0x093a80\n    /* \"Subasta_Bonaduce.sol\":5938:5947  _duration */\n  dup2\n    /* \"Subasta_Bonaduce.sol\":5938:5957  _duration <= 7 days */\n  gt\n  iszero\n    /* \"Subasta_Bonaduce.sol\":5911:5957  _duration >= 20 minutes && _duration <= 7 days */\ntag_6:\n    /* \"Subasta_Bonaduce.sol\":5903:6022  require(_duration >= 20 minutes && _duration <= 7 days,... */\n  tag_7\n  jumpi\n  mload(0x40)\n  0x08c379a000000000000000000000000000000000000000000000000000000000\n  dup2\n  mstore\n  0x04\n  add\n  tag_8\n  swap1\n  tag_9\n  jump\t// in\ntag_8:\n  mload(0x40)\n  dup1\n  swap2\n  sub\n  swap1\n  revert\ntag_7:\n    /* \"Subasta_Bonaduce.sol\":6068:6077  _duration */\n  dup1\n    /* \"Subasta_Bonaduce.sol\":6050:6065  block.timestamp */\n  timestamp\n    /* \"Subasta_Bonaduce.sol\":6050:6077  block.timestamp + _duration */\n  tag_10\n  swap2\n  swap1\n  tag_11\n  jump\t// in\ntag_10:\n    /* \"Subasta_Bonaduce.sol\":6033:6047  auctionEndTime */\n  0x01\n    /* \"Subasta_Bonaduce.sol\":6033:6077  auctionEndTime = block.timestamp + _duration */\n  dup2\n  swap1\n  sstore\n  pop\n    /* \"Subasta_Bonaduce.sol\":6103:6122  AuctionState.Active */\n  0x00\n    /* \"Subasta_Bonaduce.sol\":6088:6100  auctionState */\n  dup1\n  0x00\n    /* \"Subasta_Bonaduce.sol\":6088:6122  auctionState = AuctionState.Active */\n  0x0100\n  exp\n  dup2\n  sload\n  dup2\n  0xff\n  mul\n  not\n  and\n  swap1\n  dup4\n  0x03\n  dup2\n  gt\n  iszero\n  tag_12\n  jumpi\n  tag_13\n  tag_14\n  jump\t// in\ntag_13:\ntag_12:\n  mul\n  or\n  swap1\n  sstore\n  pop\n    /* \"Subasta_Bonaduce.sol\":6141:6151  msg.sender */\n  caller\n    /* \"Subasta_Bonaduce.sol\":6133:6138  owner */\n  0x05\n  0x00\n    /* \"Subasta_Bonaduce.sol\":6133:6151  owner = msg.sender */\n  0x0100\n  exp\n  dup2\n  sload\n  dup2\n  0xffffffffffffffffffffffffffffffffffffffff\n  mul\n  not\n  and\n  swap1\n  dup4\n  0xffffffffffffffffffffffffffffffffffffffff\n  and\n  mul\n  or\n  swap1\n  sstore\n  pop\n    /* \"Subasta_Bonaduce.sol\":5864:6159  constructor(uint _duration) {... */\n  pop\n    /* \"Subasta_Bonaduce.sol\":640:12684  contract AuctionSubasta {... */\n  jump(tag_15)\n    /* \"#utility.yul\":88:205   */\ntag_17:\n    /* \"#utility.yul\":197:198   */\n  0x00\n    /* \"#utility.yul\":194:195   */\n  dup1\n    /* \"#utility.yul\":187:199   */\n  revert\n    /* \"#utility.yul\":334:411   */\ntag_19:\n    /* \"#utility.yul\":371:378   */\n  0x00\n    /* \"#utility.yul\":400:405   */\n  dup2\n    /* \"#utility.yul\":389:405   */\n  swap1\n  pop\n    /* \"#utility.yul\":334:411   */\n  swap2\n  swap1\n  pop\n  jump\t// out\n    /* \"#utility.yul\":417:539   */\ntag_20:\n    /* \"#utility.yul\":490:514   */\n  tag_32\n    /* \"#utility.yul\":508:513   */\n  dup2\n    /* \"#utility.yul\":490:514   */\n  tag_19\n  jump\t// in\ntag_32:\n    /* \"#utility.yul\":483:488   */\n  dup2\n    /* \"#utility.yul\":480:515   */\n  eq\n    /* \"#utility.yul\":470:533   */\n  tag_33\n  jumpi\n    /* \"#utility.yul\":529:530   */\n  0x00\n    /* \"#utility.yul\":526:527   */\n  dup1\n    /* \"#utility.yul\":519:531   */\n  revert\n    /* \"#utility.yul\":470:533   */\ntag_33:\n    /* \"#utility.yul\":417:539   */\n  pop\n  jump\t// out\n    /* \"#utility.yul\":545:688   */\ntag_21:\n    /* \"#utility.yul\":602:607   */\n  0x00\n    /* \"#utility.yul\":633:639   */\n  dup2\n    /* \"#utility.yul\":627:640   */\n  mload\n    /* \"#utility.yul\":618:640   */\n  swap1\n  pop\n    /* \"#utility.yul\":649:682   */\n  tag_35\n    /* \"#utility.yul\":676:681   */\n  dup2\n    /* \"#utility.yul\":649:682   */\n  tag_20\n  jump\t// in\ntag_35:\n    /* \"#utility.yul\":545:688   */\n  swap3\n  swap2\n  pop\n  pop\n  jump\t// out\n    /* \"#utility.yul\":694:1045   */\ntag_3:\n    /* \"#utility.yul\":764:770   */\n  0x00\n    /* \"#utility.yul\":813:815   */\n  0x20\n    /* \"#utility.yul\":801:810   */\n  dup3\n    /* \"#utility.yul\":792:799   */\n  dup5\n    /* \"#utility.yul\":788:811   */\n  sub\n    /* \"#utility.yul\":784:816   */\n  slt\n    /* \"#utility.yul\":781:900   */\n  iszero\n  tag_37\n  jumpi\n    /* \"#utility.yul\":819:898   */\n  tag_38\n  tag_17\n  jump\t// in\ntag_38:\n    /* \"#utility.yul\":781:900   */\ntag_37:\n    /* \"#utility.yul\":939:940   */\n  0x00\n    /* \"#utility.yul\":964:1028   */\n  tag_39\n    /* \"#utility.yul\":1020:1027   */\n  dup5\n    /* \"#utility.yul\":1011:1017   */\n  dup3\n    /* \"#utility.yul\":1000:1009   */\n  dup6\n    /* \"#utility.yul\":996:1018   */\n  add\n    /* \"#utility.yul\":964:1028   */\n  tag_21\n  jump\t// in\ntag_39:\n    /* \"#utility.yul\":954:1028   */\n  swap2\n  pop\n    /* \"#utility.yul\":910:1038   */\n  pop\n    /* \"#utility.yul\":694:1045   */\n  swap3\n  swap2\n  pop\n  pop\n  jump\t// out\n    /* \"#utility.yul\":1051:1220   */\ntag_22:\n    /* \"#utility.yul\":1135:1146   */\n  0x00\n    /* \"#utility.yul\":1169:1175   */\n  dup3\n    /* \"#utility.yul\":1164:1167   */\n  dup3\n    /* \"#utility.yul\":1157:1176   */\n  mstore\n    /* \"#utility.yul\":1209:1213   */\n  0x20\n    /* \"#utility.yul\":1204:1207   */\n  dup3\n    /* \"#utility.yul\":1200:1214   */\n  add\n    /* \"#utility.yul\":1185:1214   */\n  swap1\n  pop\n    /* \"#utility.yul\":1051:1220   */\n  swap3\n  swap2\n  pop\n  pop\n  jump\t// out\n    /* \"#utility.yul\":1226:1460   */\ntag_23:\n    /* \"#utility.yul\":1366:1400   */\n  0x4c61206475726163696f6e20646562652073657220656e747265203230206d69\n    /* \"#utility.yul\":1362:1363   */\n  0x00\n    /* \"#utility.yul\":1354:1360   */\n  dup3\n    /* \"#utility.yul\":1350:1364   */\n  add\n    /* \"#utility.yul\":1343:1401   */\n  mstore\n    /* \"#utility.yul\":1435:1452   */\n  0x6e75746f732079203720646961732e0000000000000000000000000000000000\n    /* \"#utility.yul\":1430:1432   */\n  0x20\n    /* \"#utility.yul\":1422:1428   */\n  dup3\n    /* \"#utility.yul\":1418:1433   */\n  add\n    /* \"#utility.yul\":1411:1453   */\n  mstore\n    /* \"#utility.yul\":1226:1460   */\n  pop\n  jump\t// out\n    /* \"#utility.yul\":1466:1832   */\ntag_24:\n    /* \"#utility.yul\":1608:1611   */\n  0x00\n    /* \"#utility.yul\":1629:1696   */\n  tag_43\n    /* \"#utility.yul\":1693:1695   */\n  0x2f\n    /* \"#utility.yul\":1688:1691   */\n  dup4\n    /* \"#utility.yul\":1629:1696   */\n  tag_22\n  jump\t// in\ntag_43:\n    /* \"#utility.yul\":1622:1696   */\n  swap2\n  pop\n    /* \"#utility.yul\":1705:1798   */\n  tag_44\n    /* \"#utility.yul\":1794:1797   */\n  dup3\n    /* \"#utility.yul\":1705:1798   */\n  tag_23\n  jump\t// in\ntag_44:\n    /* \"#utility.yul\":1823:1825   */\n  0x40\n    /* \"#utility.yul\":1818:1821   */\n  dup3\n    /* \"#utility.yul\":1814:1826   */\n  add\n    /* \"#utility.yul\":1807:1826   */\n  swap1\n  pop\n    /* \"#utility.yul\":1466:1832   */\n  swap2\n  swap1\n  pop\n  jump\t// out\n    /* \"#utility.yul\":1838:2257   */\ntag_9:\n    /* \"#utility.yul\":2004:2008   */\n  0x00\n    /* \"#utility.yul\":2042:2044   */\n  0x20\n    /* \"#utility.yul\":2031:2040   */\n  dup3\n    /* \"#utility.yul\":2027:2045   */\n  add\n    /* \"#utility.yul\":2019:2045   */\n  swap1\n  pop\n    /* \"#utility.yul\":2091:2100   */\n  dup2\n    /* \"#utility.yul\":2085:2089   */\n  dup2\n    /* \"#utility.yul\":2081:2101   */\n  sub\n    /* \"#utility.yul\":2077:2078   */\n  0x00\n    /* \"#utility.yul\":2066:2075   */\n  dup4\n    /* \"#utility.yul\":2062:2079   */\n  add\n    /* \"#utility.yul\":2055:2102   */\n  mstore\n    /* \"#utility.yul\":2119:2250   */\n  tag_46\n    /* \"#utility.yul\":2245:2249   */\n  dup2\n    /* \"#utility.yul\":2119:2250   */\n  tag_24\n  jump\t// in\ntag_46:\n    /* \"#utility.yul\":2111:2250   */\n  swap1\n  pop\n    /* \"#utility.yul\":1838:2257   */\n  swap2\n  swap1\n  pop\n  jump\t// out\n    /* \"#utility.yul\":2263:2443   */\ntag_25:\n    /* \"#utility.yul\":2311:2388   */\n  0x4e487b7100000000000000000000000000000000000000000000000000000000\n    /* \"#utility.yul\":2308:2309   */\n  0x00\n    /* \"#utility.yul\":2301:2389   */\n  mstore\n    /* \"#utility.yul\":2408:2412   */\n  0x11\n    /* \"#utility.yul\":2405:2406   */\n  0x04\n    /* \"#utility.yul\":2398:2413   */\n  mstore\n    /* \"#utility.yul\":2432:2436   */\n  0x24\n    /* \"#utility.yul\":2429:2430   */\n  0x00\n    /* \"#utility.yul\":2422:2437   */\n  revert\n    /* \"#utility.yul\":2449:2640   */\ntag_11:\n    /* \"#utility.yul\":2489:2492   */\n  0x00\n    /* \"#utility.yul\":2508:2528   */\n  tag_49\n    /* \"#utility.yul\":2526:2527   */\n  dup3\n    /* \"#utility.yul\":2508:2528   */\n  tag_19\n  jump\t// in\ntag_49:\n    /* \"#utility.yul\":2503:2528   */\n  swap2\n  pop\n    /* \"#utility.yul\":2542:2562   */\n  tag_50\n    /* \"#utility.yul\":2560:2561   */\n  dup4\n    /* \"#utility.yul\":2542:2562   */\n  tag_19\n  jump\t// in\ntag_50:\n    /* \"#utility.yul\":2537:2562   */\n  swap3\n  pop\n    /* \"#utility.yul\":2585:2586   */\n  dup3\n    /* \"#utility.yul\":2582:2583   */\n  dup3\n    /* \"#utility.yul\":2578:2587   */\n  add\n    /* \"#utility.yul\":2571:2587   */\n  swap1\n  pop\n    /* \"#utility.yul\":2606:2609   */\n  dup1\n    /* \"#utility.yul\":2603:2604   */\n  dup3\n    /* \"#utility.yul\":2600:2610   */\n  gt\n    /* \"#utility.yul\":2597:2633   */\n  iszero\n  tag_51\n  jumpi\n    /* \"#utility.yul\":2613:2631   */\n  tag_52\n  tag_25\n  jump\t// in\ntag_52:\n    /* \"#utility.yul\":2597:2633   */\ntag_51:\n    /* \"#utility.yul\":2449:2640   */\n  swap3\n  swap2\n  pop\n  pop\n  jump\t// out\n    /* \"#utility.yul\":2646:2826   */\ntag_14:\n    /* \"#utility.yul\":2694:2771   */\n  0x4e487b7100000000000000000000000000000000000000000000000000000000\n    /* \"#utility.yul\":2691:2692   */\n  0x00\n    /* \"#utility.yul\":2684:2772   */\n  mstore\n    /* \"#utility.yul\":2791:2795   */\n  0x21\n    /* \"#utility.yul\":2788:2789   */\n  0x04\n    /* \"#utility.yul\":2781:2796   */\n  mstore\n    /* \"#utility.yul\":2815:2819   */\n  0x24\n    /* \"#utility.yul\":2812:2813   */\n  0x00\n    /* \"#utility.yul\":2805:2820   */\n  revert\n    /* \"Subasta_Bonaduce.sol\":640:12684  contract AuctionSubasta {... */\ntag_15:\n  dataSize(sub_0)\n  dup1\n  dataOffset(sub_0)\n  0x00\n  codecopy\n  0x00\n  return\nstop\n\nsub_0: assembly {\n        /* \"Subasta_Bonaduce.sol\":640:12684  contract AuctionSubasta {... */\n      mstore(0x40, 0x80)\n      jumpi(tag_1, lt(calldatasize, 0x04))\n      shr(0xe0, calldataload(0x00))\n      dup1\n      0x8da5cb5b\n      gt\n      tag_21\n      jumpi\n      dup1\n      0xd57bde79\n      gt\n      tag_22\n      jumpi\n      dup1\n      0xd57bde79\n      eq\n      tag_16\n      jumpi\n      dup1\n      0xe34d1e69\n      eq\n      tag_17\n      jumpi\n      dup1\n      0xeba7bb9d\n      eq\n      tag_18\n      jumpi\n      dup1\n      0xecfc7ecc\n      eq\n      tag_19\n      jumpi\n      dup1\n      0xfe67a54b\n      eq\n      tag_20\n      jumpi\n      jump(tag_1)\n    tag_22:\n      dup1\n      0x8da5cb5b\n      eq\n      tag_11\n      jumpi\n      dup1\n      0x91f90157\n      eq\n      tag_12\n      jumpi\n      dup1\n      0x92bff767\n      eq\n      tag_13\n      jumpi\n      dup1\n      0xbe35460b\n      eq\n      tag_14\n      jumpi\n      dup1\n      0xcff29dfd\n      eq\n      tag_15\n      jumpi\n      jump(tag_1)\n    tag_21:\n      dup1\n      0x4b449cba\n      gt\n      tag_23\n      jumpi\n      dup1\n      0x4b449cba\n      eq\n      tag_6\n      jumpi\n      dup1\n      0x62c71635\n      eq\n      tag_7\n      jumpi\n      dup1\n      0x7cf2ed22\n      eq\n      tag_8\n      jumpi\n      dup1\n      0x7d615e65\n      eq\n      tag_9\n      jumpi\n      dup1\n      0x7fb45099\n      eq\n      tag_10\n      jumpi\n      jump(tag_1)\n    tag_23:\n      dup1\n      0x1ce2bcf5\n      eq\n      tag_2\n      jumpi\n      dup1\n      0x25abd4c7\n      eq\n      tag_3\n      jumpi\n      dup1\n      0x2f49e964\n      eq\n      tag_4\n      jumpi\n      dup1\n      0x47343711\n      eq\n      tag_5\n      jumpi\n    tag_1:\n      0x00\n      dup1\n      revert\n        /* \"Subasta_Bonaduce.sol\":7658:9123  function partialRefund() external onlyDuringActiveAuction {... */\n    tag_2:\n      callvalue\n      dup1\n      iszero\n      tag_24\n      jumpi\n      0x00\n      dup1\n      revert\n    tag_24:\n      pop\n      tag_25\n      tag_26\n      jump\t// in\n    tag_25:\n      stop\n        /* \"Subasta_Bonaduce.sol\":1800:1845  mapping(address => uint[]) public bidsHistory */\n    tag_3:\n      callvalue\n      dup1\n      iszero\n      tag_27\n      jumpi\n      0x00\n      dup1\n      revert\n    tag_27:\n      pop\n      tag_28\n      0x04\n      dup1\n      calldatasize\n      sub\n      dup2\n      add\n      swap1\n      tag_29\n      swap2\n      swap1\n      tag_30\n      jump\t// in\n    tag_29:\n      tag_31\n      jump\t// in\n    tag_28:\n      mload(0x40)\n      tag_32\n      swap2\n      swap1\n      tag_33\n      jump\t// in\n    tag_32:\n      mload(0x40)\n      dup1\n      swap2\n      sub\n      swap1\n      return\n        /* \"Subasta_Bonaduce.sol\":11991:12681  function withdrawWinningBid() external onlyOwner onlyAfterDepositsRefunded {... */\n    tag_4:\n      callvalue\n      dup1\n      iszero\n      tag_34\n      jumpi\n      0x00\n      dup1\n      revert\n    tag_34:\n      pop\n      tag_35\n      tag_36\n      jump\t// in\n    tag_35:\n      stop\n        /* \"Subasta_Bonaduce.sol\":7390:7490  function viewOffers() external view returns (Offer[] memory) {... */\n    tag_5:\n      callvalue\n      dup1\n      iszero\n      tag_37\n      jumpi\n      0x00\n      dup1\n      revert\n    tag_37:\n      pop\n      tag_38\n      tag_39\n      jump\t// in\n    tag_38:\n      mload(0x40)\n      tag_40\n      swap2\n      swap1\n      tag_41\n      jump\t// in\n    tag_40:\n      mload(0x40)\n      dup1\n      swap2\n      sub\n      swap1\n      return\n        /* \"Subasta_Bonaduce.sol\":951:977  uint public auctionEndTime */\n    tag_6:\n      callvalue\n      dup1\n      iszero\n      tag_42\n      jumpi\n      0x00\n      dup1\n      revert\n    tag_42:\n      pop\n      tag_43\n      tag_44\n      jump\t// in\n    tag_43:\n      mload(0x40)\n      tag_45\n      swap2\n      swap1\n      tag_33\n      jump\t// in\n    tag_45:\n      mload(0x40)\n      dup1\n      swap2\n      sub\n      swap1\n      return\n        /* \"Subasta_Bonaduce.sol\":1959:2000  mapping(address => uint) public totalBids */\n    tag_7:\n      callvalue\n      dup1\n      iszero\n      tag_46\n      jumpi\n      0x00\n      dup1\n      revert\n    tag_46:\n      pop\n      tag_47\n      0x04\n      dup1\n      calldatasize\n      sub\n      dup2\n      add\n      swap1\n      tag_48\n      swap2\n      swap1\n      tag_49\n      jump\t// in\n    tag_48:\n      tag_50\n      jump\t// in\n    tag_47:\n      mload(0x40)\n      tag_51\n      swap2\n      swap1\n      tag_33\n      jump\t// in\n    tag_51:\n      mload(0x40)\n      dup1\n      swap2\n      sub\n      swap1\n      return\n        /* \"Subasta_Bonaduce.sol\":10373:11298  function withdrawDeposits() external onlyOwner onlyAfterAuctionEnded {... */\n    tag_8:\n      callvalue\n      dup1\n      iszero\n      tag_52\n      jumpi\n      0x00\n      dup1\n      revert\n    tag_52:\n      pop\n      tag_53\n      tag_54\n      jump\t// in\n    tag_53:\n      stop\n        /* \"Subasta_Bonaduce.sol\":5636:5664  Offer[] public offersHistory */\n    tag_9:\n      callvalue\n      dup1\n      iszero\n      tag_55\n      jumpi\n      0x00\n      dup1\n      revert\n    tag_55:\n      pop\n      tag_56\n      0x04\n      dup1\n      calldatasize\n      sub\n      dup2\n      add\n      swap1\n      tag_57\n      swap2\n      swap1\n      tag_58\n      jump\t// in\n    tag_57:\n      tag_59\n      jump\t// in\n    tag_56:\n      mload(0x40)\n      tag_60\n      swap3\n      swap2\n      swap1\n      tag_61\n      jump\t// in\n    tag_60:\n      mload(0x40)\n      dup1\n      swap2\n      sub\n      swap1\n      return\n        /* \"Subasta_Bonaduce.sol\":857:889  AuctionState public auctionState */\n    tag_10:\n      callvalue\n      dup1\n      iszero\n      tag_62\n      jumpi\n      0x00\n      dup1\n      revert\n    tag_62:\n      pop\n      tag_63\n      tag_64\n      jump\t// in\n    tag_63:\n      mload(0x40)\n      tag_65\n      swap2\n      swap1\n      tag_66\n      jump\t// in\n    tag_65:\n      mload(0x40)\n      dup1\n      swap2\n      sub\n      swap1\n      return\n        /* \"Subasta_Bonaduce.sol\":1314:1334  address public owner */\n    tag_11:\n      callvalue\n      dup1\n      iszero\n      tag_67\n      jumpi\n      0x00\n      dup1\n      revert\n    tag_67:\n      pop\n      tag_68\n      tag_69\n      jump\t// in\n    tag_68:\n      mload(0x40)\n      tag_70\n      swap2\n      swap1\n      tag_71\n      jump\t// in\n    tag_70:\n      mload(0x40)\n      dup1\n      swap2\n      sub\n      swap1\n      return\n        /* \"Subasta_Bonaduce.sol\":1219:1247  address public highestBidder */\n    tag_12:\n      callvalue\n      dup1\n      iszero\n      tag_72\n      jumpi\n      0x00\n      dup1\n      revert\n    tag_72:\n      pop\n      tag_73\n      tag_74\n      jump\t// in\n    tag_73:\n      mload(0x40)\n      tag_75\n      swap2\n      swap1\n      tag_71\n      jump\t// in\n    tag_75:\n      mload(0x40)\n      dup1\n      swap2\n      sub\n      swap1\n      return\n        /* \"Subasta_Bonaduce.sol\":9292:9754  function viewDeposits() external view returns (address[] memory, uint[] memory) {... */\n    tag_13:\n      callvalue\n      dup1\n      iszero\n      tag_76\n      jumpi\n      0x00\n      dup1\n      revert\n    tag_76:\n      pop\n      tag_77\n      tag_78\n      jump\t// in\n    tag_77:\n      mload(0x40)\n      tag_79\n      swap3\n      swap2\n      swap1\n      tag_80\n      jump\t// in\n    tag_79:\n      mload(0x40)\n      dup1\n      swap2\n      sub\n      swap1\n      return\n        /* \"Subasta_Bonaduce.sol\":2125:2178  mapping(address => uint) public partialRefundedAmount */\n    tag_14:\n      callvalue\n      dup1\n      iszero\n      tag_81\n      jumpi\n      0x00\n      dup1\n      revert\n    tag_81:\n      pop\n      tag_82\n      0x04\n      dup1\n      calldatasize\n      sub\n      dup2\n      add\n      swap1\n      tag_83\n      swap2\n      swap1\n      tag_49\n      jump\t// in\n    tag_83:\n      tag_84\n      jump\t// in\n    tag_82:\n      mload(0x40)\n      tag_85\n      swap2\n      swap1\n      tag_33\n      jump\t// in\n    tag_85:\n      mload(0x40)\n      dup1\n      swap2\n      sub\n      swap1\n      return\n        /* \"Subasta_Bonaduce.sol\":2296:2320  address[] public bidders */\n    tag_15:\n      callvalue\n      dup1\n      iszero\n      tag_86\n      jumpi\n      0x00\n      dup1\n      revert\n    tag_86:\n      pop\n      tag_87\n      0x04\n      dup1\n      calldatasize\n      sub\n      dup2\n      add\n      swap1\n      tag_88\n      swap2\n      swap1\n      tag_58\n      jump\t// in\n    tag_88:\n      tag_89\n      jump\t// in\n    tag_87:\n      mload(0x40)\n      tag_90\n      swap2\n      swap1\n      tag_71\n      jump\t// in\n    tag_90:\n      mload(0x40)\n      dup1\n      swap2\n      sub\n      swap1\n      return\n        /* \"Subasta_Bonaduce.sol\":1125:1147  uint public highestBid */\n    tag_16:\n      callvalue\n      dup1\n      iszero\n      tag_91\n      jumpi\n      0x00\n      dup1\n      revert\n    tag_91:\n      pop\n      tag_92\n      tag_93\n      jump\t// in\n    tag_92:\n      mload(0x40)\n      tag_94\n      swap2\n      swap1\n      tag_33\n      jump\t// in\n    tag_94:\n      mload(0x40)\n      dup1\n      swap2\n      sub\n      swap1\n      return\n        /* \"Subasta_Bonaduce.sol\":11380:11916  function withdrawCommissions() external onlyOwner onlyAfterDepositsRefunded {... */\n    tag_17:\n      callvalue\n      dup1\n      iszero\n      tag_95\n      jumpi\n      0x00\n      dup1\n      revert\n    tag_95:\n      pop\n      tag_96\n      tag_97\n      jump\t// in\n    tag_96:\n      stop\n        /* \"Subasta_Bonaduce.sol\":1048:1075  uint public commissionFunds */\n    tag_18:\n      callvalue\n      dup1\n      iszero\n      tag_98\n      jumpi\n      0x00\n      dup1\n      revert\n    tag_98:\n      pop\n      tag_99\n      tag_100\n      jump\t// in\n    tag_99:\n      mload(0x40)\n      tag_101\n      swap2\n      swap1\n      tag_33\n      jump\t// in\n    tag_101:\n      mload(0x40)\n      dup1\n      swap2\n      sub\n      swap1\n      return\n        /* \"Subasta_Bonaduce.sol\":6347:7236  function placeBid() external payable onlyDuringActiveAuction validBid(msg.value) {... */\n    tag_19:\n      tag_102\n      tag_103\n      jump\t// in\n    tag_102:\n      stop\n        /* \"Subasta_Bonaduce.sol\":9840:10192  function endAuction() external onlyOwner onlyAfterAuctionEnded {... */\n    tag_20:\n      callvalue\n      dup1\n      iszero\n      tag_104\n      jumpi\n      0x00\n      dup1\n      revert\n    tag_104:\n      pop\n      tag_105\n      tag_106\n      jump\t// in\n    tag_105:\n      stop\n        /* \"Subasta_Bonaduce.sol\":7658:9123  function partialRefund() external onlyDuringActiveAuction {... */\n    tag_26:\n        /* \"Subasta_Bonaduce.sol\":2697:2716  AuctionState.Active */\n      0x00\n        /* \"Subasta_Bonaduce.sol\":2681:2716  auctionState == AuctionState.Active */\n      0x03\n      dup2\n      gt\n      iszero\n      tag_108\n      jumpi\n      tag_109\n      tag_110\n      jump\t// in\n    tag_109:\n    tag_108:\n        /* \"Subasta_Bonaduce.sol\":2681:2693  auctionState */\n      0x00\n      dup1\n      sload\n      swap1\n      0x0100\n      exp\n      swap1\n      div\n      0xff\n      and\n        /* \"Subasta_Bonaduce.sol\":2681:2716  auctionState == AuctionState.Active */\n      0x03\n      dup2\n      gt\n      iszero\n      tag_111\n      jumpi\n      tag_112\n      tag_110\n      jump\t// in\n    tag_112:\n    tag_111:\n      eq\n        /* \"Subasta_Bonaduce.sol\":2673:2746  require(auctionState == AuctionState.Active, \"La subasta no esta activa\") */\n      tag_113\n      jumpi\n      mload(0x40)\n      0x08c379a000000000000000000000000000000000000000000000000000000000\n      dup2\n      mstore\n      0x04\n      add\n      tag_114\n      swap1\n      tag_115\n      jump\t// in\n    tag_114:\n      mload(0x40)\n      dup1\n      swap2\n      sub\n      swap1\n      revert\n    tag_113:\n        /* \"Subasta_Bonaduce.sol\":7747:7769  AuctionState.Completed */\n      0x03\n        /* \"Subasta_Bonaduce.sol\":7731:7769  auctionState != AuctionState.Completed */\n      dup1\n      dup2\n      gt\n      iszero\n      tag_117\n      jumpi\n      tag_118\n      tag_110\n      jump\t// in\n    tag_118:\n    tag_117:\n        /* \"Subasta_Bonaduce.sol\":7731:7743  auctionState */\n      0x00\n      dup1\n      sload\n      swap1\n      0x0100\n      exp\n      swap1\n      div\n      0xff\n      and\n        /* \"Subasta_Bonaduce.sol\":7731:7769  auctionState != AuctionState.Completed */\n      0x03\n      dup2\n      gt\n      iszero\n      tag_119\n      jumpi\n      tag_120\n      tag_110\n      jump\t// in\n    tag_120:\n    tag_119:\n      sub\n        /* \"Subasta_Bonaduce.sol\":7723:7807  require(auctionState != AuctionState.Completed, \"La subasta ya ha sido completada.\") */\n      tag_121\n      jumpi\n      mload(0x40)\n      0x08c379a000000000000000000000000000000000000000000000000000000000\n      dup2\n      mstore\n      0x04\n      add\n      tag_122\n      swap1\n      tag_123\n      jump\t// in\n    tag_122:\n      mload(0x40)\n      dup1\n      swap2\n      sub\n      swap1\n      revert\n    tag_121:\n        /* \"Subasta_Bonaduce.sol\":7814:7836  uint totalPreviousBids */\n      0x00\n        /* \"Subasta_Bonaduce.sol\":7847:7870  uint[] storage userBids */\n      dup1\n        /* \"Subasta_Bonaduce.sol\":7873:7884  bidsHistory */\n      0x06\n        /* \"Subasta_Bonaduce.sol\":7873:7896  bidsHistory[msg.sender] */\n      0x00\n        /* \"Subasta_Bonaduce.sol\":7885:7895  msg.sender */\n      caller\n        /* \"Subasta_Bonaduce.sol\":7873:7896  bidsHistory[msg.sender] */\n      0xffffffffffffffffffffffffffffffffffffffff\n      and\n      0xffffffffffffffffffffffffffffffffffffffff\n      and\n      dup2\n      mstore\n      0x20\n      add\n      swap1\n      dup2\n      mstore\n      0x20\n      add\n      0x00\n      keccak256\n        /* \"Subasta_Bonaduce.sol\":7847:7896  uint[] storage userBids = bidsHistory[msg.sender] */\n      swap1\n      pop\n        /* \"Subasta_Bonaduce.sol\":7929:7930  1 */\n      0x01\n        /* \"Subasta_Bonaduce.sol\":7911:7919  userBids */\n      dup2\n        /* \"Subasta_Bonaduce.sol\":7911:7926  userBids.length */\n      dup1\n      sload\n      swap1\n      pop\n        /* \"Subasta_Bonaduce.sol\":7911:7930  userBids.length > 1 */\n      gt\n        /* \"Subasta_Bonaduce.sol\":7903:7974  require(userBids.length > 1, \"No hay ofertas anteriores para retirar.\") */\n      tag_124\n      jumpi\n      mload(0x40)\n      0x08c379a000000000000000000000000000000000000000000000000000000000\n      dup2\n      mstore\n      0x04\n      add\n      tag_125\n      swap1\n      tag_126\n      jump\t// in\n    tag_125:\n      mload(0x40)\n      dup1\n      swap2\n      sub\n      swap1\n      revert\n    tag_124:\n        /* \"Subasta_Bonaduce.sol\":8053:8059  uint i */\n      0x00\n        /* \"Subasta_Bonaduce.sol\":8048:8146  for (uint i = 0; i < userBids.length - 1; i++) {... */\n    tag_127:\n        /* \"Subasta_Bonaduce.sol\":8087:8088  1 */\n      0x01\n        /* \"Subasta_Bonaduce.sol\":8069:8077  userBids */\n      dup3\n        /* \"Subasta_Bonaduce.sol\":8069:8084  userBids.length */\n      dup1\n      sload\n      swap1\n      pop\n        /* \"Subasta_Bonaduce.sol\":8069:8088  userBids.length - 1 */\n      tag_130\n      swap2\n      swap1\n      tag_131\n      jump\t// in\n    tag_130:\n        /* \"Subasta_Bonaduce.sol\":8065:8066  i */\n      dup2\n        /* \"Subasta_Bonaduce.sol\":8065:8088  i < userBids.length - 1 */\n      lt\n        /* \"Subasta_Bonaduce.sol\":8048:8146  for (uint i = 0; i < userBids.length - 1; i++) {... */\n      iszero\n      tag_128\n      jumpi\n        /* \"Subasta_Bonaduce.sol\":8127:8135  userBids */\n      dup2\n        /* \"Subasta_Bonaduce.sol\":8136:8137  i */\n      dup2\n        /* \"Subasta_Bonaduce.sol\":8127:8138  userBids[i] */\n      dup2\n      sload\n      dup2\n      lt\n      tag_132\n      jumpi\n      tag_133\n      tag_134\n      jump\t// in\n    tag_133:\n    tag_132:\n      swap1\n      0x00\n      mstore\n      keccak256(0x00, 0x20)\n      add\n      sload\n        /* \"Subasta_Bonaduce.sol\":8106:8138  totalPreviousBids += userBids[i] */\n      dup4\n      tag_136\n      swap2\n      swap1\n      tag_137\n      jump\t// in\n    tag_136:\n      swap3\n      pop\n        /* \"Subasta_Bonaduce.sol\":8090:8093  i++ */\n      dup1\n      dup1\n      0x01\n      add\n      swap2\n      pop\n      pop\n        /* \"Subasta_Bonaduce.sol\":8048:8146  for (uint i = 0; i < userBids.length - 1; i++) {... */\n      jump(tag_127)\n    tag_128:\n      pop\n        /* \"Subasta_Bonaduce.sol\":8228:8249  uint refundableAmount */\n      0x00\n        /* \"Subasta_Bonaduce.sol\":8272:8293  partialRefundedAmount */\n      0x08\n        /* \"Subasta_Bonaduce.sol\":8272:8305  partialRefundedAmount[msg.sender] */\n      0x00\n        /* \"Subasta_Bonaduce.sol\":8294:8304  msg.sender */\n      caller\n        /* \"Subasta_Bonaduce.sol\":8272:8305  partialRefundedAmount[msg.sender] */\n      0xffffffffffffffffffffffffffffffffffffffff\n      and\n      0xffffffffffffffffffffffffffffffffffffffff\n      and\n      dup2\n      mstore\n      0x20\n      add\n      swap1\n      dup2\n      mstore\n      0x20\n      add\n      0x00\n      keccak256\n      sload\n        /* \"Subasta_Bonaduce.sol\":8252:8269  totalPreviousBids */\n      dup4\n        /* \"Subasta_Bonaduce.sol\":8252:8305  totalPreviousBids - partialRefundedAmount[msg.sender] */\n      tag_138\n      swap2\n      swap1\n      tag_131\n      jump\t// in\n    tag_138:\n        /* \"Subasta_Bonaduce.sol\":8228:8305  uint refundableAmount = totalPreviousBids - partialRefundedAmount[msg.sender] */\n      swap1\n      pop\n        /* \"Subasta_Bonaduce.sol\":8339:8340  0 */\n      0x00\n        /* \"Subasta_Bonaduce.sol\":8320:8336  refundableAmount */\n      dup2\n        /* \"Subasta_Bonaduce.sol\":8320:8340  refundableAmount > 0 */\n      gt\n        /* \"Subasta_Bonaduce.sol\":8312:8384  require(refundableAmount > 0, \"No hay saldo adicional para reembolsar.\") */\n      tag_139\n      jumpi\n      mload(0x40)\n      0x08c379a000000000000000000000000000000000000000000000000000000000\n      dup2\n      mstore\n      0x04\n      add\n      tag_140\n      swap1\n      tag_141\n      jump\t// in\n    tag_140:\n      mload(0x40)\n      dup1\n      swap2\n      sub\n      swap1\n      revert\n    tag_139:\n        /* \"Subasta_Bonaduce.sol\":8488:8504  refundableAmount */\n      dup1\n        /* \"Subasta_Bonaduce.sol\":8451:8472  partialRefundedAmount */\n      0x08\n        /* \"Subasta_Bonaduce.sol\":8451:8484  partialRefundedAmount[msg.sender] */\n      0x00\n        /* \"Subasta_Bonaduce.sol\":8473:8483  msg.sender */\n      caller\n        /* \"Subasta_Bonaduce.sol\":8451:8484  partialRefundedAmount[msg.sender] */\n      0xffffffffffffffffffffffffffffffffffffffff\n      and\n      0xffffffffffffffffffffffffffffffffffffffff\n      and\n      dup2\n      mstore\n      0x20\n      add\n      swap1\n      dup2\n      mstore\n      0x20\n      add\n      0x00\n      keccak256\n      0x00\n        /* \"Subasta_Bonaduce.sol\":8451:8504  partialRefundedAmount[msg.sender] += refundableAmount */\n      dup3\n      dup3\n      sload\n      tag_142\n      swap2\n      swap1\n      tag_137\n      jump\t// in\n    tag_142:\n      swap3\n      pop\n      pop\n      dup2\n      swap1\n      sstore\n      pop\n        /* \"Subasta_Bonaduce.sol\":8539:8560  uint commissionAmount */\n      0x00\n        /* \"Subasta_Bonaduce.sol\":8597:8600  100 */\n      0x64\n        /* \"Subasta_Bonaduce.sol\":1466:1467  2 */\n      0x02\n        /* \"Subasta_Bonaduce.sol\":8564:8580  refundableAmount */\n      dup4\n        /* \"Subasta_Bonaduce.sol\":8564:8593  refundableAmount * COMMISSION */\n      tag_143\n      swap2\n      swap1\n      tag_144\n      jump\t// in\n    tag_143:\n        /* \"Subasta_Bonaduce.sol\":8563:8600  (refundableAmount * COMMISSION) / 100 */\n      tag_145\n      swap2\n      swap1\n      tag_146\n      jump\t// in\n    tag_145:\n        /* \"Subasta_Bonaduce.sol\":8539:8600  uint commissionAmount = (refundableAmount * COMMISSION) / 100 */\n      swap1\n      pop\n        /* \"Subasta_Bonaduce.sol\":8607:8624  uint refundAmount */\n      0x00\n        /* \"Subasta_Bonaduce.sol\":8646:8662  commissionAmount */\n      dup2\n        /* \"Subasta_Bonaduce.sol\":8627:8643  refundableAmount */\n      dup4\n        /* \"Subasta_Bonaduce.sol\":8627:8662  refundableAmount - commissionAmount */\n      tag_147\n      swap2\n      swap1\n      tag_131\n      jump\t// in\n    tag_147:\n        /* \"Subasta_Bonaduce.sol\":8607:8662  uint refundAmount = refundableAmount - commissionAmount */\n      swap1\n      pop\n        /* \"Subasta_Bonaduce.sol\":8767:8775  userBids */\n      dup4\n        /* \"Subasta_Bonaduce.sol\":8794:8795  1 */\n      0x01\n        /* \"Subasta_Bonaduce.sol\":8776:8784  userBids */\n      dup6\n        /* \"Subasta_Bonaduce.sol\":8776:8791  userBids.length */\n      dup1\n      sload\n      swap1\n      pop\n        /* \"Subasta_Bonaduce.sol\":8776:8795  userBids.length - 1 */\n      tag_148\n      swap2\n      swap1\n      tag_131\n      jump\t// in\n    tag_148:\n        /* \"Subasta_Bonaduce.sol\":8767:8796  userBids[userBids.length - 1] */\n      dup2\n      sload\n      dup2\n      lt\n      tag_149\n      jumpi\n      tag_150\n      tag_134\n      jump\t// in\n    tag_150:\n    tag_149:\n      swap1\n      0x00\n      mstore\n      keccak256(0x00, 0x20)\n      add\n      sload\n        /* \"Subasta_Bonaduce.sol\":8743:8752  totalBids */\n      0x07\n        /* \"Subasta_Bonaduce.sol\":8743:8764  totalBids[msg.sender] */\n      0x00\n        /* \"Subasta_Bonaduce.sol\":8753:8763  msg.sender */\n      caller\n        /* \"Subasta_Bonaduce.sol\":8743:8764  totalBids[msg.sender] */\n      0xffffffffffffffffffffffffffffffffffffffff\n      and\n      0xffffffffffffffffffffffffffffffffffffffff\n      and\n      dup2\n      mstore\n      0x20\n      add\n      swap1\n      dup2\n      mstore\n      0x20\n      add\n      0x00\n      keccak256\n        /* \"Subasta_Bonaduce.sol\":8743:8796  totalBids[msg.sender] = userBids[userBids.length - 1] */\n      dup2\n      swap1\n      sstore\n      pop\n        /* \"Subasta_Bonaduce.sol\":8867:8883  commissionAmount */\n      dup2\n        /* \"Subasta_Bonaduce.sol\":8848:8863  commissionFunds */\n      0x02\n      0x00\n        /* \"Subasta_Bonaduce.sol\":8848:8883  commissionFunds += commissionAmount */\n      dup3\n      dup3\n      sload\n      tag_152\n      swap2\n      swap1\n      tag_137\n      jump\t// in\n    tag_152:\n      swap3\n      pop\n      pop\n      dup2\n      swap1\n      sstore\n      pop\n        /* \"Subasta_Bonaduce.sol\":8933:8945  bool success */\n      0x00\n        /* \"Subasta_Bonaduce.sol\":8959:8969  msg.sender */\n      caller\n        /* \"Subasta_Bonaduce.sol\":8951:8975  payable(msg.sender).call */\n      0xffffffffffffffffffffffffffffffffffffffff\n      and\n        /* \"Subasta_Bonaduce.sol\":8983:8995  refundAmount */\n      dup3\n        /* \"Subasta_Bonaduce.sol\":8951:9000  payable(msg.sender).call{value: refundAmount}(\"\") */\n      mload(0x40)\n      tag_153\n      swap1\n      tag_154\n      jump\t// in\n    tag_153:\n      0x00\n      mload(0x40)\n      dup1\n      dup4\n      sub\n      dup2\n      dup6\n      dup8\n      gas\n      call\n      swap3\n      pop\n      pop\n      pop\n      returndatasize\n      dup1\n      0x00\n      dup2\n      eq\n      tag_157\n      jumpi\n      mload(0x40)\n      swap2\n      pop\n      and(add(returndatasize, 0x3f), not(0x1f))\n      dup3\n      add\n      0x40\n      mstore\n      returndatasize\n      dup3\n      mstore\n      returndatasize\n      0x00\n      0x20\n      dup5\n      add\n      returndatacopy\n      jump(tag_156)\n    tag_157:\n      0x60\n      swap2\n      pop\n    tag_156:\n      pop\n        /* \"Subasta_Bonaduce.sol\":8932:9000  (bool success, ) = payable(msg.sender).call{value: refundAmount}(\"\") */\n      pop\n      swap1\n      pop\n        /* \"Subasta_Bonaduce.sol\":9015:9022  success */\n      dup1\n        /* \"Subasta_Bonaduce.sol\":9007:9066  require(success, \"Fallo al realizar el reembolso parcial.\") */\n      tag_158\n      jumpi\n      mload(0x40)\n      0x08c379a000000000000000000000000000000000000000000000000000000000\n      dup2\n      mstore\n      0x04\n      add\n      tag_159\n      swap1\n      tag_160\n      jump\t// in\n    tag_159:\n      mload(0x40)\n      dup1\n      swap2\n      sub\n      swap1\n      revert\n    tag_158:\n        /* \"Subasta_Bonaduce.sol\":9094:9104  msg.sender */\n      caller\n        /* \"Subasta_Bonaduce.sol\":9080:9119  PartialRefund(msg.sender, refundAmount) */\n      0xffffffffffffffffffffffffffffffffffffffff\n      and\n      0xdce68997783ae47468b6fb0dd39cca315f9082d51d9ab3df8747c70512aa8ff2\n        /* \"Subasta_Bonaduce.sol\":9106:9118  refundAmount */\n      dup4\n        /* \"Subasta_Bonaduce.sol\":9080:9119  PartialRefund(msg.sender, refundAmount) */\n      mload(0x40)\n      tag_161\n      swap2\n      swap1\n      tag_33\n      jump\t// in\n    tag_161:\n      mload(0x40)\n      dup1\n      swap2\n      sub\n      swap1\n      log2\n        /* \"Subasta_Bonaduce.sol\":7716:9123  {... */\n      pop\n      pop\n      pop\n      pop\n      pop\n      pop\n        /* \"Subasta_Bonaduce.sol\":7658:9123  function partialRefund() external onlyDuringActiveAuction {... */\n      jump\t// out\n        /* \"Subasta_Bonaduce.sol\":1800:1845  mapping(address => uint[]) public bidsHistory */\n    tag_31:\n      mstore(0x20, 0x06)\n      dup2\n      0x00\n      mstore\n      keccak256(0x00, 0x40)\n      dup2\n      dup2\n      sload\n      dup2\n      lt\n      tag_162\n      jumpi\n      0x00\n      dup1\n      revert\n    tag_162:\n      swap1\n      0x00\n      mstore\n      keccak256(0x00, 0x20)\n      add\n      0x00\n      swap2\n      pop\n      swap2\n      pop\n      pop\n      sload\n      dup2\n      jump\t// out\n        /* \"Subasta_Bonaduce.sol\":11991:12681  function withdrawWinningBid() external onlyOwner onlyAfterDepositsRefunded {... */\n    tag_36:\n        /* \"Subasta_Bonaduce.sol\":2474:2479  owner */\n      0x05\n      0x00\n      swap1\n      sload\n      swap1\n      0x0100\n      exp\n      swap1\n      div\n      0xffffffffffffffffffffffffffffffffffffffff\n      and\n        /* \"Subasta_Bonaduce.sol\":2460:2479  msg.sender == owner */\n      0xffffffffffffffffffffffffffffffffffffffff\n      and\n        /* \"Subasta_Bonaduce.sol\":2460:2470  msg.sender */\n      caller\n        /* \"Subasta_Bonaduce.sol\":2460:2479  msg.sender == owner */\n      0xffffffffffffffffffffffffffffffffffffffff\n      and\n      eq\n        /* \"Subasta_Bonaduce.sol\":2452:2531  require(msg.sender == owner, \"Solo el propietario puede ejecutar esta funcion\") */\n      tag_165\n      jumpi\n      mload(0x40)\n      0x08c379a000000000000000000000000000000000000000000000000000000000\n      dup2\n      mstore\n      0x04\n      add\n      tag_166\n      swap1\n      tag_167\n      jump\t// in\n    tag_166:\n      mload(0x40)\n      dup1\n      swap2\n      sub\n      swap1\n      revert\n    tag_165:\n        /* \"Subasta_Bonaduce.sol\":3494:3523  AuctionState.DepositsRefunded */\n      0x02\n        /* \"Subasta_Bonaduce.sol\":3478:3523  auctionState == AuctionState.DepositsRefunded */\n      0x03\n      dup2\n      gt\n      iszero\n      tag_169\n      jumpi\n      tag_170\n      tag_110\n      jump\t// in\n    tag_170:\n    tag_169:\n        /* \"Subasta_Bonaduce.sol\":3478:3490  auctionState */\n      0x00\n      dup1\n      sload\n      swap1\n      0x0100\n      exp\n      swap1\n      div\n      0xff\n      and\n        /* \"Subasta_Bonaduce.sol\":3478:3523  auctionState == AuctionState.DepositsRefunded */\n      0x03\n      dup2\n      gt\n      iszero\n      tag_171\n      jumpi\n      tag_172\n      tag_110\n      jump\t// in\n    tag_172:\n    tag_171:\n      eq\n        /* \"Subasta_Bonaduce.sol\":3470:3567  require(auctionState == AuctionState.DepositsRefunded, \"Los depositos no han sido reembolsados.\") */\n      tag_173\n      jumpi\n      mload(0x40)\n      0x08c379a000000000000000000000000000000000000000000000000000000000\n      dup2\n      mstore\n      0x04\n      add\n      tag_174\n      swap1\n      tag_175\n      jump\t// in\n    tag_174:\n      mload(0x40)\n      dup1\n      swap2\n      sub\n      swap1\n      revert\n    tag_173:\n        /* \"Subasta_Bonaduce.sol\":12101:12123  AuctionState.Completed */\n      0x03\n        /* \"Subasta_Bonaduce.sol\":12085:12123  auctionState != AuctionState.Completed */\n      dup1\n      dup2\n      gt\n      iszero\n      tag_177\n      jumpi\n      tag_178\n      tag_110\n      jump\t// in\n    tag_178:\n    tag_177:\n        /* \"Subasta_Bonaduce.sol\":12085:12097  auctionState */\n      0x00\n      dup1\n      sload\n      swap1\n      0x0100\n      exp\n      swap1\n      div\n      0xff\n      and\n        /* \"Subasta_Bonaduce.sol\":12085:12123  auctionState != AuctionState.Completed */\n      0x03\n      dup2\n      gt\n      iszero\n      tag_179\n      jumpi\n      tag_180\n      tag_110\n      jump\t// in\n    tag_180:\n    tag_179:\n      sub\n        /* \"Subasta_Bonaduce.sol\":12077:12161  require(auctionState != AuctionState.Completed, \"La subasta ya ha sido completada.\") */\n      tag_181\n      jumpi\n      mload(0x40)\n      0x08c379a000000000000000000000000000000000000000000000000000000000\n      dup2\n      mstore\n      0x04\n      add\n      tag_182\n      swap1\n      tag_123\n      jump\t// in\n    tag_182:\n      mload(0x40)\n      dup1\n      swap2\n      sub\n      swap1\n      revert\n    tag_181:\n        /* \"Subasta_Bonaduce.sol\":12196:12225  AuctionState.DepositsRefunded */\n      0x02\n        /* \"Subasta_Bonaduce.sol\":12180:12225  auctionState == AuctionState.DepositsRefunded */\n      0x03\n      dup2\n      gt\n      iszero\n      tag_183\n      jumpi\n      tag_184\n      tag_110\n      jump\t// in\n    tag_184:\n    tag_183:\n        /* \"Subasta_Bonaduce.sol\":12180:12192  auctionState */\n      0x00\n      dup1\n      sload\n      swap1\n      0x0100\n      exp\n      swap1\n      div\n      0xff\n      and\n        /* \"Subasta_Bonaduce.sol\":12180:12225  auctionState == AuctionState.DepositsRefunded */\n      0x03\n      dup2\n      gt\n      iszero\n      tag_185\n      jumpi\n      tag_186\n      tag_110\n      jump\t// in\n    tag_186:\n    tag_185:\n      eq\n        /* \"Subasta_Bonaduce.sol\":12172:12269  require(auctionState == AuctionState.DepositsRefunded, \"Los depositos no han sido reembolsados.\") */\n      tag_187\n      jumpi\n      mload(0x40)\n      0x08c379a000000000000000000000000000000000000000000000000000000000\n      dup2\n      mstore\n      0x04\n      add\n      tag_188\n      swap1\n      tag_175\n      jump\t// in\n    tag_188:\n      mload(0x40)\n      dup1\n      swap2\n      sub\n      swap1\n      revert\n    tag_187:\n        /* \"Subasta_Bonaduce.sol\":12280:12291  uint amount */\n      0x00\n        /* \"Subasta_Bonaduce.sol\":12294:12304  highestBid */\n      sload(0x03)\n        /* \"Subasta_Bonaduce.sol\":12280:12304  uint amount = highestBid */\n      swap1\n      pop\n        /* \"Subasta_Bonaduce.sol\":12330:12352  AuctionState.Completed */\n      0x03\n        /* \"Subasta_Bonaduce.sol\":12315:12327  auctionState */\n      0x00\n      dup1\n        /* \"Subasta_Bonaduce.sol\":12315:12352  auctionState = AuctionState.Completed */\n      0x0100\n      exp\n      dup2\n      sload\n      dup2\n      0xff\n      mul\n      not\n      and\n      swap1\n      dup4\n      0x03\n      dup2\n      gt\n      iszero\n      tag_189\n      jumpi\n      tag_190\n      tag_110\n      jump\t// in\n    tag_190:\n    tag_189:\n      mul\n      or\n      swap1\n      sstore\n      pop\n        /* \"Subasta_Bonaduce.sol\":12447:12448  0 */\n      0x00\n        /* \"Subasta_Bonaduce.sol\":12420:12429  totalBids */\n      0x07\n        /* \"Subasta_Bonaduce.sol\":12420:12444  totalBids[highestBidder] */\n      0x00\n        /* \"Subasta_Bonaduce.sol\":12430:12443  highestBidder */\n      0x04\n      0x00\n      swap1\n      sload\n      swap1\n      0x0100\n      exp\n      swap1\n      div\n      0xffffffffffffffffffffffffffffffffffffffff\n      and\n        /* \"Subasta_Bonaduce.sol\":12420:12444  totalBids[highestBidder] */\n      0xffffffffffffffffffffffffffffffffffffffff\n      and\n      0xffffffffffffffffffffffffffffffffffffffff\n      and\n      dup2\n      mstore\n      0x20\n      add\n      swap1\n      dup2\n      mstore\n      0x20\n      add\n      0x00\n      keccak256\n        /* \"Subasta_Bonaduce.sol\":12420:12448  totalBids[highestBidder] = 0 */\n      dup2\n      swap1\n      sstore\n      pop\n        /* \"Subasta_Bonaduce.sol\":12462:12474  bool success */\n      0x00\n        /* \"Subasta_Bonaduce.sol\":12488:12493  owner */\n      0x05\n      0x00\n      swap1\n      sload\n      swap1\n      0x0100\n      exp\n      swap1\n      div\n      0xffffffffffffffffffffffffffffffffffffffff\n      and\n        /* \"Subasta_Bonaduce.sol\":12480:12499  payable(owner).call */\n      0xffffffffffffffffffffffffffffffffffffffff\n      and\n        /* \"Subasta_Bonaduce.sol\":12507:12513  amount */\n      dup3\n        /* \"Subasta_Bonaduce.sol\":12480:12518  payable(owner).call{value: amount}(\"\") */\n      mload(0x40)\n      tag_191\n      swap1\n      tag_154\n      jump\t// in\n    tag_191:\n      0x00\n      mload(0x40)\n      dup1\n      dup4\n      sub\n      dup2\n      dup6\n      dup8\n      gas\n      call\n      swap3\n      pop\n      pop\n      pop\n      returndatasize\n      dup1\n      0x00\n      dup2\n      eq\n      tag_194\n      jumpi\n      mload(0x40)\n      swap2\n      pop\n      and(add(returndatasize, 0x3f), not(0x1f))\n      dup3\n      add\n      0x40\n      mstore\n      returndatasize\n      dup3\n      mstore\n      returndatasize\n      0x00\n      0x20\n      dup5\n      add\n      returndatacopy\n      jump(tag_193)\n    tag_194:\n      0x60\n      swap2\n      pop\n    tag_193:\n      pop\n        /* \"Subasta_Bonaduce.sol\":12461:12518  (bool success, ) = payable(owner).call{value: amount}(\"\") */\n      pop\n      swap1\n      pop\n        /* \"Subasta_Bonaduce.sol\":12537:12544  success */\n      dup1\n        /* \"Subasta_Bonaduce.sol\":12529:12585  require(success, \"Fallo al retirar la oferta ganadora.\") */\n      tag_195\n      jumpi\n      mload(0x40)\n      0x08c379a000000000000000000000000000000000000000000000000000000000\n      dup2\n      mstore\n      0x04\n      add\n      tag_196\n      swap1\n      tag_197\n      jump\t// in\n    tag_196:\n      mload(0x40)\n      dup1\n      swap2\n      sub\n      swap1\n      revert\n    tag_195:\n        /* \"Subasta_Bonaduce.sol\":12603:12630  WinningBidWithdrawn(amount) */\n      0xdb23c6f1ecd7f6b51f64de3f6317061f4bb0cb9a23217a658fac91c6af46aaaa\n        /* \"Subasta_Bonaduce.sol\":12623:12629  amount */\n      dup3\n        /* \"Subasta_Bonaduce.sol\":12603:12630  WinningBidWithdrawn(amount) */\n      mload(0x40)\n      tag_198\n      swap2\n      swap1\n      tag_33\n      jump\t// in\n    tag_198:\n      mload(0x40)\n      dup1\n      swap2\n      sub\n      swap1\n      log1\n        /* \"Subasta_Bonaduce.sol\":12648:12673  AuctionCompleted(success) */\n      0xd32867df73bc4c73068741f056b4515ddce6636a748ab9317e2c69e0fbcb356a\n        /* \"Subasta_Bonaduce.sol\":12665:12672  success */\n      dup2\n        /* \"Subasta_Bonaduce.sol\":12648:12673  AuctionCompleted(success) */\n      mload(0x40)\n      tag_199\n      swap2\n      swap1\n      tag_200\n      jump\t// in\n    tag_199:\n      mload(0x40)\n      dup1\n      swap2\n      sub\n      swap1\n      log1\n        /* \"Subasta_Bonaduce.sol\":12066:12681  {... */\n      pop\n      pop\n        /* \"Subasta_Bonaduce.sol\":11991:12681  function withdrawWinningBid() external onlyOwner onlyAfterDepositsRefunded {... */\n      jump\t// out\n        /* \"Subasta_Bonaduce.sol\":7390:7490  function viewOffers() external view returns (Offer[] memory) {... */\n    tag_39:\n        /* \"Subasta_Bonaduce.sol\":7435:7449  Offer[] memory */\n      0x60\n        /* \"Subasta_Bonaduce.sol\":7469:7482  offersHistory */\n      0x0a\n        /* \"Subasta_Bonaduce.sol\":7462:7482  return offersHistory */\n      dup1\n      sload\n      dup1\n      0x20\n      mul\n      0x20\n      add\n      mload(0x40)\n      swap1\n      dup2\n      add\n      0x40\n      mstore\n      dup1\n      swap3\n      swap2\n      swap1\n      dup2\n      dup2\n      mstore\n      0x20\n      add\n      0x00\n      swap1\n    tag_202:\n      dup3\n      dup3\n      lt\n      iszero\n      tag_203\n      jumpi\n      dup4\n      dup3\n      swap1\n      0x00\n      mstore\n      keccak256(0x00, 0x20)\n      swap1\n      0x02\n      mul\n      add\n      mload(0x40)\n      dup1\n      0x40\n      add\n      0x40\n      mstore\n      swap1\n      dup2\n      0x00\n      dup3\n      add\n      0x00\n      swap1\n      sload\n      swap1\n      0x0100\n      exp\n      swap1\n      div\n      0xffffffffffffffffffffffffffffffffffffffff\n      and\n      0xffffffffffffffffffffffffffffffffffffffff\n      and\n      0xffffffffffffffffffffffffffffffffffffffff\n      and\n      dup2\n      mstore\n      0x20\n      add\n      0x01\n      dup3\n      add\n      sload\n      dup2\n      mstore\n      pop\n      pop\n      dup2\n      mstore\n      0x20\n      add\n      swap1\n      0x01\n      add\n      swap1\n      jump(tag_202)\n    tag_203:\n      pop\n      pop\n      pop\n      pop\n      swap1\n      pop\n        /* \"Subasta_Bonaduce.sol\":7390:7490  function viewOffers() external view returns (Offer[] memory) {... */\n      swap1\n      jump\t// out\n        /* \"Subasta_Bonaduce.sol\":951:977  uint public auctionEndTime */\n    tag_44:\n      sload(0x01)\n      dup2\n      jump\t// out\n        /* \"Subasta_Bonaduce.sol\":1959:2000  mapping(address => uint) public totalBids */\n    tag_50:\n      mstore(0x20, 0x07)\n      dup1\n      0x00\n      mstore\n      keccak256(0x00, 0x40)\n      0x00\n      swap2\n      pop\n      swap1\n      pop\n      sload\n      dup2\n      jump\t// out\n        /* \"Subasta_Bonaduce.sol\":10373:11298  function withdrawDeposits() external onlyOwner onlyAfterAuctionEnded {... */\n    tag_54:\n        /* \"Subasta_Bonaduce.sol\":2474:2479  owner */\n      0x05\n      0x00\n      swap1\n      sload\n      swap1\n      0x0100\n      exp\n      swap1\n      div\n      0xffffffffffffffffffffffffffffffffffffffff\n      and\n        /* \"Subasta_Bonaduce.sol\":2460:2479  msg.sender == owner */\n      0xffffffffffffffffffffffffffffffffffffffff\n      and\n        /* \"Subasta_Bonaduce.sol\":2460:2470  msg.sender */\n      caller\n        /* \"Subasta_Bonaduce.sol\":2460:2479  msg.sender == owner */\n      0xffffffffffffffffffffffffffffffffffffffff\n      and\n      eq\n        /* \"Subasta_Bonaduce.sol\":2452:2531  require(msg.sender == owner, \"Solo el propietario puede ejecutar esta funcion\") */\n      tag_206\n      jumpi\n      mload(0x40)\n      0x08c379a000000000000000000000000000000000000000000000000000000000\n      dup2\n      mstore\n      0x04\n      add\n      tag_207\n      swap1\n      tag_167\n      jump\t// in\n    tag_207:\n      mload(0x40)\n      dup1\n      swap2\n      sub\n      swap1\n      revert\n    tag_206:\n        /* \"Subasta_Bonaduce.sol\":3236:3250  auctionEndTime */\n      sload(0x01)\n        /* \"Subasta_Bonaduce.sol\":3217:3232  block.timestamp */\n      timestamp\n        /* \"Subasta_Bonaduce.sol\":3217:3250  block.timestamp >= auctionEndTime */\n      lt\n      iszero\n        /* \"Subasta_Bonaduce.sol\":3209:3281  require(block.timestamp >= auctionEndTime, \"La subasta no ha terminado\") */\n      tag_209\n      jumpi\n      mload(0x40)\n      0x08c379a000000000000000000000000000000000000000000000000000000000\n      dup2\n      mstore\n      0x04\n      add\n      tag_210\n      swap1\n      tag_211\n      jump\t// in\n    tag_210:\n      mload(0x40)\n      dup1\n      swap2\n      sub\n      swap1\n      revert\n    tag_209:\n        /* \"Subasta_Bonaduce.sol\":10477:10499  AuctionState.Completed */\n      0x03\n        /* \"Subasta_Bonaduce.sol\":10461:10499  auctionState != AuctionState.Completed */\n      dup1\n      dup2\n      gt\n      iszero\n      tag_213\n      jumpi\n      tag_214\n      tag_110\n      jump\t// in\n    tag_214:\n    tag_213:\n        /* \"Subasta_Bonaduce.sol\":10461:10473  auctionState */\n      0x00\n      dup1\n      sload\n      swap1\n      0x0100\n      exp\n      swap1\n      div\n      0xff\n      and\n        /* \"Subasta_Bonaduce.sol\":10461:10499  auctionState != AuctionState.Completed */\n      0x03\n      dup2\n      gt\n      iszero\n      tag_215\n      jumpi\n      tag_216\n      tag_110\n      jump\t// in\n    tag_216:\n    tag_215:\n      sub\n        /* \"Subasta_Bonaduce.sol\":10453:10537  require(auctionState != AuctionState.Completed, \"La subasta ya ha sido completada.\") */\n      tag_217\n      jumpi\n      mload(0x40)\n      0x08c379a000000000000000000000000000000000000000000000000000000000\n      dup2\n      mstore\n      0x04\n      add\n      tag_218\n      swap1\n      tag_123\n      jump\t// in\n    tag_218:\n      mload(0x40)\n      dup1\n      swap2\n      sub\n      swap1\n      revert\n    tag_217:\n        /* \"Subasta_Bonaduce.sol\":10572:10590  AuctionState.Ended */\n      0x01\n        /* \"Subasta_Bonaduce.sol\":10556:10590  auctionState == AuctionState.Ended */\n      0x03\n      dup2\n      gt\n      iszero\n      tag_219\n      jumpi\n      tag_220\n      tag_110\n      jump\t// in\n    tag_220:\n    tag_219:\n        /* \"Subasta_Bonaduce.sol\":10556:10568  auctionState */\n      0x00\n      dup1\n      sload\n      swap1\n      0x0100\n      exp\n      swap1\n      div\n      0xff\n      and\n        /* \"Subasta_Bonaduce.sol\":10556:10590  auctionState == AuctionState.Ended */\n      0x03\n      dup2\n      gt\n      iszero\n      tag_221\n      jumpi\n      tag_222\n      tag_110\n      jump\t// in\n    tag_222:\n    tag_221:\n      eq\n        /* \"Subasta_Bonaduce.sol\":10548:10626  require(auctionState == AuctionState.Ended, \"La subasta aun no ha terminado.\") */\n      tag_223\n      jumpi\n      mload(0x40)\n      0x08c379a000000000000000000000000000000000000000000000000000000000\n      dup2\n      mstore\n      0x04\n      add\n      tag_224\n      swap1\n      tag_225\n      jump\t// in\n    tag_224:\n      mload(0x40)\n      dup1\n      swap2\n      sub\n      swap1\n      revert\n    tag_223:\n        /* \"Subasta_Bonaduce.sol\":10644:10650  uint i */\n      0x00\n        /* \"Subasta_Bonaduce.sol\":10639:11234  for (uint i = 0; i < bidders.length; i++) {... */\n    tag_226:\n        /* \"Subasta_Bonaduce.sol\":10660:10667  bidders */\n      0x09\n        /* \"Subasta_Bonaduce.sol\":10660:10674  bidders.length */\n      dup1\n      sload\n      swap1\n      pop\n        /* \"Subasta_Bonaduce.sol\":10656:10657  i */\n      dup2\n        /* \"Subasta_Bonaduce.sol\":10656:10674  i < bidders.length */\n      lt\n        /* \"Subasta_Bonaduce.sol\":10639:11234  for (uint i = 0; i < bidders.length; i++) {... */\n      iszero\n      tag_227\n      jumpi\n        /* \"Subasta_Bonaduce.sol\":10696:10710  address bidder */\n      0x00\n        /* \"Subasta_Bonaduce.sol\":10713:10720  bidders */\n      0x09\n        /* \"Subasta_Bonaduce.sol\":10721:10722  i */\n      dup3\n        /* \"Subasta_Bonaduce.sol\":10713:10723  bidders[i] */\n      dup2\n      sload\n      dup2\n      lt\n      tag_229\n      jumpi\n      tag_230\n      tag_134\n      jump\t// in\n    tag_230:\n    tag_229:\n      swap1\n      0x00\n      mstore\n      keccak256(0x00, 0x20)\n      add\n      0x00\n      swap1\n      sload\n      swap1\n      0x0100\n      exp\n      swap1\n      div\n      0xffffffffffffffffffffffffffffffffffffffff\n      and\n        /* \"Subasta_Bonaduce.sol\":10696:10723  address bidder = bidders[i] */\n      swap1\n      pop\n        /* \"Subasta_Bonaduce.sol\":10752:10765  highestBidder */\n      0x04\n      0x00\n      swap1\n      sload\n      swap1\n      0x0100\n      exp\n      swap1\n      div\n      0xffffffffffffffffffffffffffffffffffffffff\n      and\n        /* \"Subasta_Bonaduce.sol\":10742:10765  bidder != highestBidder */\n      0xffffffffffffffffffffffffffffffffffffffff\n      and\n        /* \"Subasta_Bonaduce.sol\":10742:10748  bidder */\n      dup2\n        /* \"Subasta_Bonaduce.sol\":10742:10765  bidder != highestBidder */\n      0xffffffffffffffffffffffffffffffffffffffff\n      and\n      eq\n        /* \"Subasta_Bonaduce.sol\":10738:11223  if (bidder != highestBidder) {  // Solo reembolsamos a los postores que no ganaron... */\n      tag_232\n      jumpi\n        /* \"Subasta_Bonaduce.sol\":10838:10855  uint refundAmount */\n      0x00\n        /* \"Subasta_Bonaduce.sol\":10858:10867  totalBids */\n      0x07\n        /* \"Subasta_Bonaduce.sol\":10858:10875  totalBids[bidder] */\n      0x00\n        /* \"Subasta_Bonaduce.sol\":10868:10874  bidder */\n      dup4\n        /* \"Subasta_Bonaduce.sol\":10858:10875  totalBids[bidder] */\n      0xffffffffffffffffffffffffffffffffffffffff\n      and\n      0xffffffffffffffffffffffffffffffffffffffff\n      and\n      dup2\n      mstore\n      0x20\n      add\n      swap1\n      dup2\n      mstore\n      0x20\n      add\n      0x00\n      keccak256\n      sload\n        /* \"Subasta_Bonaduce.sol\":10838:10875  uint refundAmount = totalBids[bidder] */\n      swap1\n      pop\n        /* \"Subasta_Bonaduce.sol\":10914:10915  0 */\n      0x00\n        /* \"Subasta_Bonaduce.sol\":10894:10903  totalBids */\n      0x07\n        /* \"Subasta_Bonaduce.sol\":10894:10911  totalBids[bidder] */\n      0x00\n        /* \"Subasta_Bonaduce.sol\":10904:10910  bidder */\n      dup5\n        /* \"Subasta_Bonaduce.sol\":10894:10911  totalBids[bidder] */\n      0xffffffffffffffffffffffffffffffffffffffff\n      and\n      0xffffffffffffffffffffffffffffffffffffffff\n      and\n      dup2\n      mstore\n      0x20\n      add\n      swap1\n      dup2\n      mstore\n      0x20\n      add\n      0x00\n      keccak256\n        /* \"Subasta_Bonaduce.sol\":10894:10915  totalBids[bidder] = 0 */\n      dup2\n      swap1\n      sstore\n      pop\n        /* \"Subasta_Bonaduce.sol\":10955:10956  0 */\n      0x00\n        /* \"Subasta_Bonaduce.sol\":10940:10952  refundAmount */\n      dup2\n        /* \"Subasta_Bonaduce.sol\":10940:10956  refundAmount > 0 */\n      gt\n        /* \"Subasta_Bonaduce.sol\":10936:11208  if (refundAmount > 0) {... */\n      iszero\n      tag_233\n      jumpi\n        /* \"Subasta_Bonaduce.sol\":10982:10994  bool success */\n      0x00\n        /* \"Subasta_Bonaduce.sol\":11008:11014  bidder */\n      dup3\n        /* \"Subasta_Bonaduce.sol\":11000:11020  payable(bidder).call */\n      0xffffffffffffffffffffffffffffffffffffffff\n      and\n        /* \"Subasta_Bonaduce.sol\":11028:11040  refundAmount */\n      dup3\n        /* \"Subasta_Bonaduce.sol\":11000:11045  payable(bidder).call{value: refundAmount}(\"\") */\n      mload(0x40)\n      tag_234\n      swap1\n      tag_154\n      jump\t// in\n    tag_234:\n      0x00\n      mload(0x40)\n      dup1\n      dup4\n      sub\n      dup2\n      dup6\n      dup8\n      gas\n      call\n      swap3\n      pop\n      pop\n      pop\n      returndatasize\n      dup1\n      0x00\n      dup2\n      eq\n      tag_237\n      jumpi\n      mload(0x40)\n      swap2\n      pop\n      and(add(returndatasize, 0x3f), not(0x1f))\n      dup3\n      add\n      0x40\n      mstore\n      returndatasize\n      dup3\n      mstore\n      returndatasize\n      0x00\n      0x20\n      dup5\n      add\n      returndatacopy\n      jump(tag_236)\n    tag_237:\n      0x60\n      swap2\n      pop\n    tag_236:\n      pop\n        /* \"Subasta_Bonaduce.sol\":10981:11045  (bool success, ) = payable(bidder).call{value: refundAmount}(\"\") */\n      pop\n      swap1\n      pop\n        /* \"Subasta_Bonaduce.sol\":11076:11083  success */\n      dup1\n        /* \"Subasta_Bonaduce.sol\":11068:11120  require(success, \"Fallo al devolver los depositos.\") */\n      tag_238\n      jumpi\n      mload(0x40)\n      0x08c379a000000000000000000000000000000000000000000000000000000000\n      dup2\n      mstore\n      0x04\n      add\n      tag_239\n      swap1\n      tag_240\n      jump\t// in\n    tag_239:\n      mload(0x40)\n      dup1\n      swap2\n      sub\n      swap1\n      revert\n    tag_238:\n        /* \"Subasta_Bonaduce.sol\":11167:11173  bidder */\n      dup3\n        /* \"Subasta_Bonaduce.sol\":11150:11188  DepositWithdrawn(bidder, refundAmount) */\n      0xffffffffffffffffffffffffffffffffffffffff\n      and\n      0x4482101800a5c2e900f4156e57e05e19ffd7b366cde579553d723fd3abb2180e\n        /* \"Subasta_Bonaduce.sol\":11175:11187  refundAmount */\n      dup4\n        /* \"Subasta_Bonaduce.sol\":11150:11188  DepositWithdrawn(bidder, refundAmount) */\n      mload(0x40)\n      tag_241\n      swap2\n      swap1\n      tag_33\n      jump\t// in\n    tag_241:\n      mload(0x40)\n      dup1\n      swap2\n      sub\n      swap1\n      log2\n        /* \"Subasta_Bonaduce.sol\":10958:11208  {... */\n      pop\n        /* \"Subasta_Bonaduce.sol\":10936:11208  if (refundAmount > 0) {... */\n    tag_233:\n        /* \"Subasta_Bonaduce.sol\":10767:11223  {  // Solo reembolsamos a los postores que no ganaron... */\n      pop\n        /* \"Subasta_Bonaduce.sol\":10738:11223  if (bidder != highestBidder) {  // Solo reembolsamos a los postores que no ganaron... */\n    tag_232:\n        /* \"Subasta_Bonaduce.sol\":10681:11234  {... */\n      pop\n        /* \"Subasta_Bonaduce.sol\":10676:10679  i++ */\n      dup1\n      dup1\n      0x01\n      add\n      swap2\n      pop\n      pop\n        /* \"Subasta_Bonaduce.sol\":10639:11234  for (uint i = 0; i < bidders.length; i++) {... */\n      jump(tag_226)\n    tag_227:\n      pop\n        /* \"Subasta_Bonaduce.sol\":11261:11290  AuctionState.DepositsRefunded */\n      0x02\n        /* \"Subasta_Bonaduce.sol\":11246:11258  auctionState */\n      0x00\n      dup1\n        /* \"Subasta_Bonaduce.sol\":11246:11290  auctionState = AuctionState.DepositsRefunded */\n      0x0100\n      exp\n      dup2\n      sload\n      dup2\n      0xff\n      mul\n      not\n      and\n      swap1\n      dup4\n      0x03\n      dup2\n      gt\n      iszero\n      tag_242\n      jumpi\n      tag_243\n      tag_110\n      jump\t// in\n    tag_243:\n    tag_242:\n      mul\n      or\n      swap1\n      sstore\n      pop\n        /* \"Subasta_Bonaduce.sol\":10373:11298  function withdrawDeposits() external onlyOwner onlyAfterAuctionEnded {... */\n      jump\t// out\n        /* \"Subasta_Bonaduce.sol\":5636:5664  Offer[] public offersHistory */\n    tag_59:\n      0x0a\n      dup2\n      dup2\n      sload\n      dup2\n      lt\n      tag_244\n      jumpi\n      0x00\n      dup1\n      revert\n    tag_244:\n      swap1\n      0x00\n      mstore\n      keccak256(0x00, 0x20)\n      swap1\n      0x02\n      mul\n      add\n      0x00\n      swap2\n      pop\n      swap1\n      pop\n      dup1\n      0x00\n      add\n      0x00\n      swap1\n      sload\n      swap1\n      0x0100\n      exp\n      swap1\n      div\n      0xffffffffffffffffffffffffffffffffffffffff\n      and\n      swap1\n      dup1\n      0x01\n      add\n      sload\n      swap1\n      pop\n      dup3\n      jump\t// out\n        /* \"Subasta_Bonaduce.sol\":857:889  AuctionState public auctionState */\n    tag_64:\n      0x00\n      dup1\n      sload\n      swap1\n      0x0100\n      exp\n      swap1\n      div\n      0xff\n      and\n      dup2\n      jump\t// out\n        /* \"Subasta_Bonaduce.sol\":1314:1334  address public owner */\n    tag_69:\n      0x05\n      0x00\n      swap1\n      sload\n      swap1\n      0x0100\n      exp\n      swap1\n      div\n      0xffffffffffffffffffffffffffffffffffffffff\n      and\n      dup2\n      jump\t// out\n        /* \"Subasta_Bonaduce.sol\":1219:1247  address public highestBidder */\n    tag_74:\n      0x04\n      0x00\n      swap1\n      sload\n      swap1\n      0x0100\n      exp\n      swap1\n      div\n      0xffffffffffffffffffffffffffffffffffffffff\n      and\n      dup2\n      jump\t// out\n        /* \"Subasta_Bonaduce.sol\":9292:9754  function viewDeposits() external view returns (address[] memory, uint[] memory) {... */\n    tag_78:\n        /* \"Subasta_Bonaduce.sol\":9339:9355  address[] memory */\n      0x60\n        /* \"Subasta_Bonaduce.sol\":9357:9370  uint[] memory */\n      dup1\n        /* \"Subasta_Bonaduce.sol\":9383:9394  uint length */\n      0x00\n        /* \"Subasta_Bonaduce.sol\":9397:9404  bidders */\n      0x09\n        /* \"Subasta_Bonaduce.sol\":9397:9411  bidders.length */\n      dup1\n      sload\n      swap1\n      pop\n        /* \"Subasta_Bonaduce.sol\":9383:9411  uint length = bidders.length */\n      swap1\n      pop\n        /* \"Subasta_Bonaduce.sol\":9422:9448  address[] memory addresses */\n      0x00\n        /* \"Subasta_Bonaduce.sol\":9465:9471  length */\n      dup2\n        /* \"Subasta_Bonaduce.sol\":9451:9472  new address[](length) */\n      0xffffffffffffffff\n      dup2\n      gt\n      iszero\n      tag_247\n      jumpi\n      tag_248\n      tag_249\n      jump\t// in\n    tag_248:\n    tag_247:\n      mload(0x40)\n      swap1\n      dup1\n      dup3\n      mstore\n      dup1\n      0x20\n      mul\n      0x20\n      add\n      dup3\n      add\n      0x40\n      mstore\n      dup1\n      iszero\n      tag_250\n      jumpi\n      dup2\n      0x20\n      add\n      0x20\n      dup3\n      mul\n      dup1\n      calldatasize\n      dup4\n      calldatacopy\n      dup1\n      dup3\n      add\n      swap2\n      pop\n      pop\n      swap1\n      pop\n    tag_250:\n      pop\n        /* \"Subasta_Bonaduce.sol\":9422:9472  address[] memory addresses = new address[](length) */\n      swap1\n      pop\n        /* \"Subasta_Bonaduce.sol\":9483:9504  uint[] memory amounts */\n      0x00\n        /* \"Subasta_Bonaduce.sol\":9518:9524  length */\n      dup3\n        /* \"Subasta_Bonaduce.sol\":9507:9525  new uint[](length) */\n      0xffffffffffffffff\n      dup2\n      gt\n      iszero\n      tag_251\n      jumpi\n      tag_252\n      tag_249\n      jump\t// in\n    tag_252:\n    tag_251:\n      mload(0x40)\n      swap1\n      dup1\n      dup3\n      mstore\n      dup1\n      0x20\n      mul\n      0x20\n      add\n      dup3\n      add\n      0x40\n      mstore\n      dup1\n      iszero\n      tag_253\n      jumpi\n      dup2\n      0x20\n      add\n      0x20\n      dup3\n      mul\n      dup1\n      calldatasize\n      dup4\n      calldatacopy\n      dup1\n      dup3\n      add\n      swap2\n      pop\n      pop\n      swap1\n      pop\n    tag_253:\n      pop\n        /* \"Subasta_Bonaduce.sol\":9483:9525  uint[] memory amounts = new uint[](length) */\n      swap1\n      pop\n        /* \"Subasta_Bonaduce.sol\":9543:9549  uint i */\n      0x00\n        /* \"Subasta_Bonaduce.sol\":9538:9707  for (uint i = 0; i < length; i++) {... */\n    tag_254:\n        /* \"Subasta_Bonaduce.sol\":9559:9565  length */\n      dup4\n        /* \"Subasta_Bonaduce.sol\":9555:9556  i */\n      dup2\n        /* \"Subasta_Bonaduce.sol\":9555:9565  i < length */\n      lt\n        /* \"Subasta_Bonaduce.sol\":9538:9707  for (uint i = 0; i < length; i++) {... */\n      iszero\n      tag_255\n      jumpi\n        /* \"Subasta_Bonaduce.sol\":9587:9601  address bidder */\n      0x00\n        /* \"Subasta_Bonaduce.sol\":9604:9611  bidders */\n      0x09\n        /* \"Subasta_Bonaduce.sol\":9612:9613  i */\n      dup3\n        /* \"Subasta_Bonaduce.sol\":9604:9614  bidders[i] */\n      dup2\n      sload\n      dup2\n      lt\n      tag_257\n      jumpi\n      tag_258\n      tag_134\n      jump\t// in\n    tag_258:\n    tag_257:\n      swap1\n      0x00\n      mstore\n      keccak256(0x00, 0x20)\n      add\n      0x00\n      swap1\n      sload\n      swap1\n      0x0100\n      exp\n      swap1\n      div\n      0xffffffffffffffffffffffffffffffffffffffff\n      and\n        /* \"Subasta_Bonaduce.sol\":9587:9614  address bidder = bidders[i] */\n      swap1\n      pop\n        /* \"Subasta_Bonaduce.sol\":9644:9650  bidder */\n      dup1\n        /* \"Subasta_Bonaduce.sol\":9629:9638  addresses */\n      dup5\n        /* \"Subasta_Bonaduce.sol\":9639:9640  i */\n      dup4\n        /* \"Subasta_Bonaduce.sol\":9629:9641  addresses[i] */\n      dup2\n      mload\n      dup2\n      lt\n      tag_260\n      jumpi\n      tag_261\n      tag_134\n      jump\t// in\n    tag_261:\n    tag_260:\n      0x20\n      mul\n      0x20\n      add\n      add\n        /* \"Subasta_Bonaduce.sol\":9629:9650  addresses[i] = bidder */\n      swap1\n      0xffffffffffffffffffffffffffffffffffffffff\n      and\n      swap1\n      dup2\n      0xffffffffffffffffffffffffffffffffffffffff\n      and\n      dup2\n      mstore\n      pop\n      pop\n        /* \"Subasta_Bonaduce.sol\":9678:9687  totalBids */\n      0x07\n        /* \"Subasta_Bonaduce.sol\":9678:9695  totalBids[bidder] */\n      0x00\n        /* \"Subasta_Bonaduce.sol\":9688:9694  bidder */\n      dup3\n        /* \"Subasta_Bonaduce.sol\":9678:9695  totalBids[bidder] */\n      0xffffffffffffffffffffffffffffffffffffffff\n      and\n      0xffffffffffffffffffffffffffffffffffffffff\n      and\n      dup2\n      mstore\n      0x20\n      add\n      swap1\n      dup2\n      mstore\n      0x20\n      add\n      0x00\n      keccak256\n      sload\n        /* \"Subasta_Bonaduce.sol\":9665:9672  amounts */\n      dup4\n        /* \"Subasta_Bonaduce.sol\":9673:9674  i */\n      dup4\n        /* \"Subasta_Bonaduce.sol\":9665:9675  amounts[i] */\n      dup2\n      mload\n      dup2\n      lt\n      tag_262\n      jumpi\n      tag_263\n      tag_134\n      jump\t// in\n    tag_263:\n    tag_262:\n      0x20\n      mul\n      0x20\n      add\n      add\n        /* \"Subasta_Bonaduce.sol\":9665:9695  amounts[i] = totalBids[bidder] */\n      dup2\n      dup2\n      mstore\n      pop\n      pop\n        /* \"Subasta_Bonaduce.sol\":9572:9707  {... */\n      pop\n        /* \"Subasta_Bonaduce.sol\":9567:9570  i++ */\n      dup1\n      dup1\n      0x01\n      add\n      swap2\n      pop\n      pop\n        /* \"Subasta_Bonaduce.sol\":9538:9707  for (uint i = 0; i < length; i++) {... */\n      jump(tag_254)\n    tag_255:\n      pop\n        /* \"Subasta_Bonaduce.sol\":9727:9736  addresses */\n      dup2\n        /* \"Subasta_Bonaduce.sol\":9738:9745  amounts */\n      dup2\n        /* \"Subasta_Bonaduce.sol\":9719:9746  return (addresses, amounts) */\n      swap5\n      pop\n      swap5\n      pop\n      pop\n      pop\n      pop\n        /* \"Subasta_Bonaduce.sol\":9292:9754  function viewDeposits() external view returns (address[] memory, uint[] memory) {... */\n      swap1\n      swap2\n      jump\t// out\n        /* \"Subasta_Bonaduce.sol\":2125:2178  mapping(address => uint) public partialRefundedAmount */\n    tag_84:\n      mstore(0x20, 0x08)\n      dup1\n      0x00\n      mstore\n      keccak256(0x00, 0x40)\n      0x00\n      swap2\n      pop\n      swap1\n      pop\n      sload\n      dup2\n      jump\t// out\n        /* \"Subasta_Bonaduce.sol\":2296:2320  address[] public bidders */\n    tag_89:\n      0x09\n      dup2\n      dup2\n      sload\n      dup2\n      lt\n      tag_264\n      jumpi\n      0x00\n      dup1\n      revert\n    tag_264:\n      swap1\n      0x00\n      mstore\n      keccak256(0x00, 0x20)\n      add\n      0x00\n      swap2\n      pop\n      sload\n      swap1\n      0x0100\n      exp\n      swap1\n      div\n      0xffffffffffffffffffffffffffffffffffffffff\n      and\n      dup2\n      jump\t// out\n        /* \"Subasta_Bonaduce.sol\":1125:1147  uint public highestBid */\n    tag_93:\n      sload(0x03)\n      dup2\n      jump\t// out\n        /* \"Subasta_Bonaduce.sol\":11380:11916  function withdrawCommissions() external onlyOwner onlyAfterDepositsRefunded {... */\n    tag_97:\n        /* \"Subasta_Bonaduce.sol\":2474:2479  owner */\n      0x05\n      0x00\n      swap1\n      sload\n      swap1\n      0x0100\n      exp\n      swap1\n      div\n      0xffffffffffffffffffffffffffffffffffffffff\n      and\n        /* \"Subasta_Bonaduce.sol\":2460:2479  msg.sender == owner */\n      0xffffffffffffffffffffffffffffffffffffffff\n      and\n        /* \"Subasta_Bonaduce.sol\":2460:2470  msg.sender */\n      caller\n        /* \"Subasta_Bonaduce.sol\":2460:2479  msg.sender == owner */\n      0xffffffffffffffffffffffffffffffffffffffff\n      and\n      eq\n        /* \"Subasta_Bonaduce.sol\":2452:2531  require(msg.sender == owner, \"Solo el propietario puede ejecutar esta funcion\") */\n      tag_267\n      jumpi\n      mload(0x40)\n      0x08c379a000000000000000000000000000000000000000000000000000000000\n      dup2\n      mstore\n      0x04\n      add\n      tag_268\n      swap1\n      tag_167\n      jump\t// in\n    tag_268:\n      mload(0x40)\n      dup1\n      swap2\n      sub\n      swap1\n      revert\n    tag_267:\n        /* \"Subasta_Bonaduce.sol\":3494:3523  AuctionState.DepositsRefunded */\n      0x02\n        /* \"Subasta_Bonaduce.sol\":3478:3523  auctionState == AuctionState.DepositsRefunded */\n      0x03\n      dup2\n      gt\n      iszero\n      tag_270\n      jumpi\n      tag_271\n      tag_110\n      jump\t// in\n    tag_271:\n    tag_270:\n        /* \"Subasta_Bonaduce.sol\":3478:3490  auctionState */\n      0x00\n      dup1\n      sload\n      swap1\n      0x0100\n      exp\n      swap1\n      div\n      0xff\n      and\n        /* \"Subasta_Bonaduce.sol\":3478:3523  auctionState == AuctionState.DepositsRefunded */\n      0x03\n      dup2\n      gt\n      iszero\n      tag_272\n      jumpi\n      tag_273\n      tag_110\n      jump\t// in\n    tag_273:\n    tag_272:\n      eq\n        /* \"Subasta_Bonaduce.sol\":3470:3567  require(auctionState == AuctionState.DepositsRefunded, \"Los depositos no han sido reembolsados.\") */\n      tag_274\n      jumpi\n      mload(0x40)\n      0x08c379a000000000000000000000000000000000000000000000000000000000\n      dup2\n      mstore\n      0x04\n      add\n      tag_275\n      swap1\n      tag_175\n      jump\t// in\n    tag_275:\n      mload(0x40)\n      dup1\n      swap2\n      sub\n      swap1\n      revert\n    tag_274:\n        /* \"Subasta_Bonaduce.sol\":11491:11513  AuctionState.Completed */\n      0x03\n        /* \"Subasta_Bonaduce.sol\":11475:11513  auctionState != AuctionState.Completed */\n      dup1\n      dup2\n      gt\n      iszero\n      tag_277\n      jumpi\n      tag_278\n      tag_110\n      jump\t// in\n    tag_278:\n    tag_277:\n        /* \"Subasta_Bonaduce.sol\":11475:11487  auctionState */\n      0x00\n      dup1\n      sload\n      swap1\n      0x0100\n      exp\n      swap1\n      div\n      0xff\n      and\n        /* \"Subasta_Bonaduce.sol\":11475:11513  auctionState != AuctionState.Completed */\n      0x03\n      dup2\n      gt\n      iszero\n      tag_279\n      jumpi\n      tag_280\n      tag_110\n      jump\t// in\n    tag_280:\n    tag_279:\n      sub\n        /* \"Subasta_Bonaduce.sol\":11467:11551  require(auctionState != AuctionState.Completed, \"La subasta ya ha sido completada.\") */\n      tag_281\n      jumpi\n      mload(0x40)\n      0x08c379a000000000000000000000000000000000000000000000000000000000\n      dup2\n      mstore\n      0x04\n      add\n      tag_282\n      swap1\n      tag_123\n      jump\t// in\n    tag_282:\n      mload(0x40)\n      dup1\n      swap2\n      sub\n      swap1\n      revert\n    tag_281:\n        /* \"Subasta_Bonaduce.sol\":11586:11615  AuctionState.DepositsRefunded */\n      0x02\n        /* \"Subasta_Bonaduce.sol\":11570:11615  auctionState == AuctionState.DepositsRefunded */\n      0x03\n      dup2\n      gt\n      iszero\n      tag_283\n      jumpi\n      tag_284\n      tag_110\n      jump\t// in\n    tag_284:\n    tag_283:\n        /* \"Subasta_Bonaduce.sol\":11570:11582  auctionState */\n      0x00\n      dup1\n      sload\n      swap1\n      0x0100\n      exp\n      swap1\n      div\n      0xff\n      and\n        /* \"Subasta_Bonaduce.sol\":11570:11615  auctionState == AuctionState.DepositsRefunded */\n      0x03\n      dup2\n      gt\n      iszero\n      tag_285\n      jumpi\n      tag_286\n      tag_110\n      jump\t// in\n    tag_286:\n    tag_285:\n      eq\n        /* \"Subasta_Bonaduce.sol\":11562:11659  require(auctionState == AuctionState.DepositsRefunded, \"Los depositos no han sido reembolsados.\") */\n      tag_287\n      jumpi\n      mload(0x40)\n      0x08c379a000000000000000000000000000000000000000000000000000000000\n      dup2\n      mstore\n      0x04\n      add\n      tag_288\n      swap1\n      tag_175\n      jump\t// in\n    tag_288:\n      mload(0x40)\n      dup1\n      swap2\n      sub\n      swap1\n      revert\n    tag_287:\n        /* \"Subasta_Bonaduce.sol\":11670:11681  uint amount */\n      0x00\n        /* \"Subasta_Bonaduce.sol\":11684:11699  commissionFunds */\n      sload(0x02)\n        /* \"Subasta_Bonaduce.sol\":11670:11699  uint amount = commissionFunds */\n      swap1\n      pop\n        /* \"Subasta_Bonaduce.sol\":11728:11729  0 */\n      0x00\n        /* \"Subasta_Bonaduce.sol\":11710:11725  commissionFunds */\n      0x02\n        /* \"Subasta_Bonaduce.sol\":11710:11729  commissionFunds = 0 */\n      dup2\n      swap1\n      sstore\n      pop\n        /* \"Subasta_Bonaduce.sol\":11743:11755  bool success */\n      0x00\n        /* \"Subasta_Bonaduce.sol\":11769:11774  owner */\n      0x05\n      0x00\n      swap1\n      sload\n      swap1\n      0x0100\n      exp\n      swap1\n      div\n      0xffffffffffffffffffffffffffffffffffffffff\n      and\n        /* \"Subasta_Bonaduce.sol\":11761:11780  payable(owner).call */\n      0xffffffffffffffffffffffffffffffffffffffff\n      and\n        /* \"Subasta_Bonaduce.sol\":11788:11794  amount */\n      dup3\n        /* \"Subasta_Bonaduce.sol\":11761:11799  payable(owner).call{value: amount}(\"\") */\n      mload(0x40)\n      tag_289\n      swap1\n      tag_154\n      jump\t// in\n    tag_289:\n      0x00\n      mload(0x40)\n      dup1\n      dup4\n      sub\n      dup2\n      dup6\n      dup8\n      gas\n      call\n      swap3\n      pop\n      pop\n      pop\n      returndatasize\n      dup1\n      0x00\n      dup2\n      eq\n      tag_292\n      jumpi\n      mload(0x40)\n      swap2\n      pop\n      and(add(returndatasize, 0x3f), not(0x1f))\n      dup3\n      add\n      0x40\n      mstore\n      returndatasize\n      dup3\n      mstore\n      returndatasize\n      0x00\n      0x20\n      dup5\n      add\n      returndatacopy\n      jump(tag_291)\n    tag_292:\n      0x60\n      swap2\n      pop\n    tag_291:\n      pop\n        /* \"Subasta_Bonaduce.sol\":11742:11799  (bool success, ) = payable(owner).call{value: amount}(\"\") */\n      pop\n      swap1\n      pop\n        /* \"Subasta_Bonaduce.sol\":11818:11825  success */\n      dup1\n        /* \"Subasta_Bonaduce.sol\":11810:11862  require(success, \"Fallo al retirar las comisiones.\") */\n      tag_293\n      jumpi\n      mload(0x40)\n      0x08c379a000000000000000000000000000000000000000000000000000000000\n      dup2\n      mstore\n      0x04\n      add\n      tag_294\n      swap1\n      tag_295\n      jump\t// in\n    tag_294:\n      mload(0x40)\n      dup1\n      swap2\n      sub\n      swap1\n      revert\n    tag_293:\n        /* \"Subasta_Bonaduce.sol\":11880:11908  CommissionsWithdrawn(amount) */\n      0x2f424443129f9599dfb4d73878ad554b820124e747bde094b660fb1280ed3d15\n        /* \"Subasta_Bonaduce.sol\":11901:11907  amount */\n      dup3\n        /* \"Subasta_Bonaduce.sol\":11880:11908  CommissionsWithdrawn(amount) */\n      mload(0x40)\n      tag_296\n      swap2\n      swap1\n      tag_33\n      jump\t// in\n    tag_296:\n      mload(0x40)\n      dup1\n      swap2\n      sub\n      swap1\n      log1\n        /* \"Subasta_Bonaduce.sol\":11456:11916  {... */\n      pop\n      pop\n        /* \"Subasta_Bonaduce.sol\":11380:11916  function withdrawCommissions() external onlyOwner onlyAfterDepositsRefunded {... */\n      jump\t// out\n        /* \"Subasta_Bonaduce.sol\":1048:1075  uint public commissionFunds */\n    tag_100:\n      sload(0x02)\n      dup2\n      jump\t// out\n        /* \"Subasta_Bonaduce.sol\":6347:7236  function placeBid() external payable onlyDuringActiveAuction validBid(msg.value) {... */\n    tag_103:\n        /* \"Subasta_Bonaduce.sol\":2697:2716  AuctionState.Active */\n      0x00\n        /* \"Subasta_Bonaduce.sol\":2681:2716  auctionState == AuctionState.Active */\n      0x03\n      dup2\n      gt\n      iszero\n      tag_298\n      jumpi\n      tag_299\n      tag_110\n      jump\t// in\n    tag_299:\n    tag_298:\n        /* \"Subasta_Bonaduce.sol\":2681:2693  auctionState */\n      0x00\n      dup1\n      sload\n      swap1\n      0x0100\n      exp\n      swap1\n      div\n      0xff\n      and\n        /* \"Subasta_Bonaduce.sol\":2681:2716  auctionState == AuctionState.Active */\n      0x03\n      dup2\n      gt\n      iszero\n      tag_300\n      jumpi\n      tag_301\n      tag_110\n      jump\t// in\n    tag_301:\n    tag_300:\n      eq\n        /* \"Subasta_Bonaduce.sol\":2673:2746  require(auctionState == AuctionState.Active, \"La subasta no esta activa\") */\n      tag_302\n      jumpi\n      mload(0x40)\n      0x08c379a000000000000000000000000000000000000000000000000000000000\n      dup2\n      mstore\n      0x04\n      add\n      tag_303\n      swap1\n      tag_115\n      jump\t// in\n    tag_303:\n      mload(0x40)\n      dup1\n      swap2\n      sub\n      swap1\n      revert\n    tag_302:\n        /* \"Subasta_Bonaduce.sol\":6417:6426  msg.value */\n      callvalue\n        /* \"Subasta_Bonaduce.sol\":2980:2983  100 */\n      0x64\n        /* \"Subasta_Bonaduce.sol\":1607:1608  5 */\n      0x05\n        /* \"Subasta_Bonaduce.sol\":2950:2960  highestBid */\n      sload(0x03)\n        /* \"Subasta_Bonaduce.sol\":2950:2976  highestBid * MIN_INCREMENT */\n      tag_305\n      swap2\n      swap1\n      tag_144\n      jump\t// in\n    tag_305:\n        /* \"Subasta_Bonaduce.sol\":2949:2983  (highestBid * MIN_INCREMENT) / 100 */\n      tag_306\n      swap2\n      swap1\n      tag_146\n      jump\t// in\n    tag_306:\n        /* \"Subasta_Bonaduce.sol\":2935:2945  highestBid */\n      sload(0x03)\n        /* \"Subasta_Bonaduce.sol\":2935:2984  highestBid + ((highestBid * MIN_INCREMENT) / 100) */\n      tag_307\n      swap2\n      swap1\n      tag_137\n      jump\t// in\n    tag_307:\n        /* \"Subasta_Bonaduce.sol\":2925:2931  amount */\n      dup2\n        /* \"Subasta_Bonaduce.sol\":2925:2984  amount >= highestBid + ((highestBid * MIN_INCREMENT) / 100) */\n      lt\n      iszero\n        /* \"Subasta_Bonaduce.sol\":2917:3065  require(amount >= highestBid + ((highestBid * MIN_INCREMENT) / 100),... */\n      tag_308\n      jumpi\n      mload(0x40)\n      0x08c379a000000000000000000000000000000000000000000000000000000000\n      dup2\n      mstore\n      0x04\n      add\n      tag_309\n      swap1\n      tag_310\n      jump\t// in\n    tag_309:\n      mload(0x40)\n      dup1\n      swap2\n      sub\n      swap1\n      revert\n    tag_308:\n        /* \"Subasta_Bonaduce.sol\":6466:6480  auctionEndTime */\n      sload(0x01)\n        /* \"Subasta_Bonaduce.sol\":6447:6462  block.timestamp */\n      timestamp\n        /* \"Subasta_Bonaduce.sol\":6447:6480  block.timestamp <= auctionEndTime */\n      gt\n      iszero\n        /* \"Subasta_Bonaduce.sol\":6439:6510  require(block.timestamp <= auctionEndTime, \"La subasta ha finalizado.\") */\n      tag_312\n      jumpi\n      mload(0x40)\n      0x08c379a000000000000000000000000000000000000000000000000000000000\n      dup2\n      mstore\n      0x04\n      add\n      tag_313\n      swap1\n      tag_314\n      jump\t// in\n    tag_313:\n      mload(0x40)\n      dup1\n      swap2\n      sub\n      swap1\n      revert\n    tag_312:\n        /* \"Subasta_Bonaduce.sol\":1713:1723  10 minutes */\n      0x0258\n        /* \"Subasta_Bonaduce.sol\":6545:6559  auctionEndTime */\n      sload(0x01)\n        /* \"Subasta_Bonaduce.sol\":6545:6576  auctionEndTime - TIME_EXTENSION */\n      tag_315\n      swap2\n      swap1\n      tag_131\n      jump\t// in\n    tag_315:\n        /* \"Subasta_Bonaduce.sol\":6527:6542  block.timestamp */\n      timestamp\n        /* \"Subasta_Bonaduce.sol\":6527:6576  block.timestamp > auctionEndTime - TIME_EXTENSION */\n      gt\n        /* \"Subasta_Bonaduce.sol\":6523:6688  if (block.timestamp > auctionEndTime - TIME_EXTENSION) {... */\n      iszero\n      tag_316\n      jumpi\n        /* \"Subasta_Bonaduce.sol\":1713:1723  10 minutes */\n      0x0258\n        /* \"Subasta_Bonaduce.sol\":6593:6607  auctionEndTime */\n      0x01\n      0x00\n        /* \"Subasta_Bonaduce.sol\":6593:6625  auctionEndTime += TIME_EXTENSION */\n      dup3\n      dup3\n      sload\n      tag_317\n      swap2\n      swap1\n      tag_137\n      jump\t// in\n    tag_317:\n      swap3\n      pop\n      pop\n      dup2\n      swap1\n      sstore\n      pop\n        /* \"Subasta_Bonaduce.sol\":6645:6676  AuctionExtended(auctionEndTime) */\n      0xc2b459809119087ca9d2bc10dea53a51b7d848b1a11075db037bdca58292c3e8\n        /* \"Subasta_Bonaduce.sol\":6661:6675  auctionEndTime */\n      sload(0x01)\n        /* \"Subasta_Bonaduce.sol\":6645:6676  AuctionExtended(auctionEndTime) */\n      mload(0x40)\n      tag_318\n      swap2\n      swap1\n      tag_33\n      jump\t// in\n    tag_318:\n      mload(0x40)\n      dup1\n      swap2\n      sub\n      swap1\n      log1\n        /* \"Subasta_Bonaduce.sol\":6523:6688  if (block.timestamp > auctionEndTime - TIME_EXTENSION) {... */\n    tag_316:\n        /* \"Subasta_Bonaduce.sol\":6700:6711  uint newBid */\n      0x00\n        /* \"Subasta_Bonaduce.sol\":6714:6723  msg.value */\n      callvalue\n        /* \"Subasta_Bonaduce.sol\":6700:6723  uint newBid = msg.value */\n      swap1\n      pop\n        /* \"Subasta_Bonaduce.sol\":6734:6745  bidsHistory */\n      0x06\n        /* \"Subasta_Bonaduce.sol\":6734:6757  bidsHistory[msg.sender] */\n      0x00\n        /* \"Subasta_Bonaduce.sol\":6746:6756  msg.sender */\n      caller\n        /* \"Subasta_Bonaduce.sol\":6734:6757  bidsHistory[msg.sender] */\n      0xffffffffffffffffffffffffffffffffffffffff\n      and\n      0xffffffffffffffffffffffffffffffffffffffff\n      and\n      dup2\n      mstore\n      0x20\n      add\n      swap1\n      dup2\n      mstore\n      0x20\n      add\n      0x00\n      keccak256\n        /* \"Subasta_Bonaduce.sol\":6763:6769  newBid */\n      dup2\n        /* \"Subasta_Bonaduce.sol\":6734:6770  bidsHistory[msg.sender].push(newBid) */\n      swap1\n      dup1\n      0x01\n      dup2\n      sload\n      add\n      dup1\n      dup3\n      sstore\n      dup1\n      swap2\n      pop\n      pop\n      0x01\n      swap1\n      sub\n      swap1\n      0x00\n      mstore\n      keccak256(0x00, 0x20)\n      add\n      0x00\n      swap1\n      swap2\n      swap1\n      swap2\n      swap1\n      swap2\n      pop\n      sstore\n        /* \"Subasta_Bonaduce.sol\":6806:6812  newBid */\n      dup1\n        /* \"Subasta_Bonaduce.sol\":6781:6790  totalBids */\n      0x07\n        /* \"Subasta_Bonaduce.sol\":6781:6802  totalBids[msg.sender] */\n      0x00\n        /* \"Subasta_Bonaduce.sol\":6791:6801  msg.sender */\n      caller\n        /* \"Subasta_Bonaduce.sol\":6781:6802  totalBids[msg.sender] */\n      0xffffffffffffffffffffffffffffffffffffffff\n      and\n      0xffffffffffffffffffffffffffffffffffffffff\n      and\n      dup2\n      mstore\n      0x20\n      add\n      swap1\n      dup2\n      mstore\n      0x20\n      add\n      0x00\n      keccak256\n      0x00\n        /* \"Subasta_Bonaduce.sol\":6781:6812  totalBids[msg.sender] += newBid */\n      dup3\n      dup3\n      sload\n      tag_320\n      swap2\n      swap1\n      tag_137\n      jump\t// in\n    tag_320:\n      swap3\n      pop\n      pop\n      dup2\n      swap1\n      sstore\n      pop\n        /* \"Subasta_Bonaduce.sol\":6908:6921  offersHistory */\n      0x0a\n        /* \"Subasta_Bonaduce.sol\":6927:6952  Offer(msg.sender, newBid) */\n      mload(0x40)\n      dup1\n      0x40\n      add\n      0x40\n      mstore\n      dup1\n        /* \"Subasta_Bonaduce.sol\":6933:6943  msg.sender */\n      caller\n        /* \"Subasta_Bonaduce.sol\":6927:6952  Offer(msg.sender, newBid) */\n      0xffffffffffffffffffffffffffffffffffffffff\n      and\n      dup2\n      mstore\n      0x20\n      add\n        /* \"Subasta_Bonaduce.sol\":6945:6951  newBid */\n      dup4\n        /* \"Subasta_Bonaduce.sol\":6927:6952  Offer(msg.sender, newBid) */\n      dup2\n      mstore\n      pop\n        /* \"Subasta_Bonaduce.sol\":6908:6953  offersHistory.push(Offer(msg.sender, newBid)) */\n      swap1\n      dup1\n      0x01\n      dup2\n      sload\n      add\n      dup1\n      dup3\n      sstore\n      dup1\n      swap2\n      pop\n      pop\n      0x01\n      swap1\n      sub\n      swap1\n      0x00\n      mstore\n      keccak256(0x00, 0x20)\n      swap1\n      0x02\n      mul\n      add\n      0x00\n      swap1\n      swap2\n      swap1\n      swap2\n      swap1\n      swap2\n      pop\n      0x00\n      dup3\n      add\n      mload\n      dup2\n      0x00\n      add\n      exp(0x0100, 0x00)\n      dup2\n      sload\n      dup2\n      0xffffffffffffffffffffffffffffffffffffffff\n      mul\n      not\n      and\n      swap1\n      dup4\n      0xffffffffffffffffffffffffffffffffffffffff\n      and\n      mul\n      or\n      swap1\n      sstore\n      pop\n      0x20\n      dup3\n      add\n      mload\n      dup2\n      0x01\n      add\n      sstore\n      pop\n      pop\n        /* \"Subasta_Bonaduce.sol\":6979:6989  highestBid */\n      sload(0x03)\n        /* \"Subasta_Bonaduce.sol\":6970:6976  newBid */\n      dup2\n        /* \"Subasta_Bonaduce.sol\":6970:6989  newBid > highestBid */\n      gt\n        /* \"Subasta_Bonaduce.sol\":6966:7078  if (newBid > highestBid) {... */\n      iszero\n      tag_322\n      jumpi\n        /* \"Subasta_Bonaduce.sol\":7019:7025  newBid */\n      dup1\n        /* \"Subasta_Bonaduce.sol\":7006:7016  highestBid */\n      0x03\n        /* \"Subasta_Bonaduce.sol\":7006:7025  highestBid = newBid */\n      dup2\n      swap1\n      sstore\n      pop\n        /* \"Subasta_Bonaduce.sol\":7056:7066  msg.sender */\n      caller\n        /* \"Subasta_Bonaduce.sol\":7040:7053  highestBidder */\n      0x04\n      0x00\n        /* \"Subasta_Bonaduce.sol\":7040:7066  highestBidder = msg.sender */\n      0x0100\n      exp\n      dup2\n      sload\n      dup2\n      0xffffffffffffffffffffffffffffffffffffffff\n      mul\n      not\n      and\n      swap1\n      dup4\n      0xffffffffffffffffffffffffffffffffffffffff\n      and\n      mul\n      or\n      swap1\n      sstore\n      pop\n        /* \"Subasta_Bonaduce.sol\":6966:7078  if (newBid > highestBid) {... */\n    tag_322:\n        /* \"Subasta_Bonaduce.sol\":7128:7129  1 */\n      0x01\n        /* \"Subasta_Bonaduce.sol\":7094:7105  bidsHistory */\n      0x06\n        /* \"Subasta_Bonaduce.sol\":7094:7117  bidsHistory[msg.sender] */\n      0x00\n        /* \"Subasta_Bonaduce.sol\":7106:7116  msg.sender */\n      caller\n        /* \"Subasta_Bonaduce.sol\":7094:7117  bidsHistory[msg.sender] */\n      0xffffffffffffffffffffffffffffffffffffffff\n      and\n      0xffffffffffffffffffffffffffffffffffffffff\n      and\n      dup2\n      mstore\n      0x20\n      add\n      swap1\n      dup2\n      mstore\n      0x20\n      add\n      0x00\n      keccak256\n        /* \"Subasta_Bonaduce.sol\":7094:7124  bidsHistory[msg.sender].length */\n      dup1\n      sload\n      swap1\n      pop\n        /* \"Subasta_Bonaduce.sol\":7094:7129  bidsHistory[msg.sender].length == 1 */\n      sub\n        /* \"Subasta_Bonaduce.sol\":7090:7182  if (bidsHistory[msg.sender].length == 1) {... */\n      tag_323\n      jumpi\n        /* \"Subasta_Bonaduce.sol\":7146:7153  bidders */\n      0x09\n        /* \"Subasta_Bonaduce.sol\":7159:7169  msg.sender */\n      caller\n        /* \"Subasta_Bonaduce.sol\":7146:7170  bidders.push(msg.sender) */\n      swap1\n      dup1\n      0x01\n      dup2\n      sload\n      add\n      dup1\n      dup3\n      sstore\n      dup1\n      swap2\n      pop\n      pop\n      0x01\n      swap1\n      sub\n      swap1\n      0x00\n      mstore\n      keccak256(0x00, 0x20)\n      add\n      0x00\n      swap1\n      swap2\n      swap1\n      swap2\n      swap1\n      swap2\n      0x0100\n      exp\n      dup2\n      sload\n      dup2\n      0xffffffffffffffffffffffffffffffffffffffff\n      mul\n      not\n      and\n      swap1\n      dup4\n      0xffffffffffffffffffffffffffffffffffffffff\n      and\n      mul\n      or\n      swap1\n      sstore\n      pop\n        /* \"Subasta_Bonaduce.sol\":7090:7182  if (bidsHistory[msg.sender].length == 1) {... */\n    tag_323:\n        /* \"Subasta_Bonaduce.sol\":7209:7219  msg.sender */\n      caller\n        /* \"Subasta_Bonaduce.sol\":7199:7228  BidPlaced(msg.sender, newBid) */\n      0xffffffffffffffffffffffffffffffffffffffff\n      and\n      0x3fabff0a9c3ecd6814702e247fa9733e5d0aa69e3a38590f92cb18f623a2254d\n        /* \"Subasta_Bonaduce.sol\":7221:7227  newBid */\n      dup3\n        /* \"Subasta_Bonaduce.sol\":7199:7228  BidPlaced(msg.sender, newBid) */\n      mload(0x40)\n      tag_325\n      swap2\n      swap1\n      tag_33\n      jump\t// in\n    tag_325:\n      mload(0x40)\n      dup1\n      swap2\n      sub\n      swap1\n      log2\n        /* \"Subasta_Bonaduce.sol\":6428:7236  {... */\n      pop\n        /* \"Subasta_Bonaduce.sol\":2757:2758  _ */\n      pop\n        /* \"Subasta_Bonaduce.sol\":6347:7236  function placeBid() external payable onlyDuringActiveAuction validBid(msg.value) {... */\n      jump\t// out\n        /* \"Subasta_Bonaduce.sol\":9840:10192  function endAuction() external onlyOwner onlyAfterAuctionEnded {... */\n    tag_106:\n        /* \"Subasta_Bonaduce.sol\":2474:2479  owner */\n      0x05\n      0x00\n      swap1\n      sload\n      swap1\n      0x0100\n      exp\n      swap1\n      div\n      0xffffffffffffffffffffffffffffffffffffffff\n      and\n        /* \"Subasta_Bonaduce.sol\":2460:2479  msg.sender == owner */\n      0xffffffffffffffffffffffffffffffffffffffff\n      and\n        /* \"Subasta_Bonaduce.sol\":2460:2470  msg.sender */\n      caller\n        /* \"Subasta_Bonaduce.sol\":2460:2479  msg.sender == owner */\n      0xffffffffffffffffffffffffffffffffffffffff\n      and\n      eq\n        /* \"Subasta_Bonaduce.sol\":2452:2531  require(msg.sender == owner, \"Solo el propietario puede ejecutar esta funcion\") */\n      tag_327\n      jumpi\n      mload(0x40)\n      0x08c379a000000000000000000000000000000000000000000000000000000000\n      dup2\n      mstore\n      0x04\n      add\n      tag_328\n      swap1\n      tag_167\n      jump\t// in\n    tag_328:\n      mload(0x40)\n      dup1\n      swap2\n      sub\n      swap1\n      revert\n    tag_327:\n        /* \"Subasta_Bonaduce.sol\":3236:3250  auctionEndTime */\n      sload(0x01)\n        /* \"Subasta_Bonaduce.sol\":3217:3232  block.timestamp */\n      timestamp\n        /* \"Subasta_Bonaduce.sol\":3217:3250  block.timestamp >= auctionEndTime */\n      lt\n      iszero\n        /* \"Subasta_Bonaduce.sol\":3209:3281  require(block.timestamp >= auctionEndTime, \"La subasta no ha terminado\") */\n      tag_330\n      jumpi\n      mload(0x40)\n      0x08c379a000000000000000000000000000000000000000000000000000000000\n      dup2\n      mstore\n      0x04\n      add\n      tag_331\n      swap1\n      tag_211\n      jump\t// in\n    tag_331:\n      mload(0x40)\n      dup1\n      swap2\n      sub\n      swap1\n      revert\n    tag_330:\n        /* \"Subasta_Bonaduce.sol\":9938:9957  AuctionState.Active */\n      0x00\n        /* \"Subasta_Bonaduce.sol\":9922:9957  auctionState == AuctionState.Active */\n      0x03\n      dup2\n      gt\n      iszero\n      tag_333\n      jumpi\n      tag_334\n      tag_110\n      jump\t// in\n    tag_334:\n    tag_333:\n        /* \"Subasta_Bonaduce.sol\":9922:9934  auctionState */\n      0x00\n      dup1\n      sload\n      swap1\n      0x0100\n      exp\n      swap1\n      div\n      0xff\n      and\n        /* \"Subasta_Bonaduce.sol\":9922:9957  auctionState == AuctionState.Active */\n      0x03\n      dup2\n      gt\n      iszero\n      tag_335\n      jumpi\n      tag_336\n      tag_110\n      jump\t// in\n    tag_336:\n    tag_335:\n      eq\n        /* \"Subasta_Bonaduce.sol\":9914:9995  require(auctionState == AuctionState.Active, \"La subasta ya ha sido finalizada.\") */\n      tag_337\n      jumpi\n      mload(0x40)\n      0x08c379a000000000000000000000000000000000000000000000000000000000\n      dup2\n      mstore\n      0x04\n      add\n      tag_338\n      swap1\n      tag_339\n      jump\t// in\n    tag_338:\n      mload(0x40)\n      dup1\n      swap2\n      sub\n      swap1\n      revert\n    tag_337:\n        /* \"Subasta_Bonaduce.sol\":10033:10047  auctionEndTime */\n      sload(0x01)\n        /* \"Subasta_Bonaduce.sol\":10014:10029  block.timestamp */\n      timestamp\n        /* \"Subasta_Bonaduce.sol\":10014:10047  block.timestamp >= auctionEndTime */\n      lt\n      iszero\n        /* \"Subasta_Bonaduce.sol\":10006:10083  require(block.timestamp >= auctionEndTime, \"La subasta aun no ha terminado.\") */\n      tag_340\n      jumpi\n      mload(0x40)\n      0x08c379a000000000000000000000000000000000000000000000000000000000\n      dup2\n      mstore\n      0x04\n      add\n      tag_341\n      swap1\n      tag_225\n      jump\t// in\n    tag_341:\n      mload(0x40)\n      dup1\n      swap2\n      sub\n      swap1\n      revert\n    tag_340:\n        /* \"Subasta_Bonaduce.sol\":10109:10127  AuctionState.Ended */\n      0x01\n        /* \"Subasta_Bonaduce.sol\":10094:10106  auctionState */\n      0x00\n      dup1\n        /* \"Subasta_Bonaduce.sol\":10094:10127  auctionState = AuctionState.Ended */\n      0x0100\n      exp\n      dup2\n      sload\n      dup2\n      0xff\n      mul\n      not\n      and\n      swap1\n      dup4\n      0x03\n      dup2\n      gt\n      iszero\n      tag_342\n      jumpi\n      tag_343\n      tag_110\n      jump\t// in\n    tag_343:\n    tag_342:\n      mul\n      or\n      swap1\n      sstore\n      pop\n        /* \"Subasta_Bonaduce.sol\":10158:10171  highestBidder */\n      0x04\n      0x00\n      swap1\n      sload\n      swap1\n      0x0100\n      exp\n      swap1\n      div\n      0xffffffffffffffffffffffffffffffffffffffff\n      and\n        /* \"Subasta_Bonaduce.sol\":10145:10184  AuctionEnded(highestBidder, highestBid) */\n      0xffffffffffffffffffffffffffffffffffffffff\n      and\n      0xdaec4582d5d9595688c8c98545fdd1c696d41c6aeaeb636737e84ed2f5c00eda\n        /* \"Subasta_Bonaduce.sol\":10173:10183  highestBid */\n      sload(0x03)\n        /* \"Subasta_Bonaduce.sol\":10145:10184  AuctionEnded(highestBidder, highestBid) */\n      mload(0x40)\n      tag_344\n      swap2\n      swap1\n      tag_33\n      jump\t// in\n    tag_344:\n      mload(0x40)\n      dup1\n      swap2\n      sub\n      swap1\n      log2\n        /* \"Subasta_Bonaduce.sol\":9840:10192  function endAuction() external onlyOwner onlyAfterAuctionEnded {... */\n      jump\t// out\n        /* \"#utility.yul\":88:205   */\n    tag_346:\n        /* \"#utility.yul\":197:198   */\n      0x00\n        /* \"#utility.yul\":194:195   */\n      dup1\n        /* \"#utility.yul\":187:199   */\n      revert\n        /* \"#utility.yul\":334:460   */\n    tag_348:\n        /* \"#utility.yul\":371:378   */\n      0x00\n        /* \"#utility.yul\":411:453   */\n      0xffffffffffffffffffffffffffffffffffffffff\n        /* \"#utility.yul\":404:409   */\n      dup3\n        /* \"#utility.yul\":400:454   */\n      and\n        /* \"#utility.yul\":389:454   */\n      swap1\n      pop\n        /* \"#utility.yul\":334:460   */\n      swap2\n      swap1\n      pop\n      jump\t// out\n        /* \"#utility.yul\":466:562   */\n    tag_349:\n        /* \"#utility.yul\":503:510   */\n      0x00\n        /* \"#utility.yul\":532:556   */\n      tag_426\n        /* \"#utility.yul\":550:555   */\n      dup3\n        /* \"#utility.yul\":532:556   */\n      tag_348\n      jump\t// in\n    tag_426:\n        /* \"#utility.yul\":521:556   */\n      swap1\n      pop\n        /* \"#utility.yul\":466:562   */\n      swap2\n      swap1\n      pop\n      jump\t// out\n        /* \"#utility.yul\":568:690   */\n    tag_350:\n        /* \"#utility.yul\":641:665   */\n      tag_428\n        /* \"#utility.yul\":659:664   */\n      dup2\n        /* \"#utility.yul\":641:665   */\n      tag_349\n      jump\t// in\n    tag_428:\n        /* \"#utility.yul\":634:639   */\n      dup2\n        /* \"#utility.yul\":631:666   */\n      eq\n        /* \"#utility.yul\":621:684   */\n      tag_429\n      jumpi\n        /* \"#utility.yul\":680:681   */\n      0x00\n        /* \"#utility.yul\":677:678   */\n      dup1\n        /* \"#utility.yul\":670:682   */\n      revert\n        /* \"#utility.yul\":621:684   */\n    tag_429:\n        /* \"#utility.yul\":568:690   */\n      pop\n      jump\t// out\n        /* \"#utility.yul\":696:835   */\n    tag_351:\n        /* \"#utility.yul\":742:747   */\n      0x00\n        /* \"#utility.yul\":780:786   */\n      dup2\n        /* \"#utility.yul\":767:787   */\n      calldataload\n        /* \"#utility.yul\":758:787   */\n      swap1\n      pop\n        /* \"#utility.yul\":796:829   */\n      tag_431\n        /* \"#utility.yul\":823:828   */\n      dup2\n        /* \"#utility.yul\":796:829   */\n      tag_350\n      jump\t// in\n    tag_431:\n        /* \"#utility.yul\":696:835   */\n      swap3\n      swap2\n      pop\n      pop\n      jump\t// out\n        /* \"#utility.yul\":841:918   */\n    tag_352:\n        /* \"#utility.yul\":878:885   */\n      0x00\n        /* \"#utility.yul\":907:912   */\n      dup2\n        /* \"#utility.yul\":896:912   */\n      swap1\n      pop\n        /* \"#utility.yul\":841:918   */\n      swap2\n      swap1\n      pop\n      jump\t// out\n        /* \"#utility.yul\":924:1046   */\n    tag_353:\n        /* \"#utility.yul\":997:1021   */\n      tag_434\n        /* \"#utility.yul\":1015:1020   */\n      dup2\n        /* \"#utility.yul\":997:1021   */\n      tag_352\n      jump\t// in\n    tag_434:\n        /* \"#utility.yul\":990:995   */\n      dup2\n        /* \"#utility.yul\":987:1022   */\n      eq\n        /* \"#utility.yul\":977:1040   */\n      tag_435\n      jumpi\n        /* \"#utility.yul\":1036:1037   */\n      0x00\n        /* \"#utility.yul\":1033:1034   */\n      dup1\n        /* \"#utility.yul\":1026:1038   */\n      revert\n        /* \"#utility.yul\":977:1040   */\n    tag_435:\n        /* \"#utility.yul\":924:1046   */\n      pop\n      jump\t// out\n        /* \"#utility.yul\":1052:1191   */\n    tag_354:\n        /* \"#utility.yul\":1098:1103   */\n      0x00\n        /* \"#utility.yul\":1136:1142   */\n      dup2\n        /* \"#utility.yul\":1123:1143   */\n      calldataload\n        /* \"#utility.yul\":1114:1143   */\n      swap1\n      pop\n        /* \"#utility.yul\":1152:1185   */\n      tag_437\n        /* \"#utility.yul\":1179:1184   */\n      dup2\n        /* \"#utility.yul\":1152:1185   */\n      tag_353\n      jump\t// in\n    tag_437:\n        /* \"#utility.yul\":1052:1191   */\n      swap3\n      swap2\n      pop\n      pop\n      jump\t// out\n        /* \"#utility.yul\":1197:1671   */\n    tag_30:\n        /* \"#utility.yul\":1265:1271   */\n      0x00\n        /* \"#utility.yul\":1273:1279   */\n      dup1\n        /* \"#utility.yul\":1322:1324   */\n      0x40\n        /* \"#utility.yul\":1310:1319   */\n      dup4\n        /* \"#utility.yul\":1301:1308   */\n      dup6\n        /* \"#utility.yul\":1297:1320   */\n      sub\n        /* \"#utility.yul\":1293:1325   */\n      slt\n        /* \"#utility.yul\":1290:1409   */\n      iszero\n      tag_439\n      jumpi\n        /* \"#utility.yul\":1328:1407   */\n      tag_440\n      tag_346\n      jump\t// in\n    tag_440:\n        /* \"#utility.yul\":1290:1409   */\n    tag_439:\n        /* \"#utility.yul\":1448:1449   */\n      0x00\n        /* \"#utility.yul\":1473:1526   */\n      tag_441\n        /* \"#utility.yul\":1518:1525   */\n      dup6\n        /* \"#utility.yul\":1509:1515   */\n      dup3\n        /* \"#utility.yul\":1498:1507   */\n      dup7\n        /* \"#utility.yul\":1494:1516   */\n      add\n        /* \"#utility.yul\":1473:1526   */\n      tag_351\n      jump\t// in\n    tag_441:\n        /* \"#utility.yul\":1463:1526   */\n      swap3\n      pop\n        /* \"#utility.yul\":1419:1536   */\n      pop\n        /* \"#utility.yul\":1575:1577   */\n      0x20\n        /* \"#utility.yul\":1601:1654   */\n      tag_442\n        /* \"#utility.yul\":1646:1653   */\n      dup6\n        /* \"#utility.yul\":1637:1643   */\n      dup3\n        /* \"#utility.yul\":1626:1635   */\n      dup7\n        /* \"#utility.yul\":1622:1644   */\n      add\n        /* \"#utility.yul\":1601:1654   */\n      tag_354\n      jump\t// in\n    tag_442:\n        /* \"#utility.yul\":1591:1654   */\n      swap2\n      pop\n        /* \"#utility.yul\":1546:1664   */\n      pop\n        /* \"#utility.yul\":1197:1671   */\n      swap3\n      pop\n      swap3\n      swap1\n      pop\n      jump\t// out\n        /* \"#utility.yul\":1677:1795   */\n    tag_355:\n        /* \"#utility.yul\":1764:1788   */\n      tag_444\n        /* \"#utility.yul\":1782:1787   */\n      dup2\n        /* \"#utility.yul\":1764:1788   */\n      tag_352\n      jump\t// in\n    tag_444:\n        /* \"#utility.yul\":1759:1762   */\n      dup3\n        /* \"#utility.yul\":1752:1789   */\n      mstore\n        /* \"#utility.yul\":1677:1795   */\n      pop\n      pop\n      jump\t// out\n        /* \"#utility.yul\":1801:2023   */\n    tag_33:\n        /* \"#utility.yul\":1894:1898   */\n      0x00\n        /* \"#utility.yul\":1932:1934   */\n      0x20\n        /* \"#utility.yul\":1921:1930   */\n      dup3\n        /* \"#utility.yul\":1917:1935   */\n      add\n        /* \"#utility.yul\":1909:1935   */\n      swap1\n      pop\n        /* \"#utility.yul\":1945:2016   */\n      tag_446\n        /* \"#utility.yul\":2013:2014   */\n      0x00\n        /* \"#utility.yul\":2002:2011   */\n      dup4\n        /* \"#utility.yul\":1998:2015   */\n      add\n        /* \"#utility.yul\":1989:1995   */\n      dup5\n        /* \"#utility.yul\":1945:2016   */\n      tag_355\n      jump\t// in\n    tag_446:\n        /* \"#utility.yul\":1801:2023   */\n      swap3\n      swap2\n      pop\n      pop\n      jump\t// out\n        /* \"#utility.yul\":2029:2165   */\n    tag_356:\n        /* \"#utility.yul\":2118:2124   */\n      0x00\n        /* \"#utility.yul\":2152:2157   */\n      dup2\n        /* \"#utility.yul\":2146:2158   */\n      mload\n        /* \"#utility.yul\":2136:2158   */\n      swap1\n      pop\n        /* \"#utility.yul\":2029:2165   */\n      swap2\n      swap1\n      pop\n      jump\t// out\n        /* \"#utility.yul\":2171:2377   */\n    tag_357:\n        /* \"#utility.yul\":2292:2303   */\n      0x00\n        /* \"#utility.yul\":2326:2332   */\n      dup3\n        /* \"#utility.yul\":2321:2324   */\n      dup3\n        /* \"#utility.yul\":2314:2333   */\n      mstore\n        /* \"#utility.yul\":2366:2370   */\n      0x20\n        /* \"#utility.yul\":2361:2364   */\n      dup3\n        /* \"#utility.yul\":2357:2371   */\n      add\n        /* \"#utility.yul\":2342:2371   */\n      swap1\n      pop\n        /* \"#utility.yul\":2171:2377   */\n      swap3\n      swap2\n      pop\n      pop\n      jump\t// out\n        /* \"#utility.yul\":2383:2537   */\n    tag_358:\n        /* \"#utility.yul\":2472:2476   */\n      0x00\n        /* \"#utility.yul\":2495:2498   */\n      dup2\n        /* \"#utility.yul\":2487:2498   */\n      swap1\n      pop\n        /* \"#utility.yul\":2525:2529   */\n      0x20\n        /* \"#utility.yul\":2520:2523   */\n      dup3\n        /* \"#utility.yul\":2516:2530   */\n      add\n        /* \"#utility.yul\":2508:2530   */\n      swap1\n      pop\n        /* \"#utility.yul\":2383:2537   */\n      swap2\n      swap1\n      pop\n      jump\t// out\n        /* \"#utility.yul\":2543:2651   */\n    tag_359:\n        /* \"#utility.yul\":2620:2644   */\n      tag_451\n        /* \"#utility.yul\":2638:2643   */\n      dup2\n        /* \"#utility.yul\":2620:2644   */\n      tag_349\n      jump\t// in\n    tag_451:\n        /* \"#utility.yul\":2615:2618   */\n      dup3\n        /* \"#utility.yul\":2608:2645   */\n      mstore\n        /* \"#utility.yul\":2543:2651   */\n      pop\n      pop\n      jump\t// out\n        /* \"#utility.yul\":2657:2765   */\n    tag_360:\n        /* \"#utility.yul\":2734:2758   */\n      tag_453\n        /* \"#utility.yul\":2752:2757   */\n      dup2\n        /* \"#utility.yul\":2734:2758   */\n      tag_352\n      jump\t// in\n    tag_453:\n        /* \"#utility.yul\":2729:2732   */\n      dup3\n        /* \"#utility.yul\":2722:2759   */\n      mstore\n        /* \"#utility.yul\":2657:2765   */\n      pop\n      pop\n      jump\t// out\n        /* \"#utility.yul\":2837:3332   */\n    tag_361:\n        /* \"#utility.yul\":2968:2972   */\n      0x40\n        /* \"#utility.yul\":2963:2966   */\n      dup3\n        /* \"#utility.yul\":2959:2973   */\n      add\n        /* \"#utility.yul\":3057:3061   */\n      0x00\n        /* \"#utility.yul\":3050:3055   */\n      dup3\n        /* \"#utility.yul\":3046:3062   */\n      add\n        /* \"#utility.yul\":3040:3063   */\n      mload\n        /* \"#utility.yul\":3076:3139   */\n      tag_455\n        /* \"#utility.yul\":3133:3137   */\n      0x00\n        /* \"#utility.yul\":3128:3131   */\n      dup6\n        /* \"#utility.yul\":3124:3138   */\n      add\n        /* \"#utility.yul\":3110:3122   */\n      dup3\n        /* \"#utility.yul\":3076:3139   */\n      tag_359\n      jump\t// in\n    tag_455:\n        /* \"#utility.yul\":2983:3149   */\n      pop\n        /* \"#utility.yul\":3233:3237   */\n      0x20\n        /* \"#utility.yul\":3226:3231   */\n      dup3\n        /* \"#utility.yul\":3222:3238   */\n      add\n        /* \"#utility.yul\":3216:3239   */\n      mload\n        /* \"#utility.yul\":3252:3315   */\n      tag_456\n        /* \"#utility.yul\":3309:3313   */\n      0x20\n        /* \"#utility.yul\":3304:3307   */\n      dup6\n        /* \"#utility.yul\":3300:3314   */\n      add\n        /* \"#utility.yul\":3286:3298   */\n      dup3\n        /* \"#utility.yul\":3252:3315   */\n      tag_360\n      jump\t// in\n    tag_456:\n        /* \"#utility.yul\":3159:3325   */\n      pop\n        /* \"#utility.yul\":2937:3332   */\n      pop\n        /* \"#utility.yul\":2837:3332   */\n      pop\n      pop\n      jump\t// out\n        /* \"#utility.yul\":3338:3605   */\n    tag_362:\n        /* \"#utility.yul\":3451:3461   */\n      0x00\n        /* \"#utility.yul\":3472:3562   */\n      tag_458\n        /* \"#utility.yul\":3558:3561   */\n      dup4\n        /* \"#utility.yul\":3550:3556   */\n      dup4\n        /* \"#utility.yul\":3472:3562   */\n      tag_361\n      jump\t// in\n    tag_458:\n        /* \"#utility.yul\":3594:3598   */\n      0x40\n        /* \"#utility.yul\":3589:3592   */\n      dup4\n        /* \"#utility.yul\":3585:3599   */\n      add\n        /* \"#utility.yul\":3571:3599   */\n      swap1\n      pop\n        /* \"#utility.yul\":3338:3605   */\n      swap3\n      swap2\n      pop\n      pop\n      jump\t// out\n        /* \"#utility.yul\":3611:3746   */\n    tag_363:\n        /* \"#utility.yul\":3703:3707   */\n      0x00\n        /* \"#utility.yul\":3735:3739   */\n      0x20\n        /* \"#utility.yul\":3730:3733   */\n      dup3\n        /* \"#utility.yul\":3726:3740   */\n      add\n        /* \"#utility.yul\":3718:3740   */\n      swap1\n      pop\n        /* \"#utility.yul\":3611:3746   */\n      swap2\n      swap1\n      pop\n      jump\t// out\n        /* \"#utility.yul\":3822:4730   */\n    tag_364:\n        /* \"#utility.yul\":3985:3988   */\n      0x00\n        /* \"#utility.yul\":4014:4090   */\n      tag_461\n        /* \"#utility.yul\":4084:4089   */\n      dup3\n        /* \"#utility.yul\":4014:4090   */\n      tag_356\n      jump\t// in\n    tag_461:\n        /* \"#utility.yul\":4106:4214   */\n      tag_462\n        /* \"#utility.yul\":4207:4213   */\n      dup2\n        /* \"#utility.yul\":4202:4205   */\n      dup6\n        /* \"#utility.yul\":4106:4214   */\n      tag_357\n      jump\t// in\n    tag_462:\n        /* \"#utility.yul\":4099:4214   */\n      swap4\n      pop\n        /* \"#utility.yul\":4238:4316   */\n      tag_463\n        /* \"#utility.yul\":4310:4315   */\n      dup4\n        /* \"#utility.yul\":4238:4316   */\n      tag_358\n      jump\t// in\n    tag_463:\n        /* \"#utility.yul\":4339:4346   */\n      dup1\n        /* \"#utility.yul\":4370:4371   */\n      0x00\n        /* \"#utility.yul\":4355:4705   */\n    tag_464:\n        /* \"#utility.yul\":4380:4386   */\n      dup4\n        /* \"#utility.yul\":4377:4378   */\n      dup2\n        /* \"#utility.yul\":4374:4387   */\n      lt\n        /* \"#utility.yul\":4355:4705   */\n      iszero\n      tag_466\n      jumpi\n        /* \"#utility.yul\":4456:4462   */\n      dup2\n        /* \"#utility.yul\":4450:4463   */\n      mload\n        /* \"#utility.yul\":4483:4590   */\n      tag_467\n        /* \"#utility.yul\":4586:4589   */\n      dup9\n        /* \"#utility.yul\":4571:4584   */\n      dup3\n        /* \"#utility.yul\":4483:4590   */\n      tag_362\n      jump\t// in\n    tag_467:\n        /* \"#utility.yul\":4476:4590   */\n      swap8\n      pop\n        /* \"#utility.yul\":4613:4695   */\n      tag_468\n        /* \"#utility.yul\":4688:4694   */\n      dup4\n        /* \"#utility.yul\":4613:4695   */\n      tag_363\n      jump\t// in\n    tag_468:\n        /* \"#utility.yul\":4603:4695   */\n      swap3\n      pop\n        /* \"#utility.yul\":4415:4705   */\n      pop\n        /* \"#utility.yul\":4402:4403   */\n      0x01\n        /* \"#utility.yul\":4399:4400   */\n      dup2\n        /* \"#utility.yul\":4395:4404   */\n      add\n        /* \"#utility.yul\":4390:4404   */\n      swap1\n      pop\n        /* \"#utility.yul\":4355:4705   */\n      jump(tag_464)\n    tag_466:\n        /* \"#utility.yul\":4359:4373   */\n      pop\n        /* \"#utility.yul\":4721:4724   */\n      dup6\n        /* \"#utility.yul\":4714:4724   */\n      swap4\n      pop\n        /* \"#utility.yul\":3990:4730   */\n      pop\n      pop\n      pop\n        /* \"#utility.yul\":3822:4730   */\n      swap3\n      swap2\n      pop\n      pop\n      jump\t// out\n        /* \"#utility.yul\":4736:5197   */\n    tag_41:\n        /* \"#utility.yul\":4923:4927   */\n      0x00\n        /* \"#utility.yul\":4961:4963   */\n      0x20\n        /* \"#utility.yul\":4950:4959   */\n      dup3\n        /* \"#utility.yul\":4946:4964   */\n      add\n        /* \"#utility.yul\":4938:4964   */\n      swap1\n      pop\n        /* \"#utility.yul\":5010:5019   */\n      dup2\n        /* \"#utility.yul\":5004:5008   */\n      dup2\n        /* \"#utility.yul\":5000:5020   */\n      sub\n        /* \"#utility.yul\":4996:4997   */\n      0x00\n        /* \"#utility.yul\":4985:4994   */\n      dup4\n        /* \"#utility.yul\":4981:4998   */\n      add\n        /* \"#utility.yul\":4974:5021   */\n      mstore\n        /* \"#utility.yul\":5038:5190   */\n      tag_470\n        /* \"#utility.yul\":5185:5189   */\n      dup2\n        /* \"#utility.yul\":5176:5182   */\n      dup5\n        /* \"#utility.yul\":5038:5190   */\n      tag_364\n      jump\t// in\n    tag_470:\n        /* \"#utility.yul\":5030:5190   */\n      swap1\n      pop\n        /* \"#utility.yul\":4736:5197   */\n      swap3\n      swap2\n      pop\n      pop\n      jump\t// out\n        /* \"#utility.yul\":5203:5532   */\n    tag_49:\n        /* \"#utility.yul\":5262:5268   */\n      0x00\n        /* \"#utility.yul\":5311:5313   */\n      0x20\n        /* \"#utility.yul\":5299:5308   */\n      dup3\n        /* \"#utility.yul\":5290:5297   */\n      dup5\n        /* \"#utility.yul\":5286:5309   */\n      sub\n        /* \"#utility.yul\":5282:5314   */\n      slt\n        /* \"#utility.yul\":5279:5398   */\n      iszero\n      tag_472\n      jumpi\n        /* \"#utility.yul\":5317:5396   */\n      tag_473\n      tag_346\n      jump\t// in\n    tag_473:\n        /* \"#utility.yul\":5279:5398   */\n    tag_472:\n        /* \"#utility.yul\":5437:5438   */\n      0x00\n        /* \"#utility.yul\":5462:5515   */\n      tag_474\n        /* \"#utility.yul\":5507:5514   */\n      dup5\n        /* \"#utility.yul\":5498:5504   */\n      dup3\n        /* \"#utility.yul\":5487:5496   */\n      dup6\n        /* \"#utility.yul\":5483:5505   */\n      add\n        /* \"#utility.yul\":5462:5515   */\n      tag_351\n      jump\t// in\n    tag_474:\n        /* \"#utility.yul\":5452:5515   */\n      swap2\n      pop\n        /* \"#utility.yul\":5408:5525   */\n      pop\n        /* \"#utility.yul\":5203:5532   */\n      swap3\n      swap2\n      pop\n      pop\n      jump\t// out\n        /* \"#utility.yul\":5538:5867   */\n    tag_58:\n        /* \"#utility.yul\":5597:5603   */\n      0x00\n        /* \"#utility.yul\":5646:5648   */\n      0x20\n        /* \"#utility.yul\":5634:5643   */\n      dup3\n        /* \"#utility.yul\":5625:5632   */\n      dup5\n        /* \"#utility.yul\":5621:5644   */\n      sub\n        /* \"#utility.yul\":5617:5649   */\n      slt\n        /* \"#utility.yul\":5614:5733   */\n      iszero\n      tag_476\n      jumpi\n        /* \"#utility.yul\":5652:5731   */\n      tag_477\n      tag_346\n      jump\t// in\n    tag_477:\n        /* \"#utility.yul\":5614:5733   */\n    tag_476:\n        /* \"#utility.yul\":5772:5773   */\n      0x00\n        /* \"#utility.yul\":5797:5850   */\n      tag_478\n        /* \"#utility.yul\":5842:5849   */\n      dup5\n        /* \"#utility.yul\":5833:5839   */\n      dup3\n        /* \"#utility.yul\":5822:5831   */\n      dup6\n        /* \"#utility.yul\":5818:5840   */\n      add\n        /* \"#utility.yul\":5797:5850   */\n      tag_354\n      jump\t// in\n    tag_478:\n        /* \"#utility.yul\":5787:5850   */\n      swap2\n      pop\n        /* \"#utility.yul\":5743:5860   */\n      pop\n        /* \"#utility.yul\":5538:5867   */\n      swap3\n      swap2\n      pop\n      pop\n      jump\t// out\n        /* \"#utility.yul\":5873:5991   */\n    tag_365:\n        /* \"#utility.yul\":5960:5984   */\n      tag_480\n        /* \"#utility.yul\":5978:5983   */\n      dup2\n        /* \"#utility.yul\":5960:5984   */\n      tag_349\n      jump\t// in\n    tag_480:\n        /* \"#utility.yul\":5955:5958   */\n      dup3\n        /* \"#utility.yul\":5948:5985   */\n      mstore\n        /* \"#utility.yul\":5873:5991   */\n      pop\n      pop\n      jump\t// out\n        /* \"#utility.yul\":5997:6329   */\n    tag_61:\n        /* \"#utility.yul\":6118:6122   */\n      0x00\n        /* \"#utility.yul\":6156:6158   */\n      0x40\n        /* \"#utility.yul\":6145:6154   */\n      dup3\n        /* \"#utility.yul\":6141:6159   */\n      add\n        /* \"#utility.yul\":6133:6159   */\n      swap1\n      pop\n        /* \"#utility.yul\":6169:6240   */\n      tag_482\n        /* \"#utility.yul\":6237:6238   */\n      0x00\n        /* \"#utility.yul\":6226:6235   */\n      dup4\n        /* \"#utility.yul\":6222:6239   */\n      add\n        /* \"#utility.yul\":6213:6219   */\n      dup6\n        /* \"#utility.yul\":6169:6240   */\n      tag_365\n      jump\t// in\n    tag_482:\n        /* \"#utility.yul\":6250:6322   */\n      tag_483\n        /* \"#utility.yul\":6318:6320   */\n      0x20\n        /* \"#utility.yul\":6307:6316   */\n      dup4\n        /* \"#utility.yul\":6303:6321   */\n      add\n        /* \"#utility.yul\":6294:6300   */\n      dup5\n        /* \"#utility.yul\":6250:6322   */\n      tag_355\n      jump\t// in\n    tag_483:\n        /* \"#utility.yul\":5997:6329   */\n      swap4\n      swap3\n      pop\n      pop\n      pop\n      jump\t// out\n        /* \"#utility.yul\":6335:6515   */\n    tag_110:\n        /* \"#utility.yul\":6383:6460   */\n      0x4e487b7100000000000000000000000000000000000000000000000000000000\n        /* \"#utility.yul\":6380:6381   */\n      0x00\n        /* \"#utility.yul\":6373:6461   */\n      mstore\n        /* \"#utility.yul\":6480:6484   */\n      0x21\n        /* \"#utility.yul\":6477:6478   */\n      0x04\n        /* \"#utility.yul\":6470:6485   */\n      mstore\n        /* \"#utility.yul\":6504:6508   */\n      0x24\n        /* \"#utility.yul\":6501:6502   */\n      0x00\n        /* \"#utility.yul\":6494:6509   */\n      revert\n        /* \"#utility.yul\":6521:6640   */\n    tag_366:\n        /* \"#utility.yul\":6608:6609   */\n      0x04\n        /* \"#utility.yul\":6601:6606   */\n      dup2\n        /* \"#utility.yul\":6598:6610   */\n      lt\n        /* \"#utility.yul\":6588:6634   */\n      tag_486\n      jumpi\n        /* \"#utility.yul\":6614:6632   */\n      tag_487\n      tag_110\n      jump\t// in\n    tag_487:\n        /* \"#utility.yul\":6588:6634   */\n    tag_486:\n        /* \"#utility.yul\":6521:6640   */\n      pop\n      jump\t// out\n        /* \"#utility.yul\":6646:6785   */\n    tag_367:\n        /* \"#utility.yul\":6697:6704   */\n      0x00\n        /* \"#utility.yul\":6726:6731   */\n      dup2\n        /* \"#utility.yul\":6715:6731   */\n      swap1\n      pop\n        /* \"#utility.yul\":6732:6779   */\n      tag_489\n        /* \"#utility.yul\":6773:6778   */\n      dup3\n        /* \"#utility.yul\":6732:6779   */\n      tag_366\n      jump\t// in\n    tag_489:\n        /* \"#utility.yul\":6646:6785   */\n      swap2\n      swap1\n      pop\n      jump\t// out\n        /* \"#utility.yul\":6791:6930   */\n    tag_368:\n        /* \"#utility.yul\":6853:6862   */\n      0x00\n        /* \"#utility.yul\":6886:6924   */\n      tag_491\n        /* \"#utility.yul\":6918:6923   */\n      dup3\n        /* \"#utility.yul\":6886:6924   */\n      tag_367\n      jump\t// in\n    tag_491:\n        /* \"#utility.yul\":6873:6924   */\n      swap1\n      pop\n        /* \"#utility.yul\":6791:6930   */\n      swap2\n      swap1\n      pop\n      jump\t// out\n        /* \"#utility.yul\":6936:7091   */\n    tag_369:\n        /* \"#utility.yul\":7035:7084   */\n      tag_493\n        /* \"#utility.yul\":7078:7083   */\n      dup2\n        /* \"#utility.yul\":7035:7084   */\n      tag_368\n      jump\t// in\n    tag_493:\n        /* \"#utility.yul\":7030:7033   */\n      dup3\n        /* \"#utility.yul\":7023:7085   */\n      mstore\n        /* \"#utility.yul\":6936:7091   */\n      pop\n      pop\n      jump\t// out\n        /* \"#utility.yul\":7097:7343   */\n    tag_66:\n        /* \"#utility.yul\":7202:7206   */\n      0x00\n        /* \"#utility.yul\":7240:7242   */\n      0x20\n        /* \"#utility.yul\":7229:7238   */\n      dup3\n        /* \"#utility.yul\":7225:7243   */\n      add\n        /* \"#utility.yul\":7217:7243   */\n      swap1\n      pop\n        /* \"#utility.yul\":7253:7336   */\n      tag_495\n        /* \"#utility.yul\":7333:7334   */\n      0x00\n        /* \"#utility.yul\":7322:7331   */\n      dup4\n        /* \"#utility.yul\":7318:7335   */\n      add\n        /* \"#utility.yul\":7309:7315   */\n      dup5\n        /* \"#utility.yul\":7253:7336   */\n      tag_369\n      jump\t// in\n    tag_495:\n        /* \"#utility.yul\":7097:7343   */\n      swap3\n      swap2\n      pop\n      pop\n      jump\t// out\n        /* \"#utility.yul\":7349:7571   */\n    tag_71:\n        /* \"#utility.yul\":7442:7446   */\n      0x00\n        /* \"#utility.yul\":7480:7482   */\n      0x20\n        /* \"#utility.yul\":7469:7478   */\n      dup3\n        /* \"#utility.yul\":7465:7483   */\n      add\n        /* \"#utility.yul\":7457:7483   */\n      swap1\n      pop\n        /* \"#utility.yul\":7493:7564   */\n      tag_497\n        /* \"#utility.yul\":7561:7562   */\n      0x00\n        /* \"#utility.yul\":7550:7559   */\n      dup4\n        /* \"#utility.yul\":7546:7563   */\n      add\n        /* \"#utility.yul\":7537:7543   */\n      dup5\n        /* \"#utility.yul\":7493:7564   */\n      tag_365\n      jump\t// in\n    tag_497:\n        /* \"#utility.yul\":7349:7571   */\n      swap3\n      swap2\n      pop\n      pop\n      jump\t// out\n        /* \"#utility.yul\":7577:7691   */\n    tag_370:\n        /* \"#utility.yul\":7644:7650   */\n      0x00\n        /* \"#utility.yul\":7678:7683   */\n      dup2\n        /* \"#utility.yul\":7672:7684   */\n      mload\n        /* \"#utility.yul\":7662:7684   */\n      swap1\n      pop\n        /* \"#utility.yul\":7577:7691   */\n      swap2\n      swap1\n      pop\n      jump\t// out\n        /* \"#utility.yul\":7697:7881   */\n    tag_371:\n        /* \"#utility.yul\":7796:7807   */\n      0x00\n        /* \"#utility.yul\":7830:7836   */\n      dup3\n        /* \"#utility.yul\":7825:7828   */\n      dup3\n        /* \"#utility.yul\":7818:7837   */\n      mstore\n        /* \"#utility.yul\":7870:7874   */\n      0x20\n        /* \"#utility.yul\":7865:7868   */\n      dup3\n        /* \"#utility.yul\":7861:7875   */\n      add\n        /* \"#utility.yul\":7846:7875   */\n      swap1\n      pop\n        /* \"#utility.yul\":7697:7881   */\n      swap3\n      swap2\n      pop\n      pop\n      jump\t// out\n        /* \"#utility.yul\":7887:8019   */\n    tag_372:\n        /* \"#utility.yul\":7954:7958   */\n      0x00\n        /* \"#utility.yul\":7977:7980   */\n      dup2\n        /* \"#utility.yul\":7969:7980   */\n      swap1\n      pop\n        /* \"#utility.yul\":8007:8011   */\n      0x20\n        /* \"#utility.yul\":8002:8005   */\n      dup3\n        /* \"#utility.yul\":7998:8012   */\n      add\n        /* \"#utility.yul\":7990:8012   */\n      swap1\n      pop\n        /* \"#utility.yul\":7887:8019   */\n      swap2\n      swap1\n      pop\n      jump\t// out\n        /* \"#utility.yul\":8025:8204   */\n    tag_373:\n        /* \"#utility.yul\":8094:8104   */\n      0x00\n        /* \"#utility.yul\":8115:8161   */\n      tag_502\n        /* \"#utility.yul\":8157:8160   */\n      dup4\n        /* \"#utility.yul\":8149:8155   */\n      dup4\n        /* \"#utility.yul\":8115:8161   */\n      tag_359\n      jump\t// in\n    tag_502:\n        /* \"#utility.yul\":8193:8197   */\n      0x20\n        /* \"#utility.yul\":8188:8191   */\n      dup4\n        /* \"#utility.yul\":8184:8198   */\n      add\n        /* \"#utility.yul\":8170:8198   */\n      swap1\n      pop\n        /* \"#utility.yul\":8025:8204   */\n      swap3\n      swap2\n      pop\n      pop\n      jump\t// out\n        /* \"#utility.yul\":8210:8323   */\n    tag_374:\n        /* \"#utility.yul\":8280:8284   */\n      0x00\n        /* \"#utility.yul\":8312:8316   */\n      0x20\n        /* \"#utility.yul\":8307:8310   */\n      dup3\n        /* \"#utility.yul\":8303:8317   */\n      add\n        /* \"#utility.yul\":8295:8317   */\n      swap1\n      pop\n        /* \"#utility.yul\":8210:8323   */\n      swap2\n      swap1\n      pop\n      jump\t// out\n        /* \"#utility.yul\":8359:9091   */\n    tag_375:\n        /* \"#utility.yul\":8478:8481   */\n      0x00\n        /* \"#utility.yul\":8507:8561   */\n      tag_505\n        /* \"#utility.yul\":8555:8560   */\n      dup3\n        /* \"#utility.yul\":8507:8561   */\n      tag_370\n      jump\t// in\n    tag_505:\n        /* \"#utility.yul\":8577:8663   */\n      tag_506\n        /* \"#utility.yul\":8656:8662   */\n      dup2\n        /* \"#utility.yul\":8651:8654   */\n      dup6\n        /* \"#utility.yul\":8577:8663   */\n      tag_371\n      jump\t// in\n    tag_506:\n        /* \"#utility.yul\":8570:8663   */\n      swap4\n      pop\n        /* \"#utility.yul\":8687:8743   */\n      tag_507\n        /* \"#utility.yul\":8737:8742   */\n      dup4\n        /* \"#utility.yul\":8687:8743   */\n      tag_372\n      jump\t// in\n    tag_507:\n        /* \"#utility.yul\":8766:8773   */\n      dup1\n        /* \"#utility.yul\":8797:8798   */\n      0x00\n        /* \"#utility.yul\":8782:9066   */\n    tag_508:\n        /* \"#utility.yul\":8807:8813   */\n      dup4\n        /* \"#utility.yul\":8804:8805   */\n      dup2\n        /* \"#utility.yul\":8801:8814   */\n      lt\n        /* \"#utility.yul\":8782:9066   */\n      iszero\n      tag_510\n      jumpi\n        /* \"#utility.yul\":8883:8889   */\n      dup2\n        /* \"#utility.yul\":8877:8890   */\n      mload\n        /* \"#utility.yul\":8910:8973   */\n      tag_511\n        /* \"#utility.yul\":8969:8972   */\n      dup9\n        /* \"#utility.yul\":8954:8967   */\n      dup3\n        /* \"#utility.yul\":8910:8973   */\n      tag_373\n      jump\t// in\n    tag_511:\n        /* \"#utility.yul\":8903:8973   */\n      swap8\n      pop\n        /* \"#utility.yul\":8996:9056   */\n      tag_512\n        /* \"#utility.yul\":9049:9055   */\n      dup4\n        /* \"#utility.yul\":8996:9056   */\n      tag_374\n      jump\t// in\n    tag_512:\n        /* \"#utility.yul\":8986:9056   */\n      swap3\n      pop\n        /* \"#utility.yul\":8842:9066   */\n      pop\n        /* \"#utility.yul\":8829:8830   */\n      0x01\n        /* \"#utility.yul\":8826:8827   */\n      dup2\n        /* \"#utility.yul\":8822:8831   */\n      add\n        /* \"#utility.yul\":8817:8831   */\n      swap1\n      pop\n        /* \"#utility.yul\":8782:9066   */\n      jump(tag_508)\n    tag_510:\n        /* \"#utility.yul\":8786:8800   */\n      pop\n        /* \"#utility.yul\":9082:9085   */\n      dup6\n        /* \"#utility.yul\":9075:9085   */\n      swap4\n      pop\n        /* \"#utility.yul\":8483:9091   */\n      pop\n      pop\n      pop\n        /* \"#utility.yul\":8359:9091   */\n      swap3\n      swap2\n      pop\n      pop\n      jump\t// out\n        /* \"#utility.yul\":9097:9211   */\n    tag_376:\n        /* \"#utility.yul\":9164:9170   */\n      0x00\n        /* \"#utility.yul\":9198:9203   */\n      dup2\n        /* \"#utility.yul\":9192:9204   */\n      mload\n        /* \"#utility.yul\":9182:9204   */\n      swap1\n      pop\n        /* \"#utility.yul\":9097:9211   */\n      swap2\n      swap1\n      pop\n      jump\t// out\n        /* \"#utility.yul\":9217:9401   */\n    tag_377:\n        /* \"#utility.yul\":9316:9327   */\n      0x00\n        /* \"#utility.yul\":9350:9356   */\n      dup3\n        /* \"#utility.yul\":9345:9348   */\n      dup3\n        /* \"#utility.yul\":9338:9357   */\n      mstore\n        /* \"#utility.yul\":9390:9394   */\n      0x20\n        /* \"#utility.yul\":9385:9388   */\n      dup3\n        /* \"#utility.yul\":9381:9395   */\n      add\n        /* \"#utility.yul\":9366:9395   */\n      swap1\n      pop\n        /* \"#utility.yul\":9217:9401   */\n      swap3\n      swap2\n      pop\n      pop\n      jump\t// out\n        /* \"#utility.yul\":9407:9539   */\n    tag_378:\n        /* \"#utility.yul\":9474:9478   */\n      0x00\n        /* \"#utility.yul\":9497:9500   */\n      dup2\n        /* \"#utility.yul\":9489:9500   */\n      swap1\n      pop\n        /* \"#utility.yul\":9527:9531   */\n      0x20\n        /* \"#utility.yul\":9522:9525   */\n      dup3\n        /* \"#utility.yul\":9518:9532   */\n      add\n        /* \"#utility.yul\":9510:9532   */\n      swap1\n      pop\n        /* \"#utility.yul\":9407:9539   */\n      swap2\n      swap1\n      pop\n      jump\t// out\n        /* \"#utility.yul\":9545:9724   */\n    tag_379:\n        /* \"#utility.yul\":9614:9624   */\n      0x00\n        /* \"#utility.yul\":9635:9681   */\n      tag_517\n        /* \"#utility.yul\":9677:9680   */\n      dup4\n        /* \"#utility.yul\":9669:9675   */\n      dup4\n        /* \"#utility.yul\":9635:9681   */\n      tag_360\n      jump\t// in\n    tag_517:\n        /* \"#utility.yul\":9713:9717   */\n      0x20\n        /* \"#utility.yul\":9708:9711   */\n      dup4\n        /* \"#utility.yul\":9704:9718   */\n      add\n        /* \"#utility.yul\":9690:9718   */\n      swap1\n      pop\n        /* \"#utility.yul\":9545:9724   */\n      swap3\n      swap2\n      pop\n      pop\n      jump\t// out\n        /* \"#utility.yul\":9730:9843   */\n    tag_380:\n        /* \"#utility.yul\":9800:9804   */\n      0x00\n        /* \"#utility.yul\":9832:9836   */\n      0x20\n        /* \"#utility.yul\":9827:9830   */\n      dup3\n        /* \"#utility.yul\":9823:9837   */\n      add\n        /* \"#utility.yul\":9815:9837   */\n      swap1\n      pop\n        /* \"#utility.yul\":9730:9843   */\n      swap2\n      swap1\n      pop\n      jump\t// out\n        /* \"#utility.yul\":9879:10611   */\n    tag_381:\n        /* \"#utility.yul\":9998:10001   */\n      0x00\n        /* \"#utility.yul\":10027:10081   */\n      tag_520\n        /* \"#utility.yul\":10075:10080   */\n      dup3\n        /* \"#utility.yul\":10027:10081   */\n      tag_376\n      jump\t// in\n    tag_520:\n        /* \"#utility.yul\":10097:10183   */\n      tag_521\n        /* \"#utility.yul\":10176:10182   */\n      dup2\n        /* \"#utility.yul\":10171:10174   */\n      dup6\n        /* \"#utility.yul\":10097:10183   */\n      tag_377\n      jump\t// in\n    tag_521:\n        /* \"#utility.yul\":10090:10183   */\n      swap4\n      pop\n        /* \"#utility.yul\":10207:10263   */\n      tag_522\n        /* \"#utility.yul\":10257:10262   */\n      dup4\n        /* \"#utility.yul\":10207:10263   */\n      tag_378\n      jump\t// in\n    tag_522:\n        /* \"#utility.yul\":10286:10293   */\n      dup1\n        /* \"#utility.yul\":10317:10318   */\n      0x00\n        /* \"#utility.yul\":10302:10586   */\n    tag_523:\n        /* \"#utility.yul\":10327:10333   */\n      dup4\n        /* \"#utility.yul\":10324:10325   */\n      dup2\n        /* \"#utility.yul\":10321:10334   */\n      lt\n        /* \"#utility.yul\":10302:10586   */\n      iszero\n      tag_525\n      jumpi\n        /* \"#utility.yul\":10403:10409   */\n      dup2\n        /* \"#utility.yul\":10397:10410   */\n      mload\n        /* \"#utility.yul\":10430:10493   */\n      tag_526\n        /* \"#utility.yul\":10489:10492   */\n      dup9\n        /* \"#utility.yul\":10474:10487   */\n      dup3\n        /* \"#utility.yul\":10430:10493   */\n      tag_379\n      jump\t// in\n    tag_526:\n        /* \"#utility.yul\":10423:10493   */\n      swap8\n      pop\n        /* \"#utility.yul\":10516:10576   */\n      tag_527\n        /* \"#utility.yul\":10569:10575   */\n      dup4\n        /* \"#utility.yul\":10516:10576   */\n      tag_380\n      jump\t// in\n    tag_527:\n        /* \"#utility.yul\":10506:10576   */\n      swap3\n      pop\n        /* \"#utility.yul\":10362:10586   */\n      pop\n        /* \"#utility.yul\":10349:10350   */\n      0x01\n        /* \"#utility.yul\":10346:10347   */\n      dup2\n        /* \"#utility.yul\":10342:10351   */\n      add\n        /* \"#utility.yul\":10337:10351   */\n      swap1\n      pop\n        /* \"#utility.yul\":10302:10586   */\n      jump(tag_523)\n    tag_525:\n        /* \"#utility.yul\":10306:10320   */\n      pop\n        /* \"#utility.yul\":10602:10605   */\n      dup6\n        /* \"#utility.yul\":10595:10605   */\n      swap4\n      pop\n        /* \"#utility.yul\":10003:10611   */\n      pop\n      pop\n      pop\n        /* \"#utility.yul\":9879:10611   */\n      swap3\n      swap2\n      pop\n      pop\n      jump\t// out\n        /* \"#utility.yul\":10617:11251   */\n    tag_80:\n        /* \"#utility.yul\":10838:10842   */\n      0x00\n        /* \"#utility.yul\":10876:10878   */\n      0x40\n        /* \"#utility.yul\":10865:10874   */\n      dup3\n        /* \"#utility.yul\":10861:10879   */\n      add\n        /* \"#utility.yul\":10853:10879   */\n      swap1\n      pop\n        /* \"#utility.yul\":10925:10934   */\n      dup2\n        /* \"#utility.yul\":10919:10923   */\n      dup2\n        /* \"#utility.yul\":10915:10935   */\n      sub\n        /* \"#utility.yul\":10911:10912   */\n      0x00\n        /* \"#utility.yul\":10900:10909   */\n      dup4\n        /* \"#utility.yul\":10896:10913   */\n      add\n        /* \"#utility.yul\":10889:10936   */\n      mstore\n        /* \"#utility.yul\":10953:11061   */\n      tag_529\n        /* \"#utility.yul\":11056:11060   */\n      dup2\n        /* \"#utility.yul\":11047:11053   */\n      dup6\n        /* \"#utility.yul\":10953:11061   */\n      tag_375\n      jump\t// in\n    tag_529:\n        /* \"#utility.yul\":10945:11061   */\n      swap1\n      pop\n        /* \"#utility.yul\":11108:11117   */\n      dup2\n        /* \"#utility.yul\":11102:11106   */\n      dup2\n        /* \"#utility.yul\":11098:11118   */\n      sub\n        /* \"#utility.yul\":11093:11095   */\n      0x20\n        /* \"#utility.yul\":11082:11091   */\n      dup4\n        /* \"#utility.yul\":11078:11096   */\n      add\n        /* \"#utility.yul\":11071:11119   */\n      mstore\n        /* \"#utility.yul\":11136:11244   */\n      tag_530\n        /* \"#utility.yul\":11239:11243   */\n      dup2\n        /* \"#utility.yul\":11230:11236   */\n      dup5\n        /* \"#utility.yul\":11136:11244   */\n      tag_381\n      jump\t// in\n    tag_530:\n        /* \"#utility.yul\":11128:11244   */\n      swap1\n      pop\n        /* \"#utility.yul\":10617:11251   */\n      swap4\n      swap3\n      pop\n      pop\n      pop\n      jump\t// out\n        /* \"#utility.yul\":11257:11426   */\n    tag_382:\n        /* \"#utility.yul\":11341:11352   */\n      0x00\n        /* \"#utility.yul\":11375:11381   */\n      dup3\n        /* \"#utility.yul\":11370:11373   */\n      dup3\n        /* \"#utility.yul\":11363:11382   */\n      mstore\n        /* \"#utility.yul\":11415:11419   */\n      0x20\n        /* \"#utility.yul\":11410:11413   */\n      dup3\n        /* \"#utility.yul\":11406:11420   */\n      add\n        /* \"#utility.yul\":11391:11420   */\n      swap1\n      pop\n        /* \"#utility.yul\":11257:11426   */\n      swap3\n      swap2\n      pop\n      pop\n      jump\t// out\n        /* \"#utility.yul\":11432:11607   */\n    tag_383:\n        /* \"#utility.yul\":11572:11599   */\n      0x4c612073756261737461206e6f20657374612061637469766100000000000000\n        /* \"#utility.yul\":11568:11569   */\n      0x00\n        /* \"#utility.yul\":11560:11566   */\n      dup3\n        /* \"#utility.yul\":11556:11570   */\n      add\n        /* \"#utility.yul\":11549:11600   */\n      mstore\n        /* \"#utility.yul\":11432:11607   */\n      pop\n      jump\t// out\n        /* \"#utility.yul\":11613:11979   */\n    tag_384:\n        /* \"#utility.yul\":11755:11758   */\n      0x00\n        /* \"#utility.yul\":11776:11843   */\n      tag_534\n        /* \"#utility.yul\":11840:11842   */\n      0x19\n        /* \"#utility.yul\":11835:11838   */\n      dup4\n        /* \"#utility.yul\":11776:11843   */\n      tag_382\n      jump\t// in\n    tag_534:\n        /* \"#utility.yul\":11769:11843   */\n      swap2\n      pop\n        /* \"#utility.yul\":11852:11945   */\n      tag_535\n        /* \"#utility.yul\":11941:11944   */\n      dup3\n        /* \"#utility.yul\":11852:11945   */\n      tag_383\n      jump\t// in\n    tag_535:\n        /* \"#utility.yul\":11970:11972   */\n      0x20\n        /* \"#utility.yul\":11965:11968   */\n      dup3\n        /* \"#utility.yul\":11961:11973   */\n      add\n        /* \"#utility.yul\":11954:11973   */\n      swap1\n      pop\n        /* \"#utility.yul\":11613:11979   */\n      swap2\n      swap1\n      pop\n      jump\t// out\n        /* \"#utility.yul\":11985:12404   */\n    tag_115:\n        /* \"#utility.yul\":12151:12155   */\n      0x00\n        /* \"#utility.yul\":12189:12191   */\n      0x20\n        /* \"#utility.yul\":12178:12187   */\n      dup3\n        /* \"#utility.yul\":12174:12192   */\n      add\n        /* \"#utility.yul\":12166:12192   */\n      swap1\n      pop\n        /* \"#utility.yul\":12238:12247   */\n      dup2\n        /* \"#utility.yul\":12232:12236   */\n      dup2\n        /* \"#utility.yul\":12228:12248   */\n      sub\n        /* \"#utility.yul\":12224:12225   */\n      0x00\n        /* \"#utility.yul\":12213:12222   */\n      dup4\n        /* \"#utility.yul\":12209:12226   */\n      add\n        /* \"#utility.yul\":12202:12249   */\n      mstore\n        /* \"#utility.yul\":12266:12397   */\n      tag_537\n        /* \"#utility.yul\":12392:12396   */\n      dup2\n        /* \"#utility.yul\":12266:12397   */\n      tag_384\n      jump\t// in\n    tag_537:\n        /* \"#utility.yul\":12258:12397   */\n      swap1\n      pop\n        /* \"#utility.yul\":11985:12404   */\n      swap2\n      swap1\n      pop\n      jump\t// out\n        /* \"#utility.yul\":12410:12630   */\n    tag_385:\n        /* \"#utility.yul\":12550:12584   */\n      0x4c612073756261737461207961206861207369646f20636f6d706c6574616461\n        /* \"#utility.yul\":12546:12547   */\n      0x00\n        /* \"#utility.yul\":12538:12544   */\n      dup3\n        /* \"#utility.yul\":12534:12548   */\n      add\n        /* \"#utility.yul\":12527:12585   */\n      mstore\n        /* \"#utility.yul\":12619:12622   */\n      0x2e00000000000000000000000000000000000000000000000000000000000000\n        /* \"#utility.yul\":12614:12616   */\n      0x20\n        /* \"#utility.yul\":12606:12612   */\n      dup3\n        /* \"#utility.yul\":12602:12617   */\n      add\n        /* \"#utility.yul\":12595:12623   */\n      mstore\n        /* \"#utility.yul\":12410:12630   */\n      pop\n      jump\t// out\n        /* \"#utility.yul\":12636:13002   */\n    tag_386:\n        /* \"#utility.yul\":12778:12781   */\n      0x00\n        /* \"#utility.yul\":12799:12866   */\n      tag_540\n        /* \"#utility.yul\":12863:12865   */\n      0x21\n        /* \"#utility.yul\":12858:12861   */\n      dup4\n        /* \"#utility.yul\":12799:12866   */\n      tag_382\n      jump\t// in\n    tag_540:\n        /* \"#utility.yul\":12792:12866   */\n      swap2\n      pop\n        /* \"#utility.yul\":12875:12968   */\n      tag_541\n        /* \"#utility.yul\":12964:12967   */\n      dup3\n        /* \"#utility.yul\":12875:12968   */\n      tag_385\n      jump\t// in\n    tag_541:\n        /* \"#utility.yul\":12993:12995   */\n      0x40\n        /* \"#utility.yul\":12988:12991   */\n      dup3\n        /* \"#utility.yul\":12984:12996   */\n      add\n        /* \"#utility.yul\":12977:12996   */\n      swap1\n      pop\n        /* \"#utility.yul\":12636:13002   */\n      swap2\n      swap1\n      pop\n      jump\t// out\n        /* \"#utility.yul\":13008:13427   */\n    tag_123:\n        /* \"#utility.yul\":13174:13178   */\n      0x00\n        /* \"#utility.yul\":13212:13214   */\n      0x20\n        /* \"#utility.yul\":13201:13210   */\n      dup3\n        /* \"#utility.yul\":13197:13215   */\n      add\n        /* \"#utility.yul\":13189:13215   */\n      swap1\n      pop\n        /* \"#utility.yul\":13261:13270   */\n      dup2\n        /* \"#utility.yul\":13255:13259   */\n      dup2\n        /* \"#utility.yul\":13251:13271   */\n      sub\n        /* \"#utility.yul\":13247:13248   */\n      0x00\n        /* \"#utility.yul\":13236:13245   */\n      dup4\n        /* \"#utility.yul\":13232:13249   */\n      add\n        /* \"#utility.yul\":13225:13272   */\n      mstore\n        /* \"#utility.yul\":13289:13420   */\n      tag_543\n        /* \"#utility.yul\":13415:13419   */\n      dup2\n        /* \"#utility.yul\":13289:13420   */\n      tag_386\n      jump\t// in\n    tag_543:\n        /* \"#utility.yul\":13281:13420   */\n      swap1\n      pop\n        /* \"#utility.yul\":13008:13427   */\n      swap2\n      swap1\n      pop\n      jump\t// out\n        /* \"#utility.yul\":13433:13659   */\n    tag_387:\n        /* \"#utility.yul\":13573:13607   */\n      0x4e6f20686179206f66657274617320616e746572696f72657320706172612072\n        /* \"#utility.yul\":13569:13570   */\n      0x00\n        /* \"#utility.yul\":13561:13567   */\n      dup3\n        /* \"#utility.yul\":13557:13571   */\n      add\n        /* \"#utility.yul\":13550:13608   */\n      mstore\n        /* \"#utility.yul\":13642:13651   */\n      0x6574697261722e00000000000000000000000000000000000000000000000000\n        /* \"#utility.yul\":13637:13639   */\n      0x20\n        /* \"#utility.yul\":13629:13635   */\n      dup3\n        /* \"#utility.yul\":13625:13640   */\n      add\n        /* \"#utility.yul\":13618:13652   */\n      mstore\n        /* \"#utility.yul\":13433:13659   */\n      pop\n      jump\t// out\n        /* \"#utility.yul\":13665:14031   */\n    tag_388:\n        /* \"#utility.yul\":13807:13810   */\n      0x00\n        /* \"#utility.yul\":13828:13895   */\n      tag_546\n        /* \"#utility.yul\":13892:13894   */\n      0x27\n        /* \"#utility.yul\":13887:13890   */\n      dup4\n        /* \"#utility.yul\":13828:13895   */\n      tag_382\n      jump\t// in\n    tag_546:\n        /* \"#utility.yul\":13821:13895   */\n      swap2\n      pop\n        /* \"#utility.yul\":13904:13997   */\n      tag_547\n        /* \"#utility.yul\":13993:13996   */\n      dup3\n        /* \"#utility.yul\":13904:13997   */\n      tag_387\n      jump\t// in\n    tag_547:\n        /* \"#utility.yul\":14022:14024   */\n      0x40\n        /* \"#utility.yul\":14017:14020   */\n      dup3\n        /* \"#utility.yul\":14013:14025   */\n      add\n        /* \"#utility.yul\":14006:14025   */\n      swap1\n      pop\n        /* \"#utility.yul\":13665:14031   */\n      swap2\n      swap1\n      pop\n      jump\t// out\n        /* \"#utility.yul\":14037:14456   */\n    tag_126:\n        /* \"#utility.yul\":14203:14207   */\n      0x00\n        /* \"#utility.yul\":14241:14243   */\n      0x20\n        /* \"#utility.yul\":14230:14239   */\n      dup3\n        /* \"#utility.yul\":14226:14244   */\n      add\n        /* \"#utility.yul\":14218:14244   */\n      swap1\n      pop\n        /* \"#utility.yul\":14290:14299   */\n      dup2\n        /* \"#utility.yul\":14284:14288   */\n      dup2\n        /* \"#utility.yul\":14280:14300   */\n      sub\n        /* \"#utility.yul\":14276:14277   */\n      0x00\n        /* \"#utility.yul\":14265:14274   */\n      dup4\n        /* \"#utility.yul\":14261:14278   */\n      add\n        /* \"#utility.yul\":14254:14301   */\n      mstore\n        /* \"#utility.yul\":14318:14449   */\n      tag_549\n        /* \"#utility.yul\":14444:14448   */\n      dup2\n        /* \"#utility.yul\":14318:14449   */\n      tag_388\n      jump\t// in\n    tag_549:\n        /* \"#utility.yul\":14310:14449   */\n      swap1\n      pop\n        /* \"#utility.yul\":14037:14456   */\n      swap2\n      swap1\n      pop\n      jump\t// out\n        /* \"#utility.yul\":14462:14642   */\n    tag_389:\n        /* \"#utility.yul\":14510:14587   */\n      0x4e487b7100000000000000000000000000000000000000000000000000000000\n        /* \"#utility.yul\":14507:14508   */\n      0x00\n        /* \"#utility.yul\":14500:14588   */\n      mstore\n        /* \"#utility.yul\":14607:14611   */\n      0x11\n        /* \"#utility.yul\":14604:14605   */\n      0x04\n        /* \"#utility.yul\":14597:14612   */\n      mstore\n        /* \"#utility.yul\":14631:14635   */\n      0x24\n        /* \"#utility.yul\":14628:14629   */\n      0x00\n        /* \"#utility.yul\":14621:14636   */\n      revert\n        /* \"#utility.yul\":14648:14842   */\n    tag_131:\n        /* \"#utility.yul\":14688:14692   */\n      0x00\n        /* \"#utility.yul\":14708:14728   */\n      tag_552\n        /* \"#utility.yul\":14726:14727   */\n      dup3\n        /* \"#utility.yul\":14708:14728   */\n      tag_352\n      jump\t// in\n    tag_552:\n        /* \"#utility.yul\":14703:14728   */\n      swap2\n      pop\n        /* \"#utility.yul\":14742:14762   */\n      tag_553\n        /* \"#utility.yul\":14760:14761   */\n      dup4\n        /* \"#utility.yul\":14742:14762   */\n      tag_352\n      jump\t// in\n    tag_553:\n        /* \"#utility.yul\":14737:14762   */\n      swap3\n      pop\n        /* \"#utility.yul\":14786:14787   */\n      dup3\n        /* \"#utility.yul\":14783:14784   */\n      dup3\n        /* \"#utility.yul\":14779:14788   */\n      sub\n        /* \"#utility.yul\":14771:14788   */\n      swap1\n      pop\n        /* \"#utility.yul\":14810:14811   */\n      dup2\n        /* \"#utility.yul\":14804:14808   */\n      dup2\n        /* \"#utility.yul\":14801:14812   */\n      gt\n        /* \"#utility.yul\":14798:14835   */\n      iszero\n      tag_554\n      jumpi\n        /* \"#utility.yul\":14815:14833   */\n      tag_555\n      tag_389\n      jump\t// in\n    tag_555:\n        /* \"#utility.yul\":14798:14835   */\n    tag_554:\n        /* \"#utility.yul\":14648:14842   */\n      swap3\n      swap2\n      pop\n      pop\n      jump\t// out\n        /* \"#utility.yul\":14848:15028   */\n    tag_134:\n        /* \"#utility.yul\":14896:14973   */\n      0x4e487b7100000000000000000000000000000000000000000000000000000000\n        /* \"#utility.yul\":14893:14894   */\n      0x00\n        /* \"#utility.yul\":14886:14974   */\n      mstore\n        /* \"#utility.yul\":14993:14997   */\n      0x32\n        /* \"#utility.yul\":14990:14991   */\n      0x04\n        /* \"#utility.yul\":14983:14998   */\n      mstore\n        /* \"#utility.yul\":15017:15021   */\n      0x24\n        /* \"#utility.yul\":15014:15015   */\n      0x00\n        /* \"#utility.yul\":15007:15022   */\n      revert\n        /* \"#utility.yul\":15034:15225   */\n    tag_137:\n        /* \"#utility.yul\":15074:15077   */\n      0x00\n        /* \"#utility.yul\":15093:15113   */\n      tag_558\n        /* \"#utility.yul\":15111:15112   */\n      dup3\n        /* \"#utility.yul\":15093:15113   */\n      tag_352\n      jump\t// in\n    tag_558:\n        /* \"#utility.yul\":15088:15113   */\n      swap2\n      pop\n        /* \"#utility.yul\":15127:15147   */\n      tag_559\n        /* \"#utility.yul\":15145:15146   */\n      dup4\n        /* \"#utility.yul\":15127:15147   */\n      tag_352\n      jump\t// in\n    tag_559:\n        /* \"#utility.yul\":15122:15147   */\n      swap3\n      pop\n        /* \"#utility.yul\":15170:15171   */\n      dup3\n        /* \"#utility.yul\":15167:15168   */\n      dup3\n        /* \"#utility.yul\":15163:15172   */\n      add\n        /* \"#utility.yul\":15156:15172   */\n      swap1\n      pop\n        /* \"#utility.yul\":15191:15194   */\n      dup1\n        /* \"#utility.yul\":15188:15189   */\n      dup3\n        /* \"#utility.yul\":15185:15195   */\n      gt\n        /* \"#utility.yul\":15182:15218   */\n      iszero\n      tag_560\n      jumpi\n        /* \"#utility.yul\":15198:15216   */\n      tag_561\n      tag_389\n      jump\t// in\n    tag_561:\n        /* \"#utility.yul\":15182:15218   */\n    tag_560:\n        /* \"#utility.yul\":15034:15225   */\n      swap3\n      swap2\n      pop\n      pop\n      jump\t// out\n        /* \"#utility.yul\":15231:15457   */\n    tag_390:\n        /* \"#utility.yul\":15371:15405   */\n      0x4e6f206861792073616c646f2061646963696f6e616c2070617261207265656d\n        /* \"#utility.yul\":15367:15368   */\n      0x00\n        /* \"#utility.yul\":15359:15365   */\n      dup3\n        /* \"#utility.yul\":15355:15369   */\n      add\n        /* \"#utility.yul\":15348:15406   */\n      mstore\n        /* \"#utility.yul\":15440:15449   */\n      0x626f6c7361722e00000000000000000000000000000000000000000000000000\n        /* \"#utility.yul\":15435:15437   */\n      0x20\n        /* \"#utility.yul\":15427:15433   */\n      dup3\n        /* \"#utility.yul\":15423:15438   */\n      add\n        /* \"#utility.yul\":15416:15450   */\n      mstore\n        /* \"#utility.yul\":15231:15457   */\n      pop\n      jump\t// out\n        /* \"#utility.yul\":15463:15829   */\n    tag_391:\n        /* \"#utility.yul\":15605:15608   */\n      0x00\n        /* \"#utility.yul\":15626:15693   */\n      tag_564\n        /* \"#utility.yul\":15690:15692   */\n      0x27\n        /* \"#utility.yul\":15685:15688   */\n      dup4\n        /* \"#utility.yul\":15626:15693   */\n      tag_382\n      jump\t// in\n    tag_564:\n        /* \"#utility.yul\":15619:15693   */\n      swap2\n      pop\n        /* \"#utility.yul\":15702:15795   */\n      tag_565\n        /* \"#utility.yul\":15791:15794   */\n      dup3\n        /* \"#utility.yul\":15702:15795   */\n      tag_390\n      jump\t// in\n    tag_565:\n        /* \"#utility.yul\":15820:15822   */\n      0x40\n        /* \"#utility.yul\":15815:15818   */\n      dup3\n        /* \"#utility.yul\":15811:15823   */\n      add\n        /* \"#utility.yul\":15804:15823   */\n      swap1\n      pop\n        /* \"#utility.yul\":15463:15829   */\n      swap2\n      swap1\n      pop\n      jump\t// out\n        /* \"#utility.yul\":15835:16254   */\n    tag_141:\n        /* \"#utility.yul\":16001:16005   */\n      0x00\n        /* \"#utility.yul\":16039:16041   */\n      0x20\n        /* \"#utility.yul\":16028:16037   */\n      dup3\n        /* \"#utility.yul\":16024:16042   */\n      add\n        /* \"#utility.yul\":16016:16042   */\n      swap1\n      pop\n        /* \"#utility.yul\":16088:16097   */\n      dup2\n        /* \"#utility.yul\":16082:16086   */\n      dup2\n        /* \"#utility.yul\":16078:16098   */\n      sub\n        /* \"#utility.yul\":16074:16075   */\n      0x00\n        /* \"#utility.yul\":16063:16072   */\n      dup4\n        /* \"#utility.yul\":16059:16076   */\n      add\n        /* \"#utility.yul\":16052:16099   */\n      mstore\n        /* \"#utility.yul\":16116:16247   */\n      tag_567\n        /* \"#utility.yul\":16242:16246   */\n      dup2\n        /* \"#utility.yul\":16116:16247   */\n      tag_391\n      jump\t// in\n    tag_567:\n        /* \"#utility.yul\":16108:16247   */\n      swap1\n      pop\n        /* \"#utility.yul\":15835:16254   */\n      swap2\n      swap1\n      pop\n      jump\t// out\n        /* \"#utility.yul\":16260:16670   */\n    tag_144:\n        /* \"#utility.yul\":16300:16307   */\n      0x00\n        /* \"#utility.yul\":16323:16343   */\n      tag_569\n        /* \"#utility.yul\":16341:16342   */\n      dup3\n        /* \"#utility.yul\":16323:16343   */\n      tag_352\n      jump\t// in\n    tag_569:\n        /* \"#utility.yul\":16318:16343   */\n      swap2\n      pop\n        /* \"#utility.yul\":16357:16377   */\n      tag_570\n        /* \"#utility.yul\":16375:16376   */\n      dup4\n        /* \"#utility.yul\":16357:16377   */\n      tag_352\n      jump\t// in\n    tag_570:\n        /* \"#utility.yul\":16352:16377   */\n      swap3\n      pop\n        /* \"#utility.yul\":16412:16413   */\n      dup3\n        /* \"#utility.yul\":16409:16410   */\n      dup3\n        /* \"#utility.yul\":16405:16414   */\n      mul\n        /* \"#utility.yul\":16434:16464   */\n      tag_571\n        /* \"#utility.yul\":16452:16463   */\n      dup2\n        /* \"#utility.yul\":16434:16464   */\n      tag_352\n      jump\t// in\n    tag_571:\n        /* \"#utility.yul\":16423:16464   */\n      swap2\n      pop\n        /* \"#utility.yul\":16613:16614   */\n      dup3\n        /* \"#utility.yul\":16604:16611   */\n      dup3\n        /* \"#utility.yul\":16600:16615   */\n      div\n        /* \"#utility.yul\":16597:16598   */\n      dup5\n        /* \"#utility.yul\":16594:16616   */\n      eq\n        /* \"#utility.yul\":16574:16575   */\n      dup4\n        /* \"#utility.yul\":16567:16576   */\n      iszero\n        /* \"#utility.yul\":16547:16630   */\n      or\n        /* \"#utility.yul\":16524:16663   */\n      tag_572\n      jumpi\n        /* \"#utility.yul\":16643:16661   */\n      tag_573\n      tag_389\n      jump\t// in\n    tag_573:\n        /* \"#utility.yul\":16524:16663   */\n    tag_572:\n        /* \"#utility.yul\":16308:16670   */\n      pop\n        /* \"#utility.yul\":16260:16670   */\n      swap3\n      swap2\n      pop\n      pop\n      jump\t// out\n        /* \"#utility.yul\":16676:16856   */\n    tag_392:\n        /* \"#utility.yul\":16724:16801   */\n      0x4e487b7100000000000000000000000000000000000000000000000000000000\n        /* \"#utility.yul\":16721:16722   */\n      0x00\n        /* \"#utility.yul\":16714:16802   */\n      mstore\n        /* \"#utility.yul\":16821:16825   */\n      0x12\n        /* \"#utility.yul\":16818:16819   */\n      0x04\n        /* \"#utility.yul\":16811:16826   */\n      mstore\n        /* \"#utility.yul\":16845:16849   */\n      0x24\n        /* \"#utility.yul\":16842:16843   */\n      0x00\n        /* \"#utility.yul\":16835:16850   */\n      revert\n        /* \"#utility.yul\":16862:17047   */\n    tag_146:\n        /* \"#utility.yul\":16902:16903   */\n      0x00\n        /* \"#utility.yul\":16919:16939   */\n      tag_576\n        /* \"#utility.yul\":16937:16938   */\n      dup3\n        /* \"#utility.yul\":16919:16939   */\n      tag_352\n      jump\t// in\n    tag_576:\n        /* \"#utility.yul\":16914:16939   */\n      swap2\n      pop\n        /* \"#utility.yul\":16953:16973   */\n      tag_577\n        /* \"#utility.yul\":16971:16972   */\n      dup4\n        /* \"#utility.yul\":16953:16973   */\n      tag_352\n      jump\t// in\n    tag_577:\n        /* \"#utility.yul\":16948:16973   */\n      swap3\n      pop\n        /* \"#utility.yul\":16992:16993   */\n      dup3\n        /* \"#utility.yul\":16982:17017   */\n      tag_578\n      jumpi\n        /* \"#utility.yul\":16997:17015   */\n      tag_579\n      tag_392\n      jump\t// in\n    tag_579:\n        /* \"#utility.yul\":16982:17017   */\n    tag_578:\n        /* \"#utility.yul\":17039:17040   */\n      dup3\n        /* \"#utility.yul\":17036:17037   */\n      dup3\n        /* \"#utility.yul\":17032:17041   */\n      div\n        /* \"#utility.yul\":17027:17041   */\n      swap1\n      pop\n        /* \"#utility.yul\":16862:17047   */\n      swap3\n      swap2\n      pop\n      pop\n      jump\t// out\n        /* \"#utility.yul\":17053:17200   */\n    tag_393:\n        /* \"#utility.yul\":17154:17165   */\n      0x00\n        /* \"#utility.yul\":17191:17194   */\n      dup2\n        /* \"#utility.yul\":17176:17194   */\n      swap1\n      pop\n        /* \"#utility.yul\":17053:17200   */\n      swap3\n      swap2\n      pop\n      pop\n      jump\t// out\n        /* \"#utility.yul\":17206:17320   */\n    tag_394:\n      pop\n      jump\t// out\n        /* \"#utility.yul\":17326:17724   */\n    tag_395:\n        /* \"#utility.yul\":17485:17488   */\n      0x00\n        /* \"#utility.yul\":17506:17589   */\n      tag_583\n        /* \"#utility.yul\":17587:17588   */\n      0x00\n        /* \"#utility.yul\":17582:17585   */\n      dup4\n        /* \"#utility.yul\":17506:17589   */\n      tag_393\n      jump\t// in\n    tag_583:\n        /* \"#utility.yul\":17499:17589   */\n      swap2\n      pop\n        /* \"#utility.yul\":17598:17691   */\n      tag_584\n        /* \"#utility.yul\":17687:17690   */\n      dup3\n        /* \"#utility.yul\":17598:17691   */\n      tag_394\n      jump\t// in\n    tag_584:\n        /* \"#utility.yul\":17716:17717   */\n      0x00\n        /* \"#utility.yul\":17711:17714   */\n      dup3\n        /* \"#utility.yul\":17707:17718   */\n      add\n        /* \"#utility.yul\":17700:17718   */\n      swap1\n      pop\n        /* \"#utility.yul\":17326:17724   */\n      swap2\n      swap1\n      pop\n      jump\t// out\n        /* \"#utility.yul\":17730:18109   */\n    tag_154:\n        /* \"#utility.yul\":17914:17917   */\n      0x00\n        /* \"#utility.yul\":17936:18083   */\n      tag_586\n        /* \"#utility.yul\":18079:18082   */\n      dup3\n        /* \"#utility.yul\":17936:18083   */\n      tag_395\n      jump\t// in\n    tag_586:\n        /* \"#utility.yul\":17929:18083   */\n      swap2\n      pop\n        /* \"#utility.yul\":18100:18103   */\n      dup2\n        /* \"#utility.yul\":18093:18103   */\n      swap1\n      pop\n        /* \"#utility.yul\":17730:18109   */\n      swap2\n      swap1\n      pop\n      jump\t// out\n        /* \"#utility.yul\":18115:18341   */\n    tag_396:\n        /* \"#utility.yul\":18255:18289   */\n      0x46616c6c6f20616c207265616c697a617220656c207265656d626f6c736f2070\n        /* \"#utility.yul\":18251:18252   */\n      0x00\n        /* \"#utility.yul\":18243:18249   */\n      dup3\n        /* \"#utility.yul\":18239:18253   */\n      add\n        /* \"#utility.yul\":18232:18290   */\n      mstore\n        /* \"#utility.yul\":18324:18333   */\n      0x61726369616c2e00000000000000000000000000000000000000000000000000\n        /* \"#utility.yul\":18319:18321   */\n      0x20\n        /* \"#utility.yul\":18311:18317   */\n      dup3\n        /* \"#utility.yul\":18307:18322   */\n      add\n        /* \"#utility.yul\":18300:18334   */\n      mstore\n        /* \"#utility.yul\":18115:18341   */\n      pop\n      jump\t// out\n        /* \"#utility.yul\":18347:18713   */\n    tag_397:\n        /* \"#utility.yul\":18489:18492   */\n      0x00\n        /* \"#utility.yul\":18510:18577   */\n      tag_589\n        /* \"#utility.yul\":18574:18576   */\n      0x27\n        /* \"#utility.yul\":18569:18572   */\n      dup4\n        /* \"#utility.yul\":18510:18577   */\n      tag_382\n      jump\t// in\n    tag_589:\n        /* \"#utility.yul\":18503:18577   */\n      swap2\n      pop\n        /* \"#utility.yul\":18586:18679   */\n      tag_590\n        /* \"#utility.yul\":18675:18678   */\n      dup3\n        /* \"#utility.yul\":18586:18679   */\n      tag_396\n      jump\t// in\n    tag_590:\n        /* \"#utility.yul\":18704:18706   */\n      0x40\n        /* \"#utility.yul\":18699:18702   */\n      dup3\n        /* \"#utility.yul\":18695:18707   */\n      add\n        /* \"#utility.yul\":18688:18707   */\n      swap1\n      pop\n        /* \"#utility.yul\":18347:18713   */\n      swap2\n      swap1\n      pop\n      jump\t// out\n        /* \"#utility.yul\":18719:19138   */\n    tag_160:\n        /* \"#utility.yul\":18885:18889   */\n      0x00\n        /* \"#utility.yul\":18923:18925   */\n      0x20\n        /* \"#utility.yul\":18912:18921   */\n      dup3\n        /* \"#utility.yul\":18908:18926   */\n      add\n        /* \"#utility.yul\":18900:18926   */\n      swap1\n      pop\n        /* \"#utility.yul\":18972:18981   */\n      dup2\n        /* \"#utility.yul\":18966:18970   */\n      dup2\n        /* \"#utility.yul\":18962:18982   */\n      sub\n        /* \"#utility.yul\":18958:18959   */\n      0x00\n        /* \"#utility.yul\":18947:18956   */\n      dup4\n        /* \"#utility.yul\":18943:18960   */\n      add\n        /* \"#utility.yul\":18936:18983   */\n      mstore\n        /* \"#utility.yul\":19000:19131   */\n      tag_592\n        /* \"#utility.yul\":19126:19130   */\n      dup2\n        /* \"#utility.yul\":19000:19131   */\n      tag_397\n      jump\t// in\n    tag_592:\n        /* \"#utility.yul\":18992:19131   */\n      swap1\n      pop\n        /* \"#utility.yul\":18719:19138   */\n      swap2\n      swap1\n      pop\n      jump\t// out\n        /* \"#utility.yul\":19144:19378   */\n    tag_398:\n        /* \"#utility.yul\":19284:19318   */\n      0x536f6c6f20656c2070726f706965746172696f20707565646520656a65637574\n        /* \"#utility.yul\":19280:19281   */\n      0x00\n        /* \"#utility.yul\":19272:19278   */\n      dup3\n        /* \"#utility.yul\":19268:19282   */\n      add\n        /* \"#utility.yul\":19261:19319   */\n      mstore\n        /* \"#utility.yul\":19353:19370   */\n      0x617220657374612066756e63696f6e0000000000000000000000000000000000\n        /* \"#utility.yul\":19348:19350   */\n      0x20\n        /* \"#utility.yul\":19340:19346   */\n      dup3\n        /* \"#utility.yul\":19336:19351   */\n      add\n        /* \"#utility.yul\":19329:19371   */\n      mstore\n        /* \"#utility.yul\":19144:19378   */\n      pop\n      jump\t// out\n        /* \"#utility.yul\":19384:19750   */\n    tag_399:\n        /* \"#utility.yul\":19526:19529   */\n      0x00\n        /* \"#utility.yul\":19547:19614   */\n      tag_595\n        /* \"#utility.yul\":19611:19613   */\n      0x2f\n        /* \"#utility.yul\":19606:19609   */\n      dup4\n        /* \"#utility.yul\":19547:19614   */\n      tag_382\n      jump\t// in\n    tag_595:\n        /* \"#utility.yul\":19540:19614   */\n      swap2\n      pop\n        /* \"#utility.yul\":19623:19716   */\n      tag_596\n        /* \"#utility.yul\":19712:19715   */\n      dup3\n        /* \"#utility.yul\":19623:19716   */\n      tag_398\n      jump\t// in\n    tag_596:\n        /* \"#utility.yul\":19741:19743   */\n      0x40\n        /* \"#utility.yul\":19736:19739   */\n      dup3\n        /* \"#utility.yul\":19732:19744   */\n      add\n        /* \"#utility.yul\":19725:19744   */\n      swap1\n      pop\n        /* \"#utility.yul\":19384:19750   */\n      swap2\n      swap1\n      pop\n      jump\t// out\n        /* \"#utility.yul\":19756:20175   */\n    tag_167:\n        /* \"#utility.yul\":19922:19926   */\n      0x00\n        /* \"#utility.yul\":19960:19962   */\n      0x20\n        /* \"#utility.yul\":19949:19958   */\n      dup3\n        /* \"#utility.yul\":19945:19963   */\n      add\n        /* \"#utility.yul\":19937:19963   */\n      swap1\n      pop\n        /* \"#utility.yul\":20009:20018   */\n      dup2\n        /* \"#utility.yul\":20003:20007   */\n      dup2\n        /* \"#utility.yul\":19999:20019   */\n      sub\n        /* \"#utility.yul\":19995:19996   */\n      0x00\n        /* \"#utility.yul\":19984:19993   */\n      dup4\n        /* \"#utility.yul\":19980:19997   */\n      add\n        /* \"#utility.yul\":19973:20020   */\n      mstore\n        /* \"#utility.yul\":20037:20168   */\n      tag_598\n        /* \"#utility.yul\":20163:20167   */\n      dup2\n        /* \"#utility.yul\":20037:20168   */\n      tag_399\n      jump\t// in\n    tag_598:\n        /* \"#utility.yul\":20029:20168   */\n      swap1\n      pop\n        /* \"#utility.yul\":19756:20175   */\n      swap2\n      swap1\n      pop\n      jump\t// out\n        /* \"#utility.yul\":20181:20407   */\n    tag_400:\n        /* \"#utility.yul\":20321:20355   */\n      0x4c6f73206465706f7369746f73206e6f2068616e207369646f207265656d626f\n        /* \"#utility.yul\":20317:20318   */\n      0x00\n        /* \"#utility.yul\":20309:20315   */\n      dup3\n        /* \"#utility.yul\":20305:20319   */\n      add\n        /* \"#utility.yul\":20298:20356   */\n      mstore\n        /* \"#utility.yul\":20390:20399   */\n      0x6c7361646f732e00000000000000000000000000000000000000000000000000\n        /* \"#utility.yul\":20385:20387   */\n      0x20\n        /* \"#utility.yul\":20377:20383   */\n      dup3\n        /* \"#utility.yul\":20373:20388   */\n      add\n        /* \"#utility.yul\":20366:20400   */\n      mstore\n        /* \"#utility.yul\":20181:20407   */\n      pop\n      jump\t// out\n        /* \"#utility.yul\":20413:20779   */\n    tag_401:\n        /* \"#utility.yul\":20555:20558   */\n      0x00\n        /* \"#utility.yul\":20576:20643   */\n      tag_601\n        /* \"#utility.yul\":20640:20642   */\n      0x27\n        /* \"#utility.yul\":20635:20638   */\n      dup4\n        /* \"#utility.yul\":20576:20643   */\n      tag_382\n      jump\t// in\n    tag_601:\n        /* \"#utility.yul\":20569:20643   */\n      swap2\n      pop\n        /* \"#utility.yul\":20652:20745   */\n      tag_602\n        /* \"#utility.yul\":20741:20744   */\n      dup3\n        /* \"#utility.yul\":20652:20745   */\n      tag_400\n      jump\t// in\n    tag_602:\n        /* \"#utility.yul\":20770:20772   */\n      0x40\n        /* \"#utility.yul\":20765:20768   */\n      dup3\n        /* \"#utility.yul\":20761:20773   */\n      add\n        /* \"#utility.yul\":20754:20773   */\n      swap1\n      pop\n        /* \"#utility.yul\":20413:20779   */\n      swap2\n      swap1\n      pop\n      jump\t// out\n        /* \"#utility.yul\":20785:21204   */\n    tag_175:\n        /* \"#utility.yul\":20951:20955   */\n      0x00\n        /* \"#utility.yul\":20989:20991   */\n      0x20\n        /* \"#utility.yul\":20978:20987   */\n      dup3\n        /* \"#utility.yul\":20974:20992   */\n      add\n        /* \"#utility.yul\":20966:20992   */\n      swap1\n      pop\n        /* \"#utility.yul\":21038:21047   */\n      dup2\n        /* \"#utility.yul\":21032:21036   */\n      dup2\n        /* \"#utility.yul\":21028:21048   */\n      sub\n        /* \"#utility.yul\":21024:21025   */\n      0x00\n        /* \"#utility.yul\":21013:21022   */\n      dup4\n        /* \"#utility.yul\":21009:21026   */\n      add\n        /* \"#utility.yul\":21002:21049   */\n      mstore\n        /* \"#utility.yul\":21066:21197   */\n      tag_604\n        /* \"#utility.yul\":21192:21196   */\n      dup2\n        /* \"#utility.yul\":21066:21197   */\n      tag_401\n      jump\t// in\n    tag_604:\n        /* \"#utility.yul\":21058:21197   */\n      swap1\n      pop\n        /* \"#utility.yul\":20785:21204   */\n      swap2\n      swap1\n      pop\n      jump\t// out\n        /* \"#utility.yul\":21210:21433   */\n    tag_402:\n        /* \"#utility.yul\":21350:21384   */\n      0x46616c6c6f20616c2072657469726172206c61206f66657274612067616e6164\n        /* \"#utility.yul\":21346:21347   */\n      0x00\n        /* \"#utility.yul\":21338:21344   */\n      dup3\n        /* \"#utility.yul\":21334:21348   */\n      add\n        /* \"#utility.yul\":21327:21385   */\n      mstore\n        /* \"#utility.yul\":21419:21425   */\n      0x6f72612e00000000000000000000000000000000000000000000000000000000\n        /* \"#utility.yul\":21414:21416   */\n      0x20\n        /* \"#utility.yul\":21406:21412   */\n      dup3\n        /* \"#utility.yul\":21402:21417   */\n      add\n        /* \"#utility.yul\":21395:21426   */\n      mstore\n        /* \"#utility.yul\":21210:21433   */\n      pop\n      jump\t// out\n        /* \"#utility.yul\":21439:21805   */\n    tag_403:\n        /* \"#utility.yul\":21581:21584   */\n      0x00\n        /* \"#utility.yul\":21602:21669   */\n      tag_607\n        /* \"#utility.yul\":21666:21668   */\n      0x24\n        /* \"#utility.yul\":21661:21664   */\n      dup4\n        /* \"#utility.yul\":21602:21669   */\n      tag_382\n      jump\t// in\n    tag_607:\n        /* \"#utility.yul\":21595:21669   */\n      swap2\n      pop\n        /* \"#utility.yul\":21678:21771   */\n      tag_608\n        /* \"#utility.yul\":21767:21770   */\n      dup3\n        /* \"#utility.yul\":21678:21771   */\n      tag_402\n      jump\t// in\n    tag_608:\n        /* \"#utility.yul\":21796:21798   */\n      0x40\n        /* \"#utility.yul\":21791:21794   */\n      dup3\n        /* \"#utility.yul\":21787:21799   */\n      add\n        /* \"#utility.yul\":21780:21799   */\n      swap1\n      pop\n        /* \"#utility.yul\":21439:21805   */\n      swap2\n      swap1\n      pop\n      jump\t// out\n        /* \"#utility.yul\":21811:22230   */\n    tag_197:\n        /* \"#utility.yul\":21977:21981   */\n      0x00\n        /* \"#utility.yul\":22015:22017   */\n      0x20\n        /* \"#utility.yul\":22004:22013   */\n      dup3\n        /* \"#utility.yul\":22000:22018   */\n      add\n        /* \"#utility.yul\":21992:22018   */\n      swap1\n      pop\n        /* \"#utility.yul\":22064:22073   */\n      dup2\n        /* \"#utility.yul\":22058:22062   */\n      dup2\n        /* \"#utility.yul\":22054:22074   */\n      sub\n        /* \"#utility.yul\":22050:22051   */\n      0x00\n        /* \"#utility.yul\":22039:22048   */\n      dup4\n        /* \"#utility.yul\":22035:22052   */\n      add\n        /* \"#utility.yul\":22028:22075   */\n      mstore\n        /* \"#utility.yul\":22092:22223   */\n      tag_610\n        /* \"#utility.yul\":22218:22222   */\n      dup2\n        /* \"#utility.yul\":22092:22223   */\n      tag_403\n      jump\t// in\n    tag_610:\n        /* \"#utility.yul\":22084:22223   */\n      swap1\n      pop\n        /* \"#utility.yul\":21811:22230   */\n      swap2\n      swap1\n      pop\n      jump\t// out\n        /* \"#utility.yul\":22236:22326   */\n    tag_404:\n        /* \"#utility.yul\":22270:22277   */\n      0x00\n        /* \"#utility.yul\":22313:22318   */\n      dup2\n        /* \"#utility.yul\":22306:22319   */\n      iszero\n        /* \"#utility.yul\":22299:22320   */\n      iszero\n        /* \"#utility.yul\":22288:22320   */\n      swap1\n      pop\n        /* \"#utility.yul\":22236:22326   */\n      swap2\n      swap1\n      pop\n      jump\t// out\n        /* \"#utility.yul\":22332:22441   */\n    tag_405:\n        /* \"#utility.yul\":22413:22434   */\n      tag_613\n        /* \"#utility.yul\":22428:22433   */\n      dup2\n        /* \"#utility.yul\":22413:22434   */\n      tag_404\n      jump\t// in\n    tag_613:\n        /* \"#utility.yul\":22408:22411   */\n      dup3\n        /* \"#utility.yul\":22401:22435   */\n      mstore\n        /* \"#utility.yul\":22332:22441   */\n      pop\n      pop\n      jump\t// out\n        /* \"#utility.yul\":22447:22657   */\n    tag_200:\n        /* \"#utility.yul\":22534:22538   */\n      0x00\n        /* \"#utility.yul\":22572:22574   */\n      0x20\n        /* \"#utility.yul\":22561:22570   */\n      dup3\n        /* \"#utility.yul\":22557:22575   */\n      add\n        /* \"#utility.yul\":22549:22575   */\n      swap1\n      pop\n        /* \"#utility.yul\":22585:22650   */\n      tag_615\n        /* \"#utility.yul\":22647:22648   */\n      0x00\n        /* \"#utility.yul\":22636:22645   */\n      dup4\n        /* \"#utility.yul\":22632:22649   */\n      add\n        /* \"#utility.yul\":22623:22629   */\n      dup5\n        /* \"#utility.yul\":22585:22650   */\n      tag_405\n      jump\t// in\n    tag_615:\n        /* \"#utility.yul\":22447:22657   */\n      swap3\n      swap2\n      pop\n      pop\n      jump\t// out\n        /* \"#utility.yul\":22663:22839   */\n    tag_406:\n        /* \"#utility.yul\":22803:22831   */\n      0x4c612073756261737461206e6f206861207465726d696e61646f000000000000\n        /* \"#utility.yul\":22799:22800   */\n      0x00\n        /* \"#utility.yul\":22791:22797   */\n      dup3\n        /* \"#utility.yul\":22787:22801   */\n      add\n        /* \"#utility.yul\":22780:22832   */\n      mstore\n        /* \"#utility.yul\":22663:22839   */\n      pop\n      jump\t// out\n        /* \"#utility.yul\":22845:23211   */\n    tag_407:\n        /* \"#utility.yul\":22987:22990   */\n      0x00\n        /* \"#utility.yul\":23008:23075   */\n      tag_618\n        /* \"#utility.yul\":23072:23074   */\n      0x1a\n        /* \"#utility.yul\":23067:23070   */\n      dup4\n        /* \"#utility.yul\":23008:23075   */\n      tag_382\n      jump\t// in\n    tag_618:\n        /* \"#utility.yul\":23001:23075   */\n      swap2\n      pop\n        /* \"#utility.yul\":23084:23177   */\n      tag_619\n        /* \"#utility.yul\":23173:23176   */\n      dup3\n        /* \"#utility.yul\":23084:23177   */\n      tag_406\n      jump\t// in\n    tag_619:\n        /* \"#utility.yul\":23202:23204   */\n      0x20\n        /* \"#utility.yul\":23197:23200   */\n      dup3\n        /* \"#utility.yul\":23193:23205   */\n      add\n        /* \"#utility.yul\":23186:23205   */\n      swap1\n      pop\n        /* \"#utility.yul\":22845:23211   */\n      swap2\n      swap1\n      pop\n      jump\t// out\n        /* \"#utility.yul\":23217:23636   */\n    tag_211:\n        /* \"#utility.yul\":23383:23387   */\n      0x00\n        /* \"#utility.yul\":23421:23423   */\n      0x20\n        /* \"#utility.yul\":23410:23419   */\n      dup3\n        /* \"#utility.yul\":23406:23424   */\n      add\n        /* \"#utility.yul\":23398:23424   */\n      swap1\n      pop\n        /* \"#utility.yul\":23470:23479   */\n      dup2\n        /* \"#utility.yul\":23464:23468   */\n      dup2\n        /* \"#utility.yul\":23460:23480   */\n      sub\n        /* \"#utility.yul\":23456:23457   */\n      0x00\n        /* \"#utility.yul\":23445:23454   */\n      dup4\n        /* \"#utility.yul\":23441:23458   */\n      add\n        /* \"#utility.yul\":23434:23481   */\n      mstore\n        /* \"#utility.yul\":23498:23629   */\n      tag_621\n        /* \"#utility.yul\":23624:23628   */\n      dup2\n        /* \"#utility.yul\":23498:23629   */\n      tag_407\n      jump\t// in\n    tag_621:\n        /* \"#utility.yul\":23490:23629   */\n      swap1\n      pop\n        /* \"#utility.yul\":23217:23636   */\n      swap2\n      swap1\n      pop\n      jump\t// out\n        /* \"#utility.yul\":23642:23823   */\n    tag_408:\n        /* \"#utility.yul\":23782:23815   */\n      0x4c6120737562617374612061756e206e6f206861207465726d696e61646f2e00\n        /* \"#utility.yul\":23778:23779   */\n      0x00\n        /* \"#utility.yul\":23770:23776   */\n      dup3\n        /* \"#utility.yul\":23766:23780   */\n      add\n        /* \"#utility.yul\":23759:23816   */\n      mstore\n        /* \"#utility.yul\":23642:23823   */\n      pop\n      jump\t// out\n        /* \"#utility.yul\":23829:24195   */\n    tag_409:\n        /* \"#utility.yul\":23971:23974   */\n      0x00\n        /* \"#utility.yul\":23992:24059   */\n      tag_624\n        /* \"#utility.yul\":24056:24058   */\n      0x1f\n        /* \"#utility.yul\":24051:24054   */\n      dup4\n        /* \"#utility.yul\":23992:24059   */\n      tag_382\n      jump\t// in\n    tag_624:\n        /* \"#utility.yul\":23985:24059   */\n      swap2\n      pop\n        /* \"#utility.yul\":24068:24161   */\n      tag_625\n        /* \"#utility.yul\":24157:24160   */\n      dup3\n        /* \"#utility.yul\":24068:24161   */\n      tag_408\n      jump\t// in\n    tag_625:\n        /* \"#utility.yul\":24186:24188   */\n      0x20\n        /* \"#utility.yul\":24181:24184   */\n      dup3\n        /* \"#utility.yul\":24177:24189   */\n      add\n        /* \"#utility.yul\":24170:24189   */\n      swap1\n      pop\n        /* \"#utility.yul\":23829:24195   */\n      swap2\n      swap1\n      pop\n      jump\t// out\n        /* \"#utility.yul\":24201:24620   */\n    tag_225:\n        /* \"#utility.yul\":24367:24371   */\n      0x00\n        /* \"#utility.yul\":24405:24407   */\n      0x20\n        /* \"#utility.yul\":24394:24403   */\n      dup3\n        /* \"#utility.yul\":24390:24408   */\n      add\n        /* \"#utility.yul\":24382:24408   */\n      swap1\n      pop\n        /* \"#utility.yul\":24454:24463   */\n      dup2\n        /* \"#utility.yul\":24448:24452   */\n      dup2\n        /* \"#utility.yul\":24444:24464   */\n      sub\n        /* \"#utility.yul\":24440:24441   */\n      0x00\n        /* \"#utility.yul\":24429:24438   */\n      dup4\n        /* \"#utility.yul\":24425:24442   */\n      add\n        /* \"#utility.yul\":24418:24465   */\n      mstore\n        /* \"#utility.yul\":24482:24613   */\n      tag_627\n        /* \"#utility.yul\":24608:24612   */\n      dup2\n        /* \"#utility.yul\":24482:24613   */\n      tag_409\n      jump\t// in\n    tag_627:\n        /* \"#utility.yul\":24474:24613   */\n      swap1\n      pop\n        /* \"#utility.yul\":24201:24620   */\n      swap2\n      swap1\n      pop\n      jump\t// out\n        /* \"#utility.yul\":24626:24808   */\n    tag_410:\n        /* \"#utility.yul\":24766:24800   */\n      0x46616c6c6f20616c206465766f6c766572206c6f73206465706f7369746f732e\n        /* \"#utility.yul\":24762:24763   */\n      0x00\n        /* \"#utility.yul\":24754:24760   */\n      dup3\n        /* \"#utility.yul\":24750:24764   */\n      add\n        /* \"#utility.yul\":24743:24801   */\n      mstore\n        /* \"#utility.yul\":24626:24808   */\n      pop\n      jump\t// out\n        /* \"#utility.yul\":24814:25180   */\n    tag_411:\n        /* \"#utility.yul\":24956:24959   */\n      0x00\n        /* \"#utility.yul\":24977:25044   */\n      tag_630\n        /* \"#utility.yul\":25041:25043   */\n      0x20\n        /* \"#utility.yul\":25036:25039   */\n      dup4\n        /* \"#utility.yul\":24977:25044   */\n      tag_382\n      jump\t// in\n    tag_630:\n        /* \"#utility.yul\":24970:25044   */\n      swap2\n      pop\n        /* \"#utility.yul\":25053:25146   */\n      tag_631\n        /* \"#utility.yul\":25142:25145   */\n      dup3\n        /* \"#utility.yul\":25053:25146   */\n      tag_410\n      jump\t// in\n    tag_631:\n        /* \"#utility.yul\":25171:25173   */\n      0x20\n        /* \"#utility.yul\":25166:25169   */\n      dup3\n        /* \"#utility.yul\":25162:25174   */\n      add\n        /* \"#utility.yul\":25155:25174   */\n      swap1\n      pop\n        /* \"#utility.yul\":24814:25180   */\n      swap2\n      swap1\n      pop\n      jump\t// out\n        /* \"#utility.yul\":25186:25605   */\n    tag_240:\n        /* \"#utility.yul\":25352:25356   */\n      0x00\n        /* \"#utility.yul\":25390:25392   */\n      0x20\n        /* \"#utility.yul\":25379:25388   */\n      dup3\n        /* \"#utility.yul\":25375:25393   */\n      add\n        /* \"#utility.yul\":25367:25393   */\n      swap1\n      pop\n        /* \"#utility.yul\":25439:25448   */\n      dup2\n        /* \"#utility.yul\":25433:25437   */\n      dup2\n        /* \"#utility.yul\":25429:25449   */\n      sub\n        /* \"#utility.yul\":25425:25426   */\n      0x00\n        /* \"#utility.yul\":25414:25423   */\n      dup4\n        /* \"#utility.yul\":25410:25427   */\n      add\n        /* \"#utility.yul\":25403:25450   */\n      mstore\n        /* \"#utility.yul\":25467:25598   */\n      tag_633\n        /* \"#utility.yul\":25593:25597   */\n      dup2\n        /* \"#utility.yul\":25467:25598   */\n      tag_411\n      jump\t// in\n    tag_633:\n        /* \"#utility.yul\":25459:25598   */\n      swap1\n      pop\n        /* \"#utility.yul\":25186:25605   */\n      swap2\n      swap1\n      pop\n      jump\t// out\n        /* \"#utility.yul\":25611:25791   */\n    tag_249:\n        /* \"#utility.yul\":25659:25736   */\n      0x4e487b7100000000000000000000000000000000000000000000000000000000\n        /* \"#utility.yul\":25656:25657   */\n      0x00\n        /* \"#utility.yul\":25649:25737   */\n      mstore\n        /* \"#utility.yul\":25756:25760   */\n      0x41\n        /* \"#utility.yul\":25753:25754   */\n      0x04\n        /* \"#utility.yul\":25746:25761   */\n      mstore\n        /* \"#utility.yul\":25780:25784   */\n      0x24\n        /* \"#utility.yul\":25777:25778   */\n      0x00\n        /* \"#utility.yul\":25770:25785   */\n      revert\n        /* \"#utility.yul\":25797:25979   */\n    tag_412:\n        /* \"#utility.yul\":25937:25971   */\n      0x46616c6c6f20616c2072657469726172206c617320636f6d6973696f6e65732e\n        /* \"#utility.yul\":25933:25934   */\n      0x00\n        /* \"#utility.yul\":25925:25931   */\n      dup3\n        /* \"#utility.yul\":25921:25935   */\n      add\n        /* \"#utility.yul\":25914:25972   */\n      mstore\n        /* \"#utility.yul\":25797:25979   */\n      pop\n      jump\t// out\n        /* \"#utility.yul\":25985:26351   */\n    tag_413:\n        /* \"#utility.yul\":26127:26130   */\n      0x00\n        /* \"#utility.yul\":26148:26215   */\n      tag_637\n        /* \"#utility.yul\":26212:26214   */\n      0x20\n        /* \"#utility.yul\":26207:26210   */\n      dup4\n        /* \"#utility.yul\":26148:26215   */\n      tag_382\n      jump\t// in\n    tag_637:\n        /* \"#utility.yul\":26141:26215   */\n      swap2\n      pop\n        /* \"#utility.yul\":26224:26317   */\n      tag_638\n        /* \"#utility.yul\":26313:26316   */\n      dup3\n        /* \"#utility.yul\":26224:26317   */\n      tag_412\n      jump\t// in\n    tag_638:\n        /* \"#utility.yul\":26342:26344   */\n      0x20\n        /* \"#utility.yul\":26337:26340   */\n      dup3\n        /* \"#utility.yul\":26333:26345   */\n      add\n        /* \"#utility.yul\":26326:26345   */\n      swap1\n      pop\n        /* \"#utility.yul\":25985:26351   */\n      swap2\n      swap1\n      pop\n      jump\t// out\n        /* \"#utility.yul\":26357:26776   */\n    tag_295:\n        /* \"#utility.yul\":26523:26527   */\n      0x00\n        /* \"#utility.yul\":26561:26563   */\n      0x20\n        /* \"#utility.yul\":26550:26559   */\n      dup3\n        /* \"#utility.yul\":26546:26564   */\n      add\n        /* \"#utility.yul\":26538:26564   */\n      swap1\n      pop\n        /* \"#utility.yul\":26610:26619   */\n      dup2\n        /* \"#utility.yul\":26604:26608   */\n      dup2\n        /* \"#utility.yul\":26600:26620   */\n      sub\n        /* \"#utility.yul\":26596:26597   */\n      0x00\n        /* \"#utility.yul\":26585:26594   */\n      dup4\n        /* \"#utility.yul\":26581:26598   */\n      add\n        /* \"#utility.yul\":26574:26621   */\n      mstore\n        /* \"#utility.yul\":26638:26769   */\n      tag_640\n        /* \"#utility.yul\":26764:26768   */\n      dup2\n        /* \"#utility.yul\":26638:26769   */\n      tag_413\n      jump\t// in\n    tag_640:\n        /* \"#utility.yul\":26630:26769   */\n      swap1\n      pop\n        /* \"#utility.yul\":26357:26776   */\n      swap2\n      swap1\n      pop\n      jump\t// out\n        /* \"#utility.yul\":26782:27032   */\n    tag_414:\n        /* \"#utility.yul\":26922:26956   */\n      0x4c61206f666572746120646562652073657220616c206d656e6f7320756e2035\n        /* \"#utility.yul\":26918:26919   */\n      0x00\n        /* \"#utility.yul\":26910:26916   */\n      dup3\n        /* \"#utility.yul\":26906:26920   */\n      add\n        /* \"#utility.yul\":26899:26957   */\n      mstore\n        /* \"#utility.yul\":26991:27024   */\n      0x25206d61796f7220717565206c61206f66657274612067616e61646f72612e00\n        /* \"#utility.yul\":26986:26988   */\n      0x20\n        /* \"#utility.yul\":26978:26984   */\n      dup3\n        /* \"#utility.yul\":26974:26989   */\n      add\n        /* \"#utility.yul\":26967:27025   */\n      mstore\n        /* \"#utility.yul\":26782:27032   */\n      pop\n      jump\t// out\n        /* \"#utility.yul\":27038:27404   */\n    tag_415:\n        /* \"#utility.yul\":27180:27183   */\n      0x00\n        /* \"#utility.yul\":27201:27268   */\n      tag_643\n        /* \"#utility.yul\":27265:27267   */\n      0x3f\n        /* \"#utility.yul\":27260:27263   */\n      dup4\n        /* \"#utility.yul\":27201:27268   */\n      tag_382\n      jump\t// in\n    tag_643:\n        /* \"#utility.yul\":27194:27268   */\n      swap2\n      pop\n        /* \"#utility.yul\":27277:27370   */\n      tag_644\n        /* \"#utility.yul\":27366:27369   */\n      dup3\n        /* \"#utility.yul\":27277:27370   */\n      tag_414\n      jump\t// in\n    tag_644:\n        /* \"#utility.yul\":27395:27397   */\n      0x40\n        /* \"#utility.yul\":27390:27393   */\n      dup3\n        /* \"#utility.yul\":27386:27398   */\n      add\n        /* \"#utility.yul\":27379:27398   */\n      swap1\n      pop\n        /* \"#utility.yul\":27038:27404   */\n      swap2\n      swap1\n      pop\n      jump\t// out\n        /* \"#utility.yul\":27410:27829   */\n    tag_310:\n        /* \"#utility.yul\":27576:27580   */\n      0x00\n        /* \"#utility.yul\":27614:27616   */\n      0x20\n        /* \"#utility.yul\":27603:27612   */\n      dup3\n        /* \"#utility.yul\":27599:27617   */\n      add\n        /* \"#utility.yul\":27591:27617   */\n      swap1\n      pop\n        /* \"#utility.yul\":27663:27672   */\n      dup2\n        /* \"#utility.yul\":27657:27661   */\n      dup2\n        /* \"#utility.yul\":27653:27673   */\n      sub\n        /* \"#utility.yul\":27649:27650   */\n      0x00\n        /* \"#utility.yul\":27638:27647   */\n      dup4\n        /* \"#utility.yul\":27634:27651   */\n      add\n        /* \"#utility.yul\":27627:27674   */\n      mstore\n        /* \"#utility.yul\":27691:27822   */\n      tag_646\n        /* \"#utility.yul\":27817:27821   */\n      dup2\n        /* \"#utility.yul\":27691:27822   */\n      tag_415\n      jump\t// in\n    tag_646:\n        /* \"#utility.yul\":27683:27822   */\n      swap1\n      pop\n        /* \"#utility.yul\":27410:27829   */\n      swap2\n      swap1\n      pop\n      jump\t// out\n        /* \"#utility.yul\":27835:28010   */\n    tag_416:\n        /* \"#utility.yul\":27975:28002   */\n      0x4c6120737562617374612068612066696e616c697a61646f2e00000000000000\n        /* \"#utility.yul\":27971:27972   */\n      0x00\n        /* \"#utility.yul\":27963:27969   */\n      dup3\n        /* \"#utility.yul\":27959:27973   */\n      add\n        /* \"#utility.yul\":27952:28003   */\n      mstore\n        /* \"#utility.yul\":27835:28010   */\n      pop\n      jump\t// out\n        /* \"#utility.yul\":28016:28382   */\n    tag_417:\n        /* \"#utility.yul\":28158:28161   */\n      0x00\n        /* \"#utility.yul\":28179:28246   */\n      tag_649\n        /* \"#utility.yul\":28243:28245   */\n      0x19\n        /* \"#utility.yul\":28238:28241   */\n      dup4\n        /* \"#utility.yul\":28179:28246   */\n      tag_382\n      jump\t// in\n    tag_649:\n        /* \"#utility.yul\":28172:28246   */\n      swap2\n      pop\n        /* \"#utility.yul\":28255:28348   */\n      tag_650\n        /* \"#utility.yul\":28344:28347   */\n      dup3\n        /* \"#utility.yul\":28255:28348   */\n      tag_416\n      jump\t// in\n    tag_650:\n        /* \"#utility.yul\":28373:28375   */\n      0x20\n        /* \"#utility.yul\":28368:28371   */\n      dup3\n        /* \"#utility.yul\":28364:28376   */\n      add\n        /* \"#utility.yul\":28357:28376   */\n      swap1\n      pop\n        /* \"#utility.yul\":28016:28382   */\n      swap2\n      swap1\n      pop\n      jump\t// out\n        /* \"#utility.yul\":28388:28807   */\n    tag_314:\n        /* \"#utility.yul\":28554:28558   */\n      0x00\n        /* \"#utility.yul\":28592:28594   */\n      0x20\n        /* \"#utility.yul\":28581:28590   */\n      dup3\n        /* \"#utility.yul\":28577:28595   */\n      add\n        /* \"#utility.yul\":28569:28595   */\n      swap1\n      pop\n        /* \"#utility.yul\":28641:28650   */\n      dup2\n        /* \"#utility.yul\":28635:28639   */\n      dup2\n        /* \"#utility.yul\":28631:28651   */\n      sub\n        /* \"#utility.yul\":28627:28628   */\n      0x00\n        /* \"#utility.yul\":28616:28625   */\n      dup4\n        /* \"#utility.yul\":28612:28629   */\n      add\n        /* \"#utility.yul\":28605:28652   */\n      mstore\n        /* \"#utility.yul\":28669:28800   */\n      tag_652\n        /* \"#utility.yul\":28795:28799   */\n      dup2\n        /* \"#utility.yul\":28669:28800   */\n      tag_417\n      jump\t// in\n    tag_652:\n        /* \"#utility.yul\":28661:28800   */\n      swap1\n      pop\n        /* \"#utility.yul\":28388:28807   */\n      swap2\n      swap1\n      pop\n      jump\t// out\n        /* \"#utility.yul\":28813:29033   */\n    tag_418:\n        /* \"#utility.yul\":28953:28987   */\n      0x4c612073756261737461207961206861207369646f2066696e616c697a616461\n        /* \"#utility.yul\":28949:28950   */\n      0x00\n        /* \"#utility.yul\":28941:28947   */\n      dup3\n        /* \"#utility.yul\":28937:28951   */\n      add\n        /* \"#utility.yul\":28930:28988   */\n      mstore\n        /* \"#utility.yul\":29022:29025   */\n      0x2e00000000000000000000000000000000000000000000000000000000000000\n        /* \"#utility.yul\":29017:29019   */\n      0x20\n        /* \"#utility.yul\":29009:29015   */\n      dup3\n        /* \"#utility.yul\":29005:29020   */\n      add\n        /* \"#utility.yul\":28998:29026   */\n      mstore\n        /* \"#utility.yul\":28813:29033   */\n      pop\n      jump\t// out\n        /* \"#utility.yul\":29039:29405   */\n    tag_419:\n        /* \"#utility.yul\":29181:29184   */\n      0x00\n        /* \"#utility.yul\":29202:29269   */\n      tag_655\n        /* \"#utility.yul\":29266:29268   */\n      0x21\n        /* \"#utility.yul\":29261:29264   */\n      dup4\n        /* \"#utility.yul\":29202:29269   */\n      tag_382\n      jump\t// in\n    tag_655:\n        /* \"#utility.yul\":29195:29269   */\n      swap2\n      pop\n        /* \"#utility.yul\":29278:29371   */\n      tag_656\n        /* \"#utility.yul\":29367:29370   */\n      dup3\n        /* \"#utility.yul\":29278:29371   */\n      tag_418\n      jump\t// in\n    tag_656:\n        /* \"#utility.yul\":29396:29398   */\n      0x40\n        /* \"#utility.yul\":29391:29394   */\n      dup3\n        /* \"#utility.yul\":29387:29399   */\n      add\n        /* \"#utility.yul\":29380:29399   */\n      swap1\n      pop\n        /* \"#utility.yul\":29039:29405   */\n      swap2\n      swap1\n      pop\n      jump\t// out\n        /* \"#utility.yul\":29411:29830   */\n    tag_339:\n        /* \"#utility.yul\":29577:29581   */\n      0x00\n        /* \"#utility.yul\":29615:29617   */\n      0x20\n        /* \"#utility.yul\":29604:29613   */\n      dup3\n        /* \"#utility.yul\":29600:29618   */\n      add\n        /* \"#utility.yul\":29592:29618   */\n      swap1\n      pop\n        /* \"#utility.yul\":29664:29673   */\n      dup2\n        /* \"#utility.yul\":29658:29662   */\n      dup2\n        /* \"#utility.yul\":29654:29674   */\n      sub\n        /* \"#utility.yul\":29650:29651   */\n      0x00\n        /* \"#utility.yul\":29639:29648   */\n      dup4\n        /* \"#utility.yul\":29635:29652   */\n      add\n        /* \"#utility.yul\":29628:29675   */\n      mstore\n        /* \"#utility.yul\":29692:29823   */\n      tag_658\n        /* \"#utility.yul\":29818:29822   */\n      dup2\n        /* \"#utility.yul\":29692:29823   */\n      tag_419\n      jump\t// in\n    tag_658:\n        /* \"#utility.yul\":29684:29823   */\n      swap1\n      pop\n        /* \"#utility.yul\":29411:29830   */\n      swap2\n      swap1\n      pop\n      jump\t// out\n\n    auxdata: 0xa2646970667358221220e3e6f3cf8cea47d359d537b8f7275250833b8c8743f890b79d6d300cb87e3cb364736f6c634300081a0033\n}\n",
				"bytecode": {
					"linkReferences": {},
					"object": "608060405234801561000f575f80fd5b50604051612e45380380612e458339818101604052810190610031919061013c565b6104b08110158015610046575062093a808111155b610085576040517f08c379a000000000000000000000000000000000000000000000000000000000815260040161007c906101e7565b60405180910390fd5b80426100919190610232565b6001819055505f805f6101000a81548160ff021916908360038111156100ba576100b9610265565b5b02179055503360055f6101000a81548173ffffffffffffffffffffffffffffffffffffffff021916908373ffffffffffffffffffffffffffffffffffffffff16021790555050610292565b5f80fd5b5f819050919050565b61011b81610109565b8114610125575f80fd5b50565b5f8151905061013681610112565b92915050565b5f6020828403121561015157610150610105565b5b5f61015e84828501610128565b91505092915050565b5f82825260208201905092915050565b7f4c61206475726163696f6e20646562652073657220656e747265203230206d695f8201527f6e75746f732079203720646961732e0000000000000000000000000000000000602082015250565b5f6101d1602f83610167565b91506101dc82610177565b604082019050919050565b5f6020820190508181035f8301526101fe816101c5565b9050919050565b7f4e487b71000000000000000000000000000000000000000000000000000000005f52601160045260245ffd5b5f61023c82610109565b915061024783610109565b925082820190508082111561025f5761025e610205565b5b92915050565b7f4e487b71000000000000000000000000000000000000000000000000000000005f52602160045260245ffd5b612ba68061029f5f395ff3fe608060405260043610610113575f3560e01c80638da5cb5b1161009f578063d57bde7911610063578063d57bde7914610383578063e34d1e69146103ad578063eba7bb9d146103c3578063ecfc7ecc146103ed578063fe67a54b146103f757610113565b80638da5cb5b1461028c57806391f90157146102b657806392bff767146102e0578063be35460b1461030b578063cff29dfd1461034757610113565b80634b449cba116100e65780634b449cba146101a957806362c71635146101d35780637cf2ed221461020f5780637d615e65146102255780637fb450991461026257610113565b80631ce2bcf51461011757806325abd4c71461012d5780632f49e96414610169578063473437111461017f575b5f80fd5b348015610122575f80fd5b5061012b61040d565b005b348015610138575f80fd5b50610153600480360381019061014e9190611dc4565b610859565b6040516101609190611e11565b60405180910390f35b348015610174575f80fd5b5061017d610884565b005b34801561018a575f80fd5b50610193610c38565b6040516101a09190611f1d565b60405180910390f35b3480156101b4575f80fd5b506101bd610cf2565b6040516101ca9190611e11565b60405180910390f35b3480156101de575f80fd5b506101f960048036038101906101f49190611f3d565b610cf8565b6040516102069190611e11565b60405180910390f35b34801561021a575f80fd5b50610223610d0d565b005b348015610230575f80fd5b5061024b60048036038101906102469190611f68565b611127565b604051610259929190611fa2565b60405180910390f35b34801561026d575f80fd5b50610276611175565b604051610283919061203c565b60405180910390f35b348015610297575f80fd5b506102a0611185565b6040516102ad9190612055565b60405180910390f35b3480156102c1575f80fd5b506102ca6111aa565b6040516102d79190612055565b60405180910390f35b3480156102eb575f80fd5b506102f46111cf565b6040516103029291906121be565b60405180910390f35b348015610316575f80fd5b50610331600480360381019061032c9190611f3d565b611383565b60405161033e9190611e11565b60405180910390f35b348015610352575f80fd5b5061036d60048036038101906103689190611f68565b611398565b60405161037a9190612055565b60405180910390f35b34801561038e575f80fd5b506103976113d3565b6040516103a49190611e11565b60405180910390f35b3480156103b8575f80fd5b506103c16113d9565b005b3480156103ce575f80fd5b506103d76116d1565b6040516103e49190611e11565b60405180910390f35b6103f56116d7565b005b348015610402575f80fd5b5061040b611b0c565b005b5f60038111156104205761041f611fc9565b5b5f8054906101000a900460ff16600381111561043f5761043e611fc9565b5b1461047f576040517f08c379a00000000000000000000000000000000000000000000000000000000081526004016104769061224d565b60405180910390fd5b60038081111561049257610491611fc9565b5b5f8054906101000a900460ff1660038111156104b1576104b0611fc9565b5b036104f1576040517f08c379a00000000000000000000000000000000000000000000000000000000081526004016104e8906122db565b60405180910390fd5b5f8060065f3373ffffffffffffffffffffffffffffffffffffffff1673ffffffffffffffffffffffffffffffffffffffff1681526020019081526020015f2090506001818054905011610579576040517f08c379a000000000000000000000000000000000000000000000000000000000815260040161057090612369565b60405180910390fd5b5f5b6001828054905061058c91906123b4565b8110156105c9578181815481106105a6576105a56123e7565b5b905f5260205f200154836105ba9190612414565b9250808060010191505061057b565b505f60085f3373ffffffffffffffffffffffffffffffffffffffff1673ffffffffffffffffffffffffffffffffffffffff1681526020019081526020015f20548361061491906123b4565b90505f8111610658576040517f08c379a000000000000000000000000000000000000000000000000000000000815260040161064f906124b7565b60405180910390fd5b8060085f3373ffffffffffffffffffffffffffffffffffffffff1673ffffffffffffffffffffffffffffffffffffffff1681526020019081526020015f205f8282546106a49190612414565b925050819055505f60646002836106bb91906124d5565b6106c59190612543565b90505f81836106d491906123b4565b905083600185805490506106e891906123b4565b815481106106f9576106f86123e7565b5b905f5260205f20015460075f3373ffffffffffffffffffffffffffffffffffffffff1673ffffffffffffffffffffffffffffffffffffffff1681526020019081526020015f20819055508160025f8282546107549190612414565b925050819055505f3373ffffffffffffffffffffffffffffffffffffffff1682604051610780906125a0565b5f6040518083038185875af1925050503d805f81146107ba576040519150601f19603f3d011682016040523d82523d5f602084013e6107bf565b606091505b5050905080610803576040517f08c379a00000000000000000000000000000000000000000000000000000000081526004016107fa90612624565b60405180910390fd5b3373ffffffffffffffffffffffffffffffffffffffff167fdce68997783ae47468b6fb0dd39cca315f9082d51d9ab3df8747c70512aa8ff2836040516108499190611e11565b60405180910390a2505050505050565b6006602052815f5260405f208181548110610872575f80fd5b905f5260205f20015f91509150505481565b60055f9054906101000a900473ffffffffffffffffffffffffffffffffffffffff1673ffffffffffffffffffffffffffffffffffffffff163373ffffffffffffffffffffffffffffffffffffffff1614610913576040517f08c379a000000000000000000000000000000000000000000000000000000000815260040161090a906126b2565b60405180910390fd5b6002600381111561092757610926611fc9565b5b5f8054906101000a900460ff16600381111561094657610945611fc9565b5b14610986576040517f08c379a000000000000000000000000000000000000000000000000000000000815260040161097d90612740565b60405180910390fd5b60038081111561099957610998611fc9565b5b5f8054906101000a900460ff1660038111156109b8576109b7611fc9565b5b036109f8576040517f08c379a00000000000000000000000000000000000000000000000000000000081526004016109ef906122db565b60405180910390fd5b60026003811115610a0c57610a0b611fc9565b5b5f8054906101000a900460ff166003811115610a2b57610a2a611fc9565b5b14610a6b576040517f08c379a0000000000000000000000000000000000000000000000000000000008152600401610a6290612740565b60405180910390fd5b5f600354905060035f806101000a81548160ff02191690836003811115610a9557610a94611fc9565b5b02179055505f60075f60045f9054906101000a900473ffffffffffffffffffffffffffffffffffffffff1673ffffffffffffffffffffffffffffffffffffffff1673ffffffffffffffffffffffffffffffffffffffff1681526020019081526020015f20819055505f60055f9054906101000a900473ffffffffffffffffffffffffffffffffffffffff1673ffffffffffffffffffffffffffffffffffffffff1682604051610b43906125a0565b5f6040518083038185875af1925050503d805f8114610b7d576040519150601f19603f3d011682016040523d82523d5f602084013e610b82565b606091505b5050905080610bc6576040517f08c379a0000000000000000000000000000000000000000000000000000000008152600401610bbd906127ce565b60405180910390fd5b7fdb23c6f1ecd7f6b51f64de3f6317061f4bb0cb9a23217a658fac91c6af46aaaa82604051610bf59190611e11565b60405180910390a17fd32867df73bc4c73068741f056b4515ddce6636a748ab9317e2c69e0fbcb356a81604051610c2c9190612806565b60405180910390a15050565b6060600a805480602002602001604051908101604052809291908181526020015f905b82821015610ce9578382905f5260205f2090600202016040518060400160405290815f82015f9054906101000a900473ffffffffffffffffffffffffffffffffffffffff1673ffffffffffffffffffffffffffffffffffffffff1673ffffffffffffffffffffffffffffffffffffffff16815260200160018201548152505081526020019060010190610c5b565b50505050905090565b60015481565b6007602052805f5260405f205f915090505481565b60055f9054906101000a900473ffffffffffffffffffffffffffffffffffffffff1673ffffffffffffffffffffffffffffffffffffffff163373ffffffffffffffffffffffffffffffffffffffff1614610d9c576040517f08c379a0000000000000000000000000000000000000000000000000000000008152600401610d93906126b2565b60405180910390fd5b600154421015610de1576040517f08c379a0000000000000000000000000000000000000000000000000000000008152600401610dd890612869565b60405180910390fd5b600380811115610df457610df3611fc9565b5b5f8054906101000a900460ff166003811115610e1357610e12611fc9565b5b03610e53576040517f08c379a0000000000000000000000000000000000000000000000000000000008152600401610e4a906122db565b60405180910390fd5b60016003811115610e6757610e66611fc9565b5b5f8054906101000a900460ff166003811115610e8657610e85611fc9565b5b14610ec6576040517f08c379a0000000000000000000000000000000000000000000000000000000008152600401610ebd906128d1565b60405180910390fd5b5f5b6009805490508110156110fb575f60098281548110610eea57610ee96123e7565b5b905f5260205f20015f9054906101000a900473ffffffffffffffffffffffffffffffffffffffff16905060045f9054906101000a900473ffffffffffffffffffffffffffffffffffffffff1673ffffffffffffffffffffffffffffffffffffffff168173ffffffffffffffffffffffffffffffffffffffff16146110ed575f60075f8373ffffffffffffffffffffffffffffffffffffffff1673ffffffffffffffffffffffffffffffffffffffff1681526020019081526020015f205490505f60075f8473ffffffffffffffffffffffffffffffffffffffff1673ffffffffffffffffffffffffffffffffffffffff1681526020019081526020015f20819055505f8111156110eb575f8273ffffffffffffffffffffffffffffffffffffffff1682604051611018906125a0565b5f6040518083038185875af1925050503d805f8114611052576040519150601f19603f3d011682016040523d82523d5f602084013e611057565b606091505b505090508061109b576040517f08c379a000000000000000000000000000000000000000000000000000000000815260040161109290612939565b60405180910390fd5b8273ffffffffffffffffffffffffffffffffffffffff167f4482101800a5c2e900f4156e57e05e19ffd7b366cde579553d723fd3abb2180e836040516110e19190611e11565b60405180910390a2505b505b508080600101915050610ec8565b5060025f806101000a81548160ff021916908360038111156111205761111f611fc9565b5b0217905550565b600a8181548110611136575f80fd5b905f5260205f2090600202015f91509050805f015f9054906101000a900473ffffffffffffffffffffffffffffffffffffffff16908060010154905082565b5f8054906101000a900460ff1681565b60055f9054906101000a900473ffffffffffffffffffffffffffffffffffffffff1681565b60045f9054906101000a900473ffffffffffffffffffffffffffffffffffffffff1681565b6060805f60098054905090505f8167ffffffffffffffff8111156111f6576111f5612957565b5b6040519080825280602002602001820160405280156112245781602001602082028036833780820191505090505b5090505f8267ffffffffffffffff81111561124257611241612957565b5b6040519080825280602002602001820160405280156112705781602001602082028036833780820191505090505b5090505f5b83811015611375575f60098281548110611292576112916123e7565b5b905f5260205f20015f9054906101000a900473ffffffffffffffffffffffffffffffffffffffff169050808483815181106112d0576112cf6123e7565b5b602002602001019073ffffffffffffffffffffffffffffffffffffffff16908173ffffffffffffffffffffffffffffffffffffffff168152505060075f8273ffffffffffffffffffffffffffffffffffffffff1673ffffffffffffffffffffffffffffffffffffffff1681526020019081526020015f205483838151811061135b5761135a6123e7565b5b602002602001018181525050508080600101915050611275565b508181945094505050509091565b6008602052805f5260405f205f915090505481565b600981815481106113a7575f80fd5b905f5260205f20015f915054906101000a900473ffffffffffffffffffffffffffffffffffffffff1681565b60035481565b60055f9054906101000a900473ffffffffffffffffffffffffffffffffffffffff1673ffffffffffffffffffffffffffffffffffffffff163373ffffffffffffffffffffffffffffffffffffffff1614611468576040517f08c379a000000000000000000000000000000000000000000000000000000000815260040161145f906126b2565b60405180910390fd5b6002600381111561147c5761147b611fc9565b5b5f8054906101000a900460ff16600381111561149b5761149a611fc9565b5b146114db576040517f08c379a00000000000000000000000000000000000000000000000000000000081526004016114d290612740565b60405180910390fd5b6003808111156114ee576114ed611fc9565b5b5f8054906101000a900460ff16600381111561150d5761150c611fc9565b5b0361154d576040517f08c379a0000000000000000000000000000000000000000000000000000000008152600401611544906122db565b60405180910390fd5b6002600381111561156157611560611fc9565b5b5f8054906101000a900460ff1660038111156115805761157f611fc9565b5b146115c0576040517f08c379a00000000000000000000000000000000000000000000000000000000081526004016115b790612740565b60405180910390fd5b5f60025490505f6002819055505f60055f9054906101000a900473ffffffffffffffffffffffffffffffffffffffff1673ffffffffffffffffffffffffffffffffffffffff1682604051611613906125a0565b5f6040518083038185875af1925050503d805f811461164d576040519150601f19603f3d011682016040523d82523d5f602084013e611652565b606091505b5050905080611696576040517f08c379a000000000000000000000000000000000000000000000000000000000815260040161168d906129ce565b60405180910390fd5b7f2f424443129f9599dfb4d73878ad554b820124e747bde094b660fb1280ed3d15826040516116c59190611e11565b60405180910390a15050565b60025481565b5f60038111156116ea576116e9611fc9565b5b5f8054906101000a900460ff16600381111561170957611708611fc9565b5b14611749576040517f08c379a00000000000000000000000000000000000000000000000000000000081526004016117409061224d565b60405180910390fd5b346064600560035461175b91906124d5565b6117659190612543565b6003546117729190612414565b8110156117b4576040517f08c379a00000000000000000000000000000000000000000000000000000000081526004016117ab90612a5c565b60405180910390fd5b6001544211156117f9576040517f08c379a00000000000000000000000000000000000000000000000000000000081526004016117f090612ac4565b60405180910390fd5b61025860015461180991906123b4565b4211156118645761025860015f8282546118239190612414565b925050819055507fc2b459809119087ca9d2bc10dea53a51b7d848b1a11075db037bdca58292c3e860015460405161185b9190611e11565b60405180910390a15b5f34905060065f3373ffffffffffffffffffffffffffffffffffffffff1673ffffffffffffffffffffffffffffffffffffffff1681526020019081526020015f2081908060018154018082558091505060019003905f5260205f20015f90919091909150558060075f3373ffffffffffffffffffffffffffffffffffffffff1673ffffffffffffffffffffffffffffffffffffffff1681526020019081526020015f205f8282546119159190612414565b92505081905550600a60405180604001604052803373ffffffffffffffffffffffffffffffffffffffff16815260200183815250908060018154018082558091505060019003905f5260205f2090600202015f909190919091505f820151815f015f6101000a81548173ffffffffffffffffffffffffffffffffffffffff021916908373ffffffffffffffffffffffffffffffffffffffff160217905550602082015181600101555050600354811115611a1157806003819055503360045f6101000a81548173ffffffffffffffffffffffffffffffffffffffff021916908373ffffffffffffffffffffffffffffffffffffffff1602179055505b600160065f3373ffffffffffffffffffffffffffffffffffffffff1673ffffffffffffffffffffffffffffffffffffffff1681526020019081526020015f208054905003611aba57600933908060018154018082558091505060019003905f5260205f20015f9091909190916101000a81548173ffffffffffffffffffffffffffffffffffffffff021916908373ffffffffffffffffffffffffffffffffffffffff1602179055505b3373ffffffffffffffffffffffffffffffffffffffff167f3fabff0a9c3ecd6814702e247fa9733e5d0aa69e3a38590f92cb18f623a2254d82604051611b009190611e11565b60405180910390a25050565b60055f9054906101000a900473ffffffffffffffffffffffffffffffffffffffff1673ffffffffffffffffffffffffffffffffffffffff163373ffffffffffffffffffffffffffffffffffffffff1614611b9b576040517f08c379a0000000000000000000000000000000000000000000000000000000008152600401611b92906126b2565b60405180910390fd5b600154421015611be0576040517f08c379a0000000000000000000000000000000000000000000000000000000008152600401611bd790612869565b60405180910390fd5b5f6003811115611bf357611bf2611fc9565b5b5f8054906101000a900460ff166003811115611c1257611c11611fc9565b5b14611c52576040517f08c379a0000000000000000000000000000000000000000000000000000000008152600401611c4990612b52565b60405180910390fd5b600154421015611c97576040517f08c379a0000000000000000000000000000000000000000000000000000000008152600401611c8e906128d1565b60405180910390fd5b60015f806101000a81548160ff02191690836003811115611cbb57611cba611fc9565b5b021790555060045f9054906101000a900473ffffffffffffffffffffffffffffffffffffffff1673ffffffffffffffffffffffffffffffffffffffff167fdaec4582d5d9595688c8c98545fdd1c696d41c6aeaeb636737e84ed2f5c00eda600354604051611d299190611e11565b60405180910390a2565b5f80fd5b5f73ffffffffffffffffffffffffffffffffffffffff82169050919050565b5f611d6082611d37565b9050919050565b611d7081611d56565b8114611d7a575f80fd5b50565b5f81359050611d8b81611d67565b92915050565b5f819050919050565b611da381611d91565b8114611dad575f80fd5b50565b5f81359050611dbe81611d9a565b92915050565b5f8060408385031215611dda57611dd9611d33565b5b5f611de785828601611d7d565b9250506020611df885828601611db0565b9150509250929050565b611e0b81611d91565b82525050565b5f602082019050611e245f830184611e02565b92915050565b5f81519050919050565b5f82825260208201905092915050565b5f819050602082019050919050565b611e5c81611d56565b82525050565b611e6b81611d91565b82525050565b604082015f820151611e855f850182611e53565b506020820151611e986020850182611e62565b50505050565b5f611ea98383611e71565b60408301905092915050565b5f602082019050919050565b5f611ecb82611e2a565b611ed58185611e34565b9350611ee083611e44565b805f5b83811015611f10578151611ef78882611e9e565b9750611f0283611eb5565b925050600181019050611ee3565b5085935050505092915050565b5f6020820190508181035f830152611f358184611ec1565b905092915050565b5f60208284031215611f5257611f51611d33565b5b5f611f5f84828501611d7d565b91505092915050565b5f60208284031215611f7d57611f7c611d33565b5b5f611f8a84828501611db0565b91505092915050565b611f9c81611d56565b82525050565b5f604082019050611fb55f830185611f93565b611fc26020830184611e02565b9392505050565b7f4e487b71000000000000000000000000000000000000000000000000000000005f52602160045260245ffd5b6004811061200757612006611fc9565b5b50565b5f81905061201782611ff6565b919050565b5f6120268261200a565b9050919050565b6120368161201c565b82525050565b5f60208201905061204f5f83018461202d565b92915050565b5f6020820190506120685f830184611f93565b92915050565b5f81519050919050565b5f82825260208201905092915050565b5f819050602082019050919050565b5f6120a28383611e53565b60208301905092915050565b5f602082019050919050565b5f6120c48261206e565b6120ce8185612078565b93506120d983612088565b805f5b838110156121095781516120f08882612097565b97506120fb836120ae565b9250506001810190506120dc565b5085935050505092915050565b5f81519050919050565b5f82825260208201905092915050565b5f819050602082019050919050565b5f61214a8383611e62565b60208301905092915050565b5f602082019050919050565b5f61216c82612116565b6121768185612120565b935061218183612130565b805f5b838110156121b1578151612198888261213f565b97506121a383612156565b925050600181019050612184565b5085935050505092915050565b5f6040820190508181035f8301526121d681856120ba565b905081810360208301526121ea8184612162565b90509392505050565b5f82825260208201905092915050565b7f4c612073756261737461206e6f206573746120616374697661000000000000005f82015250565b5f6122376019836121f3565b915061224282612203565b602082019050919050565b5f6020820190508181035f8301526122648161222b565b9050919050565b7f4c612073756261737461207961206861207369646f20636f6d706c65746164615f8201527f2e00000000000000000000000000000000000000000000000000000000000000602082015250565b5f6122c56021836121f3565b91506122d08261226b565b604082019050919050565b5f6020820190508181035f8301526122f2816122b9565b9050919050565b7f4e6f20686179206f66657274617320616e746572696f726573207061726120725f8201527f6574697261722e00000000000000000000000000000000000000000000000000602082015250565b5f6123536027836121f3565b915061235e826122f9565b604082019050919050565b5f6020820190508181035f83015261238081612347565b9050919050565b7f4e487b71000000000000000000000000000000000000000000000000000000005f52601160045260245ffd5b5f6123be82611d91565b91506123c983611d91565b92508282039050818111156123e1576123e0612387565b5b92915050565b7f4e487b71000000000000000000000000000000000000000000000000000000005f52603260045260245ffd5b5f61241e82611d91565b915061242983611d91565b925082820190508082111561244157612440612387565b5b92915050565b7f4e6f206861792073616c646f2061646963696f6e616c2070617261207265656d5f8201527f626f6c7361722e00000000000000000000000000000000000000000000000000602082015250565b5f6124a16027836121f3565b91506124ac82612447565b604082019050919050565b5f6020820190508181035f8301526124ce81612495565b9050919050565b5f6124df82611d91565b91506124ea83611d91565b92508282026124f881611d91565b9150828204841483151761250f5761250e612387565b5b5092915050565b7f4e487b71000000000000000000000000000000000000000000000000000000005f52601260045260245ffd5b5f61254d82611d91565b915061255883611d91565b92508261256857612567612516565b5b828204905092915050565b5f81905092915050565b50565b5f61258b5f83612573565b91506125968261257d565b5f82019050919050565b5f6125aa82612580565b9150819050919050565b7f46616c6c6f20616c207265616c697a617220656c207265656d626f6c736f20705f8201527f61726369616c2e00000000000000000000000000000000000000000000000000602082015250565b5f61260e6027836121f3565b9150612619826125b4565b604082019050919050565b5f6020820190508181035f83015261263b81612602565b9050919050565b7f536f6c6f20656c2070726f706965746172696f20707565646520656a656375745f8201527f617220657374612066756e63696f6e0000000000000000000000000000000000602082015250565b5f61269c602f836121f3565b91506126a782612642565b604082019050919050565b5f6020820190508181035f8301526126c981612690565b9050919050565b7f4c6f73206465706f7369746f73206e6f2068616e207369646f207265656d626f5f8201527f6c7361646f732e00000000000000000000000000000000000000000000000000602082015250565b5f61272a6027836121f3565b9150612735826126d0565b604082019050919050565b5f6020820190508181035f8301526127578161271e565b9050919050565b7f46616c6c6f20616c2072657469726172206c61206f66657274612067616e61645f8201527f6f72612e00000000000000000000000000000000000000000000000000000000602082015250565b5f6127b86024836121f3565b91506127c38261275e565b604082019050919050565b5f6020820190508181035f8301526127e5816127ac565b9050919050565b5f8115159050919050565b612800816127ec565b82525050565b5f6020820190506128195f8301846127f7565b92915050565b7f4c612073756261737461206e6f206861207465726d696e61646f0000000000005f82015250565b5f612853601a836121f3565b915061285e8261281f565b602082019050919050565b5f6020820190508181035f83015261288081612847565b9050919050565b7f4c6120737562617374612061756e206e6f206861207465726d696e61646f2e005f82015250565b5f6128bb601f836121f3565b91506128c682612887565b602082019050919050565b5f6020820190508181035f8301526128e8816128af565b9050919050565b7f46616c6c6f20616c206465766f6c766572206c6f73206465706f7369746f732e5f82015250565b5f6129236020836121f3565b915061292e826128ef565b602082019050919050565b5f6020820190508181035f83015261295081612917565b9050919050565b7f4e487b71000000000000000000000000000000000000000000000000000000005f52604160045260245ffd5b7f46616c6c6f20616c2072657469726172206c617320636f6d6973696f6e65732e5f82015250565b5f6129b86020836121f3565b91506129c382612984565b602082019050919050565b5f6020820190508181035f8301526129e5816129ac565b9050919050565b7f4c61206f666572746120646562652073657220616c206d656e6f7320756e20355f8201527f25206d61796f7220717565206c61206f66657274612067616e61646f72612e00602082015250565b5f612a46603f836121f3565b9150612a51826129ec565b604082019050919050565b5f6020820190508181035f830152612a7381612a3a565b9050919050565b7f4c6120737562617374612068612066696e616c697a61646f2e000000000000005f82015250565b5f612aae6019836121f3565b9150612ab982612a7a565b602082019050919050565b5f6020820190508181035f830152612adb81612aa2565b9050919050565b7f4c612073756261737461207961206861207369646f2066696e616c697a6164615f8201527f2e00000000000000000000000000000000000000000000000000000000000000602082015250565b5f612b3c6021836121f3565b9150612b4782612ae2565b604082019050919050565b5f6020820190508181035f830152612b6981612b30565b905091905056fea2646970667358221220e3e6f3cf8cea47d359d537b8f7275250833b8c8743f890b79d6d300cb87e3cb364736f6c634300081a0033",
					"opcodes": "PUSH1 0x80 PUSH1 0x40 MSTORE CALLVALUE DUP1 ISZERO PUSH2 0xF JUMPI PUSH0 DUP1 REVERT JUMPDEST POP PUSH1 0x40 MLOAD PUSH2 0x2E45 CODESIZE SUB DUP1 PUSH2 0x2E45 DUP4 CODECOPY DUP2 DUP2 ADD PUSH1 0x40 MSTORE DUP2 ADD SWAP1 PUSH2 0x31 SWAP2 SWAP1 PUSH2 0x13C JUMP JUMPDEST PUSH2 0x4B0 DUP2 LT ISZERO DUP1 ISZERO PUSH2 0x46 JUMPI POP PUSH3 0x93A80 DUP2 GT ISZERO JUMPDEST PUSH2 0x85 JUMPI PUSH1 0x40 MLOAD PUSH32 0x8C379A000000000000000000000000000000000000000000000000000000000 DUP2 MSTORE PUSH1 0x4 ADD PUSH2 0x7C SWAP1 PUSH2 0x1E7 JUMP JUMPDEST PUSH1 0x40 MLOAD DUP1 SWAP2 SUB SWAP1 REVERT JUMPDEST DUP1 TIMESTAMP PUSH2 0x91 SWAP2 SWAP1 PUSH2 0x232 JUMP JUMPDEST PUSH1 0x1 DUP2 SWAP1 SSTORE POP PUSH0 DUP1 PUSH0 PUSH2 0x100 EXP DUP2 SLOAD DUP2 PUSH1 0xFF MUL NOT AND SWAP1 DUP4 PUSH1 0x3 DUP2 GT ISZERO PUSH2 0xBA JUMPI PUSH2 0xB9 PUSH2 0x265 JUMP JUMPDEST JUMPDEST MUL OR SWAP1 SSTORE POP CALLER PUSH1 0x5 PUSH0 PUSH2 0x100 EXP DUP2 SLOAD DUP2 PUSH20 0xFFFFFFFFFFFFFFFFFFFFFFFFFFFFFFFFFFFFFFFF MUL NOT AND SWAP1 DUP4 PUSH20 0xFFFFFFFFFFFFFFFFFFFFFFFFFFFFFFFFFFFFFFFF AND MUL OR SWAP1 SSTORE POP POP PUSH2 0x292 JUMP JUMPDEST PUSH0 DUP1 REVERT JUMPDEST PUSH0 DUP2 SWAP1 POP SWAP2 SWAP1 POP JUMP JUMPDEST PUSH2 0x11B DUP2 PUSH2 0x109 JUMP JUMPDEST DUP2 EQ PUSH2 0x125 JUMPI PUSH0 DUP1 REVERT JUMPDEST POP JUMP JUMPDEST PUSH0 DUP2 MLOAD SWAP1 POP PUSH2 0x136 DUP2 PUSH2 0x112 JUMP JUMPDEST SWAP3 SWAP2 POP POP JUMP JUMPDEST PUSH0 PUSH1 0x20 DUP3 DUP5 SUB SLT ISZERO PUSH2 0x151 JUMPI PUSH2 0x150 PUSH2 0x105 JUMP JUMPDEST JUMPDEST PUSH0 PUSH2 0x15E DUP5 DUP3 DUP6 ADD PUSH2 0x128 JUMP JUMPDEST SWAP2 POP POP SWAP3 SWAP2 POP POP JUMP JUMPDEST PUSH0 DUP3 DUP3 MSTORE PUSH1 0x20 DUP3 ADD SWAP1 POP SWAP3 SWAP2 POP POP JUMP JUMPDEST PUSH32 0x4C61206475726163696F6E20646562652073657220656E747265203230206D69 PUSH0 DUP3 ADD MSTORE PUSH32 0x6E75746F732079203720646961732E0000000000000000000000000000000000 PUSH1 0x20 DUP3 ADD MSTORE POP JUMP JUMPDEST PUSH0 PUSH2 0x1D1 PUSH1 0x2F DUP4 PUSH2 0x167 JUMP JUMPDEST SWAP2 POP PUSH2 0x1DC DUP3 PUSH2 0x177 JUMP JUMPDEST PUSH1 0x40 DUP3 ADD SWAP1 POP SWAP2 SWAP1 POP JUMP JUMPDEST PUSH0 PUSH1 0x20 DUP3 ADD SWAP1 POP DUP2 DUP2 SUB PUSH0 DUP4 ADD MSTORE PUSH2 0x1FE DUP2 PUSH2 0x1C5 JUMP JUMPDEST SWAP1 POP SWAP2 SWAP1 POP JUMP JUMPDEST PUSH32 0x4E487B7100000000000000000000000000000000000000000000000000000000 PUSH0 MSTORE PUSH1 0x11 PUSH1 0x4 MSTORE PUSH1 0x24 PUSH0 REVERT JUMPDEST PUSH0 PUSH2 0x23C DUP3 PUSH2 0x109 JUMP JUMPDEST SWAP2 POP PUSH2 0x247 DUP4 PUSH2 0x109 JUMP JUMPDEST SWAP3 POP DUP3 DUP3 ADD SWAP1 POP DUP1 DUP3 GT ISZERO PUSH2 0x25F JUMPI PUSH2 0x25E PUSH2 0x205 JUMP JUMPDEST JUMPDEST SWAP3 SWAP2 POP POP JUMP JUMPDEST PUSH32 0x4E487B7100000000000000000000000000000000000000000000000000000000 PUSH0 MSTORE PUSH1 0x21 PUSH1 0x4 MSTORE PUSH1 0x24 PUSH0 REVERT JUMPDEST PUSH2 0x2BA6 DUP1 PUSH2 0x29F PUSH0 CODECOPY PUSH0 RETURN INVALID PUSH1 0x80 PUSH1 0x40 MSTORE PUSH1 0x4 CALLDATASIZE LT PUSH2 0x113 JUMPI PUSH0 CALLDATALOAD PUSH1 0xE0 SHR DUP1 PUSH4 0x8DA5CB5B GT PUSH2 0x9F JUMPI DUP1 PUSH4 0xD57BDE79 GT PUSH2 0x63 JUMPI DUP1 PUSH4 0xD57BDE79 EQ PUSH2 0x383 JUMPI DUP1 PUSH4 0xE34D1E69 EQ PUSH2 0x3AD JUMPI DUP1 PUSH4 0xEBA7BB9D EQ PUSH2 0x3C3 JUMPI DUP1 PUSH4 0xECFC7ECC EQ PUSH2 0x3ED JUMPI DUP1 PUSH4 0xFE67A54B EQ PUSH2 0x3F7 JUMPI PUSH2 0x113 JUMP JUMPDEST DUP1 PUSH4 0x8DA5CB5B EQ PUSH2 0x28C JUMPI DUP1 PUSH4 0x91F90157 EQ PUSH2 0x2B6 JUMPI DUP1 PUSH4 0x92BFF767 EQ PUSH2 0x2E0 JUMPI DUP1 PUSH4 0xBE35460B EQ PUSH2 0x30B JUMPI DUP1 PUSH4 0xCFF29DFD EQ PUSH2 0x347 JUMPI PUSH2 0x113 JUMP JUMPDEST DUP1 PUSH4 0x4B449CBA GT PUSH2 0xE6 JUMPI DUP1 PUSH4 0x4B449CBA EQ PUSH2 0x1A9 JUMPI DUP1 PUSH4 0x62C71635 EQ PUSH2 0x1D3 JUMPI DUP1 PUSH4 0x7CF2ED22 EQ PUSH2 0x20F JUMPI DUP1 PUSH4 0x7D615E65 EQ PUSH2 0x225 JUMPI DUP1 PUSH4 0x7FB45099 EQ PUSH2 0x262 JUMPI PUSH2 0x113 JUMP JUMPDEST DUP1 PUSH4 0x1CE2BCF5 EQ PUSH2 0x117 JUMPI DUP1 PUSH4 0x25ABD4C7 EQ PUSH2 0x12D JUMPI DUP1 PUSH4 0x2F49E964 EQ PUSH2 0x169 JUMPI DUP1 PUSH4 0x47343711 EQ PUSH2 0x17F JUMPI JUMPDEST PUSH0 DUP1 REVERT JUMPDEST CALLVALUE DUP1 ISZERO PUSH2 0x122 JUMPI PUSH0 DUP1 REVERT JUMPDEST POP PUSH2 0x12B PUSH2 0x40D JUMP JUMPDEST STOP JUMPDEST CALLVALUE DUP1 ISZERO PUSH2 0x138 JUMPI PUSH0 DUP1 REVERT JUMPDEST POP PUSH2 0x153 PUSH1 0x4 DUP1 CALLDATASIZE SUB DUP2 ADD SWAP1 PUSH2 0x14E SWAP2 SWAP1 PUSH2 0x1DC4 JUMP JUMPDEST PUSH2 0x859 JUMP JUMPDEST PUSH1 0x40 MLOAD PUSH2 0x160 SWAP2 SWAP1 PUSH2 0x1E11 JUMP JUMPDEST PUSH1 0x40 MLOAD DUP1 SWAP2 SUB SWAP1 RETURN JUMPDEST CALLVALUE DUP1 ISZERO PUSH2 0x174 JUMPI PUSH0 DUP1 REVERT JUMPDEST POP PUSH2 0x17D PUSH2 0x884 JUMP JUMPDEST STOP JUMPDEST CALLVALUE DUP1 ISZERO PUSH2 0x18A JUMPI PUSH0 DUP1 REVERT JUMPDEST POP PUSH2 0x193 PUSH2 0xC38 JUMP JUMPDEST PUSH1 0x40 MLOAD PUSH2 0x1A0 SWAP2 SWAP1 PUSH2 0x1F1D JUMP JUMPDEST PUSH1 0x40 MLOAD DUP1 SWAP2 SUB SWAP1 RETURN JUMPDEST CALLVALUE DUP1 ISZERO PUSH2 0x1B4 JUMPI PUSH0 DUP1 REVERT JUMPDEST POP PUSH2 0x1BD PUSH2 0xCF2 JUMP JUMPDEST PUSH1 0x40 MLOAD PUSH2 0x1CA SWAP2 SWAP1 PUSH2 0x1E11 JUMP JUMPDEST PUSH1 0x40 MLOAD DUP1 SWAP2 SUB SWAP1 RETURN JUMPDEST CALLVALUE DUP1 ISZERO PUSH2 0x1DE JUMPI PUSH0 DUP1 REVERT JUMPDEST POP PUSH2 0x1F9 PUSH1 0x4 DUP1 CALLDATASIZE SUB DUP2 ADD SWAP1 PUSH2 0x1F4 SWAP2 SWAP1 PUSH2 0x1F3D JUMP JUMPDEST PUSH2 0xCF8 JUMP JUMPDEST PUSH1 0x40 MLOAD PUSH2 0x206 SWAP2 SWAP1 PUSH2 0x1E11 JUMP JUMPDEST PUSH1 0x40 MLOAD DUP1 SWAP2 SUB SWAP1 RETURN JUMPDEST CALLVALUE DUP1 ISZERO PUSH2 0x21A JUMPI PUSH0 DUP1 REVERT JUMPDEST POP PUSH2 0x223 PUSH2 0xD0D JUMP JUMPDEST STOP JUMPDEST CALLVALUE DUP1 ISZERO PUSH2 0x230 JUMPI PUSH0 DUP1 REVERT JUMPDEST POP PUSH2 0x24B PUSH1 0x4 DUP1 CALLDATASIZE SUB DUP2 ADD SWAP1 PUSH2 0x246 SWAP2 SWAP1 PUSH2 0x1F68 JUMP JUMPDEST PUSH2 0x1127 JUMP JUMPDEST PUSH1 0x40 MLOAD PUSH2 0x259 SWAP3 SWAP2 SWAP1 PUSH2 0x1FA2 JUMP JUMPDEST PUSH1 0x40 MLOAD DUP1 SWAP2 SUB SWAP1 RETURN JUMPDEST CALLVALUE DUP1 ISZERO PUSH2 0x26D JUMPI PUSH0 DUP1 REVERT JUMPDEST POP PUSH2 0x276 PUSH2 0x1175 JUMP JUMPDEST PUSH1 0x40 MLOAD PUSH2 0x283 SWAP2 SWAP1 PUSH2 0x203C JUMP JUMPDEST PUSH1 0x40 MLOAD DUP1 SWAP2 SUB SWAP1 RETURN JUMPDEST CALLVALUE DUP1 ISZERO PUSH2 0x297 JUMPI PUSH0 DUP1 REVERT JUMPDEST POP PUSH2 0x2A0 PUSH2 0x1185 JUMP JUMPDEST PUSH1 0x40 MLOAD PUSH2 0x2AD SWAP2 SWAP1 PUSH2 0x2055 JUMP JUMPDEST PUSH1 0x40 MLOAD DUP1 SWAP2 SUB SWAP1 RETURN JUMPDEST CALLVALUE DUP1 ISZERO PUSH2 0x2C1 JUMPI PUSH0 DUP1 REVERT JUMPDEST POP PUSH2 0x2CA PUSH2 0x11AA JUMP JUMPDEST PUSH1 0x40 MLOAD PUSH2 0x2D7 SWAP2 SWAP1 PUSH2 0x2055 JUMP JUMPDEST PUSH1 0x40 MLOAD DUP1 SWAP2 SUB SWAP1 RETURN JUMPDEST CALLVALUE DUP1 ISZERO PUSH2 0x2EB JUMPI PUSH0 DUP1 REVERT JUMPDEST POP PUSH2 0x2F4 PUSH2 0x11CF JUMP JUMPDEST PUSH1 0x40 MLOAD PUSH2 0x302 SWAP3 SWAP2 SWAP1 PUSH2 0x21BE JUMP JUMPDEST PUSH1 0x40 MLOAD DUP1 SWAP2 SUB SWAP1 RETURN JUMPDEST CALLVALUE DUP1 ISZERO PUSH2 0x316 JUMPI PUSH0 DUP1 REVERT JUMPDEST POP PUSH2 0x331 PUSH1 0x4 DUP1 CALLDATASIZE SUB DUP2 ADD SWAP1 PUSH2 0x32C SWAP2 SWAP1 PUSH2 0x1F3D JUMP JUMPDEST PUSH2 0x1383 JUMP JUMPDEST PUSH1 0x40 MLOAD PUSH2 0x33E SWAP2 SWAP1 PUSH2 0x1E11 JUMP JUMPDEST PUSH1 0x40 MLOAD DUP1 SWAP2 SUB SWAP1 RETURN JUMPDEST CALLVALUE DUP1 ISZERO PUSH2 0x352 JUMPI PUSH0 DUP1 REVERT JUMPDEST POP PUSH2 0x36D PUSH1 0x4 DUP1 CALLDATASIZE SUB DUP2 ADD SWAP1 PUSH2 0x368 SWAP2 SWAP1 PUSH2 0x1F68 JUMP JUMPDEST PUSH2 0x1398 JUMP JUMPDEST PUSH1 0x40 MLOAD PUSH2 0x37A SWAP2 SWAP1 PUSH2 0x2055 JUMP JUMPDEST PUSH1 0x40 MLOAD DUP1 SWAP2 SUB SWAP1 RETURN JUMPDEST CALLVALUE DUP1 ISZERO PUSH2 0x38E JUMPI PUSH0 DUP1 REVERT JUMPDEST POP PUSH2 0x397 PUSH2 0x13D3 JUMP JUMPDEST PUSH1 0x40 MLOAD PUSH2 0x3A4 SWAP2 SWAP1 PUSH2 0x1E11 JUMP JUMPDEST PUSH1 0x40 MLOAD DUP1 SWAP2 SUB SWAP1 RETURN JUMPDEST CALLVALUE DUP1 ISZERO PUSH2 0x3B8 JUMPI PUSH0 DUP1 REVERT JUMPDEST POP PUSH2 0x3C1 PUSH2 0x13D9 JUMP JUMPDEST STOP JUMPDEST CALLVALUE DUP1 ISZERO PUSH2 0x3CE JUMPI PUSH0 DUP1 REVERT JUMPDEST POP PUSH2 0x3D7 PUSH2 0x16D1 JUMP JUMPDEST PUSH1 0x40 MLOAD PUSH2 0x3E4 SWAP2 SWAP1 PUSH2 0x1E11 JUMP JUMPDEST PUSH1 0x40 MLOAD DUP1 SWAP2 SUB SWAP1 RETURN JUMPDEST PUSH2 0x3F5 PUSH2 0x16D7 JUMP JUMPDEST STOP JUMPDEST CALLVALUE DUP1 ISZERO PUSH2 0x402 JUMPI PUSH0 DUP1 REVERT JUMPDEST POP PUSH2 0x40B PUSH2 0x1B0C JUMP JUMPDEST STOP JUMPDEST PUSH0 PUSH1 0x3 DUP2 GT ISZERO PUSH2 0x420 JUMPI PUSH2 0x41F PUSH2 0x1FC9 JUMP JUMPDEST JUMPDEST PUSH0 DUP1 SLOAD SWAP1 PUSH2 0x100 EXP SWAP1 DIV PUSH1 0xFF AND PUSH1 0x3 DUP2 GT ISZERO PUSH2 0x43F JUMPI PUSH2 0x43E PUSH2 0x1FC9 JUMP JUMPDEST JUMPDEST EQ PUSH2 0x47F JUMPI PUSH1 0x40 MLOAD PUSH32 0x8C379A000000000000000000000000000000000000000000000000000000000 DUP2 MSTORE PUSH1 0x4 ADD PUSH2 0x476 SWAP1 PUSH2 0x224D JUMP JUMPDEST PUSH1 0x40 MLOAD DUP1 SWAP2 SUB SWAP1 REVERT JUMPDEST PUSH1 0x3 DUP1 DUP2 GT ISZERO PUSH2 0x492 JUMPI PUSH2 0x491 PUSH2 0x1FC9 JUMP JUMPDEST JUMPDEST PUSH0 DUP1 SLOAD SWAP1 PUSH2 0x100 EXP SWAP1 DIV PUSH1 0xFF AND PUSH1 0x3 DUP2 GT ISZERO PUSH2 0x4B1 JUMPI PUSH2 0x4B0 PUSH2 0x1FC9 JUMP JUMPDEST JUMPDEST SUB PUSH2 0x4F1 JUMPI PUSH1 0x40 MLOAD PUSH32 0x8C379A000000000000000000000000000000000000000000000000000000000 DUP2 MSTORE PUSH1 0x4 ADD PUSH2 0x4E8 SWAP1 PUSH2 0x22DB JUMP JUMPDEST PUSH1 0x40 MLOAD DUP1 SWAP2 SUB SWAP1 REVERT JUMPDEST PUSH0 DUP1 PUSH1 0x6 PUSH0 CALLER PUSH20 0xFFFFFFFFFFFFFFFFFFFFFFFFFFFFFFFFFFFFFFFF AND PUSH20 0xFFFFFFFFFFFFFFFFFFFFFFFFFFFFFFFFFFFFFFFF AND DUP2 MSTORE PUSH1 0x20 ADD SWAP1 DUP2 MSTORE PUSH1 0x20 ADD PUSH0 KECCAK256 SWAP1 POP PUSH1 0x1 DUP2 DUP1 SLOAD SWAP1 POP GT PUSH2 0x579 JUMPI PUSH1 0x40 MLOAD PUSH32 0x8C379A000000000000000000000000000000000000000000000000000000000 DUP2 MSTORE PUSH1 0x4 ADD PUSH2 0x570 SWAP1 PUSH2 0x2369 JUMP JUMPDEST PUSH1 0x40 MLOAD DUP1 SWAP2 SUB SWAP1 REVERT JUMPDEST PUSH0 JUMPDEST PUSH1 0x1 DUP3 DUP1 SLOAD SWAP1 POP PUSH2 0x58C SWAP2 SWAP1 PUSH2 0x23B4 JUMP JUMPDEST DUP2 LT ISZERO PUSH2 0x5C9 JUMPI DUP2 DUP2 DUP2 SLOAD DUP2 LT PUSH2 0x5A6 JUMPI PUSH2 0x5A5 PUSH2 0x23E7 JUMP JUMPDEST JUMPDEST SWAP1 PUSH0 MSTORE PUSH1 0x20 PUSH0 KECCAK256 ADD SLOAD DUP4 PUSH2 0x5BA SWAP2 SWAP1 PUSH2 0x2414 JUMP JUMPDEST SWAP3 POP DUP1 DUP1 PUSH1 0x1 ADD SWAP2 POP POP PUSH2 0x57B JUMP JUMPDEST POP PUSH0 PUSH1 0x8 PUSH0 CALLER PUSH20 0xFFFFFFFFFFFFFFFFFFFFFFFFFFFFFFFFFFFFFFFF AND PUSH20 0xFFFFFFFFFFFFFFFFFFFFFFFFFFFFFFFFFFFFFFFF AND DUP2 MSTORE PUSH1 0x20 ADD SWAP1 DUP2 MSTORE PUSH1 0x20 ADD PUSH0 KECCAK256 SLOAD DUP4 PUSH2 0x614 SWAP2 SWAP1 PUSH2 0x23B4 JUMP JUMPDEST SWAP1 POP PUSH0 DUP2 GT PUSH2 0x658 JUMPI PUSH1 0x40 MLOAD PUSH32 0x8C379A000000000000000000000000000000000000000000000000000000000 DUP2 MSTORE PUSH1 0x4 ADD PUSH2 0x64F SWAP1 PUSH2 0x24B7 JUMP JUMPDEST PUSH1 0x40 MLOAD DUP1 SWAP2 SUB SWAP1 REVERT JUMPDEST DUP1 PUSH1 0x8 PUSH0 CALLER PUSH20 0xFFFFFFFFFFFFFFFFFFFFFFFFFFFFFFFFFFFFFFFF AND PUSH20 0xFFFFFFFFFFFFFFFFFFFFFFFFFFFFFFFFFFFFFFFF AND DUP2 MSTORE PUSH1 0x20 ADD SWAP1 DUP2 MSTORE PUSH1 0x20 ADD PUSH0 KECCAK256 PUSH0 DUP3 DUP3 SLOAD PUSH2 0x6A4 SWAP2 SWAP1 PUSH2 0x2414 JUMP JUMPDEST SWAP3 POP POP DUP2 SWAP1 SSTORE POP PUSH0 PUSH1 0x64 PUSH1 0x2 DUP4 PUSH2 0x6BB SWAP2 SWAP1 PUSH2 0x24D5 JUMP JUMPDEST PUSH2 0x6C5 SWAP2 SWAP1 PUSH2 0x2543 JUMP JUMPDEST SWAP1 POP PUSH0 DUP2 DUP4 PUSH2 0x6D4 SWAP2 SWAP1 PUSH2 0x23B4 JUMP JUMPDEST SWAP1 POP DUP4 PUSH1 0x1 DUP6 DUP1 SLOAD SWAP1 POP PUSH2 0x6E8 SWAP2 SWAP1 PUSH2 0x23B4 JUMP JUMPDEST DUP2 SLOAD DUP2 LT PUSH2 0x6F9 JUMPI PUSH2 0x6F8 PUSH2 0x23E7 JUMP JUMPDEST JUMPDEST SWAP1 PUSH0 MSTORE PUSH1 0x20 PUSH0 KECCAK256 ADD SLOAD PUSH1 0x7 PUSH0 CALLER PUSH20 0xFFFFFFFFFFFFFFFFFFFFFFFFFFFFFFFFFFFFFFFF AND PUSH20 0xFFFFFFFFFFFFFFFFFFFFFFFFFFFFFFFFFFFFFFFF AND DUP2 MSTORE PUSH1 0x20 ADD SWAP1 DUP2 MSTORE PUSH1 0x20 ADD PUSH0 KECCAK256 DUP2 SWAP1 SSTORE POP DUP2 PUSH1 0x2 PUSH0 DUP3 DUP3 SLOAD PUSH2 0x754 SWAP2 SWAP1 PUSH2 0x2414 JUMP JUMPDEST SWAP3 POP POP DUP2 SWAP1 SSTORE POP PUSH0 CALLER PUSH20 0xFFFFFFFFFFFFFFFFFFFFFFFFFFFFFFFFFFFFFFFF AND DUP3 PUSH1 0x40 MLOAD PUSH2 0x780 SWAP1 PUSH2 0x25A0 JUMP JUMPDEST PUSH0 PUSH1 0x40 MLOAD DUP1 DUP4 SUB DUP2 DUP6 DUP8 GAS CALL SWAP3 POP POP POP RETURNDATASIZE DUP1 PUSH0 DUP2 EQ PUSH2 0x7BA JUMPI PUSH1 0x40 MLOAD SWAP2 POP PUSH1 0x1F NOT PUSH1 0x3F RETURNDATASIZE ADD AND DUP3 ADD PUSH1 0x40 MSTORE RETURNDATASIZE DUP3 MSTORE RETURNDATASIZE PUSH0 PUSH1 0x20 DUP5 ADD RETURNDATACOPY PUSH2 0x7BF JUMP JUMPDEST PUSH1 0x60 SWAP2 POP JUMPDEST POP POP SWAP1 POP DUP1 PUSH2 0x803 JUMPI PUSH1 0x40 MLOAD PUSH32 0x8C379A000000000000000000000000000000000000000000000000000000000 DUP2 MSTORE PUSH1 0x4 ADD PUSH2 0x7FA SWAP1 PUSH2 0x2624 JUMP JUMPDEST PUSH1 0x40 MLOAD DUP1 SWAP2 SUB SWAP1 REVERT JUMPDEST CALLER PUSH20 0xFFFFFFFFFFFFFFFFFFFFFFFFFFFFFFFFFFFFFFFF AND PUSH32 0xDCE68997783AE47468B6FB0DD39CCA315F9082D51D9AB3DF8747C70512AA8FF2 DUP4 PUSH1 0x40 MLOAD PUSH2 0x849 SWAP2 SWAP1 PUSH2 0x1E11 JUMP JUMPDEST PUSH1 0x40 MLOAD DUP1 SWAP2 SUB SWAP1 LOG2 POP POP POP POP POP POP JUMP JUMPDEST PUSH1 0x6 PUSH1 0x20 MSTORE DUP2 PUSH0 MSTORE PUSH1 0x40 PUSH0 KECCAK256 DUP2 DUP2 SLOAD DUP2 LT PUSH2 0x872 JUMPI PUSH0 DUP1 REVERT JUMPDEST SWAP1 PUSH0 MSTORE PUSH1 0x20 PUSH0 KECCAK256 ADD PUSH0 SWAP2 POP SWAP2 POP POP SLOAD DUP2 JUMP JUMPDEST PUSH1 0x5 PUSH0 SWAP1 SLOAD SWAP1 PUSH2 0x100 EXP SWAP1 DIV PUSH20 0xFFFFFFFFFFFFFFFFFFFFFFFFFFFFFFFFFFFFFFFF AND PUSH20 0xFFFFFFFFFFFFFFFFFFFFFFFFFFFFFFFFFFFFFFFF AND CALLER PUSH20 0xFFFFFFFFFFFFFFFFFFFFFFFFFFFFFFFFFFFFFFFF AND EQ PUSH2 0x913 JUMPI PUSH1 0x40 MLOAD PUSH32 0x8C379A000000000000000000000000000000000000000000000000000000000 DUP2 MSTORE PUSH1 0x4 ADD PUSH2 0x90A SWAP1 PUSH2 0x26B2 JUMP JUMPDEST PUSH1 0x40 MLOAD DUP1 SWAP2 SUB SWAP1 REVERT JUMPDEST PUSH1 0x2 PUSH1 0x3 DUP2 GT ISZERO PUSH2 0x927 JUMPI PUSH2 0x926 PUSH2 0x1FC9 JUMP JUMPDEST JUMPDEST PUSH0 DUP1 SLOAD SWAP1 PUSH2 0x100 EXP SWAP1 DIV PUSH1 0xFF AND PUSH1 0x3 DUP2 GT ISZERO PUSH2 0x946 JUMPI PUSH2 0x945 PUSH2 0x1FC9 JUMP JUMPDEST JUMPDEST EQ PUSH2 0x986 JUMPI PUSH1 0x40 MLOAD PUSH32 0x8C379A000000000000000000000000000000000000000000000000000000000 DUP2 MSTORE PUSH1 0x4 ADD PUSH2 0x97D SWAP1 PUSH2 0x2740 JUMP JUMPDEST PUSH1 0x40 MLOAD DUP1 SWAP2 SUB SWAP1 REVERT JUMPDEST PUSH1 0x3 DUP1 DUP2 GT ISZERO PUSH2 0x999 JUMPI PUSH2 0x998 PUSH2 0x1FC9 JUMP JUMPDEST JUMPDEST PUSH0 DUP1 SLOAD SWAP1 PUSH2 0x100 EXP SWAP1 DIV PUSH1 0xFF AND PUSH1 0x3 DUP2 GT ISZERO PUSH2 0x9B8 JUMPI PUSH2 0x9B7 PUSH2 0x1FC9 JUMP JUMPDEST JUMPDEST SUB PUSH2 0x9F8 JUMPI PUSH1 0x40 MLOAD PUSH32 0x8C379A000000000000000000000000000000000000000000000000000000000 DUP2 MSTORE PUSH1 0x4 ADD PUSH2 0x9EF SWAP1 PUSH2 0x22DB JUMP JUMPDEST PUSH1 0x40 MLOAD DUP1 SWAP2 SUB SWAP1 REVERT JUMPDEST PUSH1 0x2 PUSH1 0x3 DUP2 GT ISZERO PUSH2 0xA0C JUMPI PUSH2 0xA0B PUSH2 0x1FC9 JUMP JUMPDEST JUMPDEST PUSH0 DUP1 SLOAD SWAP1 PUSH2 0x100 EXP SWAP1 DIV PUSH1 0xFF AND PUSH1 0x3 DUP2 GT ISZERO PUSH2 0xA2B JUMPI PUSH2 0xA2A PUSH2 0x1FC9 JUMP JUMPDEST JUMPDEST EQ PUSH2 0xA6B JUMPI PUSH1 0x40 MLOAD PUSH32 0x8C379A000000000000000000000000000000000000000000000000000000000 DUP2 MSTORE PUSH1 0x4 ADD PUSH2 0xA62 SWAP1 PUSH2 0x2740 JUMP JUMPDEST PUSH1 0x40 MLOAD DUP1 SWAP2 SUB SWAP1 REVERT JUMPDEST PUSH0 PUSH1 0x3 SLOAD SWAP1 POP PUSH1 0x3 PUSH0 DUP1 PUSH2 0x100 EXP DUP2 SLOAD DUP2 PUSH1 0xFF MUL NOT AND SWAP1 DUP4 PUSH1 0x3 DUP2 GT ISZERO PUSH2 0xA95 JUMPI PUSH2 0xA94 PUSH2 0x1FC9 JUMP JUMPDEST JUMPDEST MUL OR SWAP1 SSTORE POP PUSH0 PUSH1 0x7 PUSH0 PUSH1 0x4 PUSH0 SWAP1 SLOAD SWAP1 PUSH2 0x100 EXP SWAP1 DIV PUSH20 0xFFFFFFFFFFFFFFFFFFFFFFFFFFFFFFFFFFFFFFFF AND PUSH20 0xFFFFFFFFFFFFFFFFFFFFFFFFFFFFFFFFFFFFFFFF AND PUSH20 0xFFFFFFFFFFFFFFFFFFFFFFFFFFFFFFFFFFFFFFFF AND DUP2 MSTORE PUSH1 0x20 ADD SWAP1 DUP2 MSTORE PUSH1 0x20 ADD PUSH0 KECCAK256 DUP2 SWAP1 SSTORE POP PUSH0 PUSH1 0x5 PUSH0 SWAP1 SLOAD SWAP1 PUSH2 0x100 EXP SWAP1 DIV PUSH20 0xFFFFFFFFFFFFFFFFFFFFFFFFFFFFFFFFFFFFFFFF AND PUSH20 0xFFFFFFFFFFFFFFFFFFFFFFFFFFFFFFFFFFFFFFFF AND DUP3 PUSH1 0x40 MLOAD PUSH2 0xB43 SWAP1 PUSH2 0x25A0 JUMP JUMPDEST PUSH0 PUSH1 0x40 MLOAD DUP1 DUP4 SUB DUP2 DUP6 DUP8 GAS CALL SWAP3 POP POP POP RETURNDATASIZE DUP1 PUSH0 DUP2 EQ PUSH2 0xB7D JUMPI PUSH1 0x40 MLOAD SWAP2 POP PUSH1 0x1F NOT PUSH1 0x3F RETURNDATASIZE ADD AND DUP3 ADD PUSH1 0x40 MSTORE RETURNDATASIZE DUP3 MSTORE RETURNDATASIZE PUSH0 PUSH1 0x20 DUP5 ADD RETURNDATACOPY PUSH2 0xB82 JUMP JUMPDEST PUSH1 0x60 SWAP2 POP JUMPDEST POP POP SWAP1 POP DUP1 PUSH2 0xBC6 JUMPI PUSH1 0x40 MLOAD PUSH32 0x8C379A000000000000000000000000000000000000000000000000000000000 DUP2 MSTORE PUSH1 0x4 ADD PUSH2 0xBBD SWAP1 PUSH2 0x27CE JUMP JUMPDEST PUSH1 0x40 MLOAD DUP1 SWAP2 SUB SWAP1 REVERT JUMPDEST PUSH32 0xDB23C6F1ECD7F6B51F64DE3F6317061F4BB0CB9A23217A658FAC91C6AF46AAAA DUP3 PUSH1 0x40 MLOAD PUSH2 0xBF5 SWAP2 SWAP1 PUSH2 0x1E11 JUMP JUMPDEST PUSH1 0x40 MLOAD DUP1 SWAP2 SUB SWAP1 LOG1 PUSH32 0xD32867DF73BC4C73068741F056B4515DDCE6636A748AB9317E2C69E0FBCB356A DUP2 PUSH1 0x40 MLOAD PUSH2 0xC2C SWAP2 SWAP1 PUSH2 0x2806 JUMP JUMPDEST PUSH1 0x40 MLOAD DUP1 SWAP2 SUB SWAP1 LOG1 POP POP JUMP JUMPDEST PUSH1 0x60 PUSH1 0xA DUP1 SLOAD DUP1 PUSH1 0x20 MUL PUSH1 0x20 ADD PUSH1 0x40 MLOAD SWAP1 DUP2 ADD PUSH1 0x40 MSTORE DUP1 SWAP3 SWAP2 SWAP1 DUP2 DUP2 MSTORE PUSH1 0x20 ADD PUSH0 SWAP1 JUMPDEST DUP3 DUP3 LT ISZERO PUSH2 0xCE9 JUMPI DUP4 DUP3 SWAP1 PUSH0 MSTORE PUSH1 0x20 PUSH0 KECCAK256 SWAP1 PUSH1 0x2 MUL ADD PUSH1 0x40 MLOAD DUP1 PUSH1 0x40 ADD PUSH1 0x40 MSTORE SWAP1 DUP2 PUSH0 DUP3 ADD PUSH0 SWAP1 SLOAD SWAP1 PUSH2 0x100 EXP SWAP1 DIV PUSH20 0xFFFFFFFFFFFFFFFFFFFFFFFFFFFFFFFFFFFFFFFF AND PUSH20 0xFFFFFFFFFFFFFFFFFFFFFFFFFFFFFFFFFFFFFFFF AND PUSH20 0xFFFFFFFFFFFFFFFFFFFFFFFFFFFFFFFFFFFFFFFF AND DUP2 MSTORE PUSH1 0x20 ADD PUSH1 0x1 DUP3 ADD SLOAD DUP2 MSTORE POP POP DUP2 MSTORE PUSH1 0x20 ADD SWAP1 PUSH1 0x1 ADD SWAP1 PUSH2 0xC5B JUMP JUMPDEST POP POP POP POP SWAP1 POP SWAP1 JUMP JUMPDEST PUSH1 0x1 SLOAD DUP2 JUMP JUMPDEST PUSH1 0x7 PUSH1 0x20 MSTORE DUP1 PUSH0 MSTORE PUSH1 0x40 PUSH0 KECCAK256 PUSH0 SWAP2 POP SWAP1 POP SLOAD DUP2 JUMP JUMPDEST PUSH1 0x5 PUSH0 SWAP1 SLOAD SWAP1 PUSH2 0x100 EXP SWAP1 DIV PUSH20 0xFFFFFFFFFFFFFFFFFFFFFFFFFFFFFFFFFFFFFFFF AND PUSH20 0xFFFFFFFFFFFFFFFFFFFFFFFFFFFFFFFFFFFFFFFF AND CALLER PUSH20 0xFFFFFFFFFFFFFFFFFFFFFFFFFFFFFFFFFFFFFFFF AND EQ PUSH2 0xD9C JUMPI PUSH1 0x40 MLOAD PUSH32 0x8C379A000000000000000000000000000000000000000000000000000000000 DUP2 MSTORE PUSH1 0x4 ADD PUSH2 0xD93 SWAP1 PUSH2 0x26B2 JUMP JUMPDEST PUSH1 0x40 MLOAD DUP1 SWAP2 SUB SWAP1 REVERT JUMPDEST PUSH1 0x1 SLOAD TIMESTAMP LT ISZERO PUSH2 0xDE1 JUMPI PUSH1 0x40 MLOAD PUSH32 0x8C379A000000000000000000000000000000000000000000000000000000000 DUP2 MSTORE PUSH1 0x4 ADD PUSH2 0xDD8 SWAP1 PUSH2 0x2869 JUMP JUMPDEST PUSH1 0x40 MLOAD DUP1 SWAP2 SUB SWAP1 REVERT JUMPDEST PUSH1 0x3 DUP1 DUP2 GT ISZERO PUSH2 0xDF4 JUMPI PUSH2 0xDF3 PUSH2 0x1FC9 JUMP JUMPDEST JUMPDEST PUSH0 DUP1 SLOAD SWAP1 PUSH2 0x100 EXP SWAP1 DIV PUSH1 0xFF AND PUSH1 0x3 DUP2 GT ISZERO PUSH2 0xE13 JUMPI PUSH2 0xE12 PUSH2 0x1FC9 JUMP JUMPDEST JUMPDEST SUB PUSH2 0xE53 JUMPI PUSH1 0x40 MLOAD PUSH32 0x8C379A000000000000000000000000000000000000000000000000000000000 DUP2 MSTORE PUSH1 0x4 ADD PUSH2 0xE4A SWAP1 PUSH2 0x22DB JUMP JUMPDEST PUSH1 0x40 MLOAD DUP1 SWAP2 SUB SWAP1 REVERT JUMPDEST PUSH1 0x1 PUSH1 0x3 DUP2 GT ISZERO PUSH2 0xE67 JUMPI PUSH2 0xE66 PUSH2 0x1FC9 JUMP JUMPDEST JUMPDEST PUSH0 DUP1 SLOAD SWAP1 PUSH2 0x100 EXP SWAP1 DIV PUSH1 0xFF AND PUSH1 0x3 DUP2 GT ISZERO PUSH2 0xE86 JUMPI PUSH2 0xE85 PUSH2 0x1FC9 JUMP JUMPDEST JUMPDEST EQ PUSH2 0xEC6 JUMPI PUSH1 0x40 MLOAD PUSH32 0x8C379A000000000000000000000000000000000000000000000000000000000 DUP2 MSTORE PUSH1 0x4 ADD PUSH2 0xEBD SWAP1 PUSH2 0x28D1 JUMP JUMPDEST PUSH1 0x40 MLOAD DUP1 SWAP2 SUB SWAP1 REVERT JUMPDEST PUSH0 JUMPDEST PUSH1 0x9 DUP1 SLOAD SWAP1 POP DUP2 LT ISZERO PUSH2 0x10FB JUMPI PUSH0 PUSH1 0x9 DUP3 DUP2 SLOAD DUP2 LT PUSH2 0xEEA JUMPI PUSH2 0xEE9 PUSH2 0x23E7 JUMP JUMPDEST JUMPDEST SWAP1 PUSH0 MSTORE PUSH1 0x20 PUSH0 KECCAK256 ADD PUSH0 SWAP1 SLOAD SWAP1 PUSH2 0x100 EXP SWAP1 DIV PUSH20 0xFFFFFFFFFFFFFFFFFFFFFFFFFFFFFFFFFFFFFFFF AND SWAP1 POP PUSH1 0x4 PUSH0 SWAP1 SLOAD SWAP1 PUSH2 0x100 EXP SWAP1 DIV PUSH20 0xFFFFFFFFFFFFFFFFFFFFFFFFFFFFFFFFFFFFFFFF AND PUSH20 0xFFFFFFFFFFFFFFFFFFFFFFFFFFFFFFFFFFFFFFFF AND DUP2 PUSH20 0xFFFFFFFFFFFFFFFFFFFFFFFFFFFFFFFFFFFFFFFF AND EQ PUSH2 0x10ED JUMPI PUSH0 PUSH1 0x7 PUSH0 DUP4 PUSH20 0xFFFFFFFFFFFFFFFFFFFFFFFFFFFFFFFFFFFFFFFF AND PUSH20 0xFFFFFFFFFFFFFFFFFFFFFFFFFFFFFFFFFFFFFFFF AND DUP2 MSTORE PUSH1 0x20 ADD SWAP1 DUP2 MSTORE PUSH1 0x20 ADD PUSH0 KECCAK256 SLOAD SWAP1 POP PUSH0 PUSH1 0x7 PUSH0 DUP5 PUSH20 0xFFFFFFFFFFFFFFFFFFFFFFFFFFFFFFFFFFFFFFFF AND PUSH20 0xFFFFFFFFFFFFFFFFFFFFFFFFFFFFFFFFFFFFFFFF AND DUP2 MSTORE PUSH1 0x20 ADD SWAP1 DUP2 MSTORE PUSH1 0x20 ADD PUSH0 KECCAK256 DUP2 SWAP1 SSTORE POP PUSH0 DUP2 GT ISZERO PUSH2 0x10EB JUMPI PUSH0 DUP3 PUSH20 0xFFFFFFFFFFFFFFFFFFFFFFFFFFFFFFFFFFFFFFFF AND DUP3 PUSH1 0x40 MLOAD PUSH2 0x1018 SWAP1 PUSH2 0x25A0 JUMP JUMPDEST PUSH0 PUSH1 0x40 MLOAD DUP1 DUP4 SUB DUP2 DUP6 DUP8 GAS CALL SWAP3 POP POP POP RETURNDATASIZE DUP1 PUSH0 DUP2 EQ PUSH2 0x1052 JUMPI PUSH1 0x40 MLOAD SWAP2 POP PUSH1 0x1F NOT PUSH1 0x3F RETURNDATASIZE ADD AND DUP3 ADD PUSH1 0x40 MSTORE RETURNDATASIZE DUP3 MSTORE RETURNDATASIZE PUSH0 PUSH1 0x20 DUP5 ADD RETURNDATACOPY PUSH2 0x1057 JUMP JUMPDEST PUSH1 0x60 SWAP2 POP JUMPDEST POP POP SWAP1 POP DUP1 PUSH2 0x109B JUMPI PUSH1 0x40 MLOAD PUSH32 0x8C379A000000000000000000000000000000000000000000000000000000000 DUP2 MSTORE PUSH1 0x4 ADD PUSH2 0x1092 SWAP1 PUSH2 0x2939 JUMP JUMPDEST PUSH1 0x40 MLOAD DUP1 SWAP2 SUB SWAP1 REVERT JUMPDEST DUP3 PUSH20 0xFFFFFFFFFFFFFFFFFFFFFFFFFFFFFFFFFFFFFFFF AND PUSH32 0x4482101800A5C2E900F4156E57E05E19FFD7B366CDE579553D723FD3ABB2180E DUP4 PUSH1 0x40 MLOAD PUSH2 0x10E1 SWAP2 SWAP1 PUSH2 0x1E11 JUMP JUMPDEST PUSH1 0x40 MLOAD DUP1 SWAP2 SUB SWAP1 LOG2 POP JUMPDEST POP JUMPDEST POP DUP1 DUP1 PUSH1 0x1 ADD SWAP2 POP POP PUSH2 0xEC8 JUMP JUMPDEST POP PUSH1 0x2 PUSH0 DUP1 PUSH2 0x100 EXP DUP2 SLOAD DUP2 PUSH1 0xFF MUL NOT AND SWAP1 DUP4 PUSH1 0x3 DUP2 GT ISZERO PUSH2 0x1120 JUMPI PUSH2 0x111F PUSH2 0x1FC9 JUMP JUMPDEST JUMPDEST MUL OR SWAP1 SSTORE POP JUMP JUMPDEST PUSH1 0xA DUP2 DUP2 SLOAD DUP2 LT PUSH2 0x1136 JUMPI PUSH0 DUP1 REVERT JUMPDEST SWAP1 PUSH0 MSTORE PUSH1 0x20 PUSH0 KECCAK256 SWAP1 PUSH1 0x2 MUL ADD PUSH0 SWAP2 POP SWAP1 POP DUP1 PUSH0 ADD PUSH0 SWAP1 SLOAD SWAP1 PUSH2 0x100 EXP SWAP1 DIV PUSH20 0xFFFFFFFFFFFFFFFFFFFFFFFFFFFFFFFFFFFFFFFF AND SWAP1 DUP1 PUSH1 0x1 ADD SLOAD SWAP1 POP DUP3 JUMP JUMPDEST PUSH0 DUP1 SLOAD SWAP1 PUSH2 0x100 EXP SWAP1 DIV PUSH1 0xFF AND DUP2 JUMP JUMPDEST PUSH1 0x5 PUSH0 SWAP1 SLOAD SWAP1 PUSH2 0x100 EXP SWAP1 DIV PUSH20 0xFFFFFFFFFFFFFFFFFFFFFFFFFFFFFFFFFFFFFFFF AND DUP2 JUMP JUMPDEST PUSH1 0x4 PUSH0 SWAP1 SLOAD SWAP1 PUSH2 0x100 EXP SWAP1 DIV PUSH20 0xFFFFFFFFFFFFFFFFFFFFFFFFFFFFFFFFFFFFFFFF AND DUP2 JUMP JUMPDEST PUSH1 0x60 DUP1 PUSH0 PUSH1 0x9 DUP1 SLOAD SWAP1 POP SWAP1 POP PUSH0 DUP2 PUSH8 0xFFFFFFFFFFFFFFFF DUP2 GT ISZERO PUSH2 0x11F6 JUMPI PUSH2 0x11F5 PUSH2 0x2957 JUMP JUMPDEST JUMPDEST PUSH1 0x40 MLOAD SWAP1 DUP1 DUP3 MSTORE DUP1 PUSH1 0x20 MUL PUSH1 0x20 ADD DUP3 ADD PUSH1 0x40 MSTORE DUP1 ISZERO PUSH2 0x1224 JUMPI DUP2 PUSH1 0x20 ADD PUSH1 0x20 DUP3 MUL DUP1 CALLDATASIZE DUP4 CALLDATACOPY DUP1 DUP3 ADD SWAP2 POP POP SWAP1 POP JUMPDEST POP SWAP1 POP PUSH0 DUP3 PUSH8 0xFFFFFFFFFFFFFFFF DUP2 GT ISZERO PUSH2 0x1242 JUMPI PUSH2 0x1241 PUSH2 0x2957 JUMP JUMPDEST JUMPDEST PUSH1 0x40 MLOAD SWAP1 DUP1 DUP3 MSTORE DUP1 PUSH1 0x20 MUL PUSH1 0x20 ADD DUP3 ADD PUSH1 0x40 MSTORE DUP1 ISZERO PUSH2 0x1270 JUMPI DUP2 PUSH1 0x20 ADD PUSH1 0x20 DUP3 MUL DUP1 CALLDATASIZE DUP4 CALLDATACOPY DUP1 DUP3 ADD SWAP2 POP POP SWAP1 POP JUMPDEST POP SWAP1 POP PUSH0 JUMPDEST DUP4 DUP2 LT ISZERO PUSH2 0x1375 JUMPI PUSH0 PUSH1 0x9 DUP3 DUP2 SLOAD DUP2 LT PUSH2 0x1292 JUMPI PUSH2 0x1291 PUSH2 0x23E7 JUMP JUMPDEST JUMPDEST SWAP1 PUSH0 MSTORE PUSH1 0x20 PUSH0 KECCAK256 ADD PUSH0 SWAP1 SLOAD SWAP1 PUSH2 0x100 EXP SWAP1 DIV PUSH20 0xFFFFFFFFFFFFFFFFFFFFFFFFFFFFFFFFFFFFFFFF AND SWAP1 POP DUP1 DUP5 DUP4 DUP2 MLOAD DUP2 LT PUSH2 0x12D0 JUMPI PUSH2 0x12CF PUSH2 0x23E7 JUMP JUMPDEST JUMPDEST PUSH1 0x20 MUL PUSH1 0x20 ADD ADD SWAP1 PUSH20 0xFFFFFFFFFFFFFFFFFFFFFFFFFFFFFFFFFFFFFFFF AND SWAP1 DUP2 PUSH20 0xFFFFFFFFFFFFFFFFFFFFFFFFFFFFFFFFFFFFFFFF AND DUP2 MSTORE POP POP PUSH1 0x7 PUSH0 DUP3 PUSH20 0xFFFFFFFFFFFFFFFFFFFFFFFFFFFFFFFFFFFFFFFF AND PUSH20 0xFFFFFFFFFFFFFFFFFFFFFFFFFFFFFFFFFFFFFFFF AND DUP2 MSTORE PUSH1 0x20 ADD SWAP1 DUP2 MSTORE PUSH1 0x20 ADD PUSH0 KECCAK256 SLOAD DUP4 DUP4 DUP2 MLOAD DUP2 LT PUSH2 0x135B JUMPI PUSH2 0x135A PUSH2 0x23E7 JUMP JUMPDEST JUMPDEST PUSH1 0x20 MUL PUSH1 0x20 ADD ADD DUP2 DUP2 MSTORE POP POP POP DUP1 DUP1 PUSH1 0x1 ADD SWAP2 POP POP PUSH2 0x1275 JUMP JUMPDEST POP DUP2 DUP2 SWAP5 POP SWAP5 POP POP POP POP SWAP1 SWAP2 JUMP JUMPDEST PUSH1 0x8 PUSH1 0x20 MSTORE DUP1 PUSH0 MSTORE PUSH1 0x40 PUSH0 KECCAK256 PUSH0 SWAP2 POP SWAP1 POP SLOAD DUP2 JUMP JUMPDEST PUSH1 0x9 DUP2 DUP2 SLOAD DUP2 LT PUSH2 0x13A7 JUMPI PUSH0 DUP1 REVERT JUMPDEST SWAP1 PUSH0 MSTORE PUSH1 0x20 PUSH0 KECCAK256 ADD PUSH0 SWAP2 POP SLOAD SWAP1 PUSH2 0x100 EXP SWAP1 DIV PUSH20 0xFFFFFFFFFFFFFFFFFFFFFFFFFFFFFFFFFFFFFFFF AND DUP2 JUMP JUMPDEST PUSH1 0x3 SLOAD DUP2 JUMP JUMPDEST PUSH1 0x5 PUSH0 SWAP1 SLOAD SWAP1 PUSH2 0x100 EXP SWAP1 DIV PUSH20 0xFFFFFFFFFFFFFFFFFFFFFFFFFFFFFFFFFFFFFFFF AND PUSH20 0xFFFFFFFFFFFFFFFFFFFFFFFFFFFFFFFFFFFFFFFF AND CALLER PUSH20 0xFFFFFFFFFFFFFFFFFFFFFFFFFFFFFFFFFFFFFFFF AND EQ PUSH2 0x1468 JUMPI PUSH1 0x40 MLOAD PUSH32 0x8C379A000000000000000000000000000000000000000000000000000000000 DUP2 MSTORE PUSH1 0x4 ADD PUSH2 0x145F SWAP1 PUSH2 0x26B2 JUMP JUMPDEST PUSH1 0x40 MLOAD DUP1 SWAP2 SUB SWAP1 REVERT JUMPDEST PUSH1 0x2 PUSH1 0x3 DUP2 GT ISZERO PUSH2 0x147C JUMPI PUSH2 0x147B PUSH2 0x1FC9 JUMP JUMPDEST JUMPDEST PUSH0 DUP1 SLOAD SWAP1 PUSH2 0x100 EXP SWAP1 DIV PUSH1 0xFF AND PUSH1 0x3 DUP2 GT ISZERO PUSH2 0x149B JUMPI PUSH2 0x149A PUSH2 0x1FC9 JUMP JUMPDEST JUMPDEST EQ PUSH2 0x14DB JUMPI PUSH1 0x40 MLOAD PUSH32 0x8C379A000000000000000000000000000000000000000000000000000000000 DUP2 MSTORE PUSH1 0x4 ADD PUSH2 0x14D2 SWAP1 PUSH2 0x2740 JUMP JUMPDEST PUSH1 0x40 MLOAD DUP1 SWAP2 SUB SWAP1 REVERT JUMPDEST PUSH1 0x3 DUP1 DUP2 GT ISZERO PUSH2 0x14EE JUMPI PUSH2 0x14ED PUSH2 0x1FC9 JUMP JUMPDEST JUMPDEST PUSH0 DUP1 SLOAD SWAP1 PUSH2 0x100 EXP SWAP1 DIV PUSH1 0xFF AND PUSH1 0x3 DUP2 GT ISZERO PUSH2 0x150D JUMPI PUSH2 0x150C PUSH2 0x1FC9 JUMP JUMPDEST JUMPDEST SUB PUSH2 0x154D JUMPI PUSH1 0x40 MLOAD PUSH32 0x8C379A000000000000000000000000000000000000000000000000000000000 DUP2 MSTORE PUSH1 0x4 ADD PUSH2 0x1544 SWAP1 PUSH2 0x22DB JUMP JUMPDEST PUSH1 0x40 MLOAD DUP1 SWAP2 SUB SWAP1 REVERT JUMPDEST PUSH1 0x2 PUSH1 0x3 DUP2 GT ISZERO PUSH2 0x1561 JUMPI PUSH2 0x1560 PUSH2 0x1FC9 JUMP JUMPDEST JUMPDEST PUSH0 DUP1 SLOAD SWAP1 PUSH2 0x100 EXP SWAP1 DIV PUSH1 0xFF AND PUSH1 0x3 DUP2 GT ISZERO PUSH2 0x1580 JUMPI PUSH2 0x157F PUSH2 0x1FC9 JUMP JUMPDEST JUMPDEST EQ PUSH2 0x15C0 JUMPI PUSH1 0x40 MLOAD PUSH32 0x8C379A000000000000000000000000000000000000000000000000000000000 DUP2 MSTORE PUSH1 0x4 ADD PUSH2 0x15B7 SWAP1 PUSH2 0x2740 JUMP JUMPDEST PUSH1 0x40 MLOAD DUP1 SWAP2 SUB SWAP1 REVERT JUMPDEST PUSH0 PUSH1 0x2 SLOAD SWAP1 POP PUSH0 PUSH1 0x2 DUP2 SWAP1 SSTORE POP PUSH0 PUSH1 0x5 PUSH0 SWAP1 SLOAD SWAP1 PUSH2 0x100 EXP SWAP1 DIV PUSH20 0xFFFFFFFFFFFFFFFFFFFFFFFFFFFFFFFFFFFFFFFF AND PUSH20 0xFFFFFFFFFFFFFFFFFFFFFFFFFFFFFFFFFFFFFFFF AND DUP3 PUSH1 0x40 MLOAD PUSH2 0x1613 SWAP1 PUSH2 0x25A0 JUMP JUMPDEST PUSH0 PUSH1 0x40 MLOAD DUP1 DUP4 SUB DUP2 DUP6 DUP8 GAS CALL SWAP3 POP POP POP RETURNDATASIZE DUP1 PUSH0 DUP2 EQ PUSH2 0x164D JUMPI PUSH1 0x40 MLOAD SWAP2 POP PUSH1 0x1F NOT PUSH1 0x3F RETURNDATASIZE ADD AND DUP3 ADD PUSH1 0x40 MSTORE RETURNDATASIZE DUP3 MSTORE RETURNDATASIZE PUSH0 PUSH1 0x20 DUP5 ADD RETURNDATACOPY PUSH2 0x1652 JUMP JUMPDEST PUSH1 0x60 SWAP2 POP JUMPDEST POP POP SWAP1 POP DUP1 PUSH2 0x1696 JUMPI PUSH1 0x40 MLOAD PUSH32 0x8C379A000000000000000000000000000000000000000000000000000000000 DUP2 MSTORE PUSH1 0x4 ADD PUSH2 0x168D SWAP1 PUSH2 0x29CE JUMP JUMPDEST PUSH1 0x40 MLOAD DUP1 SWAP2 SUB SWAP1 REVERT JUMPDEST PUSH32 0x2F424443129F9599DFB4D73878AD554B820124E747BDE094B660FB1280ED3D15 DUP3 PUSH1 0x40 MLOAD PUSH2 0x16C5 SWAP2 SWAP1 PUSH2 0x1E11 JUMP JUMPDEST PUSH1 0x40 MLOAD DUP1 SWAP2 SUB SWAP1 LOG1 POP POP JUMP JUMPDEST PUSH1 0x2 SLOAD DUP2 JUMP JUMPDEST PUSH0 PUSH1 0x3 DUP2 GT ISZERO PUSH2 0x16EA JUMPI PUSH2 0x16E9 PUSH2 0x1FC9 JUMP JUMPDEST JUMPDEST PUSH0 DUP1 SLOAD SWAP1 PUSH2 0x100 EXP SWAP1 DIV PUSH1 0xFF AND PUSH1 0x3 DUP2 GT ISZERO PUSH2 0x1709 JUMPI PUSH2 0x1708 PUSH2 0x1FC9 JUMP JUMPDEST JUMPDEST EQ PUSH2 0x1749 JUMPI PUSH1 0x40 MLOAD PUSH32 0x8C379A000000000000000000000000000000000000000000000000000000000 DUP2 MSTORE PUSH1 0x4 ADD PUSH2 0x1740 SWAP1 PUSH2 0x224D JUMP JUMPDEST PUSH1 0x40 MLOAD DUP1 SWAP2 SUB SWAP1 REVERT JUMPDEST CALLVALUE PUSH1 0x64 PUSH1 0x5 PUSH1 0x3 SLOAD PUSH2 0x175B SWAP2 SWAP1 PUSH2 0x24D5 JUMP JUMPDEST PUSH2 0x1765 SWAP2 SWAP1 PUSH2 0x2543 JUMP JUMPDEST PUSH1 0x3 SLOAD PUSH2 0x1772 SWAP2 SWAP1 PUSH2 0x2414 JUMP JUMPDEST DUP2 LT ISZERO PUSH2 0x17B4 JUMPI PUSH1 0x40 MLOAD PUSH32 0x8C379A000000000000000000000000000000000000000000000000000000000 DUP2 MSTORE PUSH1 0x4 ADD PUSH2 0x17AB SWAP1 PUSH2 0x2A5C JUMP JUMPDEST PUSH1 0x40 MLOAD DUP1 SWAP2 SUB SWAP1 REVERT JUMPDEST PUSH1 0x1 SLOAD TIMESTAMP GT ISZERO PUSH2 0x17F9 JUMPI PUSH1 0x40 MLOAD PUSH32 0x8C379A000000000000000000000000000000000000000000000000000000000 DUP2 MSTORE PUSH1 0x4 ADD PUSH2 0x17F0 SWAP1 PUSH2 0x2AC4 JUMP JUMPDEST PUSH1 0x40 MLOAD DUP1 SWAP2 SUB SWAP1 REVERT JUMPDEST PUSH2 0x258 PUSH1 0x1 SLOAD PUSH2 0x1809 SWAP2 SWAP1 PUSH2 0x23B4 JUMP JUMPDEST TIMESTAMP GT ISZERO PUSH2 0x1864 JUMPI PUSH2 0x258 PUSH1 0x1 PUSH0 DUP3 DUP3 SLOAD PUSH2 0x1823 SWAP2 SWAP1 PUSH2 0x2414 JUMP JUMPDEST SWAP3 POP POP DUP2 SWAP1 SSTORE POP PUSH32 0xC2B459809119087CA9D2BC10DEA53A51B7D848B1A11075DB037BDCA58292C3E8 PUSH1 0x1 SLOAD PUSH1 0x40 MLOAD PUSH2 0x185B SWAP2 SWAP1 PUSH2 0x1E11 JUMP JUMPDEST PUSH1 0x40 MLOAD DUP1 SWAP2 SUB SWAP1 LOG1 JUMPDEST PUSH0 CALLVALUE SWAP1 POP PUSH1 0x6 PUSH0 CALLER PUSH20 0xFFFFFFFFFFFFFFFFFFFFFFFFFFFFFFFFFFFFFFFF AND PUSH20 0xFFFFFFFFFFFFFFFFFFFFFFFFFFFFFFFFFFFFFFFF AND DUP2 MSTORE PUSH1 0x20 ADD SWAP1 DUP2 MSTORE PUSH1 0x20 ADD PUSH0 KECCAK256 DUP2 SWAP1 DUP1 PUSH1 0x1 DUP2 SLOAD ADD DUP1 DUP3 SSTORE DUP1 SWAP2 POP POP PUSH1 0x1 SWAP1 SUB SWAP1 PUSH0 MSTORE PUSH1 0x20 PUSH0 KECCAK256 ADD PUSH0 SWAP1 SWAP2 SWAP1 SWAP2 SWAP1 SWAP2 POP SSTORE DUP1 PUSH1 0x7 PUSH0 CALLER PUSH20 0xFFFFFFFFFFFFFFFFFFFFFFFFFFFFFFFFFFFFFFFF AND PUSH20 0xFFFFFFFFFFFFFFFFFFFFFFFFFFFFFFFFFFFFFFFF AND DUP2 MSTORE PUSH1 0x20 ADD SWAP1 DUP2 MSTORE PUSH1 0x20 ADD PUSH0 KECCAK256 PUSH0 DUP3 DUP3 SLOAD PUSH2 0x1915 SWAP2 SWAP1 PUSH2 0x2414 JUMP JUMPDEST SWAP3 POP POP DUP2 SWAP1 SSTORE POP PUSH1 0xA PUSH1 0x40 MLOAD DUP1 PUSH1 0x40 ADD PUSH1 0x40 MSTORE DUP1 CALLER PUSH20 0xFFFFFFFFFFFFFFFFFFFFFFFFFFFFFFFFFFFFFFFF AND DUP2 MSTORE PUSH1 0x20 ADD DUP4 DUP2 MSTORE POP SWAP1 DUP1 PUSH1 0x1 DUP2 SLOAD ADD DUP1 DUP3 SSTORE DUP1 SWAP2 POP POP PUSH1 0x1 SWAP1 SUB SWAP1 PUSH0 MSTORE PUSH1 0x20 PUSH0 KECCAK256 SWAP1 PUSH1 0x2 MUL ADD PUSH0 SWAP1 SWAP2 SWAP1 SWAP2 SWAP1 SWAP2 POP PUSH0 DUP3 ADD MLOAD DUP2 PUSH0 ADD PUSH0 PUSH2 0x100 EXP DUP2 SLOAD DUP2 PUSH20 0xFFFFFFFFFFFFFFFFFFFFFFFFFFFFFFFFFFFFFFFF MUL NOT AND SWAP1 DUP4 PUSH20 0xFFFFFFFFFFFFFFFFFFFFFFFFFFFFFFFFFFFFFFFF AND MUL OR SWAP1 SSTORE POP PUSH1 0x20 DUP3 ADD MLOAD DUP2 PUSH1 0x1 ADD SSTORE POP POP PUSH1 0x3 SLOAD DUP2 GT ISZERO PUSH2 0x1A11 JUMPI DUP1 PUSH1 0x3 DUP2 SWAP1 SSTORE POP CALLER PUSH1 0x4 PUSH0 PUSH2 0x100 EXP DUP2 SLOAD DUP2 PUSH20 0xFFFFFFFFFFFFFFFFFFFFFFFFFFFFFFFFFFFFFFFF MUL NOT AND SWAP1 DUP4 PUSH20 0xFFFFFFFFFFFFFFFFFFFFFFFFFFFFFFFFFFFFFFFF AND MUL OR SWAP1 SSTORE POP JUMPDEST PUSH1 0x1 PUSH1 0x6 PUSH0 CALLER PUSH20 0xFFFFFFFFFFFFFFFFFFFFFFFFFFFFFFFFFFFFFFFF AND PUSH20 0xFFFFFFFFFFFFFFFFFFFFFFFFFFFFFFFFFFFFFFFF AND DUP2 MSTORE PUSH1 0x20 ADD SWAP1 DUP2 MSTORE PUSH1 0x20 ADD PUSH0 KECCAK256 DUP1 SLOAD SWAP1 POP SUB PUSH2 0x1ABA JUMPI PUSH1 0x9 CALLER SWAP1 DUP1 PUSH1 0x1 DUP2 SLOAD ADD DUP1 DUP3 SSTORE DUP1 SWAP2 POP POP PUSH1 0x1 SWAP1 SUB SWAP1 PUSH0 MSTORE PUSH1 0x20 PUSH0 KECCAK256 ADD PUSH0 SWAP1 SWAP2 SWAP1 SWAP2 SWAP1 SWAP2 PUSH2 0x100 EXP DUP2 SLOAD DUP2 PUSH20 0xFFFFFFFFFFFFFFFFFFFFFFFFFFFFFFFFFFFFFFFF MUL NOT AND SWAP1 DUP4 PUSH20 0xFFFFFFFFFFFFFFFFFFFFFFFFFFFFFFFFFFFFFFFF AND MUL OR SWAP1 SSTORE POP JUMPDEST CALLER PUSH20 0xFFFFFFFFFFFFFFFFFFFFFFFFFFFFFFFFFFFFFFFF AND PUSH32 0x3FABFF0A9C3ECD6814702E247FA9733E5D0AA69E3A38590F92CB18F623A2254D DUP3 PUSH1 0x40 MLOAD PUSH2 0x1B00 SWAP2 SWAP1 PUSH2 0x1E11 JUMP JUMPDEST PUSH1 0x40 MLOAD DUP1 SWAP2 SUB SWAP1 LOG2 POP POP JUMP JUMPDEST PUSH1 0x5 PUSH0 SWAP1 SLOAD SWAP1 PUSH2 0x100 EXP SWAP1 DIV PUSH20 0xFFFFFFFFFFFFFFFFFFFFFFFFFFFFFFFFFFFFFFFF AND PUSH20 0xFFFFFFFFFFFFFFFFFFFFFFFFFFFFFFFFFFFFFFFF AND CALLER PUSH20 0xFFFFFFFFFFFFFFFFFFFFFFFFFFFFFFFFFFFFFFFF AND EQ PUSH2 0x1B9B JUMPI PUSH1 0x40 MLOAD PUSH32 0x8C379A000000000000000000000000000000000000000000000000000000000 DUP2 MSTORE PUSH1 0x4 ADD PUSH2 0x1B92 SWAP1 PUSH2 0x26B2 JUMP JUMPDEST PUSH1 0x40 MLOAD DUP1 SWAP2 SUB SWAP1 REVERT JUMPDEST PUSH1 0x1 SLOAD TIMESTAMP LT ISZERO PUSH2 0x1BE0 JUMPI PUSH1 0x40 MLOAD PUSH32 0x8C379A000000000000000000000000000000000000000000000000000000000 DUP2 MSTORE PUSH1 0x4 ADD PUSH2 0x1BD7 SWAP1 PUSH2 0x2869 JUMP JUMPDEST PUSH1 0x40 MLOAD DUP1 SWAP2 SUB SWAP1 REVERT JUMPDEST PUSH0 PUSH1 0x3 DUP2 GT ISZERO PUSH2 0x1BF3 JUMPI PUSH2 0x1BF2 PUSH2 0x1FC9 JUMP JUMPDEST JUMPDEST PUSH0 DUP1 SLOAD SWAP1 PUSH2 0x100 EXP SWAP1 DIV PUSH1 0xFF AND PUSH1 0x3 DUP2 GT ISZERO PUSH2 0x1C12 JUMPI PUSH2 0x1C11 PUSH2 0x1FC9 JUMP JUMPDEST JUMPDEST EQ PUSH2 0x1C52 JUMPI PUSH1 0x40 MLOAD PUSH32 0x8C379A000000000000000000000000000000000000000000000000000000000 DUP2 MSTORE PUSH1 0x4 ADD PUSH2 0x1C49 SWAP1 PUSH2 0x2B52 JUMP JUMPDEST PUSH1 0x40 MLOAD DUP1 SWAP2 SUB SWAP1 REVERT JUMPDEST PUSH1 0x1 SLOAD TIMESTAMP LT ISZERO PUSH2 0x1C97 JUMPI PUSH1 0x40 MLOAD PUSH32 0x8C379A000000000000000000000000000000000000000000000000000000000 DUP2 MSTORE PUSH1 0x4 ADD PUSH2 0x1C8E SWAP1 PUSH2 0x28D1 JUMP JUMPDEST PUSH1 0x40 MLOAD DUP1 SWAP2 SUB SWAP1 REVERT JUMPDEST PUSH1 0x1 PUSH0 DUP1 PUSH2 0x100 EXP DUP2 SLOAD DUP2 PUSH1 0xFF MUL NOT AND SWAP1 DUP4 PUSH1 0x3 DUP2 GT ISZERO PUSH2 0x1CBB JUMPI PUSH2 0x1CBA PUSH2 0x1FC9 JUMP JUMPDEST JUMPDEST MUL OR SWAP1 SSTORE POP PUSH1 0x4 PUSH0 SWAP1 SLOAD SWAP1 PUSH2 0x100 EXP SWAP1 DIV PUSH20 0xFFFFFFFFFFFFFFFFFFFFFFFFFFFFFFFFFFFFFFFF AND PUSH20 0xFFFFFFFFFFFFFFFFFFFFFFFFFFFFFFFFFFFFFFFF AND PUSH32 0xDAEC4582D5D9595688C8C98545FDD1C696D41C6AEAEB636737E84ED2F5C00EDA PUSH1 0x3 SLOAD PUSH1 0x40 MLOAD PUSH2 0x1D29 SWAP2 SWAP1 PUSH2 0x1E11 JUMP JUMPDEST PUSH1 0x40 MLOAD DUP1 SWAP2 SUB SWAP1 LOG2 JUMP JUMPDEST PUSH0 DUP1 REVERT JUMPDEST PUSH0 PUSH20 0xFFFFFFFFFFFFFFFFFFFFFFFFFFFFFFFFFFFFFFFF DUP3 AND SWAP1 POP SWAP2 SWAP1 POP JUMP JUMPDEST PUSH0 PUSH2 0x1D60 DUP3 PUSH2 0x1D37 JUMP JUMPDEST SWAP1 POP SWAP2 SWAP1 POP JUMP JUMPDEST PUSH2 0x1D70 DUP2 PUSH2 0x1D56 JUMP JUMPDEST DUP2 EQ PUSH2 0x1D7A JUMPI PUSH0 DUP1 REVERT JUMPDEST POP JUMP JUMPDEST PUSH0 DUP2 CALLDATALOAD SWAP1 POP PUSH2 0x1D8B DUP2 PUSH2 0x1D67 JUMP JUMPDEST SWAP3 SWAP2 POP POP JUMP JUMPDEST PUSH0 DUP2 SWAP1 POP SWAP2 SWAP1 POP JUMP JUMPDEST PUSH2 0x1DA3 DUP2 PUSH2 0x1D91 JUMP JUMPDEST DUP2 EQ PUSH2 0x1DAD JUMPI PUSH0 DUP1 REVERT JUMPDEST POP JUMP JUMPDEST PUSH0 DUP2 CALLDATALOAD SWAP1 POP PUSH2 0x1DBE DUP2 PUSH2 0x1D9A JUMP JUMPDEST SWAP3 SWAP2 POP POP JUMP JUMPDEST PUSH0 DUP1 PUSH1 0x40 DUP4 DUP6 SUB SLT ISZERO PUSH2 0x1DDA JUMPI PUSH2 0x1DD9 PUSH2 0x1D33 JUMP JUMPDEST JUMPDEST PUSH0 PUSH2 0x1DE7 DUP6 DUP3 DUP7 ADD PUSH2 0x1D7D JUMP JUMPDEST SWAP3 POP POP PUSH1 0x20 PUSH2 0x1DF8 DUP6 DUP3 DUP7 ADD PUSH2 0x1DB0 JUMP JUMPDEST SWAP2 POP POP SWAP3 POP SWAP3 SWAP1 POP JUMP JUMPDEST PUSH2 0x1E0B DUP2 PUSH2 0x1D91 JUMP JUMPDEST DUP3 MSTORE POP POP JUMP JUMPDEST PUSH0 PUSH1 0x20 DUP3 ADD SWAP1 POP PUSH2 0x1E24 PUSH0 DUP4 ADD DUP5 PUSH2 0x1E02 JUMP JUMPDEST SWAP3 SWAP2 POP POP JUMP JUMPDEST PUSH0 DUP2 MLOAD SWAP1 POP SWAP2 SWAP1 POP JUMP JUMPDEST PUSH0 DUP3 DUP3 MSTORE PUSH1 0x20 DUP3 ADD SWAP1 POP SWAP3 SWAP2 POP POP JUMP JUMPDEST PUSH0 DUP2 SWAP1 POP PUSH1 0x20 DUP3 ADD SWAP1 POP SWAP2 SWAP1 POP JUMP JUMPDEST PUSH2 0x1E5C DUP2 PUSH2 0x1D56 JUMP JUMPDEST DUP3 MSTORE POP POP JUMP JUMPDEST PUSH2 0x1E6B DUP2 PUSH2 0x1D91 JUMP JUMPDEST DUP3 MSTORE POP POP JUMP JUMPDEST PUSH1 0x40 DUP3 ADD PUSH0 DUP3 ADD MLOAD PUSH2 0x1E85 PUSH0 DUP6 ADD DUP3 PUSH2 0x1E53 JUMP JUMPDEST POP PUSH1 0x20 DUP3 ADD MLOAD PUSH2 0x1E98 PUSH1 0x20 DUP6 ADD DUP3 PUSH2 0x1E62 JUMP JUMPDEST POP POP POP POP JUMP JUMPDEST PUSH0 PUSH2 0x1EA9 DUP4 DUP4 PUSH2 0x1E71 JUMP JUMPDEST PUSH1 0x40 DUP4 ADD SWAP1 POP SWAP3 SWAP2 POP POP JUMP JUMPDEST PUSH0 PUSH1 0x20 DUP3 ADD SWAP1 POP SWAP2 SWAP1 POP JUMP JUMPDEST PUSH0 PUSH2 0x1ECB DUP3 PUSH2 0x1E2A JUMP JUMPDEST PUSH2 0x1ED5 DUP2 DUP6 PUSH2 0x1E34 JUMP JUMPDEST SWAP4 POP PUSH2 0x1EE0 DUP4 PUSH2 0x1E44 JUMP JUMPDEST DUP1 PUSH0 JUMPDEST DUP4 DUP2 LT ISZERO PUSH2 0x1F10 JUMPI DUP2 MLOAD PUSH2 0x1EF7 DUP9 DUP3 PUSH2 0x1E9E JUMP JUMPDEST SWAP8 POP PUSH2 0x1F02 DUP4 PUSH2 0x1EB5 JUMP JUMPDEST SWAP3 POP POP PUSH1 0x1 DUP2 ADD SWAP1 POP PUSH2 0x1EE3 JUMP JUMPDEST POP DUP6 SWAP4 POP POP POP POP SWAP3 SWAP2 POP POP JUMP JUMPDEST PUSH0 PUSH1 0x20 DUP3 ADD SWAP1 POP DUP2 DUP2 SUB PUSH0 DUP4 ADD MSTORE PUSH2 0x1F35 DUP2 DUP5 PUSH2 0x1EC1 JUMP JUMPDEST SWAP1 POP SWAP3 SWAP2 POP POP JUMP JUMPDEST PUSH0 PUSH1 0x20 DUP3 DUP5 SUB SLT ISZERO PUSH2 0x1F52 JUMPI PUSH2 0x1F51 PUSH2 0x1D33 JUMP JUMPDEST JUMPDEST PUSH0 PUSH2 0x1F5F DUP5 DUP3 DUP6 ADD PUSH2 0x1D7D JUMP JUMPDEST SWAP2 POP POP SWAP3 SWAP2 POP POP JUMP JUMPDEST PUSH0 PUSH1 0x20 DUP3 DUP5 SUB SLT ISZERO PUSH2 0x1F7D JUMPI PUSH2 0x1F7C PUSH2 0x1D33 JUMP JUMPDEST JUMPDEST PUSH0 PUSH2 0x1F8A DUP5 DUP3 DUP6 ADD PUSH2 0x1DB0 JUMP JUMPDEST SWAP2 POP POP SWAP3 SWAP2 POP POP JUMP JUMPDEST PUSH2 0x1F9C DUP2 PUSH2 0x1D56 JUMP JUMPDEST DUP3 MSTORE POP POP JUMP JUMPDEST PUSH0 PUSH1 0x40 DUP3 ADD SWAP1 POP PUSH2 0x1FB5 PUSH0 DUP4 ADD DUP6 PUSH2 0x1F93 JUMP JUMPDEST PUSH2 0x1FC2 PUSH1 0x20 DUP4 ADD DUP5 PUSH2 0x1E02 JUMP JUMPDEST SWAP4 SWAP3 POP POP POP JUMP JUMPDEST PUSH32 0x4E487B7100000000000000000000000000000000000000000000000000000000 PUSH0 MSTORE PUSH1 0x21 PUSH1 0x4 MSTORE PUSH1 0x24 PUSH0 REVERT JUMPDEST PUSH1 0x4 DUP2 LT PUSH2 0x2007 JUMPI PUSH2 0x2006 PUSH2 0x1FC9 JUMP JUMPDEST JUMPDEST POP JUMP JUMPDEST PUSH0 DUP2 SWAP1 POP PUSH2 0x2017 DUP3 PUSH2 0x1FF6 JUMP JUMPDEST SWAP2 SWAP1 POP JUMP JUMPDEST PUSH0 PUSH2 0x2026 DUP3 PUSH2 0x200A JUMP JUMPDEST SWAP1 POP SWAP2 SWAP1 POP JUMP JUMPDEST PUSH2 0x2036 DUP2 PUSH2 0x201C JUMP JUMPDEST DUP3 MSTORE POP POP JUMP JUMPDEST PUSH0 PUSH1 0x20 DUP3 ADD SWAP1 POP PUSH2 0x204F PUSH0 DUP4 ADD DUP5 PUSH2 0x202D JUMP JUMPDEST SWAP3 SWAP2 POP POP JUMP JUMPDEST PUSH0 PUSH1 0x20 DUP3 ADD SWAP1 POP PUSH2 0x2068 PUSH0 DUP4 ADD DUP5 PUSH2 0x1F93 JUMP JUMPDEST SWAP3 SWAP2 POP POP JUMP JUMPDEST PUSH0 DUP2 MLOAD SWAP1 POP SWAP2 SWAP1 POP JUMP JUMPDEST PUSH0 DUP3 DUP3 MSTORE PUSH1 0x20 DUP3 ADD SWAP1 POP SWAP3 SWAP2 POP POP JUMP JUMPDEST PUSH0 DUP2 SWAP1 POP PUSH1 0x20 DUP3 ADD SWAP1 POP SWAP2 SWAP1 POP JUMP JUMPDEST PUSH0 PUSH2 0x20A2 DUP4 DUP4 PUSH2 0x1E53 JUMP JUMPDEST PUSH1 0x20 DUP4 ADD SWAP1 POP SWAP3 SWAP2 POP POP JUMP JUMPDEST PUSH0 PUSH1 0x20 DUP3 ADD SWAP1 POP SWAP2 SWAP1 POP JUMP JUMPDEST PUSH0 PUSH2 0x20C4 DUP3 PUSH2 0x206E JUMP JUMPDEST PUSH2 0x20CE DUP2 DUP6 PUSH2 0x2078 JUMP JUMPDEST SWAP4 POP PUSH2 0x20D9 DUP4 PUSH2 0x2088 JUMP JUMPDEST DUP1 PUSH0 JUMPDEST DUP4 DUP2 LT ISZERO PUSH2 0x2109 JUMPI DUP2 MLOAD PUSH2 0x20F0 DUP9 DUP3 PUSH2 0x2097 JUMP JUMPDEST SWAP8 POP PUSH2 0x20FB DUP4 PUSH2 0x20AE JUMP JUMPDEST SWAP3 POP POP PUSH1 0x1 DUP2 ADD SWAP1 POP PUSH2 0x20DC JUMP JUMPDEST POP DUP6 SWAP4 POP POP POP POP SWAP3 SWAP2 POP POP JUMP JUMPDEST PUSH0 DUP2 MLOAD SWAP1 POP SWAP2 SWAP1 POP JUMP JUMPDEST PUSH0 DUP3 DUP3 MSTORE PUSH1 0x20 DUP3 ADD SWAP1 POP SWAP3 SWAP2 POP POP JUMP JUMPDEST PUSH0 DUP2 SWAP1 POP PUSH1 0x20 DUP3 ADD SWAP1 POP SWAP2 SWAP1 POP JUMP JUMPDEST PUSH0 PUSH2 0x214A DUP4 DUP4 PUSH2 0x1E62 JUMP JUMPDEST PUSH1 0x20 DUP4 ADD SWAP1 POP SWAP3 SWAP2 POP POP JUMP JUMPDEST PUSH0 PUSH1 0x20 DUP3 ADD SWAP1 POP SWAP2 SWAP1 POP JUMP JUMPDEST PUSH0 PUSH2 0x216C DUP3 PUSH2 0x2116 JUMP JUMPDEST PUSH2 0x2176 DUP2 DUP6 PUSH2 0x2120 JUMP JUMPDEST SWAP4 POP PUSH2 0x2181 DUP4 PUSH2 0x2130 JUMP JUMPDEST DUP1 PUSH0 JUMPDEST DUP4 DUP2 LT ISZERO PUSH2 0x21B1 JUMPI DUP2 MLOAD PUSH2 0x2198 DUP9 DUP3 PUSH2 0x213F JUMP JUMPDEST SWAP8 POP PUSH2 0x21A3 DUP4 PUSH2 0x2156 JUMP JUMPDEST SWAP3 POP POP PUSH1 0x1 DUP2 ADD SWAP1 POP PUSH2 0x2184 JUMP JUMPDEST POP DUP6 SWAP4 POP POP POP POP SWAP3 SWAP2 POP POP JUMP JUMPDEST PUSH0 PUSH1 0x40 DUP3 ADD SWAP1 POP DUP2 DUP2 SUB PUSH0 DUP4 ADD MSTORE PUSH2 0x21D6 DUP2 DUP6 PUSH2 0x20BA JUMP JUMPDEST SWAP1 POP DUP2 DUP2 SUB PUSH1 0x20 DUP4 ADD MSTORE PUSH2 0x21EA DUP2 DUP5 PUSH2 0x2162 JUMP JUMPDEST SWAP1 POP SWAP4 SWAP3 POP POP POP JUMP JUMPDEST PUSH0 DUP3 DUP3 MSTORE PUSH1 0x20 DUP3 ADD SWAP1 POP SWAP3 SWAP2 POP POP JUMP JUMPDEST PUSH32 0x4C612073756261737461206E6F20657374612061637469766100000000000000 PUSH0 DUP3 ADD MSTORE POP JUMP JUMPDEST PUSH0 PUSH2 0x2237 PUSH1 0x19 DUP4 PUSH2 0x21F3 JUMP JUMPDEST SWAP2 POP PUSH2 0x2242 DUP3 PUSH2 0x2203 JUMP JUMPDEST PUSH1 0x20 DUP3 ADD SWAP1 POP SWAP2 SWAP1 POP JUMP JUMPDEST PUSH0 PUSH1 0x20 DUP3 ADD SWAP1 POP DUP2 DUP2 SUB PUSH0 DUP4 ADD MSTORE PUSH2 0x2264 DUP2 PUSH2 0x222B JUMP JUMPDEST SWAP1 POP SWAP2 SWAP1 POP JUMP JUMPDEST PUSH32 0x4C612073756261737461207961206861207369646F20636F6D706C6574616461 PUSH0 DUP3 ADD MSTORE PUSH32 0x2E00000000000000000000000000000000000000000000000000000000000000 PUSH1 0x20 DUP3 ADD MSTORE POP JUMP JUMPDEST PUSH0 PUSH2 0x22C5 PUSH1 0x21 DUP4 PUSH2 0x21F3 JUMP JUMPDEST SWAP2 POP PUSH2 0x22D0 DUP3 PUSH2 0x226B JUMP JUMPDEST PUSH1 0x40 DUP3 ADD SWAP1 POP SWAP2 SWAP1 POP JUMP JUMPDEST PUSH0 PUSH1 0x20 DUP3 ADD SWAP1 POP DUP2 DUP2 SUB PUSH0 DUP4 ADD MSTORE PUSH2 0x22F2 DUP2 PUSH2 0x22B9 JUMP JUMPDEST SWAP1 POP SWAP2 SWAP1 POP JUMP JUMPDEST PUSH32 0x4E6F20686179206F66657274617320616E746572696F72657320706172612072 PUSH0 DUP3 ADD MSTORE PUSH32 0x6574697261722E00000000000000000000000000000000000000000000000000 PUSH1 0x20 DUP3 ADD MSTORE POP JUMP JUMPDEST PUSH0 PUSH2 0x2353 PUSH1 0x27 DUP4 PUSH2 0x21F3 JUMP JUMPDEST SWAP2 POP PUSH2 0x235E DUP3 PUSH2 0x22F9 JUMP JUMPDEST PUSH1 0x40 DUP3 ADD SWAP1 POP SWAP2 SWAP1 POP JUMP JUMPDEST PUSH0 PUSH1 0x20 DUP3 ADD SWAP1 POP DUP2 DUP2 SUB PUSH0 DUP4 ADD MSTORE PUSH2 0x2380 DUP2 PUSH2 0x2347 JUMP JUMPDEST SWAP1 POP SWAP2 SWAP1 POP JUMP JUMPDEST PUSH32 0x4E487B7100000000000000000000000000000000000000000000000000000000 PUSH0 MSTORE PUSH1 0x11 PUSH1 0x4 MSTORE PUSH1 0x24 PUSH0 REVERT JUMPDEST PUSH0 PUSH2 0x23BE DUP3 PUSH2 0x1D91 JUMP JUMPDEST SWAP2 POP PUSH2 0x23C9 DUP4 PUSH2 0x1D91 JUMP JUMPDEST SWAP3 POP DUP3 DUP3 SUB SWAP1 POP DUP2 DUP2 GT ISZERO PUSH2 0x23E1 JUMPI PUSH2 0x23E0 PUSH2 0x2387 JUMP JUMPDEST JUMPDEST SWAP3 SWAP2 POP POP JUMP JUMPDEST PUSH32 0x4E487B7100000000000000000000000000000000000000000000000000000000 PUSH0 MSTORE PUSH1 0x32 PUSH1 0x4 MSTORE PUSH1 0x24 PUSH0 REVERT JUMPDEST PUSH0 PUSH2 0x241E DUP3 PUSH2 0x1D91 JUMP JUMPDEST SWAP2 POP PUSH2 0x2429 DUP4 PUSH2 0x1D91 JUMP JUMPDEST SWAP3 POP DUP3 DUP3 ADD SWAP1 POP DUP1 DUP3 GT ISZERO PUSH2 0x2441 JUMPI PUSH2 0x2440 PUSH2 0x2387 JUMP JUMPDEST JUMPDEST SWAP3 SWAP2 POP POP JUMP JUMPDEST PUSH32 0x4E6F206861792073616C646F2061646963696F6E616C2070617261207265656D PUSH0 DUP3 ADD MSTORE PUSH32 0x626F6C7361722E00000000000000000000000000000000000000000000000000 PUSH1 0x20 DUP3 ADD MSTORE POP JUMP JUMPDEST PUSH0 PUSH2 0x24A1 PUSH1 0x27 DUP4 PUSH2 0x21F3 JUMP JUMPDEST SWAP2 POP PUSH2 0x24AC DUP3 PUSH2 0x2447 JUMP JUMPDEST PUSH1 0x40 DUP3 ADD SWAP1 POP SWAP2 SWAP1 POP JUMP JUMPDEST PUSH0 PUSH1 0x20 DUP3 ADD SWAP1 POP DUP2 DUP2 SUB PUSH0 DUP4 ADD MSTORE PUSH2 0x24CE DUP2 PUSH2 0x2495 JUMP JUMPDEST SWAP1 POP SWAP2 SWAP1 POP JUMP JUMPDEST PUSH0 PUSH2 0x24DF DUP3 PUSH2 0x1D91 JUMP JUMPDEST SWAP2 POP PUSH2 0x24EA DUP4 PUSH2 0x1D91 JUMP JUMPDEST SWAP3 POP DUP3 DUP3 MUL PUSH2 0x24F8 DUP2 PUSH2 0x1D91 JUMP JUMPDEST SWAP2 POP DUP3 DUP3 DIV DUP5 EQ DUP4 ISZERO OR PUSH2 0x250F JUMPI PUSH2 0x250E PUSH2 0x2387 JUMP JUMPDEST JUMPDEST POP SWAP3 SWAP2 POP POP JUMP JUMPDEST PUSH32 0x4E487B7100000000000000000000000000000000000000000000000000000000 PUSH0 MSTORE PUSH1 0x12 PUSH1 0x4 MSTORE PUSH1 0x24 PUSH0 REVERT JUMPDEST PUSH0 PUSH2 0x254D DUP3 PUSH2 0x1D91 JUMP JUMPDEST SWAP2 POP PUSH2 0x2558 DUP4 PUSH2 0x1D91 JUMP JUMPDEST SWAP3 POP DUP3 PUSH2 0x2568 JUMPI PUSH2 0x2567 PUSH2 0x2516 JUMP JUMPDEST JUMPDEST DUP3 DUP3 DIV SWAP1 POP SWAP3 SWAP2 POP POP JUMP JUMPDEST PUSH0 DUP2 SWAP1 POP SWAP3 SWAP2 POP POP JUMP JUMPDEST POP JUMP JUMPDEST PUSH0 PUSH2 0x258B PUSH0 DUP4 PUSH2 0x2573 JUMP JUMPDEST SWAP2 POP PUSH2 0x2596 DUP3 PUSH2 0x257D JUMP JUMPDEST PUSH0 DUP3 ADD SWAP1 POP SWAP2 SWAP1 POP JUMP JUMPDEST PUSH0 PUSH2 0x25AA DUP3 PUSH2 0x2580 JUMP JUMPDEST SWAP2 POP DUP2 SWAP1 POP SWAP2 SWAP1 POP JUMP JUMPDEST PUSH32 0x46616C6C6F20616C207265616C697A617220656C207265656D626F6C736F2070 PUSH0 DUP3 ADD MSTORE PUSH32 0x61726369616C2E00000000000000000000000000000000000000000000000000 PUSH1 0x20 DUP3 ADD MSTORE POP JUMP JUMPDEST PUSH0 PUSH2 0x260E PUSH1 0x27 DUP4 PUSH2 0x21F3 JUMP JUMPDEST SWAP2 POP PUSH2 0x2619 DUP3 PUSH2 0x25B4 JUMP JUMPDEST PUSH1 0x40 DUP3 ADD SWAP1 POP SWAP2 SWAP1 POP JUMP JUMPDEST PUSH0 PUSH1 0x20 DUP3 ADD SWAP1 POP DUP2 DUP2 SUB PUSH0 DUP4 ADD MSTORE PUSH2 0x263B DUP2 PUSH2 0x2602 JUMP JUMPDEST SWAP1 POP SWAP2 SWAP1 POP JUMP JUMPDEST PUSH32 0x536F6C6F20656C2070726F706965746172696F20707565646520656A65637574 PUSH0 DUP3 ADD MSTORE PUSH32 0x617220657374612066756E63696F6E0000000000000000000000000000000000 PUSH1 0x20 DUP3 ADD MSTORE POP JUMP JUMPDEST PUSH0 PUSH2 0x269C PUSH1 0x2F DUP4 PUSH2 0x21F3 JUMP JUMPDEST SWAP2 POP PUSH2 0x26A7 DUP3 PUSH2 0x2642 JUMP JUMPDEST PUSH1 0x40 DUP3 ADD SWAP1 POP SWAP2 SWAP1 POP JUMP JUMPDEST PUSH0 PUSH1 0x20 DUP3 ADD SWAP1 POP DUP2 DUP2 SUB PUSH0 DUP4 ADD MSTORE PUSH2 0x26C9 DUP2 PUSH2 0x2690 JUMP JUMPDEST SWAP1 POP SWAP2 SWAP1 POP JUMP JUMPDEST PUSH32 0x4C6F73206465706F7369746F73206E6F2068616E207369646F207265656D626F PUSH0 DUP3 ADD MSTORE PUSH32 0x6C7361646F732E00000000000000000000000000000000000000000000000000 PUSH1 0x20 DUP3 ADD MSTORE POP JUMP JUMPDEST PUSH0 PUSH2 0x272A PUSH1 0x27 DUP4 PUSH2 0x21F3 JUMP JUMPDEST SWAP2 POP PUSH2 0x2735 DUP3 PUSH2 0x26D0 JUMP JUMPDEST PUSH1 0x40 DUP3 ADD SWAP1 POP SWAP2 SWAP1 POP JUMP JUMPDEST PUSH0 PUSH1 0x20 DUP3 ADD SWAP1 POP DUP2 DUP2 SUB PUSH0 DUP4 ADD MSTORE PUSH2 0x2757 DUP2 PUSH2 0x271E JUMP JUMPDEST SWAP1 POP SWAP2 SWAP1 POP JUMP JUMPDEST PUSH32 0x46616C6C6F20616C2072657469726172206C61206F66657274612067616E6164 PUSH0 DUP3 ADD MSTORE PUSH32 0x6F72612E00000000000000000000000000000000000000000000000000000000 PUSH1 0x20 DUP3 ADD MSTORE POP JUMP JUMPDEST PUSH0 PUSH2 0x27B8 PUSH1 0x24 DUP4 PUSH2 0x21F3 JUMP JUMPDEST SWAP2 POP PUSH2 0x27C3 DUP3 PUSH2 0x275E JUMP JUMPDEST PUSH1 0x40 DUP3 ADD SWAP1 POP SWAP2 SWAP1 POP JUMP JUMPDEST PUSH0 PUSH1 0x20 DUP3 ADD SWAP1 POP DUP2 DUP2 SUB PUSH0 DUP4 ADD MSTORE PUSH2 0x27E5 DUP2 PUSH2 0x27AC JUMP JUMPDEST SWAP1 POP SWAP2 SWAP1 POP JUMP JUMPDEST PUSH0 DUP2 ISZERO ISZERO SWAP1 POP SWAP2 SWAP1 POP JUMP JUMPDEST PUSH2 0x2800 DUP2 PUSH2 0x27EC JUMP JUMPDEST DUP3 MSTORE POP POP JUMP JUMPDEST PUSH0 PUSH1 0x20 DUP3 ADD SWAP1 POP PUSH2 0x2819 PUSH0 DUP4 ADD DUP5 PUSH2 0x27F7 JUMP JUMPDEST SWAP3 SWAP2 POP POP JUMP JUMPDEST PUSH32 0x4C612073756261737461206E6F206861207465726D696E61646F000000000000 PUSH0 DUP3 ADD MSTORE POP JUMP JUMPDEST PUSH0 PUSH2 0x2853 PUSH1 0x1A DUP4 PUSH2 0x21F3 JUMP JUMPDEST SWAP2 POP PUSH2 0x285E DUP3 PUSH2 0x281F JUMP JUMPDEST PUSH1 0x20 DUP3 ADD SWAP1 POP SWAP2 SWAP1 POP JUMP JUMPDEST PUSH0 PUSH1 0x20 DUP3 ADD SWAP1 POP DUP2 DUP2 SUB PUSH0 DUP4 ADD MSTORE PUSH2 0x2880 DUP2 PUSH2 0x2847 JUMP JUMPDEST SWAP1 POP SWAP2 SWAP1 POP JUMP JUMPDEST PUSH32 0x4C6120737562617374612061756E206E6F206861207465726D696E61646F2E00 PUSH0 DUP3 ADD MSTORE POP JUMP JUMPDEST PUSH0 PUSH2 0x28BB PUSH1 0x1F DUP4 PUSH2 0x21F3 JUMP JUMPDEST SWAP2 POP PUSH2 0x28C6 DUP3 PUSH2 0x2887 JUMP JUMPDEST PUSH1 0x20 DUP3 ADD SWAP1 POP SWAP2 SWAP1 POP JUMP JUMPDEST PUSH0 PUSH1 0x20 DUP3 ADD SWAP1 POP DUP2 DUP2 SUB PUSH0 DUP4 ADD MSTORE PUSH2 0x28E8 DUP2 PUSH2 0x28AF JUMP JUMPDEST SWAP1 POP SWAP2 SWAP1 POP JUMP JUMPDEST PUSH32 0x46616C6C6F20616C206465766F6C766572206C6F73206465706F7369746F732E PUSH0 DUP3 ADD MSTORE POP JUMP JUMPDEST PUSH0 PUSH2 0x2923 PUSH1 0x20 DUP4 PUSH2 0x21F3 JUMP JUMPDEST SWAP2 POP PUSH2 0x292E DUP3 PUSH2 0x28EF JUMP JUMPDEST PUSH1 0x20 DUP3 ADD SWAP1 POP SWAP2 SWAP1 POP JUMP JUMPDEST PUSH0 PUSH1 0x20 DUP3 ADD SWAP1 POP DUP2 DUP2 SUB PUSH0 DUP4 ADD MSTORE PUSH2 0x2950 DUP2 PUSH2 0x2917 JUMP JUMPDEST SWAP1 POP SWAP2 SWAP1 POP JUMP JUMPDEST PUSH32 0x4E487B7100000000000000000000000000000000000000000000000000000000 PUSH0 MSTORE PUSH1 0x41 PUSH1 0x4 MSTORE PUSH1 0x24 PUSH0 REVERT JUMPDEST PUSH32 0x46616C6C6F20616C2072657469726172206C617320636F6D6973696F6E65732E PUSH0 DUP3 ADD MSTORE POP JUMP JUMPDEST PUSH0 PUSH2 0x29B8 PUSH1 0x20 DUP4 PUSH2 0x21F3 JUMP JUMPDEST SWAP2 POP PUSH2 0x29C3 DUP3 PUSH2 0x2984 JUMP JUMPDEST PUSH1 0x20 DUP3 ADD SWAP1 POP SWAP2 SWAP1 POP JUMP JUMPDEST PUSH0 PUSH1 0x20 DUP3 ADD SWAP1 POP DUP2 DUP2 SUB PUSH0 DUP4 ADD MSTORE PUSH2 0x29E5 DUP2 PUSH2 0x29AC JUMP JUMPDEST SWAP1 POP SWAP2 SWAP1 POP JUMP JUMPDEST PUSH32 0x4C61206F666572746120646562652073657220616C206D656E6F7320756E2035 PUSH0 DUP3 ADD MSTORE PUSH32 0x25206D61796F7220717565206C61206F66657274612067616E61646F72612E00 PUSH1 0x20 DUP3 ADD MSTORE POP JUMP JUMPDEST PUSH0 PUSH2 0x2A46 PUSH1 0x3F DUP4 PUSH2 0x21F3 JUMP JUMPDEST SWAP2 POP PUSH2 0x2A51 DUP3 PUSH2 0x29EC JUMP JUMPDEST PUSH1 0x40 DUP3 ADD SWAP1 POP SWAP2 SWAP1 POP JUMP JUMPDEST PUSH0 PUSH1 0x20 DUP3 ADD SWAP1 POP DUP2 DUP2 SUB PUSH0 DUP4 ADD MSTORE PUSH2 0x2A73 DUP2 PUSH2 0x2A3A JUMP JUMPDEST SWAP1 POP SWAP2 SWAP1 POP JUMP JUMPDEST PUSH32 0x4C6120737562617374612068612066696E616C697A61646F2E00000000000000 PUSH0 DUP3 ADD MSTORE POP JUMP JUMPDEST PUSH0 PUSH2 0x2AAE PUSH1 0x19 DUP4 PUSH2 0x21F3 JUMP JUMPDEST SWAP2 POP PUSH2 0x2AB9 DUP3 PUSH2 0x2A7A JUMP JUMPDEST PUSH1 0x20 DUP3 ADD SWAP1 POP SWAP2 SWAP1 POP JUMP JUMPDEST PUSH0 PUSH1 0x20 DUP3 ADD SWAP1 POP DUP2 DUP2 SUB PUSH0 DUP4 ADD MSTORE PUSH2 0x2ADB DUP2 PUSH2 0x2AA2 JUMP JUMPDEST SWAP1 POP SWAP2 SWAP1 POP JUMP JUMPDEST PUSH32 0x4C612073756261737461207961206861207369646F2066696E616C697A616461 PUSH0 DUP3 ADD MSTORE PUSH32 0x2E00000000000000000000000000000000000000000000000000000000000000 PUSH1 0x20 DUP3 ADD MSTORE POP JUMP JUMPDEST PUSH0 PUSH2 0x2B3C PUSH1 0x21 DUP4 PUSH2 0x21F3 JUMP JUMPDEST SWAP2 POP PUSH2 0x2B47 DUP3 PUSH2 0x2AE2 JUMP JUMPDEST PUSH1 0x40 DUP3 ADD SWAP1 POP SWAP2 SWAP1 POP JUMP JUMPDEST PUSH0 PUSH1 0x20 DUP3 ADD SWAP1 POP DUP2 DUP2 SUB PUSH0 DUP4 ADD MSTORE PUSH2 0x2B69 DUP2 PUSH2 0x2B30 JUMP JUMPDEST SWAP1 POP SWAP2 SWAP1 POP JUMP INVALID LOG2 PUSH5 0x6970667358 0x22 SLT KECCAK256 0xE3 0xE6 RETURN 0xCF DUP13 0xEA SELFBALANCE 0xD3 MSIZE 0xD5 CALLDATACOPY 0xB8 0xF7 0x27 MSTORE POP DUP4 EXTCODESIZE DUP13 DUP8 NUMBER 0xF8 SWAP1 0xB7 SWAP14 PUSH14 0x300CB87E3CB364736F6C63430008 BYTE STOP CALLER "
				},
				"gasEstimates": {
					"creation": {
						"codeDepositCost": "2234800",
						"executionCost": "infinite",
						"totalCost": "infinite"
					},
					"external": {
						"auctionEndTime()": "2448",
						"auctionState()": "2662",
						"bidders(uint256)": "5055",
						"bidsHistory(address,uint256)": "infinite",
						"commissionFunds()": "2491",
						"endAuction()": "38971",
						"highestBid()": "2447",
						"highestBidder()": "2553",
						"offersHistory(uint256)": "infinite",
						"owner()": "2531",
						"partialRefund()": "infinite",
						"partialRefundedAmount(address)": "2891",
						"placeBid()": "infinite",
						"totalBids(address)": "2847",
						"viewDeposits()": "infinite",
						"viewOffers()": "infinite",
						"withdrawCommissions()": "infinite",
						"withdrawDeposits()": "infinite",
						"withdrawWinningBid()": "infinite"
					}
				},
				"methodIdentifiers": {
					"auctionEndTime()": "4b449cba",
					"auctionState()": "7fb45099",
					"bidders(uint256)": "cff29dfd",
					"bidsHistory(address,uint256)": "25abd4c7",
					"commissionFunds()": "eba7bb9d",
					"endAuction()": "fe67a54b",
					"highestBid()": "d57bde79",
					"highestBidder()": "91f90157",
					"offersHistory(uint256)": "7d615e65",
					"owner()": "8da5cb5b",
					"partialRefund()": "1ce2bcf5",
					"partialRefundedAmount(address)": "be35460b",
					"placeBid()": "ecfc7ecc",
					"totalBids(address)": "62c71635",
					"viewDeposits()": "92bff767",
					"viewOffers()": "47343711",
					"withdrawCommissions()": "e34d1e69",
					"withdrawDeposits()": "7cf2ed22",
					"withdrawWinningBid()": "2f49e964"
				}
			},
			"storageLayout": {
				"storage": [
					{
						"astId": 12,
						"contract": "Subasta_Bonaduce.sol:AuctionSubasta",
						"label": "auctionState",
						"offset": 0,
						"slot": "0",
						"type": "t_enum(AuctionState)8"
					},
					{
						"astId": 15,
						"contract": "Subasta_Bonaduce.sol:AuctionSubasta",
						"label": "auctionEndTime",
						"offset": 0,
						"slot": "1",
						"type": "t_uint256"
					},
					{
						"astId": 18,
						"contract": "Subasta_Bonaduce.sol:AuctionSubasta",
						"label": "commissionFunds",
						"offset": 0,
						"slot": "2",
						"type": "t_uint256"
					},
					{
						"astId": 21,
						"contract": "Subasta_Bonaduce.sol:AuctionSubasta",
						"label": "highestBid",
						"offset": 0,
						"slot": "3",
						"type": "t_uint256"
					},
					{
						"astId": 24,
						"contract": "Subasta_Bonaduce.sol:AuctionSubasta",
						"label": "highestBidder",
						"offset": 0,
						"slot": "4",
						"type": "t_address"
					},
					{
						"astId": 27,
						"contract": "Subasta_Bonaduce.sol:AuctionSubasta",
						"label": "owner",
						"offset": 0,
						"slot": "5",
						"type": "t_address"
					},
					{
						"astId": 45,
						"contract": "Subasta_Bonaduce.sol:AuctionSubasta",
						"label": "bidsHistory",
						"offset": 0,
						"slot": "6",
						"type": "t_mapping(t_address,t_array(t_uint256)dyn_storage)"
					},
					{
						"astId": 50,
						"contract": "Subasta_Bonaduce.sol:AuctionSubasta",
						"label": "totalBids",
						"offset": 0,
						"slot": "7",
						"type": "t_mapping(t_address,t_uint256)"
					},
					{
						"astId": 55,
						"contract": "Subasta_Bonaduce.sol:AuctionSubasta",
						"label": "partialRefundedAmount",
						"offset": 0,
						"slot": "8",
						"type": "t_mapping(t_address,t_uint256)"
					},
					{
						"astId": 59,
						"contract": "Subasta_Bonaduce.sol:AuctionSubasta",
						"label": "bidders",
						"offset": 0,
						"slot": "9",
						"type": "t_array(t_address)dyn_storage"
					},
					{
						"astId": 193,
						"contract": "Subasta_Bonaduce.sol:AuctionSubasta",
						"label": "offersHistory",
						"offset": 0,
						"slot": "10",
						"type": "t_array(t_struct(Offer)188_storage)dyn_storage"
					}
				],
				"types": {
					"t_address": {
						"encoding": "inplace",
						"label": "address",
						"numberOfBytes": "20"
					},
					"t_array(t_address)dyn_storage": {
						"base": "t_address",
						"encoding": "dynamic_array",
						"label": "address[]",
						"numberOfBytes": "32"
					},
					"t_array(t_struct(Offer)188_storage)dyn_storage": {
						"base": "t_struct(Offer)188_storage",
						"encoding": "dynamic_array",
						"label": "struct AuctionSubasta.Offer[]",
						"numberOfBytes": "32"
					},
					"t_array(t_uint256)dyn_storage": {
						"base": "t_uint256",
						"encoding": "dynamic_array",
						"label": "uint256[]",
						"numberOfBytes": "32"
					},
					"t_enum(AuctionState)8": {
						"encoding": "inplace",
						"label": "enum AuctionSubasta.AuctionState",
						"numberOfBytes": "1"
					},
					"t_mapping(t_address,t_array(t_uint256)dyn_storage)": {
						"encoding": "mapping",
						"key": "t_address",
						"label": "mapping(address => uint256[])",
						"numberOfBytes": "32",
						"value": "t_array(t_uint256)dyn_storage"
					},
					"t_mapping(t_address,t_uint256)": {
						"encoding": "mapping",
						"key": "t_address",
						"label": "mapping(address => uint256)",
						"numberOfBytes": "32",
						"value": "t_uint256"
					},
					"t_struct(Offer)188_storage": {
						"encoding": "inplace",
						"label": "struct AuctionSubasta.Offer",
						"members": [
							{
								"astId": 184,
								"contract": "Subasta_Bonaduce.sol:AuctionSubasta",
								"label": "bidder",
								"offset": 0,
								"slot": "0",
								"type": "t_address"
							},
							{
								"astId": 187,
								"contract": "Subasta_Bonaduce.sol:AuctionSubasta",
								"label": "amount",
								"offset": 0,
								"slot": "1",
								"type": "t_uint256"
							}
						],
						"numberOfBytes": "64"
					},
					"t_uint256": {
						"encoding": "inplace",
						"label": "uint256",
						"numberOfBytes": "32"
					}
				}
			},
			"userdoc": {
				"events": {
					"AuctionCompleted(bool)": {
						"notice": "Evento que se emite cuando la subasta se ha completado exitosamente "
					},
					"AuctionEnded(address,uint256)": {
						"notice": "Evento que se emite cuando la subasta termina mostrando el ganador y el monto ganador"
					},
					"AuctionExtended(uint256)": {
						"notice": "Evento que se emite cuando la subasta es extendida"
					},
					"BidPlaced(address,uint256)": {
						"notice": "Evento que se emite cuando un postor realiza una nueva oferta"
					},
					"CommissionsWithdrawn(uint256)": {
						"notice": "Evento que se emite cuando el propietario retira las comisiones"
					},
					"DepositWithdrawn(address,uint256)": {
						"notice": "Evento que se emite cuando el owner reenbolsa          los depositos a los postores"
					},
					"PartialRefund(address,uint256)": {
						"notice": "Evento que se emite cuando se realiza un reembolso parcial"
					},
					"WinningBidWithdrawn(uint256)": {
						"notice": "Evento que se emite cuando el propietario retira la oferta ganadora"
					}
				},
				"kind": "user",
				"methods": {
					"auctionEndTime()": {
						"notice": "Hora de finalización de la subasta"
					},
					"auctionState()": {
						"notice": "Estado actual de la subasta"
					},
					"commissionFunds()": {
						"notice": "Fondo acumulado por comisiones de la subasta"
					},
					"constructor": {
						"notice": "Constructor de la subasta, establece el tiempo de duración"
					},
					"endAuction()": {
						"notice": "Finaliza la subasta, indicando el ganador y el monto ganador"
					},
					"highestBid()": {
						"notice": "Oferta más alta actual"
					},
					"highestBidder()": {
						"notice": "Dirección del postor con la oferta más alta"
					},
					"owner()": {
						"notice": "Dirección del propietario de la subasta"
					},
					"partialRefund()": {
						"notice": "Permite a los postores solicitar un reembolso parcial de sus ofertas anteriores"
					},
					"placeBid()": {
						"notice": "Permite a un postor realizar una oferta en la subasta"
					},
					"viewDeposits()": {
						"notice": "Permite ver los depósitos actuales de todos los postores"
					},
					"viewOffers()": {
						"notice": "Permite a cualquier usuario ver el historial completo de ofertas"
					},
					"withdrawCommissions()": {
						"notice": "Permite al propietario retirar las comisiones acumuladas"
					},
					"withdrawDeposits()": {
						"notice": "Permite al propietario reembolsar los depósitos de los postores menos la oferta ganadora          despues de marcar la subasta como finalizada   "
					},
					"withdrawWinningBid()": {
						"notice": "Permite al propietario retirar la oferta ganadora"
					}
				},
				"notice": "Este contrato solo es accesible por el propietario para ciertas funciones         ",
				"version": 1
			}
		}
	}
}