{
	"data": {
		"bytecode": {
			"linkReferences": {},
			"object": "6080604052348015600e575f80fd5b506103eb8061001c5f395ff3fe608060405234801561000f575f80fd5b506004361061004a575f3560e01c806322aacad51461004e57806361bc221a14610058578063854cff2f146100765780639b19251a14610092575b5f80fd5b6100566100c2565b005b610060610163565b60405161006d91906101f4565b60405180910390f35b610090600480360381019061008b919061026b565b610169565b005b6100ac60048036038101906100a7919061026b565b6101c0565b6040516100b991906102b0565b60405180910390f35b5f803373ffffffffffffffffffffffffffffffffffffffff1673ffffffffffffffffffffffffffffffffffffffff1681526020019081526020015f205f9054906101000a900460ff1661014a576040517f08c379a000000000000000000000000000000000000000000000000000000000815260040161014190610323565b60405180910390fd5b60015f81548092919061015c9061036e565b9190505550565b60015481565b60015f808373ffffffffffffffffffffffffffffffffffffffff1673ffffffffffffffffffffffffffffffffffffffff1681526020019081526020015f205f6101000a81548160ff02191690831515021790555050565b5f602052805f5260405f205f915054906101000a900460ff1681565b5f819050919050565b6101ee816101dc565b82525050565b5f6020820190506102075f8301846101e5565b92915050565b5f80fd5b5f73ffffffffffffffffffffffffffffffffffffffff82169050919050565b5f61023a82610211565b9050919050565b61024a81610230565b8114610254575f80fd5b50565b5f8135905061026581610241565b92915050565b5f602082840312156102805761027f61020d565b5b5f61028d84828501610257565b91505092915050565b5f8115159050919050565b6102aa81610296565b82525050565b5f6020820190506102c35f8301846102a1565b92915050565b5f82825260208201905092915050565b7f4e6f2065737461732077686974656c6973746561646f000000000000000000005f82015250565b5f61030d6016836102c9565b9150610318826102d9565b602082019050919050565b5f6020820190508181035f83015261033a81610301565b9050919050565b7f4e487b71000000000000000000000000000000000000000000000000000000005f52601160045260245ffd5b5f610378826101dc565b91507fffffffffffffffffffffffffffffffffffffffffffffffffffffffffffffffff82036103aa576103a9610341565b5b60018201905091905056fea26469706673582212200f24e3d26d2bbf8a5993a719ff2677f250e44188571fff27b56e5343487f352764736f6c634300081a0033",
			"opcodes": "PUSH1 0x80 PUSH1 0x40 MSTORE CALLVALUE DUP1 ISZERO PUSH1 0xE JUMPI PUSH0 DUP1 REVERT JUMPDEST POP PUSH2 0x3EB DUP1 PUSH2 0x1C PUSH0 CODECOPY PUSH0 RETURN INVALID PUSH1 0x80 PUSH1 0x40 MSTORE CALLVALUE DUP1 ISZERO PUSH2 0xF JUMPI PUSH0 DUP1 REVERT JUMPDEST POP PUSH1 0x4 CALLDATASIZE LT PUSH2 0x4A JUMPI PUSH0 CALLDATALOAD PUSH1 0xE0 SHR DUP1 PUSH4 0x22AACAD5 EQ PUSH2 0x4E JUMPI DUP1 PUSH4 0x61BC221A EQ PUSH2 0x58 JUMPI DUP1 PUSH4 0x854CFF2F EQ PUSH2 0x76 JUMPI DUP1 PUSH4 0x9B19251A EQ PUSH2 0x92 JUMPI JUMPDEST PUSH0 DUP1 REVERT JUMPDEST PUSH2 0x56 PUSH2 0xC2 JUMP JUMPDEST STOP JUMPDEST PUSH2 0x60 PUSH2 0x163 JUMP JUMPDEST PUSH1 0x40 MLOAD PUSH2 0x6D SWAP2 SWAP1 PUSH2 0x1F4 JUMP JUMPDEST PUSH1 0x40 MLOAD DUP1 SWAP2 SUB SWAP1 RETURN JUMPDEST PUSH2 0x90 PUSH1 0x4 DUP1 CALLDATASIZE SUB DUP2 ADD SWAP1 PUSH2 0x8B SWAP2 SWAP1 PUSH2 0x26B JUMP JUMPDEST PUSH2 0x169 JUMP JUMPDEST STOP JUMPDEST PUSH2 0xAC PUSH1 0x4 DUP1 CALLDATASIZE SUB DUP2 ADD SWAP1 PUSH2 0xA7 SWAP2 SWAP1 PUSH2 0x26B JUMP JUMPDEST PUSH2 0x1C0 JUMP JUMPDEST PUSH1 0x40 MLOAD PUSH2 0xB9 SWAP2 SWAP1 PUSH2 0x2B0 JUMP JUMPDEST PUSH1 0x40 MLOAD DUP1 SWAP2 SUB SWAP1 RETURN JUMPDEST PUSH0 DUP1 CALLER PUSH20 0xFFFFFFFFFFFFFFFFFFFFFFFFFFFFFFFFFFFFFFFF AND PUSH20 0xFFFFFFFFFFFFFFFFFFFFFFFFFFFFFFFFFFFFFFFF AND DUP2 MSTORE PUSH1 0x20 ADD SWAP1 DUP2 MSTORE PUSH1 0x20 ADD PUSH0 KECCAK256 PUSH0 SWAP1 SLOAD SWAP1 PUSH2 0x100 EXP SWAP1 DIV PUSH1 0xFF AND PUSH2 0x14A JUMPI PUSH1 0x40 MLOAD PUSH32 0x8C379A000000000000000000000000000000000000000000000000000000000 DUP2 MSTORE PUSH1 0x4 ADD PUSH2 0x141 SWAP1 PUSH2 0x323 JUMP JUMPDEST PUSH1 0x40 MLOAD DUP1 SWAP2 SUB SWAP1 REVERT JUMPDEST PUSH1 0x1 PUSH0 DUP2 SLOAD DUP1 SWAP3 SWAP2 SWAP1 PUSH2 0x15C SWAP1 PUSH2 0x36E JUMP JUMPDEST SWAP2 SWAP1 POP SSTORE POP JUMP JUMPDEST PUSH1 0x1 SLOAD DUP2 JUMP JUMPDEST PUSH1 0x1 PUSH0 DUP1 DUP4 PUSH20 0xFFFFFFFFFFFFFFFFFFFFFFFFFFFFFFFFFFFFFFFF AND PUSH20 0xFFFFFFFFFFFFFFFFFFFFFFFFFFFFFFFFFFFFFFFF AND DUP2 MSTORE PUSH1 0x20 ADD SWAP1 DUP2 MSTORE PUSH1 0x20 ADD PUSH0 KECCAK256 PUSH0 PUSH2 0x100 EXP DUP2 SLOAD DUP2 PUSH1 0xFF MUL NOT AND SWAP1 DUP4 ISZERO ISZERO MUL OR SWAP1 SSTORE POP POP JUMP JUMPDEST PUSH0 PUSH1 0x20 MSTORE DUP1 PUSH0 MSTORE PUSH1 0x40 PUSH0 KECCAK256 PUSH0 SWAP2 POP SLOAD SWAP1 PUSH2 0x100 EXP SWAP1 DIV PUSH1 0xFF AND DUP2 JUMP JUMPDEST PUSH0 DUP2 SWAP1 POP SWAP2 SWAP1 POP JUMP JUMPDEST PUSH2 0x1EE DUP2 PUSH2 0x1DC JUMP JUMPDEST DUP3 MSTORE POP POP JUMP JUMPDEST PUSH0 PUSH1 0x20 DUP3 ADD SWAP1 POP PUSH2 0x207 PUSH0 DUP4 ADD DUP5 PUSH2 0x1E5 JUMP JUMPDEST SWAP3 SWAP2 POP POP JUMP JUMPDEST PUSH0 DUP1 REVERT JUMPDEST PUSH0 PUSH20 0xFFFFFFFFFFFFFFFFFFFFFFFFFFFFFFFFFFFFFFFF DUP3 AND SWAP1 POP SWAP2 SWAP1 POP JUMP JUMPDEST PUSH0 PUSH2 0x23A DUP3 PUSH2 0x211 JUMP JUMPDEST SWAP1 POP SWAP2 SWAP1 POP JUMP JUMPDEST PUSH2 0x24A DUP2 PUSH2 0x230 JUMP JUMPDEST DUP2 EQ PUSH2 0x254 JUMPI PUSH0 DUP1 REVERT JUMPDEST POP JUMP JUMPDEST PUSH0 DUP2 CALLDATALOAD SWAP1 POP PUSH2 0x265 DUP2 PUSH2 0x241 JUMP JUMPDEST SWAP3 SWAP2 POP POP JUMP JUMPDEST PUSH0 PUSH1 0x20 DUP3 DUP5 SUB SLT ISZERO PUSH2 0x280 JUMPI PUSH2 0x27F PUSH2 0x20D JUMP JUMPDEST JUMPDEST PUSH0 PUSH2 0x28D DUP5 DUP3 DUP6 ADD PUSH2 0x257 JUMP JUMPDEST SWAP2 POP POP SWAP3 SWAP2 POP POP JUMP JUMPDEST PUSH0 DUP2 ISZERO ISZERO SWAP1 POP SWAP2 SWAP1 POP JUMP JUMPDEST PUSH2 0x2AA DUP2 PUSH2 0x296 JUMP JUMPDEST DUP3 MSTORE POP POP JUMP JUMPDEST PUSH0 PUSH1 0x20 DUP3 ADD SWAP1 POP PUSH2 0x2C3 PUSH0 DUP4 ADD DUP5 PUSH2 0x2A1 JUMP JUMPDEST SWAP3 SWAP2 POP POP JUMP JUMPDEST PUSH0 DUP3 DUP3 MSTORE PUSH1 0x20 DUP3 ADD SWAP1 POP SWAP3 SWAP2 POP POP JUMP JUMPDEST PUSH32 0x4E6F2065737461732077686974656C6973746561646F00000000000000000000 PUSH0 DUP3 ADD MSTORE POP JUMP JUMPDEST PUSH0 PUSH2 0x30D PUSH1 0x16 DUP4 PUSH2 0x2C9 JUMP JUMPDEST SWAP2 POP PUSH2 0x318 DUP3 PUSH2 0x2D9 JUMP JUMPDEST PUSH1 0x20 DUP3 ADD SWAP1 POP SWAP2 SWAP1 POP JUMP JUMPDEST PUSH0 PUSH1 0x20 DUP3 ADD SWAP1 POP DUP2 DUP2 SUB PUSH0 DUP4 ADD MSTORE PUSH2 0x33A DUP2 PUSH2 0x301 JUMP JUMPDEST SWAP1 POP SWAP2 SWAP1 POP JUMP JUMPDEST PUSH32 0x4E487B7100000000000000000000000000000000000000000000000000000000 PUSH0 MSTORE PUSH1 0x11 PUSH1 0x4 MSTORE PUSH1 0x24 PUSH0 REVERT JUMPDEST PUSH0 PUSH2 0x378 DUP3 PUSH2 0x1DC JUMP JUMPDEST SWAP2 POP PUSH32 0xFFFFFFFFFFFFFFFFFFFFFFFFFFFFFFFFFFFFFFFFFFFFFFFFFFFFFFFFFFFFFFFF DUP3 SUB PUSH2 0x3AA JUMPI PUSH2 0x3A9 PUSH2 0x341 JUMP JUMPDEST JUMPDEST PUSH1 0x1 DUP3 ADD SWAP1 POP SWAP2 SWAP1 POP JUMP INVALID LOG2 PUSH5 0x6970667358 0x22 SLT KECCAK256 0xF 0x24 0xE3 0xD2 PUSH14 0x2BBF8A5993A719FF2677F250E441 DUP9 JUMPI 0x1F SELFDESTRUCT 0x27 0xB5 PUSH15 0x5343487F352764736F6C634300081A STOP CALLER "
		},
		"gasEstimates": {
			"creation": {
				"codeDepositCost": "200600",
				"executionCost": "243",
				"totalCost": "200843"
			},
			"external": {
				"counter()": "2425",
				"incCounter()": "26714",
				"setWhitelist(address)": "24825",
				"whitelist(address)": "2876"
			}
		},
		"methodIdentifiers": {
			"counter()": "61bc221a",
			"incCounter()": "22aacad5",
			"setWhitelist(address)": "854cff2f",
			"whitelist(address)": "9b19251a"
		}
	},
	"abi": [
		{
			"inputs": [],
			"name": "counter",
			"outputs": [
				{
					"internalType": "uint256",
					"name": "",
					"type": "uint256"
				}
			],
			"stateMutability": "view",
			"type": "function"
		},
		{
			"inputs": [],
			"name": "incCounter",
			"outputs": [],
			"stateMutability": "nonpayable",
			"type": "function"
		},
		{
			"inputs": [
				{
					"internalType": "address",
					"name": "_addr",
					"type": "address"
				}
			],
			"name": "setWhitelist",
			"outputs": [],
			"stateMutability": "nonpayable",
			"type": "function"
		},
		{
			"inputs": [
				{
					"internalType": "address",
					"name": "",
					"type": "address"
				}
			],
			"name": "whitelist",
			"outputs": [
				{
					"internalType": "bool",
					"name": "",
					"type": "bool"
				}
			],
			"stateMutability": "view",
			"type": "function"
		}
	]
}